:100000000000012071030000590300005B030000A1
:100010005D0300005F0300006103000000000000BA
:10002000000000000000000000000000630300006A
:100030006503000000000000670300006903000082
:100040006B0300006B030000090C00006B03000051
:100050006B0300006B0300006B0300006B030000E8
:100060006B0300006B0300006B0300006B030000D8
:100070006B0300006B0300006B0300006B030000C8
:100080006B0300006B0300006B0300006B030000B8
:100090006B0300006B0300006B0300006B030000A8
:1000A0006B0300006B0300006B0300006B03000098
:1000B0006B0300006B030000000000000000000064
:1000C0006B0300006B0300006B0300006B03000078
:1000D0006B0300006B0300006B03000000000000D6
:1000E0000000000000000000000000000000000010
:1000F0000000000000000000000000000000000000
:1001000000000000000000000000000000000000EF
:1001100000000000000000000000000000000000DF
:1001200000000000000000000000000000000000CF
:1001300000000000000000000000000000000000BF
:1001400000000000000000000000000000000000AF
:10015000000000000000000000000000000000009F
:10016000000000000000000000000000000000008F
:10017000000000000000000000000000000000007F
:10018000000000000000000000000000000000006F
:10019000000000000000000000000000000000005F
:1001A000000000000000000000000000000000004F
:1001B000000000000000000000000000000000003F
:1001C000000000000000000000000000000000002F
:1001D000000000000000000000000000000000001F
:1001E000000000000000000000000000000000000F
:1001F00000000000000000000000000000000000FF
:10020000344935480A1A02D0072291438D463349B2
:1002100033480A1A06D00722914381F30988022243
:1002200082F314882F483049304A00F041F83048B2
:100230003049314A00F03CF830483149314A00F049
:1002400037F831483149324A00F032F83148324902
:10025000324A00F02DF832483249334A00F028F88B
:1002600032483349334A00F023F8334833490022F7
:1002700000F029F832483349002200F024F83248CF
:100280003249091A04F028FF314A90471F48204993
:10029000884205D00268043003B4904703BCF7E7F6
:1002A00000208646EC46002000212A4A9047FEE7BF
:1002B000884207D0521A05D0037801300B70013103
:1002C000013AF9D17047884202D002700130FAE752
:1002D000704700000000012000E000200000012025
:1002E0000000012014560000000000203C00002007
:1002F000CC030000CC030000EC50000014560000BA
:100300000000002000000020EC500000EC50000035
:10031000EC500000EC500000EC500000EC500000ED
:10032000EC500000EC500000115600005056000048
:100330003C0000203C0000203C0000202C0C002051
:100340002C0C0020300C0020300C0020302C002021
:1003500099030000DD260000FEE7FEE7FEE7FEE76A
:10036000FEE7FEE7FEE7FEE7FEE7FEE700F002B885
:10037000FFF7FCBF0F484FF00701884385460E4842
:1003800080470E48016841F470010160BFF34F8F50
:10039000BFF36F8FFFF734BF09480A490A4A884202
:1003A00007D0521A05D0037801300B700131013AA1
:1003B000F9D1704700000120353A000088ED00E0D7
:0C03C000EC5000000000002000000020B5
:1003CC0000487047240C002086B0039002910192E3
:1003DC0001238DF817309DF81730204A039B1360CA
:1003EC001E4A029B53601D4A019B9360039B44F27F
:1003FC000102934212D0039B44F20202934220D199
:10040C00019B164AD360154BDB681B68134A93613A
:10041C00124BDB685B68114AD36112E0019B0F4AF7
:10042C0013610E4B1B699B680C4A53610B4B1B6988
:10043C001B680A4A9361094B1B695B68074AD361C5
:10044C0000BF72B600BF00BF9DF81730DBB2002BA7
:10045C00FAD162B600BF00BF06B070473C00002066
:10046C0000B583B002900091019244F201007146F4
:10047C006A4600F003F803B000BD00BF00B587B0BA
:10048C0003900291019272B600BF039B44F20102E9
:10049C00934207D0039B44F20202934205D1019B85
:1004AC00059303E0019B049300E000BF074B1B681E
:1004BC0003F00103002B00D000BE019A02990398AF
:1004CC00FFF782FF00BF07B05DF804FBF0ED00E022
:1004DC0084B00190019B9B680393019BDA68039B9A
:1004EC00D31A184604B0704782B001900B468DF8B1
:1004FC000330019B1A68019BDB68019989880B40CA
:10050C0013449DF803201A70019BDB685A1C019B55
:10051C00DA6000BF02B0704784B003900B460192C2
:10052C00ADF80A30039B1A68039B9968BDF80A3032
:10053C000B44039989880B4013441A78019B1A7059
:10054C0000BF04B0704700B583B001900091009AD1
:10055C0000210198FFF7E0FF019B9B685A1C019B4F
:10056C009A6000BF03B05DF804FB84B00390029165
:10057C001346ADF80630029B002B01D10E231DE073
:10058C00BDF80630002B07D0BDF806305A1EBDF85A
:10059C0006301340002B01D009230FE0039B029A75
:1005AC001A60BDF80630013B9AB2039B9A80039BFC
:1005BC0000229A60039B0022DA600023184604B0E4
:1005CC00704700B583B001900B468DF8033001984D
:1005DC00FFF77EFF0246019B9B889A4207D89DF845
:1005EC00033019460198FFF77FFF002300E0042336
:1005FC00184603B05DF804FB00B583B00190009180
:10060C000198FFF765FF0346002B05D00099019870
:10061C00FFF799FF002300E00523184603B05DF8AF
:10062C0004FB000000B587B00390029113468DF8CF
:10063C00073000230593039B1B781A46114B9B5CD8
:10064C00002B09D0039B04339DF807200299184610
:10065C0001F0B0FC05900FE0039B1B781A46094B88
:10066C009B5C002B08D1039B0C339DF8072002994F
:10067C00184600F055FE0590059B184607B05DF82E
:10068C0004FB00BF9400002000B587B003900291DA
:10069C0013468DF8073000230593039B1B781A46ED
:1006AC00114B9B5C002B09D0039B04339DF8072056
:1006BC000299184601F054FD05900FE0039B1B783E
:1006CC001A46094B9B5C002B08D1039B0C339DF8FD
:1006DC0007200299184600F003FF0590059B184669
:1006EC0007B05DF804FB00BF9400002084B00190BB
:1006FC00019B9B680393019BDA68039BD31A1846F2
:10070C0004B0704700B587B001900091019B1B7835
:10071C00022B45D0022B6ADC002B52D0012B66D168
:10072C00019B1B7A002B05D1012233493348FFF77B
:10073C00ABFF5DE0019B5B681B7819463048FFF707
:10074C0040FF0590059B002B0AD001238DF80C303F
:10075C00059B04932B4B1B6803AA104698470DE08E
:10076C002748FFF7C3FF0346002B07D000238DF863
:10077C000C30244B1B6803AA104698472048FFF7FF
:10078C00B5FF03461E4A9288934205D801221A49A6
:10079C001A48FFF779FF2BE01B4B01221A7027E058
:1007AC0002238DF80C30019BDB6804930122124963
:1007BC001248FFF769FF134B1B6803AA10469847B2
:1007CC0016E012491248FFF717FF0346002B05D11C
:1007DC0001220E490948FFF725FF09E003238DF894
:1007EC000C30084B1B6803AA1046984700E000BF6A
:1007FC0000BF07B05DF804FB64000020000000207F
:10080C00680000205C0000206500002060000020D3
:10081C007800002030B591B00390029101928DF8D0
:10082C0003303C4A019B1360029B002B01D1072330
:10083C006DE0029B1968029B5B689BB21A463648B6
:10084C00FFF793FE0F900F9B0E930E9B002B01D086
:10085C000E9B5CE0029B9968029BDB689BB21A467C
:10086C002E48FFF782FE0F900F9B0D930D9B002BD4
:10087C0001D00D9B4BE02A4B04AC1D460FCD0FC491
:10088C0095E80F0084E80F00039B5B690A93039BB8
:10089C001B7C002B14BF01230023DBB28DF824300A
:1008AC009DF803308DF82C30039B5B7C002B01D022
:1008BC000E2300E000238DF82530039BDB680693A4
:1008CC00039B9B680793039B1B680593039B5B68C7
:1008DC00049304AB134A1946134800F02FF90F90F8
:1008EC000F9B0C930C9B002B01D00C9B0FE00F4B20
:1008FC0000221A70039B1B68B3F1FF3F06D0012244
:10090C000B490948FFF7C0FE034600E000231846D8
:10091C0011B030BD5C000020680000207800002081
:10092C00EC500000110700000000002065000020C2
:10093C006400002000B587B00190019B002B03D10F
:10094C001449CA2000F093F8134B1B788DF817301C
:10095C0001991248FFF750FE04909DF81730002BB8
:10096C0012D00D4B00221A7001220D490D48FFF7D1
:10097C008BFE0390039B0293029B002B04D0054A31
:10098C00D6210298FFF76CFD049B184607B05DF862
:10099C0004FB00BF0C510000650000206800002023
:1009AC00640000200000002072B600BF034B1B68DF
:1009BC000133024A136000BF704700BF880000205B
:1009CC00064B1B68013B054A1360044B1B68002B4C
:1009DC0001D162B600BF00BF704700BF8800002085
:1009EC0000B583B0019000F025F80346012B03D02D
:1009FC000449432000F03BF8FFF7D6FF00BF03B0DB
:100A0C005DF804FB5451000000B583B003468DF82B
:100A1C00073000F00FF80346012B03D00449512096
:100A2C0000F025F8FFF7CCFF00BF03B05DF804FB26
:100A3C005451000084B0EFF305830193019BC3F381
:100A4C0008030393039B002B0DD1EFF31483009346
:100A5C00009B0293029B03F00103002B0CBF0123AC
:100A6C000023DBB200E00123184604B0704700B548
:100A7C0085B003460091ADF80630BDF80630029300
:100A8C00009B039302AB1A46002144F20200FFF7CD
:100A9C00F5FC00BF05B05DF804FB000000B589B0A3
:100AAC0001900091009B0793019B1B788DF80C30F3
:100ABC00019B5B680493019B9B68DBB28DF814303F
:100ACC00019BDB680693074A079B52F823300649C3
:100ADC00079A51F8221003AA1046984700BF09B094
:100AEC005DF804FB8C0000209000002000B589B05C
:100AFC0001900091009B0793019B1B788DF80C30A3
:100B0C00019B5B680493019B9B68DBB28DF81430EE
:100B1C00019BDB680693074A079B52F82330064972
:100B2C00079A51F8221003AA1046984700BF09B043
:100B3C005DF804FB8C0000209000002030B58FB0D5
:100B4C00039002910192039B1B780C9326490C9BFA
:100B5C00019A41F82320029B1A6924490C9B41F805
:100B6C002320029B5B7F1946214A0C9B13440A46A7
:100B7C001A70029B04AC1D460FCD0FC495E80F00F4
:100B8C0084E80F000C9B089300230D93039B1B78A8
:100B9C001A46174B9B5C002B0DD0039B181D019B19
:100BAC00002B01D0134A00E0002204AB194601F0DF
:100BBC009BF90D9014E0039B1B781A460C4B9B5C25
:100BCC00002B0DD1039B03F10C00019B002B01D0DA
:100BDC00094A00E0002204AB194600F0EDFA0D9032
:100BEC000D9B18460FB030BD8C00002090000020EB
:100BFC0094000020A90A0000F90A000008B5064B71
:100C0C001B68002B03D105495120FFF730FF024B25
:100C1C001B68984700BF08BD98000020A051000039
:100C2C0082B00190019B044A934201D1034B00E036
:100C3C000023184602B070470020004098000020A6
:100C4C0000B587B001900091019B002B03D118498E
:100C5C007720FFF70CFF0198FFF7E2FF0490049B4D
:100C6C00002B1ED000238DF817300020FFF7B8FEA4
:100C7C00049B1B79002B03D001238DF8173005E062
:100C8C00049B009A1A60049B01221A710020FFF742
:100C9C00BBFE9DF81730002B03D011230393039B4D
:100CAC0002E000230393039B184607B05DF804FB96
:100CBC00A051000082B003468DF807309DF9073033
:100CCC00002B0CDB9DF8073003F01F0205499DF942
:100CDC0007305B09012000FA02F241F8232000BF23
:100CEC0002B0704700E100E082B0034600918DF83D
:100CFC0007309DF90730002B0ADB009BDAB20C4958
:100D0C009DF907305201D2B20B4483F800230BE05B
:100D1C00009BDAB207499DF8073003F00F03043B40
:100D2C005201D2B20B441A7600BF02B0704700BF1A
:100D3C0000E100E000ED00E082B00190019B1B0B94
:100D4C005BB2184602B0704700B583B003460A4642
:100D5C008DF8073013468DF806309DF80630072BBA
:100D6C0003D908496B20FFF782FE9DF806209DF9F8
:100D7C00073011461846FFF7B7FF00BF03B05DF808
:100D8C0004FB00BFE451000000B583B003468DF8AE
:100D9C0007309DF907301846FFF78CFF00BF03B0F2
:100DAC005DF804FB84B001900B46ADF80230BDF841
:100DBC000230019A134400221A60BDF80230019AE5
:100DCC0013441B680393039B00BF04B0704782B0AD
:100DDC0001900B46ADF80230BDF80230019A134475
:100DEC001B68002B14BF01230023DBB2184602B092
:100DFC00704782B001900091019B009AC3F80423C4
:100E0C0000BF02B0704782B001900091019BD3F8F3
:100E1C000423009B1340002B14BF01230023DBB2DF
:100E2C00184602B0704782B001900091019B009A65
:100E3C00C3F8082300BF02B0704784B00190019B37
:100E4C00D3F880340393019B039AC3F88024039B4B
:100E5C00184604B0704782B00190019B0422C3F87D
:100E6C00002500BF02B0704784B00390029101923C
:100E7C00039B019AC3F81425039B029AC3F80C2513
:100E8C0000BF04B0704784B0039002910192039BA1
:100E9C00029AC3F80825039B019AC3F8102500BFDA
:100EAC0004B0704782B00190019BD3F81835DBB2C7
:100EBC00184602B0704782B001900B468DF8033093
:100ECC009DF80320019BC3F81C2500BF02B070479E
:100EDC0082B001900B468DF803309DF80330019AD7
:100EEC00134401221A6000BF02B0704782B0019017
:100EFC000B468DF8033013468DF802309DF8032015
:100F0C009DF802301343DBB21A46019BC3F86C25E3
:100F1C0000BF02B0704782B001900091019B009A13
:100F2C00C3F8242500BF02B07047000000B583B0A1
:100F3C000190019B1B68184600F085F80346002BB6
:100F4C0004D105494FF4F670FFF791FD4FF0A04323
:100F5C00184603B05DF804FB1452000000B585B0D0
:100F6C000190084611461A4603468DF803300B468D
:100F7C008DF8023013468DF8013001AB1846FFF79F
:100F8C00D5FF03909DF803209DF802305B001A43B7
:100F9C009DF801309B001A439DF818301B0242EA61
:100FAC0003019DF81C301B04019A1943039B02F5A5
:100FBC00E07243F8221000BF05B05DF804FB00B5E9
:100FCC0085B003900023019300230093002301229A
:100FDC0001210398FFF7C2FF00BF05B05DF804FBC9
:100FEC0000B585B003900B468DF80B309DF80B3097
:100FFC000022019200220092002200210398FFF7A8
:10100C00ADFF00BF05B05DF804FB00B585B00190E5
:10101C0001AB1846FFF78AFF0390019B012202FAED
:10102C0003F31946039800F004F800BF05B05DF80F
:10103C0004FB82B001900091019B009AC3F8082533
:10104C0000BF02B0704784B00190019B5B09029312
:10105C0000230393029B002B03D14FF0FF33039328
:10106C0000BF019B03F01F030193039A019B22FA1B
:10107C0003F303F00103002B14BF01230023DBB2A5
:10108C00184604B0704700B583B001900091009BE6
:10109C001B68B3F1FF3F09D0009B1B681846FFF794
:1010AC00B4FF009B1B681846FFF789FF009B5B6829
:1010BC00B3F1FF3F05D0009B5B6800211846FFF79A
:1010CC008FFF019B1A68009B9B6919461046FFF71E
:1010DC0022FF019B1868009B597D009B1B7D1A46C3
:1010EC00FFF704FF019B1868009B1968009B5B6865
:1010FC001A46FFF7B9FE009B1B7D012B22D1009BEA
:10110C009B68B3F1FF3F05D0009B9B6800211846FC
:10111C00FFF766FF009BDB68B3F1FF3F09D0009B34
:10112C00DB681846FFF771FF009BDB681846FFF77A
:10113C0046FF019B1868009BD968009B9B681A4668
:10114C00FFF7A1FE00BF03B05DF804FB00B583B050
:10115C0001900B468DF80330019B1B684FF48E7188
:10116C001846FFF71FFE019B1B684FF4A27118462F
:10117C00FFF718FE019B1B680E491846FFF739FE56
:10118C00019B1B681846FFF7D7FD03461A469DF8CE
:10119C00033019461046FFF7D7FD019B1B68184614
:1011AC00FFF7CAFD03461846FFF7EEFD00BF03B07C
:1011BC005DF804FB8000020000B587B0039002913B
:1011CC000192029B002B03D12D49AA20FFF74FFC63
:1011DC00039B1B791A462C2302FB03F3294A134465
:1011EC00059300230493059B93F82A30002B03D01E
:1011FC0008230493049B3EE0039B1A68039B1B7912
:10120C001946214B53F8213019461046FFF718FDAB
:10121C000346002B03D011230493049B2BE002996B
:10122C000398FFF730FF059B019A5A60029B1A69DD
:10123C00059B1A60059B5B68002B05D0029B1B7FEE
:10124C0019460398FFF782FF039B1B681846FFF7AC
:10125C0002FE059B00229A61059B0022DA61059B28
:10126C00002283F82920059B00225A61059B01224C
:10127C0083F82A20049B184607B05DF804FB00BFD6
:10128C0044520000A00000208452000000B585B03C
:10129C00019000914FF48E710198FFF783FD009B34
:1012AC009A68009B1B6A13441B788DF80F30009BC7
:1012BC001B6A5A1C009B1A629DF80F301946019844
:1012CC00FFF7F9FD00BF05B05DF804FB00B585B074
:1012DC0001900091009B5B69039316E0009B93F8CF
:1012EC002830DBB2002B01D0002314E04FF48E71B8
:1012FC000198FFF76CFD034683F00103DBB2002B72
:10130C00ECD100990198FFF7C1FF009B1B6A039A6F
:10131C009A42EBD80123184605B05DF804FB000097
:10132C0000B587B0039002910192039B1B791A467A
:10133C002C2302FB03F33C4A13440493049B93F8C1
:10134C002A30012B04D039494FF48C70FFF78FFBF6
:10135C00029B002B04D1354940F21910FFF787FB93
:10136C00019B002B04D131494FF48D70FFF77FFBAB
:10137C00039800F05DF80346002B03D0112305936E
:10138C00059B4CE0049B019A5A61049B029A9A605B
:10139C00049B00221A62049B002283F8282000235D
:1013AC000593039B1B684FF48E711846FFF7FAFCEC
:1013BC00039B1B6808211846FFF78AFD039B1B68DB
:1013CC0004991846FFF762FF049B5B68002B25D13C
:1013DC00039B1B6804991846FFF778FF034683F0BC
:1013EC000103DBB2002B02D00F23059313E000BFE7
:1013FC00039B1B684FF48E711846FFF7E8FC0346FD
:10140C0083F00103DBB2002BF2D1039B1B680C2190
:10141C001846FFF75DFD049B00225A61059B184698
:10142C0007B05DF804FB00BFA00000204452000090
:10143C0082B00190019B1B791946074A2C2301FBB2
:10144C0003F3134414331B68002B14BF0123002334
:10145C00DBB2184602B07047A000002000B583B084
:10146C000190019B1B684FF492711846FFF79AFC90
:10147C00019B1B684FF484711846FFF793FC019B8A
:10148C001B6800211846FFF723FD00BF03B05DF871
:10149C0004FB10B582B001900091009B9B69002B5E
:1014AC0008D14FF484710198FFF77CFC0198FFF789
:1014BC00F9FC13E04FF484710198FFF773FC009B67
:1014CC00DA68009B5B6AD4180198FFF7EBFC0346C3
:1014DC002370009B5B6A5A1C009B5A6202B010BDC1
:1014EC0000B589B0039002910192039B1B791A46B7
:1014FC002C2302FB03F37F4A13440693039B1B79B3
:10150C0019467C4A2C2301FB03F313442A331B7822
:10151C00012B04D078494FF4B670FFF7A8FA029B60
:10152C00002B04D1744940F26D10FFF7A0FA019B17
:10153C00002B04D170494FF4B770FFF798FA0023D1
:10154C008DF81F30069B5B68002B06D0039B1B6835
:10155C004FF401711846FFF766FC069B9B69002B44
:10156C0015D0069BDB69002B0ED0069B5B68002B0D
:10157C0006D0039B1B684FF401711846FFF739FC2A
:10158C0011230593059BB0E001238DF81F309DF8C6
:10159C001F3083F00103DBB2002B0CD0069B019AA9
:1015AC009A61069B029ADA60069B00225A62069B9D
:1015BC000022DA6105E0069B029A1A61069B019AE9
:1015CC00DA61069B93F8293083F00103DBB2002B20
:1015DC0009D09DF81F3083F00103DBB2002B02D041
:1015EC000398FFF73BFF069B5B68002B73D1039BB3
:1015FC001B684FF4A2711846FFF7D4FB039B1B68C2
:10160C004FF492711846FFF7E2FB03468DF8133046
:10161C00039B1B684FF484711846FFF7D8FB0346F5
:10162C008DF81230039B1B684FF4A2711846FFF71C
:10163C00CEFB03468DF811309DF8123083F0010378
:10164C00DBB2002B0DD09DF8113083F00103DBB21F
:10165C00002B06D09DF8133083F00103DBB2002B76
:10166C00CCD19DF81330002B0FD19DF81130002BED
:10167C000BD1039B1B6806991846FFF70AFF069BC4
:10168C009A69069B5B6A9A42B8D8069B00229A61BB
:10169C009DF81330002B03D003230593059B24E006
:1016AC009DF81130002B03D00F230593059B1CE0F4
:1016BC00069B93F82930002B06D0039B1B68002156
:1016CC001846FFF705FC0DE0039B1B680421184628
:1016DC00FFF7FEFB06E0039B1B684FF401711846F5
:1016EC00FFF787FB00230593059B184609B05DF8AF
:1016FC0004FB00BFA00000204452000000B589B0DC
:10170C0003900291019201238DF81030029B0693F5
:10171C00019B0593039B5B68039A116804AA10460E
:10172C00984700BF09B05DF804FB00B587B0019085
:10173C00009100238DF80830009B0493019B9B685B
:10174C000393019B00225A61019B5B68019A11680B
:10175C0002AA1046984700BF07B05DF804FB00B51D
:10176C008BB0019000914FF400710198FFF74BFB87
:10177C000346002B39D04FF492710198FFF727FBE9
:10178C000346002B31D04FF492710198FFF70AFBFE
:10179C004FF401710198FFF746FB009B93F8293039
:1017AC0083F00103DBB2002B03D004210198FFF777
:1017BC008FFB02238DF80C300198FFF73EFB03469C
:1017CC000693009B9B690593009BDB680493009B2D
:1017DC0000229A61009B0022DA61009B5B68009AF0
:1017EC00116803AA1046984752E004210198FFF7AC
:1017FC000AFB0346002B4BD04FF484710198FFF782
:10180C00E6FA0346002B43D000990198FFF741FEFE
:10181C00009B9A69009B5B6A9A4239D1009BDB69F9
:10182C00002B19D0009BDB680993009B5B6A089323
:10183C00009BDA69009B9A61009B1A69009BDA6035
:10184C00009B0022DA61009B00225A62099A0899D7
:10185C000098FFF753FF1BE0009B93F8293083F0AF
:10186C000103DBB2002B03D004210198FFF730FBFE
:10187C004FF401710198FFF7D6FA009B00229A6190
:10188C00009B596A009BDB681A460098FFF736FFED
:10189C004FF48E710198FFF79AFA0346002B24D06F
:1018AC00009B5B690793009B1B6A079A9A420DD9B0
:1018BC00009B93F82830DBB283F00103DBB2002BE2
:1018CC0004D000990198FFF7E1FC0EE04FF48E7103
:1018DC000198FFF767FA009B5B69002B05D0009B12
:1018EC005B6919460098FFF720FF4FF4A27101982D
:1018FC00FFF76DFA0346002B1CD04FF4A271019830
:10190C00FFF750FA009B93F82930002B03D00021ED
:10191C000198FFF7DDFA009B9B69002B0AD0009B16
:10192C0000229A61009B596A009BDB681A4600985A
:10193C00FFF7E4FE00BF0BB05DF804FB08B50349EC
:10194C000348FFF70CFF00BF08BD00BFA00000203C
:10195C000020004082B003468DF807309DF9073017
:10196C00002B0CDB9DF8073003F01F0205499DF995
:10197C0007305B09012000FA02F241F8232000BF76
:10198C0002B0704700E100E082B0034600918DF890
:10199C0007309DF90730002B0ADB009BDAB20C49AB
:1019AC009DF907305201D2B20B4483F800230BE0AF
:1019BC00009BDAB207499DF8073003F00F03043B94
:1019CC005201D2B20B441A7600BF02B0704700BF6E
:1019DC0000E100E000ED00E082B00190019B03F01B
:1019EC006043B3F1005F0CBF01230023DBB2184648
:1019FC0002B0704782B00190019B1B0B5BB2184682
:101A0C0002B0704700B583B003460A468DF8073024
:101A1C0013468DF806309DF80630072B03D908497C
:101A2C006B20FFF724F89DF806209DF9073011462E
:101A3C001846FFF7A9FF00BF03B05DF804FB00BF19
:101A4C008852000000B583B003468DF807309DF92D
:101A5C0007301846FFF77EFF00BF03B05DF804FBAC
:101A6C0084B001900B46ADF80230BDF80230019AFB
:101A7C00134400221A60BDF80230019A13441B680B
:101A8C000393039B00BF04B0704782B001900B46D8
:101A9C00ADF80230BDF80230019A13441B68002BDC
:101AAC0014BF01230023DBB2184602B0704782B08A
:101ABC0001900091019BD3F80022009B1A43019BDB
:101ACC00C3F8002200BF02B0704782B001900091B1
:101ADC00019BD3F80022009BDB431A40019BC3F807
:101AEC00002200BF02B0704782B001900091019BB0
:101AFC00009AC3F8042300BF02B0704782B0019073
:101B0C000091019B009AC3F8082300BF02B07047F4
:101B1C0084B00190019BD3F880340393019B039A0A
:101B2C00C3F88024039B184604B0704782B0019020
:101B3C00019B0822C3F8002500BF02B0704784B097
:101B4C00039002910192039B029AC3F80C25039B0C
:101B5C00019AC3F8142500BF04B0704784B00390F9
:101B6C0002910192039B029AC3F80825039B019AE8
:101B7C00C3F8102500BF04B0704782B001900B462B
:101B8C008DF803309DF80330019A134401221A603A
:101B9C0000BF02B0704782B001900B468DF8033045
:101BAC0013468DF802309DF803209DF80230134344
:101BBC00DBB21A46019BC3F86C2500BF02B070471C
:101BCC0082B001900091019B009AC3F8242500BFBC
:101BDC0002B0704784B0039002910192029A039B69
:101BEC00C3F84425039B019AC3F8482500BF04B0F1
:101BFC00704782B00190019BD3F84C35184602B067
:101C0C00704784B0039002910192029A039BC3F82F
:101C1C003425039B019AC3F8382500BF04B07047E4
:101C2C0082B00190019BD3F83C35184602B0704746
:101C3C0000B583B00190019B1B68184600F085F835
:101C4C000346002B04D105494FF4F670FEF70FFF45
:101C5C004FF0A043184603B05DF804FBB8520000E7
:101C6C0000B585B00190084611461A4603468DF81A
:101C7C0003300B468DF8023013468DF8013001AB62
:101C8C001846FFF7D5FF03909DF803209DF802300E
:101C9C005B001A439DF801309B001A439DF81830E5
:101CAC001B0242EA03019DF81C301B04019A1943E4
:101CBC00039B02F5E07243F8221000BF05B05DF8FB
:101CCC0004FB00B585B0039000230193002300931F
:101CDC000023012201210398FFF7C2FF00BF05B0CA
:101CEC005DF804FB00B585B003900B468DF80B3006
:101CFC009DF80B300022019200220092002200215C
:101D0C000398FFF7ADFF00BF05B05DF804FB00B50D
:101D1C0085B0019001AB1846FFF78AFF0390019B39
:101D2C00012202FA03F31946039800F004F800BFED
:101D3C0005B05DF804FB82B001900091019B009A04
:101D4C00C3F8082500BF02B0704784B00190019B16
:101D5C005B09029300230393029B002B03D14FF0EA
:101D6C00FF33039300BF019B03F01F030193039AFE
:101D7C00019B22FA03F303F00103002B14BF012390
:101D8C000023DBB2184604B0704700B583B0019055
:101D9C000091009B1B68B3F1FF3F09D0009B1B68AF
:101DAC001846FFF7B4FF009B1B681846FFF789FF26
:101DBC00009B5B68B3F1FF3F05D0009B5B68002183
:101DCC001846FFF78FFF019B1A68009B9B69194609
:101DDC001046FFF7F5FE019B1868009B597D009B90
:101DEC001B7D1A46FFF7D7FE019B1868009B1968EC
:101DFC00009B5B681A46FFF7A2FE009B1B7D012B24
:101E0C0022D1009B9B68B3F1FF3F05D0009B9B68E0
:101E1C0000211846FFF766FF009BDB68B3F1FF3F1C
:101E2C0009D0009BDB681846FFF771FF009BDB684D
:101E3C001846FFF746FF019B1868009BD968009B6A
:101E4C009B681A46FFF78AFE00BF03B05DF804FBDF
:101E5C0000B583B001900B468DF80330019B1B68D5
:101E6C004FF488711846FFF7FBFD019B1B684FF47C
:101E7C0090711846FFF7F4FD019B1B684FF49271AB
:101E8C001846FFF7EDFD019B1B684FF4A271184635
:101E9C00FFF7E6FD019B1B684FF4AC711846FFF78A
:101EAC00DFFD019B1B680F491846FFF71DFE019BC8
:101EBC001B681846FFF79EFD03461A469DF8033033
:101ECC0019461046FFF79EFD019B1B681846FFF74D
:101EDC0091FD03461846FFF7B5FD00BF03B05DF852
:101EEC0004FB00BF1003420000B587B003900291C1
:101EFC000192029B002B03D12B49CF20FEF7B7FD9B
:101F0C00039B1B791A461346DB0013449B00274A9C
:101F1C001344059300230493059B93F82030002B66
:101F2C0003D008230493049B3AE0039B1A68039B99
:101F3C001B7919461E4B53F8213019461046FEF7F3
:101F4C007FFE0346002B03D011230493049B27E050
:101F5C0002990398FFF719FF059B019A5A60029B9F
:101F6C001A69059B1A60059B5B68002B05D0029BC8
:101F7C001B7F19460398FFF76BFF039B1B681846E2
:101F8C00FFF7D4FD059B00229A61059B0022DA61C4
:101F9C00059B00225A61059B012283F82020049B9B
:101FAC00184607B05DF804FBE8520000CC00002096
:101FBC002C53000000B589B0039002910192039B51
:101FCC001B791A461346DB0013449B00564A1344F4
:101FDC000693069B93F82030012B04D0534940F212
:101FEC005310FEF744FD029B002B04D14F494FF4D4
:101FFC00AA70FEF73CFD019B002B04D14B4940F22B
:10200C005510FEF734FD039B1B79002B02D1019B6D
:10201C00FF2B04D945494FF4AB70FEF728FD02980D
:10202C00FFF7DAFC034683F00103DBB2002B03D08D
:10203C0010230793079B73E0039800F079F803468D
:10204C00002B03D011230793079B69E0069B019A91
:10205C005A61069B029A9A6000230793039B1B68A4
:10206C004FF490711846FFF7FBFC039B1B684FF471
:10207C00AC711846FFF7F4FC039B1868069B996833
:10208C00069B5B691A46FFF7A5FD039B1B6808219D
:10209C001846FFF772FD069B5B68002B3FD1039B34
:1020AC001B684FF490711846FFF7EFFC03468DF850
:1020BC001730039B1B684FF4AC711846FFF7E5FC17
:1020CC0003468DF816309DF8173083F00103DBB210
:1020DC00002B06D09DF8163083F00103DBB2002BE9
:1020EC00DDD19DF81630002B02D00F23079313E09F
:1020FC00039B1B680C211846FFF73FFD00BF039B99
:10210C001B684FF4AC711846FFF7BFFC034683F015
:10211C000103DBB2002BF2D1069B00225A61079B14
:10212C00184609B05DF804FBCC000020E852000012
:10213C0082B00190019B1B791946084A0B46DB00C3
:10214C000B449B00134414331B68002B14BF012356
:10215C000023DBB2184602B0704700BFCC00002051
:10216C0000B589B0039002910192039B1B791A462A
:10217C001346DB0013449B00864A13440593039BD0
:10218C001B791946834A0B46DB000B449B00134416
:10219C0020331B78012B04D07F494FF4D370FEF70A
:1021AC0066FC029B002B04D17B4940F2A710FEF782
:1021BC005EFC019B002B04D177494FF4D470FEF7E1
:1021CC0056FC039B1B79002B02D1019BFF2B04D9DE
:1021DC00714940F2A910FEF74AFC0298FFF7FCFB8C
:1021EC00034683F00103DBB2002B03D010230793CB
:1021FC00079BCAE000238DF81B30059B5B68002B06
:10220C0006D0039B1B684FF404711846FFF776FC4D
:10221C00059B9B69002B15D0059BDB69002B0ED011
:10222C00059B5B68002B06D0039B1B684FF4047165
:10223C001846FFF759FC11230793079BA5E00123D0
:10224C008DF81B309DF81B3083F00103DBB2002BA3
:10225C0009D0059B019A9A61059B029ADA60059B4D
:10226C000022DA6105E0059B029A1A61059B019A2E
:10227C00DA6100230793039B1B684FF4887118469F
:10228C00FFF7EEFB039B1B684FF4A2711846FFF798
:10229C00E7FB039B1B68019A02991846FFF7B1FCF8
:1022AC009DF81B3083F00103DBB2002B06D0039B9F
:1022BC001B6800211846FFF760FC05E0039B1B68B8
:1022CC0020211846FFF7F3FB039B1B791946314A73
:1022DC000B46DB000B449B00134404331B68002BA0
:1022EC004BD1039B1B684FF488711846FFF7CDFB4D
:1022FC0003468DF81330039B1B684FF4A2711846EC
:10230C00FFF7C3FB03468DF81230039B1B684FF499
:10231C0092711846FFF7B9FB03468DF811309DF802
:10232C00133083F00103DBB2002B0DD09DF812307B
:10233C0083F00103DBB2002B06D09DF8113083F043
:10234C000103DBB2002BCCD1039B1B791946114A3C
:10235C000B46DB000B449B001344183300221A601D
:10236C009DF81130002B01D0032307939DF81230F8
:10237C00002B09D00F23079306E0039B1B684FF437
:10238C0004711846FFF7B0FB079B184609B05DF8BF
:10239C0004FB00BFCC000020E852000000B589B05F
:1023AC0003900291019201238DF81030029B069349
:1023BC00019B0593039B5B68039A116804AA104662
:1023CC00984700BF09B05DF804FB00B587B00190D9
:1023DC00009100238DF80830009B0493019B9B68AF
:1023EC000393019B00225A61019B5B68019A11685F
:1023FC0002AA1046984700BF07B05DF804FB00B571
:10240C0089B0019000914FF492710198FFF73DFB58
:10241C000346002B22D04FF492710198FFF720FB5A
:10242C0002238DF808300198FFF772FB03460593E1
:10243C000198FFF7F5FB03460493009BDB680393BD
:10244C00009B00229A61009B0022DA61009B5B6872
:10245C00009A116802AA104698473BE04FF4887125
:10246C000198FFF712FB0346002B33D04FF4887111
:10247C000198FFF7F5FA0198FFF7D2FB0790009B44
:10248C009B69079A9A4225D1009BDB69002B17D0D8
:10249C00009BDB68069320210198FFF716FB009B3D
:1024AC00DA69009B9A61009B1A69009BDA60009BB9
:1024BC000022DA61069A07990098FFF76FFF09E08E
:1024CC00009B00229A61009BDB681A4607990098D2
:1024DC00FFF764FF4FF4A2710198FFF7D6FA034699
:1024EC00002B18D04FF4A2710198FFF7B9FA009B9A
:1024FC009B69002B0FD0009B00229A61009B00224D
:10250C00DA610198FFF78CFB0146009BDB681A46E9
:10251C000098FFF743FF4FF490710198FFF7B5FA5D
:10252C000346002B14D04FF490710198FFF798FAE2
:10253C000C210198FFF721FB009B5B69002B07D056
:10254C000198FFF756FB034619460098FFF73DFF2D
:10255C004FF4AC710198FFF798FA0346002B10D09A
:10256C004FF4AC710198FFF77BFA009B5B69002B71
:10257C0007D00198FFF73DFB034619460098FFF77B
:10258C0024FF00BF09B05DF804FB000008B5034947
:10259C000348FFF734FF00BF08BD00BFCC0000208C
:1025AC000020004000B585B00190019B002B0AD0A3
:1025BC00074B43F001030393019B9B010293039B85
:1025CC000298984700E000BF05B05DF804FB00BF1F
:1025DC00A053000000B583B00190019B002B0AD0E2
:1025EC004FF47A70FFF7DEFF019B013B0193019BD7
:1025FC00002BF5D100E000BF03B05DF804FB000038
:10260C0000B583B00190019B1B78022B06D0022BE6
:10261C0022DC002B12D0012B08D01DE0019B5B6843
:10262C00104A2F211846FDF71BFF16E0019B5B6833
:10263C000C4A35211846FDF713FF0EE00A48FEF749
:10264C0079F9094B1B78184600F0A4F8064B1B7857
:10265C00184601F0FBFB00E000BF00BF03B05DF8C3
:10266C0004FB00BF305300003402002030B58DB0A5
:10267C00124B04AC1D460FCD0FC495E8030084E843
:10268C0003000F4B0093802301930E4B0293802386
:10269C000393694604A807230B4AFEF7BBF80B907B
:1026AC000B9B0A930A9B002B04D0084A52210A98D0
:1026BC00FDF7D6FE00BF0DB030BD00BF7853000053
:1026CC0040020020C00200200D2600003053000004
:1026DC0008B5FFF7CBFF00F04BF81C4800F0CAF828
:1026EC000346012B11D11A491A4800F027F91A494F
:1026FC00174800F08FF90346002B03D1174B022229
:10270C001A6002E0154B01221A6041F28830FFF783
:10271C0061FF134800F0AEF80346012B11D11149AB
:10272C000C4800F00BF910490E4800F083FC0346EE
:10273C00002B03D10D4B02221A6002E00B4B01223D
:10274C001A6041F28830FFF745FFC6E7905300004E
:10275C00F000002094530000F0010020380200200B
:10276C0098530000700100201C0200203C02002045
:10277C00064B1B6800221A70044B1B6800225A700F
:10278C00024B034A1A6000BF704700BF4407002089
:10279C004003002082B003468DF807300B4B1B68BA
:1027AC000A4A12681278D2B213449DF807209A7024
:1027BC00064B1B681A78D2B20132D2B21A70034B94
:1027CC001B681B7800BF02B0704700BF4407002095
:1027DC0082B000238DF807300A4B1B681B78DAB2E5
:1027EC00084B1B685B78DBB29A4202D19DF807302C
:1027FC0004E001238DF807309DF80730184602B02D
:10280C00704700BF4407002082B00C4B1B680B4A7A
:10281C0012685278D2B213449B788DF80730074B6C
:10282C001B685A78D2B20132D2B25A70034B1B6871
:10283C005B789DF80730184602B0704744070020BB
:10284C000B4B1B685B78DAB2094B1B681B78DBB24D
:10285C009A4202D14FF0FF3307E0054B1B68044A44
:10286C0012685278D2B213449B781846704700BF56
:10287C004407002000B585B0019000230393019814
:10288C0002F066FA0346029300BFFFF7A1FF03466E
:10289C00012BFAD113E0284B1B685B78DAB2264B7C
:1028AC001B681B78DBB29A4207D0234B1B685A7803
:1028BC00D2B20132D2B25A7001E0002337E0FFF7F6
:1028CC00BFFF0146039B019A13441B789942E2D146
:1028DC0015E0039B01330393174B1B685A78D2B254
:1028EC000132D2B25A70039A029B9A4201D101234F
:1028FC001DE000BFFFF76CFF0346012BFAD1FFF779
:10290C009FFF0146039B019A13441B789942E0D028
:10291C00039A029B9A4202D000230393B4E7029BD2
:10292C000393039B002B01D0012300E000231846E6
:10293C0005B05DF804FB00BF4407002010B586B05D
:10294C000190009100230593019802F001FA0346CF
:10295C000393002304931CE02D4B1A682C4B1B682B
:10296C005B78DBB21846049B00990B4402449278C6
:10297C001A70274B1B685A78D2B20132D2B25A70F5
:10298C00049B0133049300BFFFF722FF0346002B87
:10299C00FAD0FFF755FF0146059B019A13441B78AB
:1029AC009942D9D119E0059B01330593049B5A1C1C
:1029BC0004921A46009B9C18FFF726FF03462370CF
:1029CC00039B0593059B002B01D001231CE000BF4A
:1029DC00FFF7FEFE0346002BFAD0FFF731FF01464E
:1029EC00059B019A13441B789942DCD0059A039BF2
:1029FC009A4202D000230593ADE7059A039B9A42B5
:102A0C0001D1012300E00023184606B010BD00BF21
:102A1C0044070020F0B58DB00190009100230B937A
:102A2C0000230A9302E00B9B01330B930B9B019A3F
:102A3C0013441B782C2BF6D10B9B01330B9302E028
:102A4C000B9B01330B930B9B019A13441B782C2B80
:102A5C00F6D10B9B01330B9302E00B9B01330B93D1
:102A6C000B9B019A13441B782C2BF6D10B9B013337
:102A7C000B9302E00B9B01330B930B9B019A1344BA
:102A8C001B782C2BF6D10B9B01330B9302E00B9B89
:102A9C0001330B930B9B019A13441B782C2BF6D10F
:102AAC000B9B01330B9302E00B9B01330B930B9BA2
:102ABC00019A13441B782C2BF6D10B9B01330B93EF
:102ACC000B9B019A13441B78312B0BD00B9B019A57
:102ADC0013441B78322B05D00B9B019A13441B78A3
:102AEC00362B05D1009B0122DA6100230B9307E002
:102AFC00009B0022DA6101238EE20B9B01330B93C6
:102B0C000B9B019A13441B782C2BF6D10B9B013396
:102B1C000B9300230A9302AB0C220021184602F0FF
:102B2C007DF90EE00B9B019A1344197802AA0A9BBB
:102B3C0013440A461A700A9B01330A930B9B013308
:102B4C000B930B9B019A13441B782C2BEAD102ABF1
:102B5C00184601F0BFF803469C4A82FB031212137D
:102B6C00DB17D21A9A4B1B689A4981FB0301491156
:102B7C00DB17CB1A1344984A136002AB184601F0CA
:102B8C00A9F80346934A82FB03125211DB17D31A9E
:102B9C00904A82FB03125111DA178A1A642101FB45
:102BAC0002F29A1A8A4B19688A4B83FB010358115B
:102BBC00CB17C31A642000FB03F3CB1A1344874AC8
:102BCC001360864B1B683B2B09DD844B1B683C3B1D
:102BDC00824A1360804B1B6801337F4A13607E4B23
:102BEC001B68002B09DA7C4B1B6818337A4A13607C
:102BFC007B4B1B68013B7A4A1360774B1B68172B86
:102C0C0007DD754B1B68183B734A1360744B01222C
:102C1C001A60714B1A68009B1A61704B1A68009B02
:102C2C005A6102AB184601F055F80246694B83FB1A
:102C3C0002135911D317CB1A642101FB03F3D31AD6
:102C4C00009A93610B9B01330B9300230A9302AB05
:102C5C000C220021184602F0E1F80EE00B9B019AC1
:102C6C001344197802AA0A9B13440A461A700A9B49
:102C7C0001330A930B9B01330B930B9B019A134467
:102C8C001B782C2BEAD102AB184602F061F80346F4
:102C9C00052B01D80223BFE102AB184601F01AF84C
:102CAC000346ADF822300023099302E0099B01335F
:102CBC00099302AA099B13441B782E2BF6D1099B6E
:102CCC000133099302AB184602F042F80246099B05
:102CDC00D31A0793099B02AA1344184600F0FAFF73
:102CEC000690BDF82230184601F0C0FB4FF00002F0
:102CFC003C4B01F097FA02460B4616461F460698C7
:102D0C0001F0B4FB04460D46079B0233184601F054
:102D1C00ADFB02460B4643EC112B9FED2A0B01F049
:102D2C00F9FD53EC102B2046294601F07BFA0246A4
:102D3C000B463046394601F0B9F802460B461046B0
:102D4C00194601F0A5FB03460593009B059A1A60F2
:102D5C000B9B01330B930B9B019A13441A78009B2A
:102D6C001A710B9B01330B930B9B01330B9302AB2F
:102D7C000C220021184602F051F800230A930EE0B1
:102D8C000B9B019A1344197802AA0A9B13440A4616
:102D9C001A700A9B01330A930B9B01330B930B9B09
:102DAC00019A13441B782C2BEAD102AB184600F085
:102DBC0091FF0346ADF822300023099317E000BFC2
:102DCC00AFF300800000000000002440AD8BDB68F6
:102DDC00140000201F85EB51480700204C070020F1
:102DEC005C07002000005940099B0133099302AA9B
:102DFC00099B13441B782E2BF6D1099B01330993A5
:102E0C0002AB184601F0A4FF0246099BD31A0793A4
:102E1C00099B02AA1344184600F05CFF0690BDF80B
:102E2C002230184601F022FB4FF000027F4B01F0DC
:102E3C00F9F902460B4616461F46069801F016FB9A
:102E4C0004460D46079B0233184601F00FFB024661
:102E5C000B4643EC112B9FED730B01F05BFD53EC18
:102E6C00102B2046294601F0DDF902460B46304670
:102E7C00394601F01BF802460B461046194601F084
:102E8C0007FB03460593009B059A9A600B9B013345
:102E9C000B930B9B019A13441A78009B1A730B9B90
:102EAC0001330B930B9B01330B930B9B01330B9354
:102EBC000B9B01330B9302AB0C220021184601F043
:102ECC00ADFF00230A930EE00B9B019A1344197873
:102EDC0002AA0A9B13440A461A700B9B01330B93EC
:102EEC000A9B01330A930B9B019A13441B782C2BDE
:102EFC00EAD102AB184600F0EDFE0246009B9A6246
:102F0C000B9B01330B9302E00B9B01330B930B9B3D
:102F1C00019A13441B782C2BF6D10B9B01330B938A
:102F2C0002AB0C220021184601F078FF00230A9313
:102F3C000EE00B9B019A1344197802AA0A9B1344C6
:102F4C000A461A700A9B01330A930B9B01330B93AD
:102F5C000B9B019A13441B782C2BEAD102AB18461D
:102F6C0000F0B8FE0346ADF822300023099302E0CE
:102F7C00099B0133099302AA099B13441B782E2B3E
:102F8C00F6D1099B0133099302AB184601F0E0FE20
:102F9C000246099BD31A0793099B02AA13441846AD
:102FAC0000F098FE0690BDF82230184601F05EFA4B
:102FBC0004460D46069801F059FA06460F46079846
:102FCC0001F054FA02460B4643EC112B9FED150B06
:102FDC0001F0A0FC53EC102B3046394601F022F9DD
:102FEC0002460B462046294600F060FF02460B467F
:102FFC001046194601F04CFA03460593009B059ABE
:10300C001A620B9B01330B930B9B019A13441A7896
:10301C00009B83F82420002318460DB0F0BD00BFA0
:10302C00AFF3008000000000000024400000594075
:10303C0000000000F0B591B00190009100230F93B7
:10304C0000230E9302E00F9B01330F930F9B019A09
:10305C0013441B782C2BF6D10F9B01330F9302E0FA
:10306C000F9B01330F930F9B019A13441B782C2B4E
:10307C00F6D10F9B01330F930F9B019A13441B78CE
:10308C00412B09D1009B01225A610F9B01330F93F5
:10309C000F9B01330F9307E0009B00225A61012321
:1030AC009BE10F9B01330F930F9B019A13441B78E9
:1030BC002C2BF6D10F9B01330F9302E00F9B0133A6
:1030CC000F930F9B019A13441B782C2BF6D10F9B5B
:1030DC0001330F9302E00F9B01330F930F9B019A67
:1030EC0013441B782C2BF6D10F9B01330F9302E06A
:1030FC000F9B01330F930F9B019A13441B782C2BBE
:10310C00F6D10F9B01330F9302AB0C220021184612
:10311C0001F084FE00230E9300230D930EE00F9B11
:10312C00019A1344197802AA0E9B13440A461A708A
:10313C000E9B01330E930F9B01330F930F9B019A40
:10314C0013441B782C2BEAD102AB1B78002B59D0E3
:10315C0002AB184600F0BEFD03468DF83330002359
:10316C000D9302E00D9B01330D9302AA0D9B1344AA
:10317C001B782E2BF6D10D9B01330D9302AB184609
:10318C0001F0E6FD02460D9BD31A0B930D9B02AA90
:10319C001344184600F09EFD0A909DF833301846F3
:1031AC0001F064F904460D460A9801F05FF90646F1
:1031BC000F460B9801F05AF902460B4643EC112BC3
:1031CC009FED880B01F0A6FB53EC102B30463946D3
:1031DC0001F028F802460B462046294600F066FE10
:1031EC0002460B461046194601F052F90346099364
:1031FC00DDED097AB6EE007A67EE877A009BC3EDB7
:10320C00037A03E0009B4FF00002DA600F9B01335E
:10321C000F9300230E9302AB0C220021184601F0F1
:10322C00FDFD0EE00F9B019A1344197802AA0E9B28
:10323C0013440A461A700E9B01330E930F9B0133F5
:10324C000F930F9B019A13441B782C2BEAD102ABE2
:10325C001B78002B53D002AB184600F03BFD034605
:10326C00ADF8223000230D9302E00D9B01330D933A
:10327C0002AA0D9B13441B782E2BF6D10D9B013308
:10328C000D9302AB184601F063FD02460D9BD31A59
:10329C0007930D9B02AA1344184600F01BFD0690E1
:1032AC00BDF82230184601F0E1F804460D460698A8
:1032BC0001F0DCF806460F46079801F0D7F80246F5
:1032CC000B4643EC112B9FED470B01F023FB53EC0A
:1032DC00102B3046394600F0A5FF02460B4620461F
:1032EC00294600F0E3FD02460B461046194601F054
:1032FC00CFF803460593009B059A1A6103E0009BE7
:10330C004FF000021A610F9B01330F9302AB0C229A
:10331C000021184601F082FD00230E930EE00F9B56
:10332C00019A1344197802AA0E9B13440A461A7088
:10333C000E9B01330E930F9B01330F930F9B019A3E
:10334C0013441B782C2BEAD102AB184600F0C2FCBC
:10335C000346264A82FB03121213DB17D31A244AA4
:10336C00136002AB184600F0B5FC0346214A82FB01
:10337C0003125211DB17D21A1E4B83FB0213591185
:10338C00D317CB1A642101FB03F3D31A1A4A136027
:10339C0002AB184600F09EFC0246164B83FB021350
:1033AC005911D317CB1A642101FB03F3D31A134A17
:1033BC0013600F4B1A68124B1B6813440C4A1360B2
:1033CC000B4B1A68009B1A600B4B1A68009B5A60D7
:1033DC000A4B1A68009B9A600023184611B0F0BD86
:1033EC00AFF300800000000000002440AD8BDB68D0
:1033FC00500700201F85EB51540700205807002070
:10340C005C070020BFF34F8F00BF064BDB6803F453
:10341C00E0620449044B1343CB60BFF34F8F00BFF2
:10342C0000BFFDE700ED00E00400FA0582B01D4B83
:10343C001B68B3F1FF3F0AD11B4B1B68DBB2019336
:10344C001A4B1B681B0903F00F03009305E0154B87
:10345C001B680193164B1B680093019B062B1DD117
:10346C00009B033B042B17D801A252F823F000BF9A
:10347C009134000095340000993400009D34000014
:10348C00A134000001230AE0012308E0012306E037
:10349C00012304E0012302E0012300E0002318468D
:1034AC0002B0704730010010E00F00F0E80F00F0A0
:1034BC003401001082B0174B1B68DBB20193164B22
:1034CC001B681B0903F00F030093019B062B1DD1F6
:1034DC00009B033B042B17D801A252F823F000BF2A
:1034EC000135000005350000093500000D350000E0
:1034FC001135000001230AE0002308E0002306E058
:10350C00002304E0002302E0002300E0002318461F
:10351C0002B07047E00F00F0E80F00F082B01D4BD6
:10352C001B68B3F1FF3F0AD11B4B1B68DBB2019345
:10353C001A4B1B681B0903F00F03009305E0154B96
:10354C001B680193164B1B680093019B062B1DD126
:10355C00009B033B042B17D801A252F823F000BFA9
:10356C008135000085350000893500008D3500005F
:10357C009135000001230AE0012308E0012306E055
:10358C00012304E0012302E0012300E0002318469C
:10359C0002B0704730010010E00F00F0E80F00F0AF
:1035AC003401001082B0174B1B68DBB20193164B31
:1035BC001B681B0903F00F030093019B062B1DD105
:1035CC00009B033B042B17D801A252F823F000BF39
:1035DC00F1350000F5350000F9350000FD3500002F
:1035EC000136000001230AE0002308E0002306E076
:1035FC00002304E0002302E0002300E0002318462F
:10360C0002B07047E00F00F0E80F00F082B01D4BE5
:10361C001B68B3F1FF3F0AD11B4B1B68DBB2019354
:10362C001A4B1B681B0903F00F03009305E0154BA5
:10363C001B680193164B1B680093019B062B1DD135
:10364C00009B033B042B17D801A252F823F000BFB8
:10365C007136000075360000793600007D360000AA
:10366C008136000001230AE0012308E0012306E073
:10367C00012304E0012302E0012300E000231846AB
:10368C0002B0704730010010E00F00F0E80F00F0BE
:10369C003401001082B0174B1B68DBB20193164B40
:1036AC001B681B0903F00F030093019B062B1DD114
:1036BC00009B033B042B17D801A252F823F000BF48
:1036CC00E1360000E5360000E9360000ED3600007A
:1036DC00F136000001230AE0002308E0002306E095
:1036EC00002304E0002302E0002300E0002318463E
:1036FC0002B07047E00F00F0E80F00F082B0174BFB
:10370C001B68DBB20193164B1B681B0903F00F03FC
:10371C000093019B062B1DD1009B033B042B17D858
:10372C0001A252F823F000BF493700004D370000CA
:10373C0051370000553700005937000001230AE0CB
:10374C00002308E0002306E0002304E0002302E04D
:10375C00002300E00023184602B07047E00F00F091
:10376C00E80F00F082B01D4B1B68B3F1FF3F0AD18C
:10377C001B4B1B68DBB201931A4B1B681B0903F034
:10378C000F03009305E0154B1B680193164B1B6848
:10379C000093019B062B1DD1009B033B042B17D8D8
:1037AC0001A252F823F000BFC9370000CD3700004A
:1037BC00D1370000D5370000D937000000230AE0CC
:1037CC00002308E0012306E0012304E0012302E0CA
:1037DC00012300E00023184602B0704730010010AE
:1037EC00E00F00F0E80F00F03401001082B01D4B28
:1037FC001B68B3F1FF3F0AD11B4B1B68DBB2019373
:10380C001A4B1B681B0903F00F03009305E0154BC3
:10381C001B680193164B1B680093019B062B1DD153
:10382C00009B033B042B17D801A252F823F000BFD6
:10383C005138000055380000593800005D38000040
:10384C006138000001230AE0012308E0012306E0AF
:10385C00012304E0012302E0012300E000231846C9
:10386C0002B0704730010010E00F00F0E80F00F0DC
:10387C003401001082B01D4B1B68B3F1FF3F0AD11D
:10388C001B4B1B68DBB201931A4B1B681B0903F023
:10389C000F03009305E0154B1B680193164B1B6837
:1038AC000093019B062B1DD1009B033B042B17D8C7
:1038BC0001A252F823F000BFD9380000DD38000017
:1038CC00E1380000E5380000E938000001230AE087
:1038DC00012308E0012306E0012304E0012302E0B8
:1038EC00012300E00023184602B07047300100109D
:1038FC00E00F00F0E80F00F03401001082B0154B1F
:10390C001B680193144B1B680093019B062B1DD164
:10391C00009B033B042B17D801A252F823F000BFE5
:10392C004139000045390000493900004D3900008B
:10393C005139000000230AE0002308E0002306E0D0
:10394C00012304E0012302E0012300E000231846D8
:10395C0002B07047300100103401001082B0154BDA
:10396C001B680193144B1B680093019B062B1DD104
:10397C00009B033B042B17D801A252F823F000BF85
:10398C00A1390000A5390000A9390000AD390000AB
:10399C00B139000000230AE0002308E0002306E010
:1039AC00002304E0012302E0012300E00023184679
:1039BC0002B07047300100103401001008B5FFF759
:1039CC00CDFF0346002B07D04FF010234FF0804261
:1039DC00D3F80832C2F8583500BF08BD00BF044BFD
:1039EC00D3F80034002BFAD000BF00BF704700BFE3
:1039FC0000E0014000B583B00190054A019BC2F87C
:103A0C000435FFF7EBFF00BF03B05DF804FB00BF0C
:103A1C0000E00140024B034A1A6000BF704700BF30
:103A2C00180000200090D00308B5FFF7FFFC0346F8
:103A3C00002B06D0964B1B681B0A964A03F01F03FB
:103A4C001360FFF737FD0346002B02D0924B934ACD
:103A5C001A60FFF763FD0346002B06D0904B1B68E2
:103A6C005B0B904A03F007031360FFF79BFD0346C3
:103A7C00002B05D08C4BDB688B4A23F08073D36012
:103A8C00FFF7C4FD0346002B0ED04FF080430022FD
:103A9C00C3F80C214FF080430022C3F810214FF0E3
:103AAC0080430022C3F83825FFF7F4FD0346002BB2
:103ABC0002D07E4B03221A60FFF720FE0346002B38
:103ACC000BD07B4B05221A607A4B01221A607A4B81
:103ADC0000221A60794B3F221A60FFF743FE03461F
:103AEC00002B76D04FF08053754AD3F80434C2F8CB
:103AFC0020354FF08053724AD3F80834C2F824357D
:103B0C004FF080536E4AD3F80C34C2F828354FF07E
:103B1C0080536B4AD3F81034C2F82C354FF08053D5
:103B2C00674AD3F81434C2F830354FF08053644AE6
:103B3C00D3F81834C2F834354FF08053604AD3F8B8
:103B4C001C34C2F840354FF080535D4AD3F8203412
:103B5C00C2F844354FF08053594AD3F82434C2F894
:103B6C0048354FF08053564AD3F82834C2F84C35B8
:103B7C004FF08053524AD3F82C34C2F850354FF0E2
:103B8C0080534F4AD3F83034C2F854354FF0805339
:103B9C004B4AD3F83434C2F860354FF08053484A5E
:103BAC00D3F83834C2F864354FF08053444AD3F814
:103BBC003C34C2F868354FF08053414AD3F8403456
:103BCC00C2F86C354FF080533D4AD3F84434C2F8F8
:103BDC007035FFF70BFE0346002B05D0394B1B68E5
:103BEC00394A03F04F031360FFF744FE0346002BE2
:103BFC000DD04FF08043D3F8003403F00103002BB9
:103C0C0005D04FF080436FF00102C3F80024FFF79A
:103C1C0075FE0346002B05D02C4B1B682B4A43F436
:103C2C00806313602A4BD3F88830294A43F470031D
:103C3C00C2F88830BFF34F8F00BFBFF36F8F00BF48
:103C4C00FFF7BCFE4FF01023D3F80032002B05DB3E
:103C5C004FF01023D3F80432002B15DA0120FFF7B4
:103C6C00C9FE4FF010231522C3F80022FFF7B6FE51
:103C7C004FF010231522C3F80422FFF7AFFE0020EB
:103C8C00FFF7B8FEFFF7BEFBFFF7C4FE00BF08BD91
:103C9C00240300104035014074C007400DF0ADBA4C
:103CAC00440200103C050040F0ED00E0A00500408F
:103CBC0010560040885600401856004014560040DC
:103CCC0000C0004058020010E40E00403C170040B9
:103CDC0000ED00E038B5044600F0B0F80568204669
:103CEC0000210A2200F006F8044600F0A7F805604F
:103CFC00204638BD2DE9F84390460F4605468146CF
:103D0C004C4619F8016B56B1304600F0E5FF00281F
:103D1C00F6D12D2E05D02B2E01D1012602E0012645
:103D2C0001E000264C4669462046424600F023F846
:103D3C0027B10099A14218BF0D463D605EB1002825
:103D4C00A8BFBDE8F88300F079F8032101606FF09B
:103D5C000040BDE8F883B0F1004F08D000285CBFEC
:103D6C004042BDE8F88300F069F8032101604FF090
:103D7C000040BDE8F8832DE9F84F16468846814689
:103D8C00411C8A4611F8017CBFB1384600F0A4FFF3
:103D9C000AF101010028F4D1302F0FD111F8017C68
:103DAC0007F0DF0058280ED16FF0100006420DD13D
:103DBC00102611F8017B002409E00027002E08BF13
:103DCC000A26002404E0002E08BF082601248A4697
:103DDC003846314601F052F8002818D40025AB467D
:103DEC00002705FB06010BFB06F21AF8010B02EB90
:103DFC00114B5FEA1B4218BF01278DB2314601F00F
:103E0C003DF80028EDDA4FEA0B40012402E00027D0
:103E1C0000200025B8F1000F05D0002C18BFAAF126
:103E2C000109C8F8009037B100F008F803210160CF
:103E3C00081FBDE8F88F2843BDE8F88F00B502498C
:103E4C00FCF7BEFA084400BD0800000040F238013F
:103E5C00C2F20001096800F000B880B50B468DF87D
:103E6C0003000DF103000121012200F008F89DF878
:103E7C000310002808BF4FF0FF31084608BDF8B505
:103E8C001D4617460C460646184601F015F8002844
:103E9C0003D407FB04F2A24201D20020F8BD28464D
:103EAC00314601F021F8B0FBF4F0F8BD30B591EAE1
:103EBC00030F00F18280841A71EB030C05D21219E6
:103ECC0053EB0C03001B71EB0C0140F2000CCFF612
:103EDC00E07C1CEA430F52D0BCEB410F5FD90C0DB8
:103EEC00A4EB135E5FF0010C6CF31F516CF31F53CA
:103EFC00DEF1200C2AD303FA0CF5401941F1000134
:103F0C0022FA0EF5401923FA0EF5694112FA0CF259
:103F1C00CD0208D349085FEA30005FEA320228BFBD
:103F2C0042F001020134013C5FEA500C72F1004294
:103F3C0050F1000051EB04514FF4001313EB410FFF
:103F4C0038BF30BD6FF31301002030BDBEF1200E21
:103F5C00BEF1200F1ED223FA0EF5401941F10001DB
:103F6C00CEF1200C124218BF012203FA0CF52A43A1
:103F7C00CEE711EA5C0F04BF0020002130BD1CEA23
:103F8C00410F04BF01F00041002030BD01F00041A1
:103F9C00002030BD21F4801101EB045130BD0042F2
:103FAC0018BF41F00101BCEB410F08BF30BD4FF011
:103FBC00FE4141F47801002030BD83F00043841AA7
:103FCC0071EB030E07D28EF0004E001B71EB0E014D
:103FDC00121953EB0E0340F2000CCFF6E07C1CEAF6
:103FEC00430FC6D0BCEB410F72D90C0DA4EB135E82
:103FFC00C90241EA5051C00241F00041DB0243EAE0
:10400C005253D20243F00043DEF1200C41D312FA9A
:10401C000CF522FA0EF203FA0CF542EA050218BF6F
:10402C0042F0010223FA0EF3801A9941E30AC4F319
:10403C000A0411F0404F03D418D0013C4000494110
:10404C00013C23D44205C00A40EA4150C90A51EA56
:10405C00C3715FEA500C72F1004250F1000051EB59
:10406C00045130BD01002FD00020203C0029F9D094
:10407C00B1FA81FCDCF1200E11FA0CF130FA0EF5DC
:10408C0010FA0CF02943A4EB0C04D9E70020D90753
:10409C0030BDAEF1200EBEF1200F0DD2CEF1200CB2
:1040AC0003FA0CF533FA0EF32A4318BF43F001035D
:1040BC00C01A61F10001B9E721F00041C00A40EAE1
:1040CC004150C90A01EB045130BD0020002130BD24
:1040DC00004218BF41F00101BCEB410F7FF467AF08
:1040EC00BCEB430F3FF463AF30BD00BF83F0004324
:1040FC00FFF7DCBEF0B540F2FF7681EA030C16EA5E
:10410C00115E1EBFB64516EA1355B54252D021EAD0
:10411C00465141F48011A1FB024723EA465343F474
:10412C008013AE44A0FB03650CF0004C36197D41A6
:10413C00A1FB034747F10003A0FB0217F6196541E9
:10414C0053F10003094218BF46F0010640F2FE7419
:10415C00B3F5007F13D2AEF5806EA64523D24CEAA0
:10416C000331280341EA155140EA16503203450841
:10417C0072F1004250F1000051EB0E51F0BDAEF265
:10418C00FF3EA6450FD24CEAC321E80241EA555145
:10419C0040EA5650F202450872F1004250F100001C
:1041AC0051EB0E51F0BD1EEA0E0F2DD50CF0004157
:1041BC000020F0BD16EA115F04BF01F000410020A1
:1041CC00004218BF41F0010116EA135F04BF03F06F
:1041DC0000430022124218BF43F0010306EA1354B5
:1041EC00B44218BFB64503D00CF000410020F0BD1E
:1041FC0021F0004123F00043B1EB065F0CD8B3EB88
:10420C00065F09D841B13BB10CF0004141F0FE41D1
:10421C0041F470010020F0BD40F20001C7F6F871C6
:10422C000020F0BD2DE9F04391EA030E0EF0004E94
:10423C0040F20007CFF6E07717EA41051EBFBD42FA
:10424C0017EA4305BD4200F09F807F0D17EA135615
:10425C0023EA475343F4801317EA115521EA4751D7
:10426C0041F48011AD1B05F2FD354FEAD31C1CF156
:10427C00010C4FF00047B7FBFCF77F01A2FB079C3A
:10428C000024E3FB07C4D9F100096CEB4C0CA0FB38
:10429C0007620020E1FB072000275FEAC628E0FB4D
:1042AC000987760D46EAC226520DF61900277A4187
:1042BC00E0FB0C625FEAC823E2FB09375FEA58585F
:1042CC0048EAC628760D18EB070800214E41E2FBA0
:1042DC000C8602EBC020DA02E6FB09215B0D43EAF7
:1042EC00C8235FEA58585B18002758EB0708E6FB11
:1042FC000C38D102E8FB0917520D42EAC3225B0DC0
:10430C00D21900277B41E8FB0C2308EBC6265FEA99
:10431C00C128E3FB0987490D41EAC221520DC91995
:10432C0042F10002E3FB0C12470019EB08095CEBAD
:10433C00010C72EB040453EBC62047EB56530026DA
:10434C00B3F5000F7641AD190236D6F1200910FAFB
:10435C0009F4F04013FA09F21043F340E40F00198A
:10436C0043F10003B3F5001F24BF5B08013540F295
:10437C00FE77BD4204D24EEA05511944BDE8F083E4
:10438C002D4224D5714626E0004218BF41F00101B0
:10439C00124218BF43F00103B7EB410F2CBFB7EB30
:1043AC00430F1BE0B7EB410F04BFB7EB430F15E016
:1043BC0017EA410F04BF17EA430F0FE017EA410F4A
:1043CC00E0D017EA430F02D0B7EB430FDAD04EF030
:1043DC00FE4141F470010020BDE8F08340F2000181
:1043EC00C7F6F871F7E700BF4FF4001C1CEB410F48
:1043FC0098BF1CEB430F11D851EA030C50EA4C0C3C
:10440C005CEA020C0AD004D29042994180414042AD
:10441C00704782428B418041404270470020704778
:10442C00C1F30A5340F21E42D21A0EDD202A0AD8DA
:10443C00CB0243EA505040F00040D04090EAE1708B
:10444C00B0EBE1707047002070474B00004218BF82
:10445C0043F0010313F5001F88BF21F0004111F058
:10446C00004058BF6FF00040704700BF10F0004193
:10447C0060B148BF40420A0D02F21D42B0FA80F30F
:10448C00D21A9840C30A400503EB0251704700BF93
:10449C0001F000428B1AA3F16051B1F5801F0ADBC9
:1044AC00B1F17F6F09D242EAC102C10071F1004142
:1044BC0042EB507070471046704701285B4113F572
:1044CC00001F02D842F0FF407047C90041EA50700B
:1044DC00104340F4800040F08040704751EC102BAA
:1044EC00C1F30A53CBB140F2FF7C634508BF704760
:1044FC001844604506DB0020C7F6F07060F31E011F
:10450C00002208E00028C7BF6FF31E5141EA00519A
:10451C0001F00041002241EC102B704752EC10CB03
:10452C00C2F30A5340F2FF718B4211BF002B0021E2
:10453C0001607047A3F2FE31016040F2FE3060F37F
:10454C001E5242EC10CB7047000000002DE9F84FD2
:10455C002DED028B82B050EC101B4FF0FF3202EBB2
:10456C00105240F2FE739A4280F09D8001A8FFF732
:10457C00D5FF55EC107B5E4B384629460022FFF7E1
:10458C0095FC0446884600264AF29E00C3F6E67067
:10459C0043F6CE31C6F27F61019A0092791A75EB1F
:1045AC00000028463946BEBF01264046214640EC55
:1045BC00101B4FF0FF30FFF791FFB0EE408AF0EE8A
:1045CC00608A4C4B384629460022FFF76FFC0546A3
:1045DC000F46494B51EC180B002E1CBF4746254685
:1045EC000022FFF763FC02460B4628463946FFF7CC
:1045FC0019FE0546884602460B46FFF77BFD8346AF
:10460C008A4645F2A839C0F2000941EC180B48461D
:10461C000221B0EE480AF0EE680A00F0CBFA374AF5
:10462C00374B51EC100BFFF741FC04460F4609F1D8
:10463C0010000321B0EE480AF0EE680A00F0EEFA22
:10464C0053EC102B20463946FFF7ECFD5A465346E7
:10465C00FFF750FD2A464346FFF74CFD2A464346DA
:10466C00FFF724FC04460D46002E009818BF0138B5
:10467C00FFF7FCFE80460F46224A234BFFF73AFD1C
:10468C0022462B46FFF712FC04460D461F4B4046B4
:10469C0039460022FFF72EFD22462B46FFF706FC7B
:1046AC0041EC100B19E0420042EAD1720023CFF624
:1046BC00E0730027B7EB410773EB02020DD3002226
:1046CC00C7F6F072104206D00028BCBF0748002184
:1046DC0040EC101B01E09FED030B02B0BDEC028B14
:1046EC00BDE8F88F000000000000F0FF0000F87F2C
:1046FC000000E0BF0000F0BF0000E03F9AB5B3122D
:10470C00FF0750C0A80C615C10D02BBF0030E63FF7
:10471C00000000002DE9F84F55EC106BC5F30A5062
:10472C00013840F2FE71884280F0A18042F642606E
:10473C00C4F2860043F6EF11CFF6FA61891BA8414B
:10474C00C0F2B58042F22B30CCF286004BF6D2414F
:10475C00CDF67A51891BA8413CBF9FED580BBDE8A3
:10476C00F88F25F0004049F6A141C3F6C73144F259
:10477C002322C0F69242B21A884174D3554A564B42
:10478C000020C3F6E070A84660F31E0830462946A8
:10479C00FFF7B0FC00224346FFF788FBFFF740FE13
:1047AC000446FFF763FE804689464C4B0022FFF718
:1047BC00A1FC32462B46FFF779FB05460E46484ACC
:1047CC00484B40464946FFF795FC2A463346FFF7CF
:1047DC006DFB8146884602460B46FFF78BFC05466F
:1047EC000E46414A414BFFF785FC414A414BFFF7CE
:1047FC005DFB2A463346FFF77DFC3F4B0022FFF75B
:10480C0055FB4A464346FFF775FC804689463B4FAD
:10481C000020394642464B46FFF768FC82468B46E1
:10482C00374A384B28463146FFF764FC364A374B3B
:10483C00FFF73CFB2A463346FFF75CFC52465B46CF
:10484C00FFF734FB02460B4640464946FFF7EAFCAD
:10485C0000223B46FFF72AFB41EC100B601CBDE825
:10486C00F84FFFF73BBE9FED190BBDE8F88F6800C2
:10487C0040EAD6700021CFF6E0710022B2EB46027E
:10488C0071EB000038BFBDE8F88F25F0004080F0D8
:10489C00E04080F07F6030437FF470AF0020002D4B
:1048AC00BCBF0546064645EC106BBDE8F88F9FED86
:1048BC00050BBDE8F88F00BF00BF00BF0000000073
:1048CC0000000000000000000000F07F000000006D
:1048DC000000F03F3CF92F9E2C15F73F0030E6BF4F
:1048EC00A80C615C10D02B3F1CDC586FA452F13E1D
:1048FC00E0F6B36FE4707C3F0000D03F0000E03F77
:10490C000938DE6F993F403FB35142718E71AC3F15
:10491C00000000002DE9F84F2DED048BB0EE408A1D
:10492C00F0EE608A56EC105B0020C3F6F07086EA5D
:10493C000001294300F0B28054EC118B0021C7F622
:10494C00F0710C4200F0AF80C6F30A52013A40F20B
:10495C00FD739A427AD8C4F30A52A2F2FF724FF650
:10496C000203CFF6FF739A4270D340462146FFF7FD
:10497C0057FD0746FFF77AFD80EA080061400843BF
:10498C003FD1B7F1004F3CD0002F3E4648BF7E428E
:10499C009FED789BB0EE490AF0EE690A16B39FEDD5
:1049AC00750B5BEC10AB58EC184B16F00100434642
:1049BC00224604BF5B46524651EC100BFFF79AFBA4
:1049CC0005468946012E4346224604BF5B465246A5
:1049DC0020464146FFF78EFB41EC180B49EC105B6F
:1049EC007608E0D158EC104B51EC190B224643469B
:1049FC00FFF718FC002F5CBF4146204641EC110B21
:104A0C0008E02846314600220023FFF7EDFC48B1B0
:104A1C009FED661BB0EE410AF0EE610ABDEC048B13
:104A2C00BDE8F88F26F0004040EC105BFFF78EFDE0
:104A3C0051EC100B42462346FFF75CFB41EC100B8C
:104A4C00BDEC048BBDE8F84FFFF764BE0027CBF636
:104A5C00F0773A18730043EAD5794FF0010CDCEB90
:104A6C00450379EB020319D2DCEB48034FEA44030C
:104A7C0043EAD87373EB0202CCD216EA010215D0CA
:104A8C0086F0704383F07F632B432BD07140294316
:104A9C0049D1002C39A0A8BF083062E0B0EE481A0A
:104AAC00F0EE681AB6E79FED331BB3E7404621469C
:104ABC00FFF7B6FC0746FFF7D9FC84EA010288EA47
:104ACC0000031A437FF458AF002C34A0A8BF083061
:104ADC00F90790ED001B9DD051EC110B06F0004234
:104AEC0051408BE740462146FFF79AFC0646FFF7FC
:104AFC00BDFC22A2002CA8BF0832614092ED001B25
:104B0C0080EA080008437FF485AF16F001001FBF50
:104B1C0051EC110B07F1404202F58012514018BFC5
:104B2C0041EC110B76E707F18041614051EA080135
:104B3C000FD186EA070028439FED0E1B3FF46AAFA6
:104B4C0016A04FF6FF71C3F6EF718A4288BF08308A
:104B5C0007E0824208D386EA070028430BA008BF6F
:104B6C00083090ED001B55E79FED041B52E700BF8A
:104B7C0000BF00BF000000000000F03F000000007C
:104B8C0000000000000000000000F07F00000000AA
:104B9C000000F07F000000000000F03F000000006B
:104BAC000000F07F0000000000000000000000008A
:104BBC000000F87FF8B52DED028B00EBC1070E4617
:104BCC0017ED048B57E9020154EC105B2A4623467F
:104BDC00FFF790FA53EC182BFFF768F941EC100B28
:104BEC00032E10DB183F013E51EC100B2A462346D6
:104BFC00FFF780FA77E80223FFF758F9013E41EC02
:104C0C00100B012EF0D851EC100B2A462346FFF75F
:104C1C0071FA41EC100BBDEC028BF8BD2DE9F041A3
:104C2C008046022916DB08EBC100A0F108074C1CDA
:104C3C0056EC105B77E8022351EC100BFFF736F9BA
:104C4C002A463346FFF756FA013C41EC100B022C76
:104C5C00F0D8012108EBC10251EC100B52E90223F0
:104C6C00FFF724F941EC100BBDE8F0819AB18446B2
:104C7C00097848B2002844BF6FF001007047BCF1BE
:104C8C00000F18BFCCF800100021C3E90011002858
:104C9C0018BF01207047002070477F298EBF6FF02E
:104CAC00010001700120704740F26072C2F20002F4
:104CBC00136823B940F21C03C2F2000313605A6854
:104CCC009268126810470721FFF7EEBF0621FFF725
:104CDC00EBBF0421FFF7E8BF0821FFF7E5BF7F28F2
:104CEC0084BF0020704745F2E452C0F20002515CD0
:104CFC0045F26452C0F20002105C08407047A0F10B
:104D0C0061011A2938BF20387047A0F141011A29D6
:104D1C0038BF203070477F2884BF0020704745F291
:104D2C00E452C0F20002515C45F26452C0F200023F
:104D3C00105C08407047A0F161011A2938BF203877
:104D4C007047A0F141011A2938BF2030704700008C
:104D5C00411C82070CD010F8012B3AB3820707D004
:104D6C0010F8012B12B3820702D010F8012BEAB114
:104D7C004FF0013C50F8042BCCFA52F37BB950F8AD
:104D8C00042BCCFA52F353B950F8042BCCFA52F34F
:104D9C002BB950F8042BCCFA52F3002BEAD0043880
:104DAC001BBAB3FA83F300EBD3000130401A7047FF
:104DBC0072B3844690EA01039B0721D1830709D083
:104DCC0011F8013B00F8013B013A20D08307F7D1E1
:104DDC0000E08446202A0AD32DE9F007B1E8F80751
:104DEC00A0E8F807203A202AF8D2BDE8F007042AF8
:104DFC0006D351F8043B40F8043B043A042AF8D299
:104E0C002AB111F8013B00F8013B013AF9D1604697
:104E1C00704700BF00220B0011001A0084465AB3E1
:104E2C00830704D000F8011B013AF9D124E0C9B280
:104E3C0041EA012141EA0141202A11D3203A2DE90E
:104E4C00F0030B460C460D460E460F468846894627
:104E5C00A0E8FA03203AFBD2BDE8F00320320BD0D5
:104E6C00042A05D340F8041B043A05D0042AF9D2CD
:104E7C0000F8011B013AFBD16046704738B50C466F
:104E8C000546FFF726FF10B1A5F130000FE02846CC
:104E9C00FFF71CFF10B1A5F1570008E02846FFF7FB
:104EAC0012FF0100A5F1370008BF4FF0FF30A04200
:104EBC00A8BF4FF0FF3038BD084B1B6883420AD0A7
:104ECC00074B1B68834206D0064B1B68181A18BF89
:104EDC004FF0FF3070470020704700BF34000020B7
:104EEC003800002030000020006800F0D5B800BF6A
:104EFC001448154A032110B50161144C41614FF45B
:104F0C00806182610023C4610162114C83621021B3
:104F1C004362C3620266446681660367C366436785
:104F2C00BFF35F8F0B4B5321A3F10F0E9C4601E097
:104F3C0013F80119ACEB030273458154F8D1BFF39C
:104F4C005F8F10BD70070020F4550000280800206A
:104F5C00180800200E5600002DE9F843C568D0F85B
:104F6C000890A9EB050890450446164609D94068F7
:104F7C002844FFF71DFFBFF35F8F3544E560BDE8A4
:104F8C00F8834068284435440F464246A5EB090592
:104F9C00FFF70EFF60682A4607EB0801FFF708FFD2
:104FAC00BFF35F8FE560BDE8F88300BF2DE9F843E0
:104FBC000646D0E90204894617464FF000083369CB
:104FCC009C4203F1FF3228BF03F1FF33A0EB040531
:104FDC002ABF1B18131B1B1BBD4228BF3D469D42FD
:104FEC00706828BF1D46494620442A46FFF7E0FE5C
:104FFC00B0682C44A844A9447F1BA04208BF0024DD
:10500C00BFF35F8FF460002FD9D14046BDE8F88321
:10501C0038B5204B00EB400403EBC40E0130DEF836
:10502C002C4000EB4000012C8C46154603EBC000D5
:10503C0005D0022C2AD0B4B10024204638BDDEF8AD
:10504C002830DEF82440A3429CBFDEF820105B1809
:10505C00013B1C1B944228BF144622466146FFF7B5
:10506C007BFF204638BDDEF82830DEF82420934242
:10507C009CBFDEF820105B18013B9A1A9542DCD8D5
:10508C002A466146FFF768FF2C46D6E7BDE8384054
:10509C00FFF78CBF70070020F8B50B4B1B7804464C
:1050AC000D4616466BB1EFF311874FF0200181F3DB
:1050BC001188324629462046FFF7AAFF87F311884C
:1050CC00F8BDFFF715FFEEE770070020072904D99C
:1050DC000023024AC0E9003110607047280C002000
:1050EC00FFFFFFFFFFFFFFFFFFFFFFFFFFFFFFFFC4
:1050FC0000000000000000000000D60106010000C6
:10510C00463A5C6E5246355F53444B5F31372E3115
:10511C002E305F646464653536305C636F6D706F20
:10512C006E656E74735C6C69627261726965735CD6
:10513C00756172745C6170705F756172745F6669C1
:10514C00666F2E6300000000463A5C6E5246355F77
:10515C0053444B5F31372E312E305F6464646535B8
:10516C0036305C636F6D706F6E656E74735C6C69FA
:10517C00627261726965735C7574696C5C61707084
:10518C005F7574696C5F706C6174666F726D2E63A1
:10519C0000000000463A5C6E5246355F53444B5F4C
:1051AC0031372E312E305F646464653536305C6D7A
:1051BC006F64756C65735C6E7266785C647269762C
:1051CC006572735C7372635C7072735C6E7266781A
:1051DC005F7072732E6300002E2E2F2E2E2F2E2E0C
:1051EC002F2E2E2F2E2E2F2E2E2F696E746567725A
:1051FC006174696F6E2F6E7266782F6E7266785F4F
:10520C00676C75652E6800002E2E2F2E2E2F2E2EDD
:10521C002F2E2E2F2E2E2F2E2E2F6D6F64756C652C
:10522C00732F6E7266782F68616C2F6E72665F6773
:10523C0070696F2E68000000463A5C6E5246355F0E
:10524C0053444B5F31372E312E305F6464646535C7
:10525C0036305C6D6F64756C65735C6E7266785C11
:10526C00647269766572735C7372635C6E72667875
:10527C005F756172742E6300491900002E2E2F2E5B
:10528C002E2F2E2E2F2E2E2F2E2E2F2E2E2F696EB2
:10529C00746567726174696F6E2F6E7266782F6EAB
:1052AC007266785F676C75652E6800002E2E2F2E47
:1052BC002E2F2E2E2F2E2E2F2E2E2F2E2E2F6D6F7D
:1052CC0064756C65732F6E7266782F68616C2F6EC7
:1052DC0072665F6770696F2E68000000463A5C6EFC
:1052EC005246355F53444B5F31372E312E305F645D
:1052FC006464653536305C6D6F64756C65735C6EBB
:10530C007266785C647269766572735C7372635CE6
:10531C006E7266785F75617274652E6300000000B2
:10532C0099250000463A5C6E5246355F53444B5FFC
:10533C0031372E312E305F646464653536305C65F0
:10534C0078616D706C65735C4D7970726F6A6563B2
:10535C00745C756172745F72696E67627566665FA4
:10536C006770735C6D61696E2E630000080000004D
:10537C00060000000500000007000000000000000F
:10538C0000502700474741002A000000524D4300BF
:10539C00000000000338FDD870470000EDAF162068
:1053AC004A62304029BD56B31544E9BF77900D9C35
:1053BC00FE0B88C07E2615FA838073400FCE674B98
:1053CC0080D541C0DC5300000C550000E0530000B8
:1053DC0043000000EB4C00000B4D0000174D00008B
:1053EC00234D0000434D00004F4D0000A74C000022
:1053FC00794C000053756E004D6F6E00547565004E
:10540C0057656400546875004672690053617400F6
:10541C00004A616E00466562004D61720041707217
:10542C00004D6179004A756E004A756C00417567D4
:10543C0000536570004F6374004E6F7600446563D3
:10544C0000002E000053756E646179004D6F6E6420
:10545C0061790054756573646179005765646E6594
:10546C007364617900546875727364617900467273
:10547C006964617900536174757264617900004AE2
:10548C00616E756172790046656272756172790040
:10549C004D6172636800417072696C004D617900F6
:1054AC004A756E65004A756C790041756775737441
:1054BC000053657074656D626572004F63746F6242
:1054CC006572004E6F76656D62657200446563654A
:1054DC006D6265720000414D00504D0000256D2F2E
:1054EC0025642F25790025483A254D3A255300256A
:1054FC0061202562202565202554202559000000B7
:10550C004E54000050540000505400005054000001
:10551C0050540000505400005054000050540000EF
:10552C005054000050540000FFFFFFFFFFFFFFFF2F
:10553C00FFFFFFFFFFFF000051540000005400006C
:10554C008B5400001D540000E2540000E95400008C
:10555C00F2540000FB5400002020202020202020AA
:10556C0020682828282820202020202020202020C7
:10557C002020202020202020481010101010101067
:10558C00101010101010101084848484848484846F
:10559C008484101010101010108181818181810180
:1055AC0001010101010101010101010101010101DF
:1055BC00010101101010101010828282828282026E
:1055CC0002020202020202020202020202020202AF
:1055DC000202021010101020000703200417020111
:1055EC0008571040800000005465726D696E616C44
:1055FC0000000000000000000000545452205245EE
:05560C00474745530073
:1056140000000000002000400000000000200040C6
:1056240000000000BC0200000090D003D053000032
:10563400D0530000D0530000D0530000D0530000DA
:0C56440064070020680700206C070020AD
:040000030000037185
:00000001FF
