:100000000000012071030000590300005B030000A1
:100010005D0300005F0300006103000000000000BA
:10002000000000000000000000000000630300006A
:100030006503000000000000670300006903000082
:100040002D4F00006B030000954F00006B03000074
:100050006B0300006B0300006B0300006B030000E8
:100060006B0300006B0300006B0300006B030000D8
:100070006B0300006B0300006B0300006B030000C8
:100080006B030000012400006B0300006B03000001
:100090006B0300006B0300006B0300006B030000A8
:1000A0006B0300006B0300006B0300006B03000098
:1000B0006B0300006B030000000000000000000064
:1000C0006B0300006B0300006B0300006B03000078
:1000D0006B0300006B0300006B03000000000000D6
:1000E0000000000000000000000000000000000010
:1000F0000000000000000000000000000000000000
:1001000000000000000000000000000000000000EF
:1001100000000000000000000000000000000000DF
:1001200000000000000000000000000000000000CF
:1001300000000000000000000000000000000000BF
:1001400000000000000000000000000000000000AF
:10015000000000000000000000000000000000009F
:10016000000000000000000000000000000000008F
:10017000000000000000000000000000000000007F
:10018000000000000000000000000000000000006F
:10019000000000000000000000000000000000005F
:1001A000000000000000000000000000000000004F
:1001B000000000000000000000000000000000003F
:1001C000000000000000000000000000000000002F
:1001D000000000000000000000000000000000001F
:1001E000000000000000000000000000000000000F
:1001F00000000000000000000000000000000000FF
:10020000344935480A1A02D0072291438D463349B2
:1002100033480A1A06D00722914381F30988022243
:1002200082F314882F483049304A00F041F83048B2
:100230003049314A00F03CF830483149314A00F049
:1002400037F831483149324A00F032F83148324902
:10025000324A00F02DF832483249334A00F028F88B
:1002600032483349334A00F023F8334833490022F7
:1002700000F029F832483349002200F024F83248CF
:100280003249091A07F0DEF9314A90471F482049E0
:10029000884205D00268043003B4904703BCF7E7F6
:1002A00000208646EC46002000212A4A9047FEE7BF
:1002B000884207D0521A05D0037801300B70013103
:1002C000013AF9D17047884202D002700130FAE752
:1002D000704700000000012000E000200000012025
:1002E00000000120009800007C0000201401002084
:1002F000CC030000CC0300005876000000980000FA
:100300007C0000207C000020987700009877000097
:1003100098770000987700009877000098770000A1
:100320009877000098770000FD97000098980000EB
:100330001401002014010020140100208407002073
:1003400084070020840700208407002084270020E1
:100350009903000095690000FEE7FEE7FEE7FEE76F
:10036000FEE7FEE7FEE7FEE7FEE7FEE700F002B885
:10037000FFF7FCBF0F484FF00701884385460E4842
:1003800080470E48016841F470010160BFF34F8F50
:10039000BFF36F8FFFF734BF09480A490A4A884202
:1003A00007D0521A05D0037801300B700131013AA1
:1003B000F9D1704700000120C170000088ED00E015
:0C03C0001C770000000000207C000020E2
:1003CC0000B5A1B00590049103920293049804F037
:1003DC000FFA039B1593029B16930023179300238C
:1003EC008DF8603000231993229B1A9300231F93DE
:1003FC000FA91F9B0822049804F0D4FA08231F931A
:10040C00119B1293BDF84030ADF84C30BDF8423022
:10041C00ADF84E3000238DF851309DF83C3003F090
:10042C000303DBB2012B26D10F9BC3F395231C9343
:10043C009DF83C30C3F3C203DBB28DF85030BDF8ED
:10044C003C30C3F38313DBB21B931B9B9A0009A9AB
:10045C001F9B049804F0A6FA1B9B9B001F9A134445
:10046C001F9312AA09A915AB009313461B9A1C984B
:10047C0001F04EFD2FE09DF83C3003F00303DBB29E
:10048C00022B28D1BDF83E30C3F389139BB21E93C7
:10049C009DF83C30C3F3C203DBB28DF850301E9B89
:1004AC00082B28BF08231D9307A91F9B1D9A04988E
:1004BC0004F078FA1F9A1D9B13441F931E9A1D9BE0
:1004CC00D31A1E9315AB12AA07A81D9901F0C2FDF1
:1004DC001E9B002BE3D1049804F099F900BF21B0C6
:1004EC005DF804FB00B583B00190019B1B781A46A4
:1004FC000C4B9B5C002B05D0019B0433184605F07C
:10050C00EFFF0BE0019B1B781A46064B9B5C002B04
:10051C0004D1019B0C33184605F080F900BF03B0E1
:10052C005DF804FB1807002000B587B0039002911A
:10053C0013468DF8073000230593039B1B781A464E
:10054C00114B9B5C002B09D0039B04339DF80720B7
:10055C000299184606F026F805900FE0039B1B78CD
:10056C001A46094B9B5C002B08D1039B0C339DF85E
:10057C0007200299184605F0C9F90590059B184605
:10058C0007B05DF804FB00BF1807002082B0019093
:10059C000091034B01221A7000BF02B0704700BFDC
:1005AC005401002030B58DB003468DF807301A4B3E
:1005BC0002AC1D460FCD0FC495E80F0084E80F0068
:1005CC00062302934FF0FF3303934FF0FF33049352
:1005DC004FF0FF3305934FF0EB7308939DF8073002
:1005EC00002B01D00D4A00E0002202AB19460C484A
:1005FC0004F0B2FB0B900B9B0A930A9B002B04D0CC
:10060C00084A43210A9801F0E9FD074A9DF8073092
:10061C00137000BF0DB030BDF477000099050000D9
:10062C007C000020987700005501002000B583B0B5
:10063C0000238DF807309DF807301846FFF7B2FFFE
:10064C0000BF03B05DF804FB00B589B003900291C4
:10065C000192019B8DF81F30124B00221A709DF8ED
:10066C001F301A4602991048FFF75EFF0690069B52
:10067C000593059B002B04D00C4A5321059801F0DF
:10068C00ADFD00BF0A4B1B78002B07D0054B1B7828
:10069C00DBB283F00103DBB2002BF3D100BF09B056
:1006AC005DF804FB540100207C00002098770000CA
:1006BC005501002000B585B003900291054B0093C5
:1006CC004023054A02990398FFF77AFE00BF05B054
:1006DC005DF804FB550600001401002082B0019067
:1006EC0000BF02B07047000000B583B00190054810
:1006FC00FFF7F8FE0020FFF755FF00BF03B05DF8D1
:10070C0004FB00BF7C00002082B00190019BDB68E1
:10071C0001225A7100BF02B07047000000B583B0CF
:10072C004FF0FF330193FFF781FF0421084800F0DD
:10073C00F5FE0190019B002B03DA0649482001F0DD
:10074C0067FE0348FFF7E0FF00BF03B05DF804FB52
:10075C00F07600003478000000B583B00190009171
:10076C00019B1B681B6800990198984700BF03B058
:10077C005DF804FB00B583B00190019B1B685B68BE
:10078C000198984700BF03B05DF804FB00B583B037
:10079C000190019B1B689B680198984700BF03B0B0
:1007AC005DF804FB82B001900B468DF80330019B81
:1007BC00DB689DF803201A7100BF02B0704782B04D
:1007CC000190019BDB681B79184602B0704782B020
:1007DC000190019BDB6801225A7100BF02B0704787
:1007EC0082B00190019BDB6800225A7100BF02B0FD
:1007FC00704782B00190019BDB685B79184602B0B0
:10080C007047000000B58DB001900091364B01226D
:10081C001A70364803F050FF0890089B002B01D04B
:10082C00089B5CE0324804F0E1F9324A324BD31AAF
:10083C00DB08079300230B9332E00023099300237A
:10084C000A931DE00B9A0A9B9A4216D00B9BDB0075
:10085C00294A13441B6803930A9BDB00264A134462
:10086C001B68029314220299039806F0AFFE03460C
:10087C00002B02DD099B013309930A9B01330A9378
:10088C000A9A079B9A42DDD30B9B9B001B4A13448D
:10089C000493099B9AB2049B1A800B9B01330B9314
:1008AC000B9A079B9A42C8D300230B9312E00B9B25
:1008BC009B00124A134406930B9B9B00104A134453
:1008CC000593069B00225A80059B00221A600B9B05
:1008DC0001330B930B9A079B9A42E8D300231846DB
:1008EC000DB05DF804FB00BFC002002000770000D3
:1008FC006C7D0000F0760000907600001C0000205B
:10090C004C000020024A034BD31ADB0818467047F0
:10091C00F07600009076000000B587B001900B4691
:10092C008DF803309DF80330002B1FD0FFF7EAFF42
:10093C0004900023059313E0059B9B000E4A13447F
:10094C000393039B1B881A46019B1B689A4204D194
:10095C00019B059A1A60002309E0059B013305935E
:10096C00059A049B9A42E7D3052300E0002318461E
:10097C0007B05DF804FB00BF1C00002000B585B07B
:10098C0001900B468DF803309DF8032001AB114606
:10099C001846FFF7C1FF0346002B07D1019BDB0074
:1009AC00054A13440393039B1B6800E0002318467D
:1009BC0005B05DF804FB00BF9076000084B0019098
:1009CC000B468DF80330019BDB00174A134402934E
:1009DC009DF80330013B032B1CD801A252F823F0E5
:1009EC00FD090000050A00000D0A0000170A0000AE
:1009FC0002238DF80F3011E004238DF80F300DE039
:100A0C00029B1B798DF80F3008E0029B5B798DF807
:100A1C000F3003E000238DF80F3000BF9DF80F302E
:100A2C00184604B0704700BF9076000086B0019065
:100A3C000023ADF816300023049316E00722049B24
:100A4C009A40019B1A40049B22FA03F3ADF80E3036
:100A5C00BDF80E20BDF816309A4203D9BDF80E3001
:100A6C00ADF81630049B03330493049B092BE5D992
:100A7C00BDF81630184606B07047000000B587B0B8
:100A8C000390029113468DF80730029B9B001C4A81
:100A9C0013440593029B9B001A4A13440493049B32
:100AAC001968039A13465B001344072202FA03F3F6
:100ABC00DB4301EA0302049B1A60049B19689DF84E
:100ACC000700039A13465B0013449840039A13469D
:100ADC005B001344072202FA03F3034041EA0302CA
:100AEC00049B1A60049B1B681846FFF79FFF034684
:100AFC001A46059B5A8000BF07B05DF804FB00BF87
:100B0C001C0000204C00002084B00190019BDB00F5
:100B1C00034A13440393039BDB79184604B07047D4
:100B2C009076000000B589B00390029111461A46E8
:100B3C000B468DF8073013468DF8063000238DF8E0
:100B4C001F309DF80630002B21D09DF8072002ABFA
:100B5C0011461846FFF7E0FE0346002B31D1029BED
:100B6C009B001B4A13440593059B1968039A134673
:100B7C005B001344072202FA03F31940039A13464D
:100B8C005B00134421FA03F38DF81F3019E09DF834
:100B9C00063083F00103DBB2002B12D09DF8072046
:100BAC0002AB11461846FFF7B7FE0346002B08D1DF
:100BBC00029BDB00074A13440693069B9B798DF836
:100BCC001F309DF81F30184609B05DF804FB00BFBC
:100BDC004C0000209076000084B00190009100231E
:100BEC008DF80F30019B1B7803F00403DBB2002B54
:100BFC0024D0019B1B78C3F30103DBB2012B02D081
:100C0C00022B0CD017E0009B1B68019A1288C2F3D0
:100C1C008312D2B213449A1C009B1A600BE0009B07
:100C2C001B68019A5288C2F3891292B213449A1C1F
:100C3C00009B1A6000BF01238DF80F309DF80F3018
:100C4C00184604B07047000000B58BB00023ADF817
:100C5C0026303E4801F069FC3D4801F066FC3D4BF6
:100C6C009B6804933C4B1B680693049A069B1340A9
:100C7C0002339B00374A13440433089304AB1946E0
:100C8C000898FFF7A9FF0346002B09D0049A069B8E
:100C9C00134002339B002F4A134404330893EDE7AF
:100CAC0000BF0023079311E0049B5A1C0492069A80
:100CBC001340079A920001A90A44264902339B006B
:100CCC000B445B681360079B01330793079B012B55
:100CDC00EAD99DF80430C3F30103DBB2012B10D029
:100CEC00022B1CD1BDF80A30ADF82630BDF8063009
:100CFC00C3F389139BB203339A08049B13440493E4
:100D0C0013E0BDF80A30ADF82630BDF80430C3F35B
:100D1C008313DBB21A46049B1344049305E00F497A
:100D2C004FF4C27001F074FB00BF094801F009FCDC
:100D3C000590059B002B02D0049B064A9360BDF8DE
:100D4C00263018460BB05DF804FB00BFD806002017
:100D5C00D4060020C002002098000020B8780000C3
:100D6C0000B585B00021074801F068FB0390039B98
:100D7C000293029B83F310030193019B184605B069
:100D8C005DF804FBDC06002000B589B003900291ED
:100D9C0001920093039B1B0C0793FFF7E1FF069056
:100DAC00FFF7B0FD0246079B934204D3214940F262
:100DBC00A91001F02DFB069B1904009B5A1C0A9BE1
:100DCC001340079A0A431C4902339B000B445A6098
:100DDC00009A0A9B134002339B00174A13440433B6
:100DEC000593039B03F00703D9B2059A137861F3BB
:100DFC00C5031370019B03F00F03D9B2059A138836
:100E0C0061F389131380029BC3F31501059A1368D0
:100E1C0061F39F231360059A1378012161F3010399
:100E2C001370059A13786FF38203137000BF09B027
:100E3C005DF804FBB8780000C002002000B58BB050
:100E4C000390029113468DF80730039B02330893ED
:100E5C0001238DF81F30002001F084FA3E4B5A68B4
:100E6C00029B1A603D4B1A683B4B99683A4B5B6886
:100E7C00CB1A13440133099314E00121384801F0D3
:100E8C0024FBFFF7E1FE05900599354801F01DFBA9
:100E9C00324B1A68304B99682F4B5B68CB1A134452
:100EAC0001330993089A099B9A42E6D89DF81F30A2
:100EBC00002B48D0002304939DF80730002B17D04B
:100ECC009DF81030012262F301038DF810309DF86B
:100EDC00103043F004038DF81030039B03F00F0324
:100EEC00DAB2BDF8103062F38913ADF8103016E0A9
:100EFC009DF81030022262F301038DF810309DF83A
:100F0C00103043F004038DF81030039BC3F3090336
:100F1C009AB2BDF8123062F38F13ADF812300E4B4B
:100F2C005A680E4B1B68134002339B000A4A134449
:100F3C0004330693049A069B1A60074B5A68089B65
:100F4C001344054A5360002001F020FA9DF81F302D
:100F5C0018460BB05DF804FBC0020020980000207E
:100F6C00DC06002000B58BB005900491039202932F
:100F7C001F4B1B68079306AB012219460298FFF71B
:100F8C005DFF0346002B24D0069B023309930023FC
:100F9C00089311E0089B9B00039A1A44099B591C67
:100FAC00099107990B401268124902339B000B44BC
:100FBC005A60089B01330893089A029B9A42E9D322
:100FCC00069A079B00931346029A04990598FFF71B
:100FDC00DBFE084B1B78002B05D000BF00F068F837
:100FEC000346002BFAD100BF0BB05DF804FB00BF29
:100FFC0098000020C002002000B583B00190009141
:10100C000023002200990198FFF7ACFF00BF03B04A
:10101C005DF804FB00B587B0039002910192019B2F
:10102C00059305AA012302990398FFF79BFF00BFC4
:10103C0007B05DF804FB00B587B0039002910192F4
:10104C000093019B0493009B059304AA022302992D
:10105C000398FFF787FF00BF07B05DF804FB00B5EE
:10106C008BB00390029101920093019B0593009B1E
:10107C0006930C9B07930D9B08930E9B099305AA53
:10108C00052302990398FFF76DFF00BF0BB05DF8C5
:10109C0004FB0000054B9A68044B5B689A420CBF3A
:1010AC0001230023DBB21846704700BFC0020020AA
:1010BC0000B59BB0FFF7EEFF0346002B01D00023D9
:1010CC00E7E19B4B0022C3F81824BFF34F8F00BFFE
:1010DC00974B9B680493974B1B681193049A119B35
:1010EC00134002339B00924A134404331993002398
:1010FC001893002317930023169304AB19461998E1
:10110C00FFF76AFD0346002B19D0894BD3F818342E
:10111C00002B14D1864B5A68049B9A4205D8844BF9
:10112C005B68834A93600023B3E1049A119B1340DC
:10113C0002339B007E4A134404331993DDE70023EA
:10114C00159311E0049B5A1C0492119A1340159AA2
:10115C00920001A90A44764902339B000B445B6858
:10116C001360159B01331593159B012BEAD99DF840
:10117C00043003F00303DBB2022B40F09C80BDF87B
:10118C000630C3F389139BB20F93BDF80630C3F33B
:10119C0089139BB2502B28BF50239BB20E930E9BEE
:1011AC00C3F309039AB2BDF8063062F38F13ADF89E
:1011BC0006300E9B08330D939DF80430C3F3C20325
:1011CC00DBB216930D995C4803F081FA1890189BCA
:1011DC00002B00F0D380189803F00AFB01A9179B91
:1011EC000822189803F0C0FB179B08331793049B35
:1011FC00DA43119B134001339B000C930E9A0C9B0A
:10120C009A4242D90C9B002B08D0049A119B134094
:10121C0002339B00464A1344043300E0474B0A93C5
:10122C000C9B002B02D00C9BDBB201E00E9BDBB2C3
:10123C008DF827300C9B002B01D0404B00E0002395
:10124C0008930C9B002B06D00E9BDAB20C9BDBB2E6
:10125C00D31ADBB200E000238DF81F309DF8272055
:10126C00179B0A99189803F07FFB9DF82730179A63
:10127C0013441793089B002B16D09DF81F20179B27
:10128C000899189803F070FB0EE0049A119B134018
:10129C0002339B00264A134404330B93179B0E9A7C
:1012AC000B99189803F060FB0F9B03339A08049B6F
:1012BC001344049362E09DF8043003F00303DBB2A3
:1012CC00012B5BD1BDF80430C3F38313DBB2062BC7
:1012DC0028BF0623DAB2BDF8043062F38913ADF8E7
:1012EC000430BDF80430C3F38313DBB20233109324
:1012FC009DF80430C3F3C203DBB21693109B9B0022
:10130C0019460D4803F0E3F91890189B002B35D0C3
:10131C00189803F06DFA01A9179B0822189803F08E
:10132C0023FB179B08331793002315931DE000BF75
:10133C00C00200209800002000770000CC020020A2
:10134C00049B5A1C0492119A134002339B00534A7B
:10135C001344191D179B0422189803F005FB179BC7
:10136C0004331793159B01331593BDF80430C3F365
:10137C008313DBB21A46159B9342E1D3189B002BC7
:10138C0063D0464BD3F810341493444BD3F8183431
:10139C00002B45D0189803F03AFA74E000238DF82E
:1013AC004F301498FFF725FA0346002B2CD01498D5
:1013BC00FFF705FA03468DF81E30BDF808309B0088
:1013CC00374A13440693069B19689DF81E20134652
:1013DC005B001344072202FA03F319409DF81E2008
:1013EC0013465B00134421FA03F30593169B052B5C
:1013FC0001D0169B00E003231693059A169B9A4284
:10140C0002D301238DF84F309DF84F30002B03D0C1
:10141C0018991498FFF7A0F9149BDB681B681493B8
:10142C00149B002BBAD1189803F0F1F9002000F0AE
:10143C0099FF1A4BD3F81834002B02D1049B174A8E
:10144C009360002000F0A2FF1DE0144BD3F8103481
:10145C00129306E01298FFF799F9129BDB681B6850
:10146C001293129B002BF5D10E4B5B88012B0AD9E2
:10147C000D4A0E4BD31ADB081B0443F002030C4934
:10148C001846FFF7B9FDFFF705FE034683F001038D
:10149C00DBB218461BB05DF804FB00BFC002002095
:1014AC004C0000202C000020B0760000907600004C
:1014BC001079000000B585B00023039323E0164B90
:1014CC00D3F81034029301238DF807300FE0029803
:1014DC00FFF775F903461A46039B934203D1002389
:1014EC008DF8073006E0029BDB681B680293029BB9
:1014FC00002BECD19DF80730002B01D0039B07E0AB
:10150C00039B01330393039B092BD8DD4FF0FF336F
:10151C00184605B05DF804FBC002002000B587B08A
:10152C0001900B468DF80330FFF7C4FF0490049B29
:10153C00B3F1FF3F01D1049B48E0049BDBB2194699
:10154C000198FFF72FF9234BD3F81034002B08D157
:10155C00204A019BC2F81034019BDB6800221A6000
:10156C000DE01C4BD3F81034DA68019BDB68126871
:10157C001A60184BD3F81034DB68019A1A600023F8
:10158C0005931CE00598FFF7BFFA03468DF80F3062
:10159C009DF803209DF80F30934228BF13468DF819
:1015AC000E300198FFF70BF9034618469DF80E30E4
:1015BC001A460599FFF762FA059B01330593FFF76D
:1015CC00A1F90246059B9342DCD3049B184607B055
:1015DC005DF804FBC002002000B583B00C4BD3F8BF
:1015EC00103401930A4B01221A7009E00198FFF79D
:1015FC00EEF80198FFF7BEF8019BDB681B680193BE
:10160C00019B002BF2D100BF00BF03B05DF804FBBF
:10161C00C002002082B00190019B9B68D3F8483136
:10162C00C3F34003DBB2002B14BF01230023DBB256
:10163C00184602B07047000000B587B00190124AFE
:10164C00124BD31A1B0904930023059312E0059B3C
:10165C001B010E4A13440393039B9B681946019884
:10166C0005F0EAFE0346002B01D1039B07E0059B26
:10167C0001330593059A049B9A42E8D3002318463C
:10168C0007B05DF804FB00BF00770000F0760000A7
:10169C0010B586B00390029101920093019B53F810
:1016AC00043C05930598FFF7C7FF0490049B002B9F
:1016BC0006D0009C019B029A04990398A04705E070
:1016CC00059B044A0221039801F026FD00BF06B0D9
:1016DC0010BD00BF4C79000010B58CB0079006917E
:1016EC0005920493FFF70EF90A900698FFF781F81C
:1016FC00034683F00103DBB2002B04D02D4A0221F8
:10170C00079801F009FD2C4B2C4A0821079801F091
:10171C0003FD2B4A0821079801F0FEFC00230B93D4
:10172C0040E0069BDB681B790993012301220B998E
:10173C000998FFF7F7F903468DF8233000230122AF
:10174C000B990998FFF7EEF903468DF822309DF8B6
:10175C002230032B28BF03238DF8213001210B9855
:10176C00FFF70CF904469DF82330164A52F8233043
:10177C009DF82120134951F822209DF821009DF855
:10178C002210884201D2104900E0104902910192C6
:10179C00009323460E4A0821079801F0BDFC0B9BD1
:1017AC0001330B930B9A0A9B9A42BAD300BF00BF2A
:1017BC000CB010BD647900007879000084790000C9
:1017CC00A47900009C000020E4790000E879000076
:1017DC00EC79000000B585B0039002910192039B57
:1017EC00D968019B029A0398FFF776FF00BF05B0FA
:1017FC005DF804FB00B585B0039002910192054B96
:10180C00019A02990398FFF743FF00BF05B05DF8FA
:10181C0004FB00BFE516000000B587B001900091F5
:10182C00FFF770F804900023059313E0002105984E
:10183C00FFF7A4F8039020220199039805F0C6FE47
:10184C000346002B03D1009B059A1A6006E0059B0A
:10185C0001330593059A049B9A42E7D3059A049B9E
:10186C009A4214BF01230023DBB2184607B05DF87F
:10187C0004FB00B587B00390029113468DF8073036
:10188C000023002202990398FFF74CF903468DF8C8
:10189C0017309DF807209DF817309A4201D9002384
:1018AC0007E09DF807301A4602990398FFF7E6F80F
:1018BC000123184607B05DF804FB000000B58BB09F
:1018CC00039002910192009300238DF81B30029B30
:1018DC00DB681B790593019B002B00F0C780009BF4
:1018EC001B686449184605F0A7FD0346002B39D147
:1018FC00019B012B05D1604A0221039801F00CFCDD
:10190C00B4E0019B022B02D101238DF81B30002384
:10191C00079310E0009B04331868584A079B52F851
:10192C0023300A22194605F051FE0346002B06D03F
:10193C00079B01330793079B042BEBD900E000BFF7
:10194C00079B052B08D1009B04331B684C4A0221D2
:10195C00039801F0E1FB89E0079B8DF82730022307
:10196C0008931CE0009B1B684649184605F064FD73
:10197C000346002B0BD1019B012B02D101238DF8C7
:10198C001B3000238DF827300123089307E0009BC0
:10199C001B683D4A0221039801F0BEFB66E09DF8EE
:1019AC001B30002B23D00023079319E09DF8273020
:1019BC001A4607990598FFF75CFF034683F001036D
:1019CC00DBB2002B09D000210798FEF7D7FF0346A6
:1019DC002E4A0221039801F09FFB079B01330793CA
:1019EC00FEF790FF0246079B9342DFD33EE0089B35
:1019FC00079337E000230493079B9B00009A134442
:101A0C001B6804AA11461846FFF706FF034683F02D
:101A1C000103DBB2002B0AD0079B9B00009A1344F6
:101A2C001B681B4A0221039801F076FB17E0049B0C
:101A3C009DF8272019460598FFF71BFF034683F0F6
:101A4C000103DBB2002B0AD0049B00211846FEF7E1
:101A5C0095FF03460D4A0221039801F05DFB079B9D
:101A6C0001330793079A019B9A42C3D30BB05DF8DD
:101A7C0004FB00BF047A00000C7A00009C000020DC
:101A8C00247A0000447A00004C7A0000647A00004A
:101A9C00887A000000B585B0039002910192039BF7
:101AAC00D968019B029A0398FFF708FF00BF05B0A5
:101ABC005DF804FB00B585B0039002910192054BD3
:101ACC00019A02990398FFF7E3FD00BF05B05DF89A
:101ADC0004FB00BFC918000000B583B00190009151
:101AEC00009B0022DA60009B00225A60009B064A91
:101AFC009A6001210198FEF741FF0246009B1A6093
:101B0C0000BF03B05DF804FB787D000082B001904B
:101B1C000091009B0022DA60009B00225A60009B1F
:101B2C00074A9A60019B042B04D8064A019B52F881
:101B3C00233000E00023009A136000BF02B070470E
:101B4C00787D0000B000002000B585B003900291B4
:101B5C00019200930298FEF743FE00BF05B05DF8BA
:101B6C0004FB000000B585B0039002910192054B77
:101B7C00019A02990398FFF78BFD00BF05B05DF841
:101B8C0004FB00BF551B000000B585B0039002910B
:101B9C000192039BD968019B029A0398FFF7D4FF2B
:101BAC0000BF05B05DF804FB00B585B00390029151
:101BBC00019200930298FEF70AFE00BF05B05DF893
:101BCC0004FB000000B585B0039002910192054B17
:101BDC00019A02990398FFF75BFD00BF05B05DF811
:101BEC0004FB00BFB51B000000B585B0039002914B
:101BFC000192039BD968019B029A0398FFF7D4FFCB
:101C0C0000BF05B05DF804FB00B58BB005900491E6
:101C1C0003920598FFF7FEFC0346002B05D000222B
:101C2C000021059801F0A4FB35E01C4A1C4BD31A8B
:101C3C001B0908930023099329E0099B1B01184AEF
:101C4C0013440793079BDB681B79FF2B07D1079B7A
:101C5C009B68144A0821059801F05EFA14E0079B72
:101C6C009968079BDB685B79002B01D00E4B00E079
:101C7C000E4B079AD2681279019200930B460C4ACC
:101C8C000821059801F048FA099B01330993099A38
:101C9C00089B9A42D1D30BB05DF804FB007700008F
:101CAC00F07600009C7A0000BC7A0000C47A000038
:101CBC00D07A000086B001900091009B0022DA607F
:101CCC00009B00225A60009B164A9A60009B0022DF
:101CDC001A60002305930023049318E0049B1B0156
:101CEC00114A13440393039BDB681B79FF2B0BD026
:101CFC00019A059B9A4204D1039B9A68009B1A6037
:101D0C000DE0059B01330593049B01330493074AB3
:101D1C00054BD31A1B09049A9A42DFD300BF00BFAC
:101D2C0006B07047E87D0000F076000000770000F8
:101D3C0000B585B00390029101920398FFF76AFCFD
:101D4C000346002B05D000220021039801F010FB64
:101D5C0004E0044A0221039801F0DEF905B05DF8B5
:101D6C0004FB00BF287C000000B585B003900291F5
:101D7C0001920398FFF74EFC0346002B05D000227E
:101D8C000021039801F0F4FA04E0044A02210398BC
:101D9C0001F0C2F905B05DF804FB00BF287C00001F
:101DAC0000B587B0059004910392049B012B05D0DC
:101DBC000598FFF72FFC0346002B05D000220021CD
:101DCC00059801F0D5FA0DE0039B1A68039B0433C8
:101DDC001B680193054B00931346054A0221059895
:101DEC0001F09AF907B05DF804FB00BF307D0000EC
:101DFC00247D000082B00190009100BF02B07047BA
:101E0C0010B584B003900291039BDB88002B0AD0A1
:101E1C00039BDB881A461F4B009313461E4A1F492F
:101E2C00029802F09DF8039B1B7A052B2ED0039B86
:101E3C005B7A002B12D0039B9B881A46039B1B7A60
:101E4C0019461046FEF7BAFD03461A46144B53F8D2
:101E5C0022301A461349029802F082F8039B1B6841
:101E6C0019460298FFF7C6FF039B1B7A1A460E4BC6
:101E7C0053F82240039B9B8800211846FEF77EFDF9
:101E8C00034622460949029802F06AF800BF04B0E2
:101E9C0010BD00BFF87E0000087F0000407F0000EE
:101EAC00D8000020587F0000C40000205C7F000098
:101EBC0000B585B00390029113468DF80730039B53
:101ECC001B7A052B0FD0039B5B7A002B06D00D4B96
:101EDC001B681A460C49029802F042F80B4902980A
:101EEC0002F03EF807E09DF80730002B03D00749BD
:101EFC00029802F035F8029802F010F800BF05B015
:101F0C005DF804FBD8000020587F0000687F0000BB
:101F1C0030B58BB007900691059204930E9B1B7BFA
:101F2C008DF827300E9B00221A730E990498FFF738
:101F3C0067FF059B062B7FD801A252F823F000BF48
:101F4C00691F0000731F0000831F0000971F000013
:101F5C00B51F0000DD1F00000D20000007990E9832
:101F6C0001F0FEFF69E0069B1B681A4607990E9864
:101F7C0001F0F6FF61E0069B1A68069B04331B68B0
:101F8C0007990E9801F0ECFF57E0069B1A68069B28
:101F9C0004331968069B08331B6800930B4607999A
:101FAC000E9801F0DDFF48E0069B1968069B043390
:101FBC001868069B08331B68069A0C32126801924B
:101FCC00009303460A4607990E9801F0C9FF34E0C6
:101FDC00069B1868069B04331C68069B08331B6819
:101FEC00069A0C3212680699103109680291019216
:101FFC0000932346024607990E9801F0B1FF1CE0AE
:10200C00069B1C68069B04331D68069B08331B68E3
:10201C00069A0C3212680699103109680698143029
:10202C00006803900291019200932B462246079977
:10203C000E9801F095FF00E000BF00220E99049865
:10204C00FFF736FF0E9B9DF827201A7300BF0BB0CD
:10205C0030BD00BF00B587B0039002910192009390
:10206C00029B082B60D8009B1B7B8DF81330009BC8
:10207C0000221A7300990198FFF7C2FE0023059302
:10208C0014E0059A029B9A4209D2039A059B1344C9
:10209C001B781A462649009801F062FF03E0254997
:1020AC00009801F05DFF059B01330593059B072B01
:1020BC00E7D92149009801F053FF0023059326E04E
:1020CC00059A029B9A421BD2039A059B13441B78D8
:1020DC008DF812309DF812307E2B0AD89DF81230F4
:1020EC00184605F06DF90346002B02D09DF812300E
:1020FC0000E02E231A461149009801F031FF03E04D
:10210C000F49009801F02CFF059B01330593059BAB
:10211C00072BD5D9012200990198FFF7C9FE009B26
:10212C009DF813201A7300E000BF07B05DF804FBA4
:10213C006C7F0000747F0000787F00007C7F0000C3
:10214C00807F000086B003900291019201238DF8EC
:10215C0017309DF81730204A039B13601E4A029BD0
:10216C0053601D4A019B9360039B44F2010293420E
:10217C0012D0039B44F20202934220D1019B164AD7
:10218C00D360154BDB681B68134A9361124BDB68F9
:10219C005B68114AD36112E0019B0F4A13610E4B2D
:1021AC001B699B680C4A53610B4B1B691B680A4AE1
:1021BC009361094B1B695B68074AD36100BF72B618
:1021CC0000BF00BF9DF81730DBB2002BFAD162B60E
:1021DC0000BF00BF06B07047E006002000B583B01A
:1021EC0002900091019244F2010071466A4600F09F
:1021FC0003F803B000BD00BF30B58BB0079006915B
:10220C00059272B600BFFFF7E7F900BFFEF750FF6B
:10221C000346002BFAD1079B44F2010293421AD0D9
:10222C00079B44F2020293424AD1059B0993374B18
:10223C005B88002B55D0364A364BD31ADB081B046F
:10224C0043F00100099B5B681A46099B1B683249E5
:10225C00FEF7F1FE45E0059B08932C4B5B88002BA9
:10226C001ED02B4A2B4BD31ADB081B0443F0010462
:10227C00089B9D68089B9B68184602F0D5FC03469A
:10228C001846089B5B681946089B1B68069A0292C5
:10229C000193009103462A4620492046FEF7DFFEB3
:1022AC001A4B5B88002B1ED0194A1A4BD31ADB0829
:1022BC001B0443F001031A491846FEF79DFE12E079
:1022CC00124B5B88002B10D0114A124BD31ADB082F
:1022DC001B0443F00103069A12491846FEF79AFEB6
:1022EC0003E000BF02E000BF00E000BF0E4B1B6824
:1022FC0003F00103002B00D000BE059A0699079845
:10230C00FFF720FF00BF0BB030BD00BF2C0000203A
:10231C00B076000090760000847F0000A07F000063
:10232C00C87F0000DC7F0000F0ED00E072B600BF5B
:10233C00034B1B680133024A136000BF704700BF98
:10234C0000070020064B1B68013B054A1360044B39
:10235C001B68002B01D162B600BF00BF704700BFE5
:10236C000007002000B583B0019000F025F803466B
:10237C00012B03D00449432000F04AF8FFF7D6FFA5
:10238C0000BF03B05DF804FB6880000000B583B0AB
:10239C0003468DF8073000F00FF80346012B03D0ED
:1023AC000449512000F034F8FFF7CCFF00BF03B014
:1023BC005DF804FB6880000084B0EFF305830193A3
:1023CC00019BC3F308030393039B002B0DD1EFF385
:1023DC0014830093009B0293029B03F00103002BD8
:1023EC000CBF01230023DBB200E00123184604B02C
:1023FC007047000008B5044B1B68044A126810466D
:10240C00984700BF08BD00BF040700200807002044
:10241C0000B585B003460091ADF80630BDF8063026
:10242C000293009B039302AB1A46002144F2020074
:10243C00FFF7E2FE00BF05B05DF804FB10B487B0F7
:10244C0001900091019B009A53E8004F104643E81D
:10245C00000191F0000FF7D1059404900391059BB6
:10246C00184607B05DF8044B704710B487B0019064
:10247C000091019B009A53E8004F44EA020043E8A4
:10248C00000191F0000FF6D1059404900391049B88
:10249C00184607B05DF8044B704710B487B0019034
:1024AC000091019B009A53E8004F04EA020043E8B4
:1024BC00000191F0000FF6D1059404900391059B57
:1024CC00184607B05DF8044B704710B487B0019004
:1024DC000091019B009A53E8004F04EB020043E883
:1024EC00000191F0000FF6D1059404900391049B28
:1024FC00184607B05DF8044B704710B487B00190D4
:10250C000091019B009A53E8004FA4EB020043E8B2
:10251C00000191F0000FF6D1059404900391049BF7
:10252C00184607B05DF8044B704700B583B00190B6
:10253C0001210198FFF799FF0346184603B05DF897
:10254C0004FB00B583B0019000210198FFF7A5FFB3
:10255C000346184603B05DF804FB000000B583B0D9
:10256C000190019B002B04D1054940F24510FFF767
:10257C004FFF019B1B681B79184603B05DF804FBE9
:10258C00BC80000000B583B00190019B002B04D1EE
:10259C00074940F25510FFF73BFF019B9A68019BDE
:1025AC001B681B68D31ADBB2184603B05DF804FB3A
:1025BC00BC80000082B00190019B9B68D3F848312D
:1025CC00C3F34003DBB2002B14BF01230023DBB2A7
:1025DC00184602B07047000000B597B00B900A91F6
:1025EC0009920B98FFF7E6FF0346002B05D000225B
:1025FC0000210B9800F0BCFE61E00A9B012B05D971
:10260C00304A02210B9800F087FD58E02E4A2F4BE0
:10261C00D31A9B082E4AA2FB032314930023159371
:10262C0049E0159A1346DB009B1A9B001A46274B70
:10263C0013441393139B1B8B1293139B1B8B1A46E4
:10264C00129BD31A1193139B9A68139B5B68D31A32
:10265C0010931398FFF782FF03460F931398FFF71D
:10266C0091FF03460E93139B5B690D930E9B6422A3
:10267C0003FB02F2109BB2FBF3F30F9A642102FBF3
:10268C0001F1109AB1FBF2F2109907910F99069192
:10269C000592109A04920E9A03920293119B019345
:1026AC00129B00930D9B0B4A08210B9800F034FDF4
:1026BC00159B01331593159A149B9A42B1D317B0FD
:1026CC005DF804FB0C8100001C7700000077000013
:1026DC00254992242081000000B583B001900B465F
:1026EC008DF80330019B002B03D10849E820FFF73C
:1026FC008FFE019BDA689DF803300199098B01FB71
:10270C0003F31344184603B05DF804FB0482000085
:10271C0000B583B001900091019B002B03D10849B7
:10272C00F520FFF775FE009B019AD2689B1A019A5F
:10273C00128BB3FBF2F3DBB2184603B05DF804FB6B
:10274C000482000000B585B00190019B002B01D1E3
:10275C000E234CE0019B1B68002B03D12649FF2064
:10276C00FFF756FE019B5B68002B04D122494FF406
:10277C008070FFF74DFE019B9B68002B04D11E4916
:10278C0040F20110FFF744FE019BDB68002B04D1E3
:10279C0019494FF48170FFF73BFE019B1B8B002BFB
:1027AC0004D1154940F20310FFF732FE019B9A68E1
:1027BC00019B5B68D31A8DF80F30019B1B68019A43
:1027CC0052681A6007E0019B1A681368591C116063
:1027DC009DF80F201A709DF80F305A1E8DF80F209F
:1027EC00002BF0D1019B1B6800221A7100231846A4
:1027FC0005B05DF804FB00BF0482000000B585B095
:10280C000190019B002B04D11C494FF49270FFF7EF
:10281C00FFFD002303930020FFF7A4FD019B1B6821
:10282C001A68019B5B689A421FD9019B1B681A6846
:10283C00013A1A601B681B7819460198FFF74CFF88
:10284C000390019B9A68019B1B681B68D31A8DF837
:10285C000B30019B1B681B799DF80B209A4204D905
:10286C00019B1B689DF80B201A710020FFF78EFD51
:10287C00039B184605B05DF804FB00BF0482000002
:10288C0010B584B001900091019B002B04D111492B
:10289C0040F24710FFF7BCFD009B002B04D10D4903
:1028AC004FF4A470FFF7B4FD009B03930020FFF7D7
:1028BC0059FD019B1B681C68621C1A6003990198E6
:1028CC00FFF726FF034623700020FFF75FFD00BFD4
:1028DC0004B010BD0482000082B00190019B9B6883
:1028EC00D3F84831C3F34003DBB2002B14BF0123F0
:1028FC000023DBB2184602B07047000000B585B06B
:10290C000190019B002B0AD0074B43F0010303936A
:10291C00019B9B010293039B0298984700E000BF28
:10292C0005B05DF804FB00BF0089000000B583B062
:10293C000190019B1B69184601F0F0FA00BF03B02F
:10294C005DF804FB82B00190019B9A68B2F84831A3
:10295C0043F00803A2F8483100BF02B0704782B0C0
:10296C000190019B9A68B2F848316FF3C303A2F847
:10297C00483100BF02B0704782B00190019B9B6848
:10298C00D3F84831C3F3C003DBB2184602B070472A
:10299C0000B583B00190019B002B04D0019804F08A
:1029AC007FFD034600E00023184603B05DF804FBEE
:1029BC0010B588B00390029101920093039B002BF9
:1029CC0002D0029B002B03D12D49F420FFF720FDF0
:1029DC00039B5B681B68002B03D12949F520FFF78B
:1029EC0017FD002307933EE0039B5B681B68DC68C4
:1029FC00039B5868029A079BD11805AB019AA04714
:102A0C000690069B002B03D01D49FF20FFF700FD0D
:102A1C00059B019A9A4204D219494FF48070FFF732
:102A2C00F7FC059B079A13440793059B019AD31A4D
:102A3C000193059B002B16D1039B9B681B78032BE2
:102A4C0011D000BF039B9B68D3F84831C3F34013EC
:102A5C00DBB2002BF6D0039B9A68B2F848316FF3C7
:102A6C004513A2F84831019B002BBDD1009B002BD4
:102A7C0002D0059A009B1A6000BF08B010BD00BFC1
:102A8C008C82000000B583B001900B468DF80330AA
:102A9C00019B1B699DF803200349184601F060FA5D
:102AAC0000BF03B05DF804FBD482000010B586B003
:102ABC000390029101920093039B002B02D0029B86
:102ACC00002B04D10D4940F22310FFF7A1FC039B0E
:102ADC005B68002B04D109494FF49270FFF798FC06
:102AEC00039B5B681B681C69039B5868009B019ADD
:102AFC000299A047059000BF06B010BD8C82000063
:102B0C0000B589B00390029101920093009B002BB9
:102B1C0004D13B494FF49C70FFF77AFC0A9B002BC5
:102B2C0004D1374940F23910FFF772FC029B002B9D
:102B3C0034D1344A344BD31ADB08019A9A4229D245
:102B4C0000230693314B0593002307931BE0079B4F
:102B5C00DB002D4A13440693019B9B00059A1344FA
:102B6C001A68069B5B681B681946104604F064FCE7
:102B7C000346002B04D1069B5A68009B1A603CE06C
:102B8C00079B013307931F4A1F4BD31ADB08079A85
:102B9C009A42DCD3009B00221A602EE0039B002B90
:102BAC0003D1009B00221A6027E0039B1B78002BAB
:102BBC0010D0039B5B680A99019898470A9B1B6885
:102BCC00002B03D1009B00221A6016E0009B0A9A8E
:102BDC001A6012E0039B5A68019B1B0113441B688B
:102BEC00002B07D0039B5A68019B1B011A44009BC6
:102BFC001A6002E0009B00221A6009B05DF804FB29
:102C0C008C820000907600005876000000000020B6
:102C1C0000B583B00190019B1B690449184601F073
:102C2C009FF900BF03B05DF804FB00BFDC8200001D
:102C3C0000B583B001900B468DF803309DF803303E
:102C4C00002B07D0019B1B699DF8032003491846F4
:102C5C0001F086F900BF03B05DF804FBE0820000D0
:102C6C0000B583B001900B468DF803309DF803300E
:102C7C00002B07D0019B1B699DF8032003491846C4
:102C8C0001F06EF900BF03B05DF804FBE8820000B0
:102C9C0000B583B001900B468DF803309DF80330DE
:102CAC00002B07D0019B1B699DF803200349184694
:102CBC0001F056F900BF03B05DF804FBF082000090
:102CCC0000B583B001900B468DF803309DF80330AE
:102CDC00002B07D0019B1B699DF803200349184664
:102CEC0001F03EF900BF03B05DF804FBF882000070
:102CFC0000B587B001900023ADF816300023ADF875
:102D0C00143000238DF80B3000238DF81330019B09
:102D1C009B68A03380220021184604F027FC019BFD
:102D2C001B697749184601F01BF90198FFF7FEFD66
:102D3C000023ADF81030D7E003AB0DF10B010122ED
:102D4C000198FFF7B3FE039B002B04D140F2E73050
:102D5C00FFF7D4FDBFE09DF80B301B2B06D0019B79
:102D6C009B6893F8A0301B2B40F0B4809DF80B307F
:102D7C00522B40F09580019B9A689DF813301344B8
:102D8C00002283F8A020019B9B6893F8A1305B2B59
:102D9C0006D0019B9B68002283F8A0200B23AAE09D
:102DAC0002238DF813301CE0BDF814301A46920043
:102DBC0013445B009AB2019B99689DF81330581C20
:102DCC008DF813000B4493F8A0309BB213449BB2C4
:102DDC00303BADF814309DF91330002B01DA0C2385
:102DEC0089E0019B9A689DF81330134493F8A03046
:102DFC003B2BD9D19DF8133001338DF813309DF94D
:102E0C001330002B1EDA0C2375E0BDF816301A4671
:102E1C00920013445B009AB2019B99689DF81330A1
:102E2C00581C8DF813000B4493F8A0309BB213443C
:102E3C009BB2303BADF816309DF91330002B01DA04
:102E4C000C2358E0019B9A689DF81330134493F8B7
:102E5C00A030002BD9D1BDF81630FA2B04D9019B28
:102E6C009B68FA221A7505E0019B9B68BDF8162039
:102E7C00D2B21A75BDF81430FA2B04D9019B9B6899
:102E8C00FA229A7505E0019B9B68BDF81420D2B21A
:102E9C009A75019B9B68002283F8A02000232AE0EE
:102EAC00019B9A689DF813309DF80B1013440A4649
:102EBC0083F8A0209DF8133001338DF813309DF862
:102ECC001330092B07D9019B9B68002283F8A020A3
:102EDC00042310E000BF039B002B7FF42DAFBDF843
:102EEC0010300133ADF81030BDF81030B3F57A7FE7
:102EFC00FFF422AF0D23184607B05DF804FB00BFAA
:102F0C00F888000000B587B0039002910192029BF3
:102F1C00002B04D12A4940F24930FFF779FA019B82
:102F2C00002B04D1264940F24A30FFF771FA03987E
:102F3C00FFF7DEFE0346002B18D1039B9B681B7D1D
:102F4C00ADF81630039B9B689B7DADF81430FA21CD
:102F5C000398FFF785FEFA210398FFF7B1FE03985B
:102F6C00FFF7C6FE0346002B24D101E0062322E026
:102F7C00039B9B681A7D029B1A70039B9B689A7D2E
:102F8C00019B1A70029B1A78BDF81630DBB2D31A6B
:102F9C00DBB219460398FFF74BFE019B1A78BDF87C
:102FAC001430DBB2D31ADBB219460398FFF770FE6C
:102FBC00002300E00623184607B05DF804FB00BFB1
:102FCC008C82000000B585B001900B468DF8033063
:102FDC009DF80330002B2ED0019B9B68DB7E9DF867
:102FEC0003209A4234D01B238DF808305B238DF8D4
:102FFC00093031238DF80A303B238DF80B30332305
:10300C008DF80C309DF803302F33DBB28DF80D307A
:10301C006D238DF80E3000238DF80F30019B9B68CB
:10302C009DF80320DA76019B1B6902AA0A4918460F
:10303C0000F096FF0DE0019B9B689DF80320DA766B
:10304C00019B1B69054A0449184600F089FF00E002
:10305C0000BF05B05DF804FBD882000008890000B1
:10306C0000B585B001900B468DF803309DF8033008
:10307C00002B29D0019B9B681B7F9DF803209A4253
:10308C0021D01B238DF808305B238DF809303423B5
:10309C008DF80A309DF803302F33DBB28DF80B30EE
:1030AC006D238DF80C3000238DF80D30019B9B683F
:1030BC009DF803201A77019B1B6902AA0449184644
:1030CC0000F04EFF00E000BF05B05DF804FB00BF50
:1030DC00D882000082B001900091019B9B681B3349
:1030EC001B889AB2009B1A8000BF02B0704700B5D3
:1030FC0083B001900091009B1B7819460198FFF753
:10310C0061FF009B5B7819460198FFF7A9FF00BF90
:10311C0003B05DF804FB00000CB400B585B0019061
:10312C000B468DF80330069B002B04D12B4940F63F
:10313C006130FFF76DF9019B002B04D1274940F654
:10314C006230FFF765F9019B9B68002B07D0019B50
:10315C005B68002B03D0019B1B68002B04D11F491B
:10316C0040F66330FFF754F90023039307AB039346
:10317C00019B9B68D3F84831C3F38003DBB2002B6F
:10318C001ED0019B9B68DB7E9DF803209A4217D0D2
:10319C0002AB19460198FFF79DFF9DF803301946C5
:1031AC000198FFF70FFF019B1B6903AA06991846AC
:1031BC0001F0BEF802AB19460198FFF798FF07E043
:1031CC00019B1B6903AA0699184601F0B1F800BFD0
:1031DC0000BF05B05DF804EB02B070478C820000B4
:1031EC0000B589B00390029101928DF80330029BD7
:1031FC00002B00F0B8809DF80330002B05D0019B0C
:10320C00DBB219460398FFF72BFD0023069302E06F
:10321C00069B01330693029A069B13441B781846AF
:10322C0004F0CBF80346002BF2D10023059302984F
:10323C00FFF7AEFB0246069BD31A0793039B9B68D2
:10324C005B7E1A46019BD31A079A9A4238D8002300
:10325C00059324E0069A059B1344029A13441B78A9
:10326C000A2B19D10398FFF761FB029A069BD11820
:10327C000023059A0398FFF79BFB059A069B1344C2
:10328C00013306930398FFF7C3FC019BDBB219468D
:10329C000398FFF7E5FC06E0059B01330593059ABF
:1032AC00079B9A42D6D3039B1869029A069B134438
:1032BC00194600F055FE00BF0398FFF7A9FC53E038
:1032CC00039B9B685B7E1A46019BD31A0793069A55
:1032DC00059B1344029A13441B78184604F06DF8AE
:1032EC000346002B09D0059B0793069A059B1344B4
:1032FC00029A13441B780A2B0BD0059A019B13449A
:10330C00039A9268527E934205D2059B0133059332
:10331C00DDE700BF00E000BF0398FFF707FB029A50
:10332C00069BD1180023079A0398FFF741FB069AD6
:10333C00079B1344069302E0069B01330693029A03
:10334C00069B13441B78184604F037F80346002BF1
:10335C00F2D10398FFF75CFC019BDBB21946039892
:10336C00FFF77EFC61E700BF09B05DF804FB0000CD
:10337C0030B591B0059004910392059B002B04D1BC
:10338C00B34940F6E230FFF743F8059B9B68002BEE
:10339C0007D0059B5B68002B03D0059B1B68002B9B
:1033AC0004D1AB4940F6E330FFF732F80023ADF817
:1033BC003E30A848FFF7ECFA03469CB2A648FFF74C
:1033CC00E7FA03469BB2E31AADF83C30059B9B68C9
:1033DC005B68A24A0092A24A08210598FFF79CFE5E
:1033EC00059B9B685B681846FFF7D2FA03469CB2B4
:1033FC009A48FFF7CDFA03469BB22344ADF83E3012
:10340C00059B9B689968BDF83E2000230598FFF743
:10341C00E7FE944A00210598FFF77EFE039B002BE4
:10342C004AD0049B002B47D000230E9340E00E9A09
:10343C0013465B0013449B001A46049B13445B68C1
:10344C001846FFF7A5FA04460E9A13465B00134480
:10345C009B001A46049B13441B681846FFF798FA06
:10346C000346E218BDF83C309A421ED90E9A134618
:10347C005B0013449B001A46049B13445B6818467C
:10348C00FFF786FA03469CB20E9A13465B00134470
:10349C009B001A46049B13441B681846FFF778FAE6
:1034AC0003469BB22344ADF83C300E9B01330E9384
:1034BC000E9A039B9A42BAD36748FFF769FA034600
:1034CC00694A127813449AB2BDF83C301344ADF8F3
:1034DC003C30BDF83C305F4A0092644A08210598A4
:1034EC00FFF71AFE604B1B789AB2BDF83C301344C0
:1034FC009BB20133ADF83E30BDF83E2000235C4951
:10350C000598FFF76DFE049B002B00F00281002351
:10351C000D93F9E00D9A13465B0013449B001A4679
:10352C00049B13445B68002B69D00D9A13465B0017
:10353C0013449B001A46049B13441B68002B5ED05B
:10354C000D9A13465B0013449B001A46049B1344CC
:10355C0059680D9A13465B0013449B001A46049B52
:10356C0013441B6801933C4B00930B46414A0821C2
:10357C000598FFF7D1FD3C4B1B789AB2BDF83C3057
:10358C001344ADF83E30BDF83E30DCB20D9A134614
:10359C005B0013449B001A46049B13445B6818465B
:1035AC00FFF7F6F90346DDB20D9A13465B001344A0
:1035BC009B001A46049B13441B681846FFF7E8F956
:1035CC000346DBB22B44DAB2274B1B781344DDB233
:1035DC002148FFF7DDF90346DBB22B44DBB2E31ADB
:1035EC00DBB219460598FFF73BFB3A210598FFF72C
:1035FC0049FABDF83E300133ADF83E3063E00D9A28
:10360C0013465B0013449B001A46049B13445B68EF
:10361C00002B31D0BDF83C100D9A13465B001344BF
:10362C009B001A46049B13445B6800930B460F4A9D
:10363C0008210598FFF770FD0B4B1B789AB2BDF86B
:10364C003C3013449BB20133ADF83E303BE000BF3D
:10365C008C8200000C890000188900001C89000075
:10366C0098830000A083000020890000AC83000038
:10367C00B4830000C88300000D9A13465B0013440A
:10368C009B001A46049B13441B68002B1BD0BDF8EF
:10369C003C100D9A13465B0013449B001A46049B86
:1036AC0013441B6800930B465B4A08210598FFF7EF
:1036BC0033FD5A4B1B789AB2BDF83C3013449BB285
:1036CC000133ADF83E300D9A13465B0013449B005A
:1036DC001A46049B13449B68002B0FD00D9A13467B
:1036EC005B0013449B001A46049B13449968BDF875
:1036FC003E2000230598FFF773FD02E00598FFF7C5
:10370C0087FA0D9B01330D930D9A039B9A42FFF49C
:10371C0001AF059B9B68DB68002B75D0059B9B68F4
:10372C00DB680B93002306930023ADF83E30002397
:10373C00ADF83C3000230C930C9A531C0C9306A947
:10374C0007AB00930B4601210B98FFF7D9F9069BA9
:10375C00002B12D0069B1B681846FFF719F902467E
:10376C00BDF83C309A42E7D9069B1B681846FFF718
:10377C000FF90346ADF83C30DEE700BF0C9B012B84
:10378C0044D0274A00210598FFF7C6FC00230C9370
:10379C000C9A531C0C9306A907AB00930B46012102
:1037AC000B98FFF7ADF9069B002B31D01B4B1B7808
:1037BC009AB2BDF83C301344ADF83E30BDF83E2013
:1037CC00069B1B6800931346134A08210598FFF7C4
:1037DC00A3FC124B1B789AB2BDF83E3013449BB23B
:1037EC000133ADF83E30069B5B68002B08D0069B7E
:1037FC005968BDF83E2000230598FFF7F1FCC7E798
:10380C000598FFF705FAC3E700BF02E000BF00E030
:10381C0000BF11B030BD00BFAC8300002089000098
:10382C00D483000000B585B00390019200930B4641
:10383C008DF80B300398FFF74FF80346002B06D09A
:10384C00009A01990398FFF793FD01230EE09DF870
:10385C000B30002B09D0039B9B685B68054A022147
:10386C000398FFF759FC012300E00023184605B02C
:10387C005DF804FB1484000000B585B00390029140
:10388C000192039B002B04D12B4940F65F50FEF7AD
:10389C00BFFD039B9B68002B07D0039B5B68002B31
:1038AC0003D0039B1B68002B04D123494FF45660B3
:1038BC00FEF7AEFD029B022B0BD10398FFF70CF821
:1038CC000346002B05D0002200210398FFF750FD82
:1038DC002FE0039B002B04D1174940F66850FEF7EC
:1038EC0097FD039B1B69002B04D1134940F66850CC
:1038FC00FEF78EFD039B1B69104A1149184600F018
:10390C002FFB039B002B04D10B4940F66950FEF7AB
:10391C007FFD039B1B69002B04D1074940F66950BE
:10392C00FEF776FD039B1B69064A0549184600F015
:10393C0017FB05B05DF804FB8C82000024890000A5
:10394C00D88200002889000000B585B00390029150
:10395C000192039B002B04D1174940F66E50FEF7E1
:10396C0057FD039B9B68002B07D0039B5B68002BC8
:10397C0003D0039B1B68002B04D10F4940F66F50FA
:10398C00FEF746FD029B012B08D0029B022B0BD1AC
:10399C000398FEF7A1FF0346002B05D0002200215F
:1039AC000398FFF7E5FC04E0044A02210398FFF7B3
:1039BC00B3FB05B05DF804FB8C820000748300003F
:1039CC0000B585B0039002910192029B012B14BFAC
:1039DC0001230023D9B2002300220398FFF722FF12
:1039EC000346002B08D1039B9A68B2F848316FF359
:1039FC008203A2F8483100E000BF05B05DF804FB7B
:103A0C0000B585B0039002910192029B012B14BF6B
:103A1C0001230023D9B2002300220398FFF702FFF1
:103A2C000346002B08D1039B9A68B2F8483143F047
:103A3C000403A2F8483100E000BF05B05DF804FBB8
:103A4C0000B587B0059004910392059B002B04D11F
:103A5C001F4940F68F50FEF7DBFC059B9B68002B43
:103A6C0007D0059B5B68002B03D0059B1B68002BC4
:103A7C0004D117494FF45960FEF7CAFC049B012B83
:103A8C0005D1002200210598FFF772FC1DE0049B74
:103A9C00022B14BF01230023D9B200230022059866
:103AAC00FFF7C0FE0346002B0ED1039B1A68039B45
:103ABC0004331B680193074B00931346064A0221FB
:103ACC000598FFF729FB00E000BF07B05DF804FB89
:103ADC008C8200003C8400003084000000B587B06C
:103AEC00059004910392049B022B8CBF01230023AD
:103AFC00D9B2002300220598FFF794FE0346002B51
:103B0C0020D1049B022B0ED1039B1A68039B043318
:103B1C001B6801930D4B009313460D4A0221059827
:103B2C00FFF7FAFA0FE00598FEF726FF0346002B85
:103B3C0001D0084B00E0084B084A00210598FFF71C
:103B4C00EBFA00E000BF07B05DF804FB3C8400001A
:103B5C003084000054840000588400005C84000011
:103B6C0000B585B0039002910192029B012B14BF0A
:103B7C0001230023D9B2002300220398FFF752FE41
:103B8C000346002B03D10398FEF7E9FE00E000BFCB
:103B9C0005B05DF804FB00B585B00390029101926D
:103BAC00029B012B14BF01230023D9B20023002256
:103BBC000398FFF737FE0346002B03D10398FEF75B
:103BCC00C1FE00E000BF05B05DF804FB00B58DB090
:103BDC00059004910392059B002B04D12D4940F6CE
:103BEC00C750FEF715FC059B9B68002B07D0059B67
:103BFC005B68002B03D0059B1B68002B04D1254967
:103C0C0040F6C850FEF704FC049B012B14BF0123A3
:103C1C000023D9B2002300220598FFF703FE0346C8
:103C2C00002B33D100230B93059B9B68D3F84031B9
:103C3C000A930A9B002B23D00B9B072B20D807A998
:103C4C00002309220A9800F0ADFE059B9B6803F146
:103C5C00A0019DF8243001331A4609230A9800F07C
:103C6C00A1FE089B0A930B9B5A1C0B92059A926817
:103C7C00A0320092084A00210598FFF74DFAD8E7C8
:103C8C00059B9B68002283F8A02000E000BF0DB0CC
:103C9C005DF804FB8C8200007084000000B587B0D6
:103CAC00059004910392049B012B05D10022002165
:103CBC000598FFF75DFB1CE0049B022B0ED1039BC8
:103CCC001A68039B04331B6801930B4B0093134638
:103CDC000A4A02210598FFF71FFA0AE0049B022BFF
:103CEC008CBF01230023D9B2002300220598FFF7D3
:103CFC0099FD07B05DF804FB3C84000030840000A3
:103D0C0000B58BB0079006910592069B012B14BF52
:103D1C0001230023D9B2002300220798FFF782FD6C
:103D2C000346002B29D1079BDB685B681B68099352
:103D3C00099800F031FF03468DF823309DF82330AD
:103D4C00642203FB02F2099B9B68B2FBF3F38DF830
:103D5C002230079B9B68D3F838019DF822309DF8E0
:103D6C002320099989680291019200930346054A20
:103D7C0000210798FFF7D0F900E000BF0BB05DF809
:103D8C0004FB00BF7C84000000B585B00390029159
:103D9C000192029B012B14BF01230023D9B20023F3
:103DAC0000220398FFF73EFD0346002B0CD1039B2A
:103DBC009B680022C3F83821039BDB685B681B6897
:103DCC00184600F0FDFE00E000BF05B05DF804FBF6
:103DDC0000B585B0039002910192029B012B14BF98
:103DEC0001230023D9B2002300220398FFF71AFD08
:103DFC000346002B20D1039B002B04D1104940F625
:103E0C002160FEF705FB039B1B69002B04D10C49B9
:103E1C0040F62160FEF7FCFA039B1B69094A0A492C
:103E2C00184600F09DF8039B9B6850225A76039B22
:103E3C009B6818221A7600E000BF05B05DF804FB01
:103E4C008C82000030890000D882000000B587B059
:103E5C00059004910392059B002B04D12B4940F64D
:103E6C002860FEF7D5FA059B9B68002B07D0059BB5
:103E7C005B68002B03D0059B1B68002B04D12349E6
:103E8C0040F62960FEF7C4FA049B012B1BD1059B5D
:103E9C009B6803F11901059B9B6818331A4605981A
:103EAC00FFF730F80346002B2AD0059B9B68502265
:103EBC005A76059B9B6818221A76154A0421059898
:103ECC00FFF72AF91CE0049B022B8CBF0123002373
:103EDC00D9B2002300220598FFF7A4FC0346002B5F
:103EEC0010D1039B1A68039B04331B680193094B85
:103EFC0000931346084A02210598FFF70DF902E0DA
:103F0C0000BF00E000BF07B05DF804FB8C8200002E
:103F1C00B48400003C8400003084000000B583B001
:103F2C000190019B002B03D10C493120FEF770FA54
:103F3C00019B9B68002B0CD0019B5B69019A10695B
:103F4C00019A1168019A92689847019B00229A6025
:103F5C0000E000BF03B05DF804FB00BF98890000CF
:103F6C000EB400B584B00190019B002B03D118490D
:103F7C004220FEF74DFA019B5B69002B03D11449DB
:103F8C004320FEF745FA019B1B68002B03D1104917
:103F9C004420FEF73DFA019B5B68002B03D10C49D2
:103FAC004520FEF735FA059B002B0AD0002303931E
:103FBC0006AB039303AB1A460599019800F0B8F9C8
:103FCC0000E000BF04B05DF804EB03B0704700BF25
:103FDC009889000000B583B001900B468DF8033032
:103FEC009DF803300A2B03D10D210198FFF7F2FF46
:103FFC00019B1A68019B9B68581C019988601344AB
:10400C009DF803201A70019B9A68019B5B689A4289
:10401C0002D30198FFF782FF00BF03B05DF804FBE9
:10402C0000B587B003900291019200930023059391
:10403C00009B03F00103002B24D00BE0029B013307
:10404C000293059B013305939DF813301946039891
:10405C00FFF7C0FF029B1B788DF813309DF81330CF
:10406C00002BEBD106E0019B013B0193202103982F
:10407C00FFF7B0FF019A059B9A422ED9019B002BAA
:10408C00F1D12AE0029B002B0BD0029803F008FA26
:10409C00059006E0019B013B019320210398FFF75B
:1040AC0099FF019A059B9A420FD9019B002BF1D1E4
:1040BC000BE0029B01330293059B013305939DF8A2
:1040CC00133019460398FFF785FF029B1B788DF878
:1040DC0013309DF81330002BEBD100BF07B05DF807
:1040EC0004FB000000B589B003900291019200938B
:1040FC00029B07930123069307E0079A019BB2FBEF
:10410C00F3F30793069B01330693079A019B9A429C
:10411C00F3D2009A069B9A4201D9009B06930B9B03
:10412C0003F00103002B22D10A9B002B1FD00B9B09
:10413C0003F00203002B06D0009B002B03D130238D
:10414C008DF8173002E020238DF8173008E00A9B19
:10415C00013B0A939DF8173019460398FFF73AFF75
:10416C000A9B002B03D0069A0A9B9A42EFD3012399
:10417C000793009B012B03D9009B013B009309E0A3
:10418C00029A079BB2FBF3F30493049A019B9A42A5
:10419C0000D205E0079B019A02FB03F30793E8E7C3
:1041AC00029A079BB2FBF3F30493049B079A02FB5E
:1041BC0003F3029AD31A0293154A049B13441B78F7
:1041CC0019460398FFF706FF079A019BB2FBF3F31E
:1041DC000793079B002BE3D10B9B03F00103002BF0
:1041EC0011D00A9B002B0ED006E00A9B013B0A93D0
:1041FC0020210398FFF7EEFE0A9B002B03D0069AB2
:10420C000A9B9A42F1D300BF09B05DF804FB00BFD2
:10421C00288A000000B589B005900491039202939E
:10422C00049B002BB8BF5B4206930123079307E066
:10423C00039B069A92FBF3F30693079B01330793B8
:10424C00039B069A9A42F3DA029A079B9A4201D987
:10425C00029B07930A9B002B0AD0049B002B04DBC8
:10426C000B9B03F00403002B02D00A9B013B0A9327
:10427C000B9B03F00203002B02D0029B002B16D0E9
:10428C000B9B03F00103002B11D10A9B002B0ED0CA
:10429C0006E00A9B013B0A9320210598FFF79AFE42
:1042AC000A9B002B03D0079A0A9B9A42F1D3049BDA
:1042BC00002B07DA049B5B4204932D210598FFF732
:1042CC0089FE08E00B9B03F00403002B03D02B2189
:1042DC000598FFF77FFE0B9B03F00203002B19D010
:1042EC000B9B03F00103002B14D1029B002B11D16B
:1042FC000A9B002B0ED006E00A9B013B0A9330214F
:10430C000598FFF767FE0A9B002B03D0079A0A9BC0
:10431C009A42F1D304990B9B01930A9B0093029B45
:10432C00039A0598FFF7DEFE00BF09B05DF804FBA9
:10433C0000B58FB0059004910392059B002B04D11E
:10434C00AD4940F25220FEF763F8059B5B69002BE8
:10435C0004D1A9494FF41570FEF75AF8059B1B6858
:10436C00002B04D1A44940F25520FEF751F8059BCF
:10437C005B68002B04D1A04940F25620FEF748F8A8
:10438C00049B002B00F09381049B1B788DF8373035
:10439C00049B013304939DF83730002B00F07E8191
:1043AC009DF83730252B40F06D8100230A930123B3
:1043BC000C93049B1B788DF837309DF83730302BDD
:1043CC000DD0302B1BDC2B2B11D02D2B17D10A9B96
:1043DC0043F001030A93049B0133049312E00A9BFC
:1043EC0043F002030A93049B013304930AE00A9BF3
:1043FC0043F004030A93049B0133049302E000236B
:10440C000C9300BF0C9B002BD3D1002309939DF878
:10441C0037302A2B0CD1039B1B68191D039A116092
:10442C001B68099A13440993049B013304931AE003
:10443C00049B1B788DF837309DF837302F2B12D911
:10444C009DF83730392B0ED8049B01330493099A0D
:10445C0013469B0013445B001A469DF837301344F7
:10446C00303B0993D3E700230B93049B1B788DF807
:10447C0037309DF837302E2B1DD1049B013304931C
:10448C00049B1B788DF837309DF837302F2B12D9C1
:10449C009DF83730392B0ED8049B013304930B9ABB
:1044AC0013469B0013445B001A469DF837301344A7
:1044BC00303B0B93E4E7049B1B788DF837309DF869
:1044CC0037306C2B03D09DF83730682B07D1049B09
:1044DC0001330493049B1B788DF83730EFE79DF87C
:1044EC003730252B00F0C480252BC0F2C680782BEA
:1044FC0000F3C380582BC0F2C080583B202B00F235
:10450C00BC8001A252F823F0094600008746000047
:10451C00874600008746000087460000874600005B
:10452C00874600008746000087460000874600004B
:10453C008746000099450000BB45000087460000F7
:10454C00874600008746000087460000BB450000F8
:10455C00874600008746000087460000874600001B
:10456C008746000087460000494600008746000049
:10457C00874600002D46000087460000DF450000FE
:10458C00874600008746000009460000039B1B6815
:10459C00191D039A11601B680C930C9B8DF81F302E
:1045AC009DF81F3019460598FFF714FD66E0039B34
:1045BC001B68191D039A11601B680C930A9B0193CD
:1045CC00099B00930B9B0A220C990598FFF722FE7E
:1045DC0054E0039B1B68191D039A11601B680C9314
:1045EC000C990A9B0193099B00930B9B0A2205983B
:1045FC00FFF778FD42E000BFDC890000039B1B68DD
:10460C00191D039A11601B680C930C990A9B01935A
:10461C00099B00930B9B10220598FFF763FD2DE07F
:10462C00039B1B68191D039A11601B6808930A9B56
:10463C00099A08990598FFF7F3FC1FE0039B1B6888
:10464C00191D039A11601B680C9330210598FFF714
:10465C00C1FC78210598FFF7BDFC0C990023019350
:10466C0008230093082310220598FFF73BFD05E073
:10467C0025210598FFF7AEFC00E000BF049B013339
:10468C00049305E09DF8373019460598FFF7A2FC16
:10469C00049B1B78002B7FF477AE00E000BF059BDA
:1046AC001B7B002B04D00598FFF738FC00E000BF03
:1046BC000FB05DF804FB00BF00B583B0019001980A
:1046CC00FEF740F80346184603B05DF804FB00B54E
:1046DC008BB001900091019B1B8B043B0793009ABC
:1046EC00079B1344DA1C079BB2FBF3F38DF81B30CA
:1046FC000198FEF783F80590059B002B01D1002350
:10470C0038E0059B00221A71059B01225A71079B08
:10471C009AB2059BDA80059B09939DF81B30013BEF
:10472C000493099B019A1A60002308931DE00198D9
:10473C00FEF764F80390039B002B0ED0059B5B796E
:10474C000133DAB2059B5A71099B039A1A60039BD9
:10475C00019A1A60039B099304E0059800F00EF887
:10476C00002307E0089B01330893089A049B9A42A4
:10477C00DDD3059B18460BB05DF804FB00B58BB080
:10478C000190019B0793079B5B798DF81B30019B74
:10479C0008939DF81B30013B05930023099305E01A
:1047AC00089B1B680893099B01330993099A059B85
:1047BC009A42F5D3089B1B680493019B0893002332
:1047CC0009930BE0089B1B68039308990498FEF768
:1047DC0057F8039B0893099B013309939DF81B30F1
:1047EC00099A9A42EED300BF00BF0BB05DF804FBF0
:1047FC0000B585B00190019B0393039B0433012109
:10480C001846FDF762FE00BF05B05DF804FB00B56D
:10481C0087B00190019B0593059B04330121184639
:10482C00FDF76BFE0346039303AB0493049B1B78C9
:10483C00002B02D10198FFF7A1FF00BF07B05DF874
:10484C0004FB000000B591B003900291019200931B
:10485C00039B002B03D14349B620FDF7D9FD039BE5
:10486C000993039B0F93099BDB881A46099B5B7981
:10487C0002FB03F3043B0893009A089B9A4203D370
:10488C003849C420FDF7C4FD099BDB880793009BC6
:10489C001A1D079BB2FBF3F30E93009B0433079A8C
:1048AC00B3FBF2F2079901FB02F29B1A0D93019BE9
:1048BC001A68009B1344089A9A4203D2089A009BE8
:1048CC00D31A01E0019B1B680C93019B0C9A1A6094
:1048DC0005E00F9B1B680F930E9B013B0E930E9BE9
:1048EC00002BF6D100230B93079A0D9BD31A0A9336
:1048FC000A9A0C9B934228BF13460A932AE0029A09
:10490C000B9B134406930F9A0D9B1344043305938E
:10491C009DF84830002B05D00A9A0599069802F0AC
:10492C00EFFD04E00A9A0699059802F0E9FD0023D0
:10493C000D930F9B1B680F930C9A0A9BD31A0C9325
:10494C000B9A0A9B13440B93079A0C9B934228BF18
:10495C0013460A930C9B002BD1D100BF00BF11B0A2
:10496C005DF804FB388A000000B589B0059004910D
:10497C0003920293039B079307AA00230093029BC5
:10498C0004990598FFF75EFF079B039A9A4203D0A0
:10499C000349F620FDF73CFD00BF09B05DF804FBB0
:1049AC00388A000000B589B00590049103920293F7
:1049BC00039B079307AA01230093029B0499059874
:1049CC00FFF740FF079B039A9A4204D004494FF427
:1049DC008070FDF71DFD00BF09B05DF804FB00BF42
:1049EC00388A000082B00190019B9B68D3F8483153
:1049FC00C3F34003DBB2002B14BF01230023DBB253
:104A0C00184602B07047000000B595B00B900A91A3
:104A1C0009920B98FFF7E6FF0346002B05D0002206
:104A2C0000210B98FEF7A4FC5CE00A9B012B05D936
:104A3C002E4A02210B98FEF76FFB53E02C4A2D4BAC
:104A4C00D31A9B082C4AA2FB032312930023139323
:104A5C0044E0139A1346DB009B1A9B001A46254B25
:104A6C0013441193119BDB681093119B9B680F935C
:104A7C00119800F091F80E90119800F071F80D90CB
:104A8C00119B5B690C930D9B642203FB02F20F9B41
:104A9C00B2FBF3F30E9A642102FB01F10F9AB1FB06
:104AAC00F2F21199097C002901D1144900E0144952
:104ABC0007910F9906910E99059104920F9A039202
:104ACC000D9A02920193109B00930C9B0D4A0821A6
:104ADC000B98FEF721FB139B01331393139A129B34
:104AEC009A42B6D315B05DF804FB00BF748B00007E
:104AFC00907600009076000025499224888B000067
:104B0C00948B0000A08B000082B00190019B9B68ED
:104B1C00024A12781344184602B07047F48C000015
:104B2C0000B585B00190019B1B681B680393019B2A
:104B3C001B685B680293029A039B9A4203D3029A06
:104B4C00039BD31A07E00198FFF7DEFF0246039B95
:104B5C00D21A029B1344184605B05DF804FB000002
:104B6C0000B585B00190019B002B04D1094940F29E
:104B7C001E20FDF74DFC0020FDF7F4FB0198FFF71C
:104B8C00CFFF03900020FDF701FC039B184605B0F6
:104B9C005DF804FB708C000000B583B00190019BA4
:104BAC00002B04D1054940F23920FDF731FC019B63
:104BBC001B689B68184603B05DF804FB708C000002
:104BCC0000B583B00190019B002B04D1064940F243
:104BDC003F20FDF71DFC019B1B6800229A6000BF63
:104BEC0003B05DF804FB00BF708C000082B0019034
:104BFC00019B9B6800229A60019B9B6800221A61B2
:104C0C00019B9B6800225A61019B9B680022DA6021
:104C1C00019B9B6800225A60019B9B6800221A60D2
:104C2C0000BF02B07047000000B585B0019001983C
:104C3C0000F00EF80390039B002B01D0039B00E0C7
:104C4C00024B184605B05DF804FB00BF588D000000
:104C5C0086B00190164B0593164B04931FE0049AF3
:104C6C00059BD31ADB10DA0F13445B10DB00059A9B
:104C7C0013440393039B1B680293029A019B9A4271
:104C8C0002D9039B04930AE0029A019B9A4203D235
:104C9C00039B0833059302E0039B5B6804E0059AD1
:104CAC00049B9A42DBD30023184606B0704700BF22
:104CBC002C9100004492000000B589B00190009145
:104CCC00009B0793019B1B788DF80C30019B5B6854
:104CDC000493019B9B68DBB28DF81430019BDB685D
:104CEC000693074A079B52F823300649079A51F856
:104CFC00221003AA1046984700BF09B05DF804FBC8
:104D0C00100700201407002000B589B00190009115
:104D1C00009B0793019B1B788DF80C30019B5B6803
:104D2C000493019B9B68DBB28DF81430019BDB680C
:104D3C000693074A079B52F823300649079A51F805
:104D4C00221003AA1046984700BF09B05DF804FB77
:104D5C00100700201407002030B58FB0039002918B
:104D6C000192039B1B780C9326490C9B019A41F8EA
:104D7C002320029B1A6924490C9B41F82320029B97
:104D8C005B7F1946214A0C9B13440A461A70029BFE
:104D9C0004AC1D460FCD0FC495E80F0084E80F003E
:104DAC000C9B089300230D93039B1B781A46174BFF
:104DBC009B5C002B0DD0039B181D019B002B01D07D
:104DCC00134A00E0002204AB194601F023FB0D90BE
:104DDC0014E0039B1B781A460C4B9B5C002B0DD1EB
:104DEC00039B03F10C00019B002B01D0094A00E04E
:104DFC00002204AB194600F0A7FC0D900D9B184641
:104E0C000FB030BD10070020140700201807002039
:104E1C00C54C0000154D000000BF044BD3F8003406
:104E2C00002BFAD000BF00BF704700BF00E001406C
:104E3C0000B583B001900F4B0222C3F80425BFF3D9
:104E4C006F8F00BFBFF34F8F00BF0A4A019BC2F8A0
:104E5C000835FFF7E1FF074B0022C3F80425BFF329
:104E6C006F8F00BFBFF34F8F00BF00BF03B05DF863
:104E7C0004FB00BF00E0014000B583B0019000913D
:104E8C000E4B0122C3F80425BFF36F8F00BFBFF395
:104E9C004F8F00BF019B009A1A60FFF7BDFF074BB5
:104EAC000022C3F80425BFF36F8F00BFBFF34F8FF1
:104EBC0000BF00BF03B05DF804FB00BF00E0014081
:104ECC0082B001904FF08042019BC2F8083300BFC2
:104EDC0002B0704784B00346ADF80630BDF806301A
:104EEC0003F1804300221A60BDF8063003F18043C1
:104EFC001B680393039B00BF04B0704782B003464A
:104F0C00ADF80630BDF8063003F180431B68002B6A
:104F1C0014BF01230023DBB2184602B07047000017
:104F2C0008B54FF48070FFF7E9FF0346002B14D04F
:104F3C004FF48070FFF7CEFF0120FFF7C1FF114B3C
:104F4C005B7983F00103DBB2002B06D00D4B012201
:104F5C005A710C4B1B68002098474FF48270FFF776
:104F6C00CDFF0346002B0AD04FF48270FFF7B2FF3F
:104F7C000220FFF7A5FF034B1B680120984700BFD9
:104F8C0008BD00BF1C07002008B5064B1B68002B92
:104F9C0003D105495120FDF73BFA024B1B6898479A
:104FAC0000BF08BD240700202493000082B00190AC
:104FBC00019B044A934201D1034B00E000231846A5
:104FCC0002B07047002000402407002000B587B0D5
:104FDC0001900091019B002B03D118497720FDF71C
:104FEC0017FA0198FFF7E2FF0590059B002B1ED0E6
:104FFC0000238DF813300020FDF7B4F9059B1B79C5
:10500C00002B03D001238DF8133005E0059B009A8B
:10501C001A60059B01221A710020FDF7B7F99DF863
:10502C001330002B03D011230393039B02E00023C6
:10503C000393039B184607B05DF804FB2493000010
:10504C0000B585B00190019B002B03D10A499B2030
:10505C00FDF7DEF90198FFF7A9FF0390039B002BE6
:10506C0005D0039B00221A60039B00221A7100BF1B
:10507C0005B05DF804FB00BF2493000082B003462A
:10508C008DF807309DF90730002B0CDB9DF80730AD
:10509C0003F01F0205499DF907305B09012000FA56
:1050AC0002F241F8232000BF02B0704700E100E09B
:1050BC0082B003468DF807309DF90730002B13DBC7
:1050CC009DF8073003F01F0209499DF907305B0971
:1050DC00012000FA02F2203341F82320BFF34F8F56
:1050EC0000BFBFF36F8F00BF00BF02B0704700BF9F
:1050FC0000E100E082B0034600918DF807309DF985
:10510C000730002B0ADB009BDAB20C499DF9073003
:10511C005201D2B20B4483F800230BE0009BDAB2AD
:10512C0007499DF8073003F00F03043B5201D2B23C
:10513C000B441A7600BF02B0704700BF00E100E0DC
:10514C0000ED00E082B00190019B1B0B5BB2184696
:10515C0002B0704700B583B003460A468DF807309D
:10516C0013468DF806309DF80630072B03D90849F5
:10517C006B20FDF74DF99DF806209DF9073011467F
:10518C001846FFF7B7FF00BF03B05DF804FB00BF84
:10519C007493000000B583B003468DF807309DF979
:1051AC0007301846FFF76AFF00BF03B05DF804FB39
:1051BC0000B583B003468DF807309DF907301846CB
:1051CC00FFF776FF00BF03B05DF804FB84B00190DD
:1051DC000B46ADF80230BDF80230019A13440022A0
:1051EC001A60BDF80230019A13441B680393039BA9
:1051FC0000BF04B0704782B001900B46ADF802308E
:10520C00BDF80230019A13441B68002B14BF012314
:10521C000023DBB2184602B0704782B001900091B7
:10522C00019B009AC3F8042300BF02B0704782B000
:10523C0001900091019BD3F80423009B1340002B99
:10524C0014BF01230023DBB2184602B0704782B0B2
:10525C0001900091019B009AC3F8082300BF02B093
:10526C00704784B00190019BD3F880340393019B69
:10527C00039AC3F88024039B184604B0704782B08D
:10528C000190019B0422C3F8002500BF02B07047B7
:10529C0082B00190019B0022C3F8002500BF02B030
:1052AC00704784B0039002910192039B019AC3F85A
:1052BC001425039B029AC3F80C2500BF04B0704759
:1052CC0000B583B001904FF0FF324FF0FF310198E1
:1052DC00FFF7E7FF00BF03B05DF804FB82B001905D
:1052EC00019BD3F80C35184602B0704782B0019080
:1052FC00019BD3F81435184602B0704782B0019068
:10530C00019BD3F80835184602B0704782B0019063
:10531C00019BD3F81035184602B0704784B0039047
:10532C0002910192039B029AC3F80825039B019AF0
:10533C00C3F8102500BF04B0704700B583B00190CE
:10534C004FF0FF324FF0FF310198FFF7E7FF00BF3E
:10535C0003B05DF804FB82B00190019BD3F81835C3
:10536C00DBB2184602B0704782B001900B468DF844
:10537C0003309DF80320019BC3F81C2500BF02B02D
:10538C00704782B001900B468DF803309DF80330C6
:10539C00019A134401221A6000BF02B0704782B018
:1053AC0001900B468DF8033013468DF802309DF8B2
:1053BC0003209DF802301343DBB21A46019BC3F85D
:1053CC006C2500BF02B0704782B001900091019B28
:1053DC00009AC3F8242500BF02B0704700B583B013
:1053EC000190019B1B68184600F096F80346002BB1
:1053FC0004D105494FF4F670FDF70AF84FF0A043BD
:10540C00184603B05DF804FBA493000000B585B00A
:10541C000190084611461A4603468DF803300B4698
:10542C008DF8023013468DF8013001AB1846FFF7AA
:10543C00D5FF03909DF803209DF802305B001A43C2
:10544C009DF801309B001A439DF818301B0242EA6C
:10545C0003019DF81C301B04019A1943039B02F5B0
:10546C00E07243F8221000BF05B05DF804FB00B5F4
:10547C0085B00390002301930023009300230122A5
:10548C0001210398FFF7C2FF00BF05B05DF804FBD4
:10549C0000B585B003900B468DF80B309DF80B30A2
:1054AC000022019200220092002200210398FFF7B3
:1054BC00ADFF00BF05B05DF804FB00B585B00390EF
:1054CC000023019300230093002301220021039861
:1054DC00FFF79CFF00BF05B05DF804FB00B585B07D
:1054EC00019001AB1846FFF779FF0390019B012255
:1054FC0002FA03F31946039800F004F800BF05B054
:10550C005DF804FB82B001900091019B009AC3F8F6
:10551C00082500BF02B0704784B00190019B5B0965
:10552C00029300230393029B002B03D14FF0FF3314
:10553C00039300BF019B03F01F030193039A019B8C
:10554C0022FA03F303F00103002B14BF0123002301
:10555C00DBB2184604B0704700B583B001900091DF
:10556C00009B1B68B3F1FF3F09D0009B1B681846DA
:10557C00FFF7B4FF009B1B681846FFF778FF009BF2
:10558C005B68B3F1FF3F05D0009B5B6800211846B8
:10559C00FFF77EFF019B1A68009B9B69194610461A
:1055AC00FFF712FF019B1868009B597D009B1B7D28
:1055BC001A46FFF7F4FE019B1868009B1968009BC4
:1055CC005B681A46FFF76DFE009B1B7D012B22D1F9
:1055DC00009B9B68B3F1FF3F05D0009B9B680021AB
:1055EC001846FFF755FF009BDB68B3F1FF3F09D06E
:1055FC00009BDB681846FFF771FF009BDB681846C1
:10560C00FFF735FF019B1868009BD968009B9B68CE
:10561C001A46FFF783FE00BF03B05DF804FB0000E1
:10562C0000B583B001900B468DF80330019B1B68CD
:10563C004FF48E711846FFF7C9FD019B1B684FF4A0
:10564C00A2711846FFF7C2FD019B1B680E49184654
:10565C00FFF7E3FD019B1B681846FFF773FD03463C
:10566C001A469DF8033019461046FFF773FD019B4F
:10567C001B681846FFF766FD03461846FFF78AFDC0
:10568C0000BF03B05DF804FB8000020000B583B0DE
:10569C000190019B1B6808491846FFF7D8FD019B38
:1056AC001B681846FFF74EFD03461846FFF780FDB2
:1056BC0000BF03B05DF804FB8402020000B587B0A4
:1056CC000190019B1B681846FFF708FE0590019B93
:1056DC001B681846FFF70AFE0490019B1B681846CE
:1056EC00FFF70CFE0390019B1B681846FFF70EFE9C
:1056FC000290019B1B681846FFF7E2FD019B1B689B
:10570C001846FFF71AFE059BB3F1FF3F02D0059830
:10571C00FFF7D3FE049BB3F1FF3F02D00498FFF7D1
:10572C00CCFE029BB3F1FF3F02D00298FFF7C5FEFF
:10573C00039BB3F1FF3F02D00398FFF7BEFE00BFFF
:10574C0007B05DF804FB000000B587B00390029130
:10575C000192029B002B03D12D49AA20FCF758FE85
:10576C00039B1B791A462C2302FB03F3294A13448F
:10577C00049300230593049B93F82A30002B03D049
:10578C0008230593059B3EE0039B1A68039B1B793A
:10579C001946214B53F8213019461046FFF716FCD9
:1057AC000346002B03D011230593059B2BE0029994
:1057BC000398FFF7D1FE049B019A5A60029B1A6969
:1057CC00049B1A60049B5B68002B05D0029B1B7F1B
:1057DC0019460398FFF724FF039B1B681846FFF735
:1057EC004EFD049B00229A61049B0022DA61049B0B
:1057FC00002283F82920049B00225A61049B012279
:10580C0083F82A20059B184607B05DF804FB00BFFF
:10581C00DC9300002C0700202894000000B585B014
:10582C000190019B1B791A462C2302FB03F3114AAE
:10583C0013440393019B1B681846FFF729FD039B38
:10584C005B68002B02D00198FFF720FF0198FFF74F
:10585C0035FF019B1B681846FFF7F2FB039B0022E8
:10586C0083F82A20039B00225A6000BF05B05DF824
:10587C0004FB00BF2C07002000B585B001900091FF
:10588C004FF48E710198FFF7A1FC009B9A68009B66
:10589C001B6A13441B788DF80F30009B1B6A5A1C33
:1058AC00009B1A629DF80F3019460198FFF75CFDBA
:1058BC0000BF05B05DF804FB00B585B00190009108
:1058CC00009B5B69039316E0009B93F82830DBB2D6
:1058DC00002B01D0002314E04FF48E710198FFF7D8
:1058EC008AFC034683F00103DBB2002BECD1009958
:1058FC000198FFF7C1FF009B1B6A039A9A42EBD8F1
:10590C000123184605B05DF804FB000000B587B014
:10591C00039002910192039B1B791A462C2302FBE4
:10592C0003F33C4A13440493049B93F82A30012B51
:10593C0004D039494FF48C70FCF76AFD029B002BA4
:10594C0004D1354940F21910FCF762FD019B002B84
:10595C0004D131494FF48D70FCF75AFD039800F0D7
:10596C005DF80346002B03D011230593059B4CE0F7
:10597C00049B019A5A61049B029A9A60049B002230
:10598C001A62049B002283F8282000230593039BB2
:10599C001B684FF48E711846FFF718FC039B1B68AD
:1059AC0008211846FFF7EDFC039B1B680499184669
:1059BC00FFF762FF049B5B68002B25D1039B1B68E0
:1059CC0004991846FFF778FF034683F00103DBB216
:1059DC00002B02D00F23059313E000BF039B1B6821
:1059EC004FF48E711846FFF706FC034683F0010353
:1059FC00DBB2002BF2D1039B1B680C211846FFF77E
:105A0C00C0FC049B00225A61059B184607B05DF848
:105A1C0004FB00BF2C070020DC93000082B0019037
:105A2C00019B1B791946074A2C2301FB03F31344F2
:105A3C0014331B68002B14BF01230023DBB2184660
:105A4C0002B070472C07002010B582B00190009175
:105A5C00009B9B69002B08D14FF484710198FFF7D0
:105A6C00B5FB0198FFF777FC13E04FF484710198B4
:105A7C00FFF7ACFB009BDA68009B5B6AD4180198BB
:105A8C00FFF769FC03462370009B5B6A5A1C009B62
:105A9C005A6202B010BD00B589B003900291019218
:105AAC0001238DF81030029B0693019B0593039BF9
:105ABC005B68039A116804AA1046984700BF09B0A6
:105ACC005DF804FB00B587B00190009100238DF8C0
