:100000000000012071030000590300005B030000A1
:100010005D0300005F0300006103000000000000BA
:10002000000000000000000000000000630300006A
:100030006503000000000000670300006903000082
:100040006B0300006B030000C90500006B03000098
:100050006B0300006B0300006B030000F908000055
:10006000D90F00006B0300006B0300006B0300005E
:100070006B0300006B0300006B0300006B030000C8
:100080006B0300006B0300006B0300006B030000B8
:100090006B0300006B0300006B0300006B030000A8
:1000A0006B0300006B0300006B0300006B03000098
:1000B0006B0300006B030000000000000000000064
:1000C0006B0300006B0300006B0300006B03000078
:1000D0006B0300006B0300006B03000000000000D6
:1000E0000000000000000000000000000000000010
:1000F0000000000000000000000000000000000000
:1001000000000000000000000000000000000000EF
:1001100000000000000000000000000000000000DF
:1001200000000000000000000000000000000000CF
:1001300000000000000000000000000000000000BF
:1001400000000000000000000000000000000000AF
:10015000000000000000000000000000000000009F
:10016000000000000000000000000000000000008F
:10017000000000000000000000000000000000007F
:10018000000000000000000000000000000000006F
:10019000000000000000000000000000000000005F
:1001A000000000000000000000000000000000004F
:1001B000000000000000000000000000000000003F
:1001C000000000000000000000000000000000002F
:1001D000000000000000000000000000000000001F
:1001E000000000000000000000000000000000000F
:1001F00000000000000000000000000000000000FF
:10020000344935480A1A02D0072291438D463349B2
:1002100033480A1A06D00722914381F30988022243
:1002200082F314882F483049304A00F041F83048B2
:100230003049314A00F03CF830483149314A00F049
:1002400037F831483149324A00F032F83148324902
:10025000324A00F02DF832483249334A00F028F88B
:1002600032483349334A00F023F8334833490022F7
:1002700000F029F832483349002200F024F83248CF
:100280003249091A02F0A0FA314A90471F48204922
:10029000884205D00268043003B4904703BCF7E7F6
:1002A00000208646EC46002000212A4A9047FEE7BF
:1002B000884207D0521A05D0037801300B70013103
:1002C000013AF9D17047884202D002700130FAE752
:1002D000704700000000012000E000200000012025
:1002E00000000120EC2B0000000000202400002072
:1002F000CC030000CC030000DC270000EC2B000046
:100300000000002000000020DC270000DC270000A7
:10031000DC270000DC270000DC270000DC270000D1
:10032000DC270000DC270000E92B0000102C000077
:1003300024000020240000202400002028030020A6
:100340002803002028030020280300202823002061
:100350009903000011110000FEE7FEE7FEE7FEE74B
:10036000FEE7FEE7FEE7FEE7FEE7FEE700F002B885
:10037000FFF7FCBF0F484FF00701884385460E4842
:1003800080470E48016841F470010160BFF34F8F50
:10039000BFF36F8FFFF734BF09480A490A4A884202
:1003A00007D0521A05D0037801300B700131013AA1
:1003B000F9D17047000001203D1A000088ED00E0EF
:0C03C000DC2700000000002000000020EE
:1003CC0086B003900291019201238DF817309DF8AD
:1003DC001730204A039B13601E4A029B53601D4A30
:1003EC00019B9360039B44F20102934212D0039B46
:1003FC0044F20202934220D1019B164AD360154B62
:10040C00DB681B68134A9361124BDB685B68114A0B
:10041C00D36112E0019B0F4A13610E4B1B699B6861
:10042C000C4A53610B4B1B691B680A4A9361094BBD
:10043C001B695B68074AD36100BF72B600BF00BF7F
:10044C009DF81730DBB2002BFAD162B600BF00BFAB
:10045C0006B070472400002000B583B002900091D4
:10046C00019244F2010071466A4600F003F803B0B1
:10047C0000BD00BF00B587B003900291019272B627
:10048C0000BF039B44F20102934207D0039B44F24A
:10049C000202934205D1019B059303E0019B049357
:1004AC0000E000BF074B1B6803F00103002B00D0DA
:1004BC0000BE019A02990398FFF782FF00BF07B0B4
:1004CC005DF804FBF0ED00E072B600BF034B1B6857
:1004DC000133024A136000BF704700BF4400002084
:1004EC00064B1B68013B054A1360044B1B68002B31
:1004FC0001D162B600BF00BF704700BF44000020AE
:10050C0000B583B0019000F025F80346012B03D011
:10051C000449432000F03BF8FFF7D6FF00BF03B0BF
:10052C005DF804FBDC27000000B583B003468DF8B2
:10053C00073000F00FF80346012B03D0044951207B
:10054C0000F025F8FFF7CCFF00BF03B05DF804FB0B
:10055C00DC27000084B0EFF305830193019BC3F308
:10056C0008030393039B002B0DD1EFF3148300932B
:10057C00009B0293029B03F00103002B0CBF012391
:10058C000023DBB200E00123184604B0704700B52D
:10059C0085B003460091ADF80630BDF806300293E5
:1005AC00009B039302AB1A46002144F20200FFF7B2
:1005BC0061FF00BF05B05DF804FB000008B5064BF9
:1005CC001B68002B03D105495120FFF7E0FF024BBC
:1005DC001B68984700BF08BD480000202828000071
:1005EC0082B003468DF807309DF90730002B0CDBE9
:1005FC009DF8073003F01F0205499DF907305B0990
:10060C00012000FA02F241F8232000BF02B070472B
:10061C0000E100E082B0034600918DF807309DF9AF
:10062C000730002B0ADB009BDAB20C499DF907302E
:10063C005201D2B20B4483F800230BE0009BDAB2D8
:10064C0007499DF8073003F00F03043B5201D2B267
:10065C000B441A7600BF02B0704700BF00E100E007
:10066C0000ED00E000B583B003460A468DF8073074
:10067C0013468DF806309DF80630072B03D9084930
:10068C006B20FFF784FF9DF806209DF9073011467B
:10069C001846FFF7BFFF00BF03B05DF804FB00BFB7
:1006AC006C28000000B583B003468DF807309DF927
:1006BC0007301846FFF794FF00BF03B05DF804FB4A
:1006CC0000B585B00190019B002B0AD0074B43F07D
:1006DC0001030393019B9B010293039B0298984790
:1006EC0000E000BF05B05DF804FB00BF102900005E
:1006FC0082B003468DF807309DF8073003F1804334
:10070C0003F5E04301221A6000BF02B0704782B0CB
:10071C000346ADF80630BDF8063003F1804303F50F
:10072C00E0431B68002B14BF01230023DBB21846E7
:10073C0002B0704784B00346ADF80630BDF8063001
:10074C0003F1804303F5E04300221A60BDF8063044
:10075C0003F1804303F5E0431B680393039B00BF45
:10076C0004B0704782B003468DF807300B468DF805
:10077C00063013468DF805300A499DF807309DF870
:10078C00052051331B010B4404331A6005499DF8B5
:10079C0007309DF8062051331B010B441A6000BF33
:1007AC0002B070470070004082B00190034A019B78
:1007BC00C2F8043300BF02B0704700BF00700040A5
:1007CC0082B00190034A019BC2F8083300BF02B00B
:1007DC00704700BF00700040024B0122C3F8002597
:1007EC0000BF704700700040024B0022C3F8002588
:1007FC0000BF70470070004082B001900091054A24
:10080C00019BC2F82C36034A009BC2F8303600BF5D
:10081C0002B070470070004082B003468DF807307C
:10082C00034A9DF80730C2F8F03500BF02B070479C
:10083C000070004082B003468DF80730034A9DF8E3
:10084C000730C2F8F43500BF02B0704700700040AA
:10085C00024BD3F8F435DBB21846704700700040F9
:10086C0000B583B0034600918DF80730009B1B78D0
:10087C0003F00302009B5B781B0103F030031A4367
:10088C00009B9B781B0203F4E0631A43009BDB780C
:10089C001B0303F480531A43009B1B791B0403F4C2
:1008AC00E0231A43009B5B791B0503F4801342EA97
:1008BC000301009B9B791B0603F080720A489DF88C
:1008CC0007300A431B01034403F5A3631A60009B22
:1008DC00D979009B1A7A9DF807301846FFF742FF2A
:1008EC0000BF03B05DF804FB0070004000B58FB092
:1008FC004FF48270FFF70BFF0346002B46D04FF4EA
:10090C008270FFF717FF904B93F82E3083F00103A2
:10091C00DBB2002B04D18C4B93F82F30002B35D04D
:10092C0000238DF81C30884B5B680893864B1B8921
:10093C009BB2ADF82430844BDB68002B03D1824B87
:10094C0000221A7419E0804B1A8B7F4B5A837E4B12
:10095C00DB687D4A53607C4B1A8B7B4B1A817A4B3C
:10096C000022DA60784B93F82E3083F00103DBB26F
:10097C00002B02D00020FFF7BBFE734B1B6807AAAD
:10098C0010469847704B002283F82F206E4B93F83B
:10099C002E30002B62D04FF48070FFF7B8FE034668
:1009AC00002B5BD04FF48070FFF7C4FE664B5A8B64
:1009BC00654B93F82D309BB29A421CD9624B5A8BE3
:1009CC00614B93F82D309BB2D31A9AB25E4B5A837B
:1009DC005D4B5A685C4B1B899BB219465A4B5B8B1F
:1009EC00CB1A5B001344584A92F82D201146184636
:1009FC00FFF702FF2BE0544B5A8B534B93F82D30DF
:100A0C009BB29A4214D1504BDB68002B10D04E4B4A
:100A1C00012283F82F204C4B00225A834A4BDB686F
:100A2C00494A92F82D2011461846FFF7E5FE0EE0D4
:100A3C00454B5A8B444B93F82D309BB29A4206D1BE
:100A4C00414B012283F82F203F4B00225A834FF455
:100A5C008270FFF76FFE0420FFF74AFE4FF4887098
:100A6C00FFF755FE0346002B0ED04FF48870FFF7AE
:100A7C0061FE354B00221A7402238DF81030324B74
:100A8C001B6804AA104698474FF48A70FFF73FFE84
:100A9C000346002B07D04FF48A70FFF74BFE2A4B0E
:100AAC0000221A744CE0284B5B690D9345E00D9BBA
:100ABC000A930A9B002B01D1202303E00A9BB3FA73
:100ACC0083F3DBB20C934FF000420C9B22FA03F33E
:100ADC00DB430D9A13400D930C9B9BB246339BB298
:100AEC009B00ADF82E30BDF82E301846FFF70FFEE8
:100AFC000346002B21D0BDF82E301846FFF71AFE06
:100B0C0001238DF80430BDF82E30A3F58C73DB086F
:100B1C00DBB28DF80830BDF82E30A3F58C7303F0E2
:100B2C000403002B0CBF01230023DBB28DF809302A
:100B3C00054B1B6801AA104698470D9B002BB6D19C
:100B4C0000BF0FB05DF804FB5000002000B585B06D
:100B5C0001900091019B002B03D13249D820FFF763
:100B6C0016FD009B002B03D12E49D920FFF70FFD5A
:100B7C002D4B93F82C30002B03D008230393039BAD
:100B8C004CE0294A009B1360019B1B781846FFF729
:100B9C0043FE019B5B781846FFF74CFE019BDA780D
:100BAC00214B83F82E20204B012283F82C201E4B46
:100BBC0000221A741C4B002283F82D201A4B0022A1
:100BCC005A61194B002283F82F206FF00040FFF779
:100BDC00F7FD4FF48270FFF7ADFD4FF48070FFF717
:100BEC00A9FD4FF48A70FFF7A5FD019B9B78194670
:100BFC000720FFF737FD0720FFF754FD0220FFF712
:100C0C00D3FD094B93F82E30002B02D00120FFF7B7
:100C1C00CBFDFFF7E1FD00230393039B184605B0C2
:100C2C005DF804FBCC2800005000002000B585B016
:100C3C00034600918DF80730434B93F82C30002B72
:100C4C0004D1424940F22510FFF7A1FC9DF8073072
:100C5C00072B04D93D494FF49370FFF798FCFFF72D
:100C6C00F7FD0346002B09D0374B93F82D30002BA2
:100C7C0004D036494FF49470FFF789FC009BDB7964
:100C8C00092B03D8009BDB79002B04D12F494FF49F
:100C9C009870FFF77CFC009B1B7A092B04D92B491D
:100CAC004FF49970FFF773FC274B1B7CDBB2002BC6
:100CBC0003D011230393039B41E0009B1B79002B72
:100CCC0003D0009B1B79012B01D1FFF78DFD9DF803
:100CDC0007301D4A0C335B0013441B79002B07D1E2
:100CEC00194B93F82D300133DAB2174B83F82D20C2
:100CFC009DF80730009AD179134A0C335B001344EA
:100D0C000A461A719DF80730009A117A0E4A0C3374
:100D1C005B0013440A465A719DF807300099184637
:100D2C00FFF79EFD009B1B79002B03D0009B1B79CA
:100D3C00012B01D1FFF750FD00230393039B1846B1
:100D4C0005B05DF804FB00BF50000020CC2800006B
:100D5C0000B589B0034600918DF80730504B1B7CD1
:100D6C00DBB2002B03D011230393039B93E04C4B7A
:100D7C0001221A740320FFF723FD01210098FFF7CD
:100D8C003BFD474B93F82D30012B0FD900230793D4
:100D9C0009E0079BDBB2002200211846FFF7E2FCBA
:100DAC00079B01330793079B072BF2D99DF807305C
:100DBC003B4A0C335B00134419799DF80730384AD1
:100DCC000C335B0013445A799DF807301846FFF733
:100DDC00C9FC0020FFF78CFC0420FFF789FC0023E2
:100DEC008DF81B3042F2107305934FF48270FFF7AD
:100DFC008EFC0346002B03D001238DF81B3008E03A
:100E0C000020FFF75DFC059B013B0593059B002B28
:100E1C00EBD19DF81B30002B04D122494FF4D2703A
:100E2C00FFF7B5FB4FF48070FFF784FC4FF4827032
:100E3C00FFF780FC1A4B93F82D30012B19D90023A6
:100E4C00049313E0049BD8B2154A049B0C335B004B
:100E5C0013441979124A049B0C335B0013445B79DD
:100E6C001A46FFF77FFC049B01330493049B072B6A
:100E7C00E8D90B4B93F82E30002B03D00320FFF74F
:100E8C0093FC02E00220FFF78FFC054B00221A7442
:100E9C0000230393039B184609B05DF804FB00BFC5
:100EAC0050000020CC28000084B001900B46ADF817
:100EBC000230BDF80230019A134400221A60BDF8CA
:100ECC000230019A13441B680393039B00BF04B0C8
:100EDC00704782B001900B46ADF80230BDF802307D
:100EEC00019A13441B68002B14BF01230023DBB2AF
:100EFC00184602B0704782B001900091019BD3F864
:100F0C000423009B1340002B14BF01230023DBB2EE
:100F1C00184602B0704782B00190019B9B0003F50C
:100F2C00A0739BB2184602B0704782B001904FF488
:100F3C008032019B02FA03F3184602B0704700B5E9
:100F4C0087B00390029113468DF8073000238DF87B
:100F5C00173030E09DF817301846FFF7DCFF0346DA
:100F6C00ADF814309DF817301846FFF7DEFF0490EB
:100F7C00BDF8143019460398FFF7ABFF0346002B5E
:100F8C0014D004990398FFF7B6FF0346002B0DD03D
:100F9C00BDF8143019460398FFF786FF029B1B68B7
:100FAC00029A5168BDF81420104698479DF81730E6
:100FBC0001338DF817309DF817209DF807309A42B1
:100FCC00C8D300BF00BF07B05DF804FB08B504220E
:100FDC0002490348FFF7B3FF00BF08BD80000020A3
:100FEC000080004000B585B00190019B002B0AD019
:100FFC00074B43F001030393019B9B010293039B5B
:10100C000298984700E000BF05B05DF804FB00BFF4
:10101C008029000000B583B001900091019B002B4A
:10102C0001D1054B019300990198FFF78FFD034601
:10103C00184603B05DF804FB7829000000B583B0B6
:10104C000190019B002B0AD04FF47A70FFF7CAFF76
:10105C00019B013B0193019B002BF5D100E000BFEC
:10106C0003B05DF804FB000000B583B001900348A9
:10107C0000F07EFF00BF03B05DF804FB18290000F0
:10108C0000B587B0134A6B4607CA03C31A701249DE
:10109C000020FFF7BFFF0590059B0493049B002BDA
:1010AC0004D00E4A31210498FFF7D6F96B46194645
:1010BC000020FFF7BBFD0590059B0393039B002BC2
:1010CC0004D0064A35210398FFF7C6F900BF07B0D4
:1010DC005DF804FB6C290000751000002829000045
:1010EC0000B583B000230193019B002B04D0044A6C
:1010FC003A210198FFF7B0F900BF03B05DF804FB8B
:10110C002829000000B583B0FFF7EAFFFFF7B8FF0E
:10111C000DF1060319460020FFF71AFE4FF4FA7082
:10112C00FFF78CFFF4E7000082B0204B0193019B8A
:10113C0002221A61019B02225A61019B1C4A9A618C
:10114C00019B1C4ADA61019B4FF400721A62019BED
:10115C0000229A62019B00225A62019B0022DA62F1
:10116C00019B134A9A64019B134ADA64019B102277
:10117C001A65019B00229A65019B00225A65019B0E
:10118C000022DA65019B07330C4A10681860019B3A
:10119C000B4A106818609188927999809A71019B1A
:1011AC0020229A7100BF02B0704700BF8C00002053
:1011BC008829000004010020040300209429000069
:1011CC009829000000B589B0039002910192002388
:1011DC000693039BDB680593039B1B690493049A9A
:1011EC00059B9A4205D9049A059BD31A013B079398
:1011FC0007E0039B9A680499059BCB1A1344013BA7
:10120C000793039B9A68059BD31A079A934228BFAE
:10121C0013460793079A019B934228BF13460793E3
:10122C00039B5A68059B1344079A0299184600F0D1
:10123C0085FD069A079B13440693029A079B134459
:10124C000293019A079BD31A0193059A079B1344A7
:10125C000593039B9B68059A9A4201D10023059341
:10126C00039B059ADA60019B002BB5D1069B1846AF
:10127C0009B05DF804FB00B589B0039002910192AE
:10128C00039BDB680793039B9A68079BD31A06930F
:10129C00069A019B9A420ED9039B5A68079B1344EA
:1012AC00019A0299184600F049FD079A019B1A44CD
:1012BC00039BDA601AE0069B0593039B5A68079B15
:1012CC001344059A0299184600F038FD019A069BC2
:1012DC00D31A0593039B5868029A069B1344059AEC
:1012EC00194600F02BFD039B059ADA6000BF09B08C
:1012FC005DF804FB86B00190019B1B690493019B74
:10130C00DB680393049A039B9A4208D8019B9A6862
:10131C00039BD21A049B1344013B059304E0049AEB
:10132C00039BD31A013B0593059B184606B07047E7
:10133C0000B589B0039002910192029B0693039B26
:10134C005A1C13465B001344DB00204A13440593DC
:10135C00059B5B69022B29D0022B2ED8002B02D0C7
:10136C00012B13D029E00598FFF7C4FF0490049AD1
:10137C00019B9A4202D20023079321E0019B079321
:10138C00019A06990598FFF776FF19E00598FFF783
:10139C00B1FF0490019A049B934228BF1346079314
:1013AC00079A06990598FFF766FF09E0019A0699D6
:1013BC000598FFF707FF079002E00023079300BF93
:1013CC00079B184609B05DF804FB00BF8C00002099
:1013DC0000B587B00390029101920B4B1B78002B48
:1013EC0001D1FFF7A1FE0020FFF78AF8019A0299BC
:1013FC000398FFF79DFF05900020FFF795F8059BDC
:10140C00184607B05DF804FB8C000020BFF34F8F2B
:10141C0000BF064BDB6803F4E0620449044B134342
:10142C00CB60BFF34F8F00BF00BFFDE700ED00E0C6
:10143C000400FA0582B01D4B1B68B3F1FF3F0AD1C3
:10144C001B4B1B68DBB201931A4B1B681B0903F087
:10145C000F03009305E0154B1B680193164B1B689B
:10146C000093019B062B1DD1009B033B042B17D82B
:10147C0001A252F823F000BF991400009D14000043
:10148C00A1140000A5140000A914000001230AE017
:10149C00012308E0012306E0012304E0012302E01C
:1014AC00012300E00023184602B070473001001001
:1014BC00E00F00F0E80F00F03401001082B0174B81
:1014CC001B68DBB20193164B1B681B0903F00F035F
:1014DC000093019B062B1DD1009B033B042B17D8BB
:1014EC0001A252F823F000BF091500000D150000F1
:1014FC0011150000151500001915000001230AE054
:10150C00002308E0002306E0002304E0002302E0AF
:10151C00002300E00023184602B07047E00F00F0F3
:10152C00E80F00F082B01D4B1B68B3F1FF3F0AD1EE
:10153C001B4B1B68DBB201931A4B1B681B0903F096
:10154C000F03009305E0154B1B680193164B1B68AA
:10155C000093019B062B1DD1009B033B042B17D83A
:10156C0001A252F823F000BF891500008D15000070
:10157C0091150000951500009915000001230AE053
:10158C00012308E0012306E0012304E0012302E02B
:10159C00012300E00023184602B070473001001010
:1015AC00E00F00F0E80F00F03401001082B0174B90
:1015BC001B68DBB20193164B1B681B0903F00F036E
:1015CC000093019B062B1DD1009B033B042B17D8CA
:1015DC0001A252F823F000BFF9150000FD15000020
:1015EC0001160000051600000916000001230AE090
:1015FC00002308E0002306E0002304E0002302E0BF
:10160C00002300E00023184602B07047E00F00F002
:10161C00E80F00F082B01D4B1B68B3F1FF3F0AD1FD
:10162C001B4B1B68DBB201931A4B1B681B0903F0A5
:10163C000F03009305E0154B1B680193164B1B68B9
:10164C000093019B062B1DD1009B033B042B17D849
:10165C0001A252F823F000BF791600007D1600009D
:10166C0081160000851600008916000001230AE08F
:10167C00012308E0012306E0012304E0012302E03A
:10168C00012300E00023184602B07047300100101F
:10169C00E00F00F0E80F00F03401001082B0174B9F
:1016AC001B68DBB20193164B1B681B0903F00F037D
:1016BC000093019B062B1DD1009B033B042B17D8D9
:1016CC0001A252F823F000BFE9160000ED1600004D
:1016DC00F1160000F5160000F916000001230AE0CF
:1016EC00002308E0002306E0002304E0002302E0CE
:1016FC00002300E00023184602B07047E00F00F012
:10170C00E80F00F082B0174B1B68DBB20193164B4D
:10171C001B681B0903F00F030093019B062B1DD1C3
:10172C00009B033B042B17D801A252F823F000BFF7
:10173C005117000055170000591700005D170000E5
:10174C006117000001230AE0002308E0002306E0F3
:10175C00002304E0002302E0002300E000231846ED
:10176C0002B07047E00F00F0E80F00F082B01D4BA4
:10177C001B68B3F1FF3F0AD11B4B1B68DBB2019313
:10178C001A4B1B681B0903F00F03009305E0154B64
:10179C001B680193164B1B680093019B062B1DD1F4
:1017AC00009B033B042B17D801A252F823F000BF77
:1017BC00D1170000D5170000D9170000DD17000065
:1017CC00E117000000230AE0002308E0012306E0F3
:1017DC00012304E0012302E0012300E0002318466A
:1017EC0002B0704730010010E00F00F0E80F00F07D
:1017FC003401001082B01D4B1B68B3F1FF3F0AD1BE
:10180C001B4B1B68DBB201931A4B1B681B0903F0C3
:10181C000F03009305E0154B1B680193164B1B68D7
:10182C000093019B062B1DD1009B033B042B17D867
:10183C0001A252F823F000BF591800005D180000F7
:10184C0061180000651800006918000001230AE007
:10185C00012308E0012306E0012304E0012302E058
:10186C00012300E00023184602B07047300100103D
:10187C00E00F00F0E80F00F03401001082B01D4BB7
:10188C001B68B3F1FF3F0AD11B4B1B68DBB2019302
:10189C001A4B1B681B0903F00F03009305E0154B53
:1018AC001B680193164B1B680093019B062B1DD1E3
:1018BC00009B033B042B17D801A252F823F000BF66
:1018CC00E1180000E5180000E9180000ED18000010
:1018DC00F118000001230AE0012308E0012306E0CF
:1018EC00012304E0012302E0012300E00023184659
:1018FC0002B0704730010010E00F00F0E80F00F06C
:10190C003401001082B0154B1B680193144B1B68FB
:10191C000093019B062B1DD1009B033B042B17D876
:10192C0001A252F823F000BF491900004D19000024
:10193C0051190000551900005919000000230AE044
:10194C00002308E0002306E0012304E0012302E069
:10195C00012300E00023184602B07047300100104C
:10196C003401001082B0154B1B680193144B1B689B
:10197C000093019B062B1DD1009B033B042B17D816
:10198C0001A252F823F000BFA9190000AD19000004
:10199C00B1190000B5190000B919000000230AE0C4
:1019AC00002308E0002306E0002304E0012302E00A
:1019BC00012300E00023184602B0704730010010EC
:1019CC003401001008B5FFF7CDFF0346002B07D0FC
:1019DC004FF010234FF08042D3F80832C2F858353C
:1019EC0000BF08BD00BF044BD3F80034002BFAD065
:1019FC0000BF00BF704700BF00E0014000B583B0DE
:101A0C000190054A019BC2F80435FFF7EBFF00BFBC
:101A1C0003B05DF804FB00BF00E00140024B034A39
:101A2C001A6000BF704700BF000000200090D00378
:101A3C0008B5FFF7FFFC0346002B06D0964B1B683E
:101A4C001B0A964A03F01F031360FFF737FD03468A
:101A5C00002B02D0924B934A1A60FFF763FD0346AA
:101A6C00002B06D0904B1B685B0B904A03F00703CE
:101A7C001360FFF79BFD0346002B05D08C4BDB68F6
:101A8C008B4A23F08073D360FFF7C4FD0346002B11
:101A9C000ED04FF080430022C3F80C214FF080434E
:101AAC000022C3F810214FF080430022C3F83825E0
:101ABC00FFF7F4FD0346002B02D07E4B03221A6085
:101ACC00FFF720FE0346002B0BD07B4B05221A6040
:101ADC007A4B01221A607A4B00221A60794B3F2212
:101AEC001A60FFF743FE0346002B76D04FF080536D
:101AFC00754AD3F80434C2F820354FF08053724A3B
:101B0C00D3F80834C2F824354FF080536E4AD3F81A
:101B1C000C34C2F828354FF080536B4AD3F810348C
:101B2C00C2F82C354FF08053674AD3F81434C2F8FE
:101B3C0030354FF08053644AD3F81834C2F834353A
:101B4C004FF08053604AD3F81C34C2F840354FF044
:101B5C0080535D4AD3F82034C2F844354FF080539B
:101B6C00594AD3F82434C2F848354FF08053564ABA
:101B7C00D3F82834C2F84C354FF08053524AD3F87E
:101B8C002C34C2F850354FF080534F4AD3F83034D0
:101B9C00C2F854354FF080534B4AD3F83434C2F862
:101BAC0060354FF08053484AD3F83834C2F8643566
:101BBC004FF08053444AD3F83C34C2F868354FF0A8
:101BCC008053414AD3F84034C2F86C354FF08053FF
:101BDC003D4AD3F84434C2F87035FFF70BFE034688
:101BEC00002B05D0394B1B68394A03F04F031360A7
:101BFC00FFF744FE0346002B0DD04FF08043D3F883
:101C0C00003403F00103002B05D04FF080436FF03C
:101C1C000102C3F80024FFF775FE0346002B05D024
:101C2C002C4B1B682B4A43F4806313602A4BD3F86C
:101C3C008830294A43F47003C2F88830BFF34F8FC1
:101C4C0000BFBFF36F8F00BFFFF7BCFE4FF0102338
:101C5C00D3F80032002B05DB4FF01023D3F80432FD
:101C6C00002B15DA0120FFF7C9FE4FF010231522C7
:101C7C00C3F80022FFF7B6FE4FF010231522C3F86D
:101C8C000422FFF7AFFE0020FFF7B8FEFFF7BEFB04
:101C9C00FFF7C4FE00BF08BD24030010403501400F
:101CAC0074C007400DF0ADBA440200103C05004072
:101CBC00F0ED00E0A00500401056004088560040B2
:101CCC00185600401456004000C000405802001046
:101CDC00E40E00403C17004000ED00E0411C820780
:101CEC000CD010F8012B3AB3820707D010F8012B57
:101CFC0012B3820702D010F8012BEAB14FF0013C6D
:101D0C0050F8042BCCFA52F37BB950F8042BCCFAD4
:101D1C0052F353B950F8042BCCFA52F32BB950F8B8
:101D2C00042BCCFA52F3002BEAD004381BBAB3FACA
:101D3C0083F300EBD3000130401A704772B3844632
:101D4C0090EA01039B0721D1830709D011F8013BCD
:101D5C0000F8013B013A20D08307F7D100E084461C
:101D6C00202A0AD32DE9F007B1E8F807A0E8F80714
:101D7C00203A202AF8D2BDE8F007042A06D351F8FD
:101D8C00043B40F8043B043A042AF8D22AB111F877
:101D9C00013B00F8013B013AF9D16046704700BFA6
:101DAC0000220B0011001A0084465AB3830704D09A
:101DBC0000F8011B013AF9D124E0C9B241EA012132
:101DCC0041EA0141202A11D3203A2DE9F0030B46B8
:101DDC000C460D460E460F4688468946A0E8FA0387
:101DEC00203AFBD2BDE8F00320320BD0042A05D3F5
:101DFC0040F8041B043A05D0042AF9D200F8011B60
:101E0C00013AFBD16046704710B582B004460069B8
:101E1C008DF8071078B1D4E900239A421CD262697C
:101E2C00531C63618154D4E90501884214D12046C6
:101E3C0000F032F810E0D4F80CC0BCF1000F10D058
:101E4C00D4E90023501C984204BF00218DF80710E0
:101E5C009A4238BF0CF8021020680130206002B0A2
:101E6C0010BDA06858B1D4E9002C6245F4D2531CC3
:101E7C00B3EB0C0318BFCBB240F82230ECE7236A6B
:101E8C00002BE9D0D4E900018842E5D20DF107011D
:101E9C00204601229847DFE710B5426932B104466B
:101EAC00036A0BB1216998470020606110BD70B5C1
:101EBC00012AB8BF70BD0C460546561C2846214663
:101ECC00FFF7A2FF013E012EF8D870BDCB0648BF2C
:101EDC00704789054CBF30212021FFF7E8BF70B552
:101EEC0014460D46064600F0C1FB014630462A4614
:101EFC002346BDE8704000F000B82DE9F04F03AF69
:101F0C008DB047F83C3C91460E46044600F050FC20
:101F1C000546EB46073020F00700ADEB0008C54640
:101F2C00A7F1380A504600212422FFF73DFF41F665
:101F3C007370C0F2000047E907606FF0004047F88B
:101F4C00340C47F8144C47F8205C47F8288C504662
:101F5C00494657F83C2C00F021F8DD46A7F10C045B
:101F6C00A546BDE8F08F436A0846012100F0CEBAC1
:101F7C0083B000B582B00DF10C0C8CE80E0040F271
:101F8C002002C2F200020146106803AA0192FFF778
:101F9C00A6FF02B0BDE8004003B070472DE9F04F3A
:101FAC008DB00692894683460020CBF800000DF1D7
:101FBC001E04A4F10108CDF81080CDF804B019F876
:101FCC00011B252906D0002900F089825846FFF70D
:101FDC001BFFF4E70027484619F8012BA2F1200358
:101FEC00102B0DD88021DFE803F0091B1B191B1BDC
:101FFC001B101B1B31131B151B1B170040210DE065
:10200C005E2A0DD14FF4805108E04FF4004105E0F9
:10201C00202103E0102101E04FF400710F43DAE7B7
:10202C0000F10109A2F13000C0B209281DD800212D
:10203C0019F8010B01EB810102EB41013039A0F1E0
:10204C003002D2B20A2A0246F2D30BE0069A52F8B8
:10205C00041B0692002944BF47F0100749424278FE
:10206C0000F1020921EAE17A01E04FF0000A2E2A80
:10207C000DD1484610F8012B2A2A0AD1069899F856
:10208C00012050F8045B069009F1020916E00025C6
:10209C001CE0A2F13001C9B20025092913D810F8AF
:1020AC00011B05EB850302EB4302A2F13005A1F104
:1020BC003002D2B20A2A0A46F1D38146002D58BF0B
:1020CC0047F4807702E0814647F48077A2F16800FC
:1020DC00C1B2C00140EA5100C0B209282AD8DFE8D9
:1020EC0000F00814172929290529290519F8012BAD
:1020FC0020E0484610F8012B682A15D199F80120E8
:10210C0009F1020947F0080714E019F8012B08E05F
:10211C00484610F8012B6C2A09D199F8012009F1D5
:10212C00020947F0020705E047F0040701E047F019
:10213C0001078146622A15DDA2F1630015283FF6DE
:10214C003EAFDFE800F0240C0B0B0B0B0C0B0B0B56
:10215C000B37434D0B0B5B0B6A0B0B172FE747F43D
:10216C0080475EE0252A00F0A980582A40F07C8147
:10217C0047F40057F8054FEA076048BF27F400778B
:10218C00782A43F2580108BF43F2780125E0069DF6
:10219C00A0462C78AAF10106584639463246FFF77C
:1021AC0095FE584621464446DDF81080FFF72CFE7C
:1021BC0028467FE1380700F15B81B80700F1858183
:1021CC00069A1068DBF80010016056E1F8054FEA3A
:1021DC00076048BF27F40077302101EAE07321E063
:1021EC003806232101EAE070059047F48077069ABF
:1021FC00002152F8040B06920825CEE006980468DC
:10220C00002C04BF42F6BF14C0F20004F80500F124
:10221C0036812046FFF762FD35E1F80548BF27F40B
:10222C000077002307F002007904059305D4AC462F
:10223C0050B90698031D00210DE0A8B9069951F874
:10224C00040B0691C11717E00698073020F0070021
:10225C0000F10803416800687D0715D417F00805E4
:10226C001CBFC0B2002111E00698073020F0070314
:10227C00596853F8080B06937B070AD417F0080328
:10228C001CBFC0B2002107E080B200210693654656
:10229C001BE040F3C03100B2002909DBBB0612D4AD
:1022AC007B06A446059C48BF2024059464460CE09C
:1022BC000023404263EB01012D2305E05846252104
:1022CC00FFF7A2FD7BE62B230593FB0548BF27F404
:1022DC000077FB0558BF012500266E2A23DD6F3AD7
:1022EC00092A00F28080DFE802F005587E7E7E7EAF
:1022FC00247E7E5850EA010274D0AC46C20842EAF1
:10230C00417200260625134665F3DF00A055013601
:10231C0052EAD1004FEAD1014FEAD20040EA4172B1
:10232C001846F0D15CE0582A37D0642A18BF692AC5
:10233C0059D150EA010255D0CDE9025AA24607F410
:10234C00004B00260C460546BBF1000F09D006F0E9
:10235C000300032805D1D0462C200AF806000136CC
:10236C0000E0D046284621460A22002300F0E6F879
:10237C0000EB8002A5EB420242F0300208F8062086
:10238C000136D5F109024FF00002A241DAD35446CE
:10239C00DDE903A8DDE901B525E050EA010221D011
:1023AC00AC46BA0442F69F12C0F200025CBF42F681
:1023BC00AF12C0F200024FEA101343EA01734FF060
:1023CC00000600F00F051846535DA355013650EA80
:1023DC0011134FEA11114FEA101343EA0173F0D1B4
:1023EC00654600E00026AAEB06000599FF2988BF88
:1023FC00013800290A4618BF0122801AAA1B22EABA
:10240C00E275A0EB050AB80507D458463946524682
:10241C00FFF75CFD05994FF0000AFF2904D9090A62
:10242C005846FFF7F1FC059911B15846FFF7ECFC43
:10243C00584639465246FFF749FD584630212A4640
:10244C00FFF735FD012E06DB18F806105846FFF78E
:10245C00DBFC013EF8D8F8067FF5B1AD58462021DB
:10246C005246FFF724FDAAE5002A7FF4A8AD47E009
:10247C00069A1068DBF80010017010462CE020461C
:10248C00294600F056F9054627F40077AAEB00061A
:10249C00584639463246FFF719FD35B114F8011B81
:1024AC005846FFF7B1FC013DF8D1DDF810800698D5
:1024BC000DF11E0404300690F8067FF580AD5846E9
:1024CC0020213246FFF7F3FC79E5069BDBF8001080
:1024DC001868002206C01846043006906FE5DBF839
:1024EC000C0028B1DBE9001291423CBF002242549F
:1024FC005846FFF7D1FCDBF800000DB0BDE8F08FBB
:10250C005846FFF7C9FC4FF0FF30F6E7F8B51D460B
:10251C0017460C460646184600F032F9002803D43C
:10252C0007FB04F2A24201D20020F8BD2846314636
:10253C0000F040F9B0FBF4F0F8BD0000002B35D1F1
:10254C0029B9B0FBF2FC0CFB1202604670479142B9
:10255C0015D22DE9F041B2FA82F39A409940D3F1A9
:10256C00200C30FA0CFC51EA0C01984000F04EF8AB
:10257C00280036FA03F200210023BDE8F081F0B503
:10258C00B1FBF2FC0CFB1211B2FA82F39A409940A7
:10259C00D3F1200630FA06F63143984000F036F8B5
:1025AC00614628003200DA400023F0BDF3B5B3FADF
:1025BC0083FC49085FEA300013FA0CF3DCF12004C9
:1025CC0032FA04F423430CB41A0000F01FF80CBCCC
:1025DC0033FA0CF3DCF11F0C35FA0CF518BF013D86
:1025EC0003BCA5FB026705FB0377801BB941904236
:1025FC0071EB030C05D3821A71EB0303681C0021E9
:10260C00F0BD02000B0028000021F0BD940D4FF628
:10261C00C2752D02B5FBF4F4D60A013604FB04F5A1
:10262C00A5FB0656F64306EB0416550832BF0027E9
:10263C007708013505FB1677A6FB07477F0807EBE4
:10264C00C63714001500E7FB02457F1B4D1C040028
:10265C00E7FB014505FB1206A64284BF013DB618F7
:10266C00964224BF0135B61A704700BF40F21431B0
:10267C00C2F20001086800B1704740F20400C2F2D7
:10268C000000086070479AB18446097848B2002867
:10269C0044BF6FF001007047BCF1000F18BFCCF8BD
:1026AC0000100021C3E90011002818BF0120704759
:1026BC00002070477F298EBF6FF001000170012050
:1026CC0070477F2884BF0020704742F6DC32C0F28E
:1026DC000002515C42F65C32C0F20002105C084011
:1026EC007047A0F161011A2938BF20387047A0F15A
:1026FC0041011A2938BF203070477F2884BF002041
:10270C00704742F6DC32C0F20002515C42F65C3299
:10271C00C0F20002105C08407047A0F161011A2958
:10272C0038BF20387047A0F141011A2938BF20303A
:10273C00704700B539B102782AB1D0F800E004290D
:10274C0003D203460CE0002000BD4FF0013C0346D1
:10275C00CCFA5EF222B953F804EF04390329F7D806
:10276C00181A4FF00132C2FA5EF292FAA2F2B2FAE1
:10277C0082F2B1EBD20F28BFD108084400BD000093
:10278C00084B1B6883420AD0074B1B68834206D058
:10279C00064B1B68181A18BF4FF0FF30704700200B
:1027AC00704700BF1C0000202000002018000020F3
:1027BC00402070470068FEF70BBE00BF072904D904
:1027CC000023024AC0E90031106070472403002046
:1027DC00463A5C6E5246355F53444B5F31372E316F
:1027EC002E305F646464653536305C636F6D706F7A
:1027FC006E656E74735C6C69627261726965735C30
:10280C007574696C5C6170705F7574696C5F706C09
:10281C006174666F726D2E6300000000463A5C6E48
:10282C005246355F53444B5F31372E312E305F6447
:10283C006464653536305C6D6F64756C65735C6EA5
:10284C007266785C647269766572735C7372635CD1
:10285C007072735C6E7266785F7072732E630000B8
:10286C002E2E2F2E2E2F2E2E2F2E2E2F2E2E2F2E77
:10287C002E2F696E746567726174696F6E2F6E723C
:10288C0066782F6E7266785F676C75652E680000CF
:10289C002E2E2F2E2E2F2E2E2F2E2E2F2E2E2F2E47
:1028AC002E2F6D6F64756C65732F6E7266782F6842
:1028BC00616C2F6E72665F73616164632E680000D9
:1028CC00463A5C6E5246355F53444B5F31372E317E
:1028DC002E305F646464653536305C6D6F64756C86
:1028EC0065735C6E7266785C647269766572735C33
:1028FC007372635C6E7266785F73616164632E637E
:10290C00000000000338FDD870470000536161647B
:10291C00632068616E646C6572000000463A5C6E00
:10292C005246355F53444B5F31372E312E305F6446
:10293C006464653536305C6578616D706C65735CAC
:10294C004D7970726F6A6563745C73616164635F07
:10295C007475746F7269616C5C6D61696E2E630065
:10296C000000000002010009030000000200060044
:10297C00000000000338FDD8704700005465726DEC
:10298C00696E616C00000000525454005345474777
:10299C0045520030313233343536373839414243C1
:1029AC004445463031323334353637383961626319
:1029BC00646566286E756C6C29000000D4290000D3
:1029CC00042B0000D829000043000000CF26000093
:1029DC00EF260000FB260000072700002727000039
:1029EC0033270000C12600009326000053756E00AB
:1029FC004D6F6E0054756500576564005468750022
:102A0C004672690053617400004A616E004665624B
:102A1C00004D617200417072004D6179004A756E13
:102A2C00004A756C0041756700536570004F637404
:102A3C00004E6F760044656300002E000053756EE7
:102A4C00646179004D6F6E646179005475657364CF
:102A5C006179005765646E657364617900546875BB
:102A6C0072736461790046726964617900536174B0
:102A7C00757264617900004A616E75617279004605
:102A8C0065627275617279004D61726368004170A4
:102A9C0072696C004D6179004A756E65004A756CFF
:102AAC0079004175677573740053657074656D6258
:102ABC006572004F63746F626572004E6F76656D60
:102ACC0062657200446563656D6265720000414D1C
:102ADC0000504D0000256D2F25642F2579002548C9
:102AEC003A254D3A25530025612025622025652085
:102AFC002554202559000000462A0000482A0000D1
:102B0C00482A0000482A0000482A0000482A0000F1
:102B1C00482A0000482A0000482A0000482A0000E1
:102B2C00FFFFFFFFFFFFFFFFFFFFFFFFFFFF0000A7
:102B3C00492A0000F8290000832A0000152A000009
:102B4C00DA2A0000E12A0000EA2A0000F32A000039
:102B5C002020202020202020206828282828202001
:102B6C002020202020202020202020202020202059
:102B7C004810101010101010101010101010101011
:102B8C0084848484848484848484101010101010B1
:102B9C00108181818181810101010101010101010A
:102BAC0001010101010101010101011010101010BE
:102BBC0010828282828282020202020202020202DB
:102BCC000202020202020202020202101010102083
:0D2BDC000007032004170201085710408075
:102BEC000090D003C8290000C8290000C8290000A3
:102BFC00C8290000C8290000180300201C0300206D
:042C0C002003002081
:040000030000037185
:00000001FF
