:100000000000012071030000590300005B030000A1
:100010005D0300005F0300006103000000000000BA
:10002000000000000000000000000000630300006A
:100030006503000000000000670300006903000082
:100040006B0300006B0300002D4C0000F55700000F
:100050006B0300006B0300006B0300006B030000E8
:100060006B0300006B0300006B0300006B030000D8
:100070006B0300006B0300006B0300006B030000C8
:100080006B0300006B0300006B0300006B030000B8
:100090006B0300006B0300006B0300006B030000A8
:1000A0006B0300006B0300006B0300006B03000098
:1000B0006B0300006B030000000000000000000064
:1000C0006B0300006B0300006B0300006B03000078
:1000D0006B0300006B0300006B03000000000000D6
:1000E0000000000000000000000000000000000010
:1000F0000000000000000000000000000000000000
:1001000000000000000000000000000000000000EF
:1001100000000000000000000000000000000000DF
:1001200000000000000000000000000000000000CF
:1001300000000000000000000000000000000000BF
:1001400000000000000000000000000000000000AF
:10015000000000000000000000000000000000009F
:10016000000000000000000000000000000000008F
:10017000000000000000000000000000000000007F
:10018000000000000000000000000000000000006F
:10019000000000000000000000000000000000005F
:1001A000000000000000000000000000000000004F
:1001B000000000000000000000000000000000003F
:1001C000000000000000000000000000000000002F
:1001D000000000000000000000000000000000001F
:1001E000000000000000000000000000000000000F
:1001F00000000000000000000000000000000000FF
:10020000344935480A1A02D0072291438D463349B2
:1002100033480A1A06D00722914381F30988022243
:1002200082F314882F483049304A00F041F83048B2
:100230003049314A00F03CF830483149314A00F049
:1002400037F831483149324A00F032F83148324902
:10025000324A00F02DF832483249334A00F028F88B
:1002600032483349334A00F023F8334833490022F7
:1002700000F029F832483349002200F024F83248CF
:100280003249091A0AF06AFF314A90471F4820494B
:10029000884205D00268043003B4904703BCF7E7F6
:1002A00000208646EC46002000212A4A9047FEE7BF
:1002B000884207D0521A05D0037801300B70013103
:1002C000013AF9D17047884202D002700130FAE752
:1002D000704700000000012000E000200000012025
:1002E00000000120FCC30000000000207C00002072
:1002F000CC030000CC03000070B10000FCC3000080
:100300000000002000000020BCB10000BCB10000D3
:10031000BCB10000BCB10000BCB10000BCB1000029
:10032000BCB10000BCB10000FCC3000078C40000F8
:100330007C0000207C0000207C000020400C00207D
:10034000400C0020400C0020400C0020402C0020DD
:1003500099030000DD730000FEE7FEE7FEE7FEE71D
:10036000FEE7FEE7FEE7FEE7FEE7FEE700F002B885
:10037000FFF7FCBF0F484FF00701884385460E4842
:1003800080470E48016841F470010160BFF34F8F50
:10039000BFF36F8FFFF734BF09480A490A4A884202
:1003A00007D0521A05D0037801300B700131013AA1
:1003B000F9D170470000012089A4000088ED00E019
:0C03C000BCB10000000000200000002084
:1003CC0000B5A1B00590049103920293049804F037
:1003DC0093F9039B1593029B169300231793002309
:1003EC008DF8603000231993229B1A9300231F93DE
:1003FC000FA91F9B0822049804F058FA08231F9396
:10040C00119B1293BDF84030ADF84C30BDF8423022
:10041C00ADF84E3000238DF851309DF83C3003F090
:10042C000303DBB2012B26D10F9BC3F395231C9343
:10043C009DF83C30C3F3C203DBB28DF85030BDF8ED
:10044C003C30C3F38313DBB21B931B9B9A0009A9AB
:10045C001F9B049804F02AFA1B9B9B001F9A1344C1
:10046C001F9312AA09A915AB009313461B9A1C984B
:10047C0000F0CEFF2FE09DF83C3003F00303DBB21D
:10048C00022B28D1BDF83E30C3F389139BB21E93C7
:10049C009DF83C30C3F3C203DBB28DF850301E9B89
:1004AC00082B28BF08231D9307A91F9B1D9A04988E
:1004BC0004F0FCF91F9A1D9B13441F931E9A1D9B5D
:1004CC00D31A1E9315AB12AA07A81D9901F042F876
:1004DC001E9B002BE3D1049804F01DF900BF21B042
:1004EC005DF804FB00B583B00190019B1B781A46A4
:1004FC000C4B9B5C002B05D0019B0433184606F07B
:10050C00B1FB0BE0019B1B781A46064B9B5C002B46
:10051C0004D1019B0C33184605F042FD00BF03B01B
:10052C005DF804FBF006002000B587B00390029143
:10053C0013468DF8073000230593039B1B781A464E
:10054C00114B9B5C002B09D0039B04339DF80720B7
:10055C000299184606F0E8FB05900FE0039B1B7808
:10056C001A46094B9B5C002B08D1039B0C339DF85E
:10057C0007200299184605F08BFD0590059B18463F
:10058C0007B05DF804FB00BFF006002082B00190BC
:10059C000091034B01221A7000BF02B0704700BFDC
:1005AC00BC00002030B58DB003468DF807301A4BD7
:1005BC0002AC1D460FCD0FC495E80F0084E80F0068
:1005CC00062302934FF0FF3303934FF0FF33049352
:1005DC004FF0FF3305934FF0EB7308939DF8073002
:1005EC00002B01D00D4A00E0002202AB19460C484A
:1005FC0004F0B6FA0B900B9B0A930A9B002B04D0C9
:10060C00084A43210A9801F0BFF9074A9DF80730C0
:10061C00137000BF0DB030BD18B20000990500007A
:10062C0000000020BCB10000BD00002000B583B06C
:10063C0000238DF807309DF807301846FFF7B2FFFE
:10064C0000BF03B05DF804FB00B589B003900291C4
:10065C000192019B8DF81F30124B00221A709DF8ED
:10066C001F301A4602991048FFF75EFF0690069B52
:10067C000593059B002B04D00C4A5321059801F0DF
:10068C0083F900BF0A4B1B78002B07D0054B1B7856
:10069C00DBB283F00103DBB2002BF3D100BF09B056
:1006AC005DF804FBBC00002000000020BCB1000081
:1006BC00BD00002000B585B003900291054B00935E
:1006CC004023054A02990398FFF77AFE00BF05B054
:1006DC005DF804FB550600007C00002082B0019000
:1006EC0000BF02B07047000000B583B00190054810
:1006FC00FFF7F8FE0020FFF755FF00BF03B05DF8D1
:10070C0004FB00BF0000002082B00190019BDB685D
:10071C0001225A7100BF02B07047000000B583B0CF
:10072C004FF0FF330193FFF781FF0421084800F0DD
:10073C008BFD0190019B002B03DA0649482002F047
:10074C003EFF0348FFF7E0FF00BF03B05DF804FB7A
:10075C0098B1000058B2000000B583B00190009130
:10076C00019B1B681B6800990198984700BF03B058
:10077C005DF804FB00B583B00190019B1B685B68BE
:10078C000198984700BF03B05DF804FB00B583B037
:10079C000190019B1B689B680198984700BF03B0B0
:1007AC005DF804FB82B001900B468DF80330019B81
:1007BC00DB689DF803201A7100BF02B0704782B04D
:1007CC000190019BDB681B79184602B0704782B020
:1007DC000190019BDB6801225A7100BF02B0704787
:1007EC0082B00190019BDB685B79184602B07047C0
:1007FC0000B585B0019000910C4B01221A700C4889
:10080C0003F0DEFE0390039B002B01D0039B08E05A
:10081C00084804F06BF8084A084BD31ADB0802931B
:10082C000023184605B05DF804FB00BF2802002029
:10083C00A8B10000B8B2000098B1000070B100007F
:10084C00024A034BD31ADB081846704798B10000D4
:10085C0070B1000000B587B001900B468DF80330E5
:10086C009DF80330002B1FD0FFF7EAFF0490002304
:10087C00059313E0059B9B000E4A13440393039BC3
:10088C001B881A46019B1B689A4204D1019B059A4E
:10089C001A60002309E0059B01330593059A049B1C
:1008AC009A42E7D3052300E00023184607B05DF811
:1008BC0004FB00BF0000002000B585B001900B4682
:1008CC008DF803309DF8032001AB11461846FFF755
:1008DC00C1FF0346002B07D1019BDB00054A1344E3
:1008EC000393039B1B6800E00023184605B05DF8DA
:1008FC0004FB00BF70B1000084B001900B468DF872
:10090C000330019BDB00174A134402939DF803301C
:10091C00013B032B1CD801A252F823F0390900002B
:10092C0041090000490900005309000002238DF819
:10093C000F3011E004238DF80F300DE0029B1B7972
:10094C008DF80F3008E0029B5B798DF80F3003E0D7
:10095C0000238DF80F3000BF9DF80F30184604B0FF
:10096C00704700BF70B1000084B00190009100236B
:10097C008DF80F30019B1B7803F00403DBB2002BC6
:10098C0024D0019B1B78C3F30103DBB2012B02D0F3
:10099C00022B0CD017E0009B1B68019A1288C2F343
:1009AC008312D2B213449A1C009B1A600BE0009B7A
:1009BC001B68019A5288C2F3891292B213449A1C92
:1009CC00009B1A6000BF01238DF80F309DF80F308B
:1009DC00184604B07047000000B58BB00023ADF88A
:1009EC0026303E4802F078FE3D4802F075FE3D4B45
:1009FC009B6804933C4B1B680693049A069B13401C
:100A0C0002339B00374A13440433089304AB194652
:100A1C000898FFF7A9FF0346002B09D0049A069B00
:100A2C00134002339B002F4A134404330893EDE721
:100A3C0000BF0023079311E0049B5A1C0492069AF2
:100A4C001340079A920001A90A44264902339B00DD
:100A5C000B445B681360079B01330793079B012BC7
:100A6C00EAD99DF80430C3F30103DBB2012B10D09B
:100A7C00022B1CD1BDF80A30ADF82630BDF806307B
:100A8C00C3F389139BB203339A08049B1344049356
:100A9C0013E0BDF80A30ADF82630BDF80430C3F3CE
:100AAC008313DBB21A46049B1344049305E00F49ED
:100ABC004FF4C27002F083FD00BF094802F018FE2B
:100ACC000590059B002B02D0049B064A9360BDF851
:100ADC00263018460BB05DF804FB00BF4006002022
:100AEC003C060020280200201C000020C8B2000098
:100AFC0000B585B00021074802F077FD0390039BF9
:100B0C000293029B83F310030193019B184605B0DB
:100B1C005DF804FB4406002000B589B003900291F7
:100B2C0001920093039B1B0C0793FFF7E1FF0690C8
:100B3C00FFF786FE0246079B934204D3214940F2FD
:100B4C00A91002F03CFD069B1904009B5A1C0A9B41
:100B5C001340079A0A431C4902339B000B445A600A
:100B6C00009A0A9B134002339B00174A1344043328
:100B7C000593039B03F00703D9B2059A137861F32D
:100B8C00C5031370019B03F00F03D9B2059A1388A8
:100B9C0061F389131380029BC3F31501059A136843
:100BAC0061F39F231360059A1378012161F301030C
:100BBC001370059A13786FF38203137000BF09B09A
:100BCC005DF804FBC8B200002802002000B58BB011
:100BDC000390029113468DF80730039B0233089360
:100BEC0001238DF81F30002002F0A2FC3E4B5A6806
:100BFC00029B1A603D4B1A683B4B99683A4B5B68F9
:100C0C00CB1A13440133099314E00121384802F044
:100C1C0033FDFFF7E1FE05900599354802F02CFDF8
:100C2C00324B1A68304B99682F4B5B68CB1A1344C4
:100C3C0001330993089A099B9A42E6D89DF81F3014
:100C4C00002B48D0002304939DF80730002B17D0BD
:100C5C009DF81030012262F301038DF810309DF8DD
:100C6C00103043F004038DF81030039B03F00F0396
:100C7C00DAB2BDF8103062F38913ADF8103016E01B
:100C8C009DF81030022262F301038DF810309DF8AC
:100C9C00103043F004038DF81030039BC3F30903A9
:100CAC009AB2BDF8123062F38F13ADF812300E4BBE
:100CBC005A680E4B1B68134002339B000A4A1344BC
:100CCC0004330693049A069B1A60074B5A68089BD8
:100CDC001344054A5360002002F03EFC9DF81F307F
:100CEC0018460BB05DF804FB280200201C00002005
:100CFC004406002000B58BB005900491039202933A
:100D0C001F4B1B68079306AB012219460298FFF78D
:100D1C005DFF0346002B24D0069B0233099300236E
:100D2C00089311E0089B9B00039A1A44099B591CD9
:100D3C00099107990B401268124902339B000B442E
:100D4C005A60089B01330893089A029B9A42E9D394
:100D5C00069A079B00931346029A04990598FFF78D
:100D6C00DBFE084B1B78002B05D000BF00F068F8A9
:100D7C000346002BFAD100BF0BB05DF804FB00BF9B
:100D8C001C0000202802002000B583B001900091C7
:100D9C000023002200990198FFF7ACFF00BF03B0BD
:100DAC005DF804FB00B587B0039002910192019BA2
:100DBC00059305AA012302990398FFF79BFF00BF37
:100DCC0007B05DF804FB00B587B003900291019267
:100DDC000093019B0493009B059304AA02230299A0
:100DEC000398FFF787FF00BF07B05DF804FB00B561
:100DFC008BB00390029101920093019B0593009B91
:100E0C0006930C9B07930D9B08930E9B099305AAC5
:100E1C00052302990398FFF76DFF00BF0BB05DF837
:100E2C0004FB0000054B9A68044B5B689A420CBFAC
:100E3C0001230023DBB21846704700BF28020020B4
:100E4C0000B599B0FFF7EEFF0346002B01D000234D
:100E5C00B9E19B4B0022C3F81824BFF34F8F00BF9E
:100E6C00974B9B680493974B1B681093049A109BA9
:100E7C00134002339B00924A134404331193002312
:100E8C0017930023169300230F9304AB1946119864
:100E9C00FFF76AFD0346002B19D0894BD3F81834A1
:100EAC00002B14D1864B5A68049B9A4205D8844B6C
:100EBC005B68834A9360002385E1049A109B13407E
:100ECC0002339B007E4A134404331193DDE7002365
:100EDC00159311E0049B5A1C0492109A1340159A16
:100EEC00920001A90A44764902339B000B445B68CB
:100EFC001360159B01331593159B012BEAD99DF8B3
:100F0C00043003F00303DBB2022B40F09C80BDF8ED
:100F1C000630C3F389139BB20D93BDF80630C3F3AF
:100F2C0089139BB2502B28BF50239BB20C930C9B64
:100F3C00C3F309039AB2BDF8063062F38F13ADF810
:100F4C0006300C9B08330B939DF80430C3F3C2039B
:100F5C00DBB20F930B995C4803F03DFB1790179B8A
:100F6C00002B00F0D380179803F0C6FB01A9169B49
:100F7C000822179803F07CFC169B08331693049BED
:100F8C00DA43109B134001339B000A930C9A0A9B83
:100F9C009A4242D90A9B002B08D0049A109B13400A
:100FAC0002339B00464A1344043300E0474B08933A
:100FBC000A9B002B02D00A9BDBB201E00C9BDBB23C
:100FCC008DF81F300A9B002B01D0404B00E0002312
:100FDC0006930A9B002B06D00C9BDAB20A9BDBB261
:100FEC00D31ADBB200E000238DF817309DF81F20D8
:100FFC00169B0899179803F03BFC9DF81F30169A26
:10100C0013441693069B002B16D09DF81720169BA5
:10101C000699179803F02CFC0EE0049A109B1340D1
:10102C0002339B00264A134404330993169B0C9AF3
:10103C000999179803F01CFC0D9B03339A08049B29
:10104C001344049362E09DF8043003F00303DBB215
:10105C00012B5BD1BDF80430C3F38313DBB2062B39
:10106C0028BF0623DAB2BDF8043062F38913ADF859
:10107C000430BDF80430C3F38313DBB202330E9398
:10108C009DF80430C3F3C203DBB20F930E9B9B009D
:10109C0019460D4803F09FFA1790179B002B35D07B
:1010AC00179803F029FB01A9169B0822179803F047
:1010BC00DFFB169B08331693002315931DE000BF2E
:1010CC00280200201C000020A8B1000034020020DF
:1010DC00049B5A1C0492109A134002339B003C4A06
:1010EC001344191D169B0422179803F0C1FB169B81
:1010FC0004331693159B01331593BDF80430C3F3D9
:10110C008313DBB21A46159B9342E1D3179B002B3A
:10111C0039D02F4BD3F8103414932D4BD3F81834FB
:10112C00002B1BD0179803F0F6FA46E000238DF83D
:10113C004F301498FFF754FB0346002B02D00123C9
:10114C008DF84F309DF84F30002B03D01799149821
:10115C00FFF702FB149BDB681B681493149B002B9A
:10116C00E4D1179803F0D7FA002002F0E1F9184BFC
:10117C00D3F81834002B02D1049B154A936000203D
:10118C0002F0EAF919E0124BD3F81034129306E08E
:10119C001298FFF7FBFA129BDB681B681293129BE9
:1011AC00002BF5D10B4A0C4BD31ADB081B0443F074
:1011BC0002030A491846FFF7E7FDFFF733FE034623
:1011CC0083F00103DBB2184619B05DF804FB00BFD5
:1011DC002802002090B1000070B1000020B3000084
:1011EC0000B585B00023039323E0164BD3F81034DD
:1011FC00029301238DF807300FE00298FFF7DFFA16
:10120C0003461A46039B934203D100238DF8073003
:10121C0006E0029BDB681B680293029B002BECD15F
:10122C009DF80730002B01D0039B07E0039B013393
:10123C000393039B092BD8DD4FF0FF33184605B001
:10124C005DF804FB2802002000B585B001900B4628
:10125C008DF80330FFF7C4FF0390039BB3F1FF3FFE
:10126C0001D1039B22E0039BDBB219460198FFF7E7
:10127C0099FA104BD3F81034002B08D10D4A019B6E
:10128C00C2F81034019BDB6800221A600DE0094B98
:10129C00D3F81034DA68019BDB6812681A60054BCE
:1012AC00D3F81034DB68019A1A60039B184605B01A
:1012BC005DF804FB2802002000B583B00C4BD3F87A
:1012CC00103401930A4B01221A7009E00198FFF7C0
:1012DC007EFA0198FFF74EFA019BDB681B680193BD
:1012EC00019B002BF2D100BF00BF03B05DF804FBE3
:1012FC002802002082B00190009100BF02B070471C
:10130C0010B584B003900291039BDB88002B0AD0AC
:10131C00039BDB881A461F4B009313461E4A1F493A
:10132C00029802F0A1FD039B1B7A052B2ED0039B88
:10133C005B7A002B12D0039B9B881A46039B1B7A6B
:10134C0019461046FFF7D8FA03461A46144B53F8C1
:10135C0022301A461349029802F086FD039B1B6843
:10136C0019460298FFF7C6FF039B1B7A1A460E4BD1
:10137C0053F82240039B9B8800211846FFF79CFAE8
:10138C00034622460949029802F06EFD00BF04B0E4
:10139C0010BD00BF54B3000064B300009CB3000048
:1013AC0034000020B4B3000020000020B8B30000CB
:1013BC0000B585B00390029113468DF80730039B5E
:1013CC001B7A052B0FD0039B5B7A002B06D00D4BA1
:1013DC001B681A460C49029802F046FD0B4902980C
:1013EC0002F042FD07E09DF80730002B03D00749BF
:1013FC00029802F039FD029802F014FD00BF05B00E
:10140C005DF804FB34000020B4B30000C4B300004A
:10141C0030B58BB007900691059204930E9B1B7B05
:10142C008DF827300E9B00221A730E990498FFF743
:10143C0067FF059B062B7FD801A252F823F000BF53
:10144C00691400007314000083140000971400004A
:10145C00B5140000DD1400000D15000007990E985E
:10146C0002F002FD69E0069B1B681A4607990E986C
:10147C0002F0FAFC61E0069B1A68069B04331B68B9
:10148C0007990E9802F0F0FC57E0069B1A68069B31
:10149C0004331968069B08331B6800930B460799A5
:1014AC000E9802F0E1FC48E0069B1968069B043399
:1014BC001868069B08331B68069A0C321268019256
:1014CC00009303460A4607990E9802F0CDFC34E0CF
:1014DC00069B1868069B04331C68069B08331B6824
:1014EC00069A0C3212680699103109680291019221
:1014FC0000932346024607990E9802F0B5FC1CE0B7
:10150C00069B1C68069B04331D68069B08331B68EE
:10151C00069A0C3212680699103109680698143034
:10152C00006803900291019200932B462246079982
:10153C000E9802F099FC00E000BF00220E9904986E
:10154C00FFF736FF0E9B9DF827201A7300BF0BB0D8
:10155C0030BD00BF00B587B003900291019200939B
:10156C00029B082B60D8009B1B7B8DF81330009BD3
:10157C0000221A7300990198FFF7C2FE002305930D
:10158C0014E0059A029B9A4209D2039A059B1344D4
:10159C001B781A462649009802F066FC03E02549A0
:1015AC00009802F061FC059B01330593059B072B0A
:1015BC00E7D92149009802F057FC0023059326E057
:1015CC00059A029B9A421BD2039A059B13441B78E3
:1015DC008DF812309DF812307E2B0AD89DF81230FF
:1015EC00184609F0DBF80346002B02D09DF81230A8
:1015FC0000E02E231A461149009802F035FC03E056
:10160C000F49009802F030FC059B01330593059BB4
:10161C00072BD5D9012200990198FFF7C9FE009B31
:10162C009DF813201A7300E000BF07B05DF804FBAF
:10163C00C8B30000D0B30000D4B30000D8B300008E
:10164C00DCB3000000B583B00190019B1B68184609
:10165C0000F0B5F80346002B04D105494FF4F670A1
:10166C0001F0ADFF4FF0A043184603B05DF804FB4A
:10167C00E0B3000000B585B00190084611461A464B
:10168C0003468DF803300B468DF8023013468DF867
:10169C00013001AB1846FFF7D5FF03909DF80320EE
:1016AC009DF802305B001A439DF801309B001A43F1
:1016BC009DF818301B0242EA03019DF81C301B04F4
:1016CC00019A1943039B02F5E07243F8221000BF04
:1016DC0005B05DF804FB00B585B0039000230193C1
:1016EC00002300930023012201210398FFF7C2FF7E
:1016FC0000BF05B05DF804FB00B585B003900B4648
:10170C008DF80B309DF80B300022019200220092D4
:10171C00002200210398FFF7ADFF00BF05B05DF874
:10172C0004FB00B585B0019001AB1846FFF78AFFAA
:10173C000390019B012202FA03F31946039800F06F
:10174C002AF800BF05B05DF804FB00B585B0019028
:10175C0001AB1846FFF776FF0390019B012202FABA
:10176C0003F31946039800F020F800BF05B05DF8AC
:10177C0004FB00B583B001900091009B002B03D1BA
:10178C000198FFF7E2FF02E00198FFF7CAFF00BFE4
:10179C0003B05DF804FB82B001900091019B009AAC
:1017AC00C3F8082500BF02B0704782B001900091C9
:1017BC00019B009AC3F80C2500BF02B0704784B09F
:1017CC000190019B5B09029300230393029B002B66
:1017DC0003D14FF0FF33039300BF019B03F01F03B2
:1017EC000193039A019B22FA03F303F00103002BEC
:1017FC0014BF01230023DBB2184604B0704700006D
:10180C0000B583B00190019B032B03D907494720F6
:10181C0001F0D5FE064A019B13441B7801211846A2
:10182C00FFF7A7FF00BF03B05DF804FB10B4000086
:10183C0050B4000000B583B00023019305E001987B
:10184C00FFF7DEFF019B01330193019B032BF6D9BC
:10185C0000BF00BF03B05DF804FB000000B583B00F
:10186C000023019309E0094A019B13441B78184695
:10187C00FFF731FF019B01330193019B032BF2D93D
:10188C00FFF7D8FF00BF03B05DF804FB50B40000B5
:10189C0000B583B0002301930AE0094A019B13446D
:1018AC001B7803211846FFF727FF019B0133019397
:1018BC00019B032BF1D900BF00BF03B05DF804FB03
:1018CC0054B4000000B583B00190019B03F00103F8
:1018DC00002B01D0FFF7C2FF019B03F00203002B8A
:1018EC0001D0FFF7D5FF00BF03B05DF804FB00008B
:1018FC0086B003900291019201238DF817309DF868
:10190C001730204A039B13601E4A029B53601D4AEA
:10191C00019B9360039B44F20102934212D0039B00
:10192C0044F20202934220D1019B164AD360154B1C
:10193C00DB681B68134A9361124BDB685B68114AC6
:10194C00D36112E0019B0F4A13610E4B1B699B681C
:10195C000C4A53610B4B1B691B680A4A9361094B78
:10196C001B695B68074AD36100BF72B600BF00BF3A
:10197C009DF81730DBB2002BFAD162B600BF00BF66
:10198C0006B070474806002000B583B00290009165
:10199C00019244F2010071466A4600F003F803B06C
:1019AC0000BD00BF30B58BB007900691059272B6A2
:1019BC0000BFFFF781FC00BFFFF742FA0346002B84
:1019CC00FAD1079B44F20102934216D0079B44F2D2
:1019DC00020293423ED1059B09932C4A2C4BD31AFD
:1019EC00DB081B0443F00100099B5B681A46099B4A
:1019FC001B682849FFF7E7F939E0059B0893234A50
:101A0C00234BD31ADB081B0443F00104089B9D688D
:101A1C00089B9B68184602F087FF03461846089BF4
:101A2C005B681946089B1B68069A02920193009109
:101A3C0003462A4618492046FFF7D9F9134A144B96
:101A4C00D31ADB081B0443F0010314491846FFF7B3
:101A5C009BF90CE00D4A0E4BD31ADB081B0443F028
:101A6C000103069A0E491846FFF79CF900BF0D4B6F
:101A7C001B6803F00103002B00D000BE059A0699E9
:101A8C000798FFF735FF00BF0BB030BD90B10000D9
:101A9C0070B1000058B4000074B400009CB4000095
:101AAC00B0B40000F0ED00E000B583B00190019BF4
:101ABC001B68184600F0A3F80346002B04D1054917
:101ACC004FF4F67001F07BFD4FF0A043184603B0C5
:101ADC005DF804FBC8B4000000B585B00190084661
:101AEC0011461A4603468DF803300B468DF802302A
:101AFC0013468DF8013001AB1846FFF7D5FF039064
:101B0C009DF803209DF802305B001A439DF80130CC
:101B1C009B001A439DF818301B0242EA03019DF802
:101B2C001C301B04019A1943039B02F5E07243F825
:101B3C00221000BF05B05DF804FB00B585B0039022
:101B4C000023019300230093002301220121039819
:101B5C00FFF7C2FF00BF05B05DF804FB00B585B010
:101B6C0003900B468DF80B309DF80B300022019240
:101B7C0000220092002200210398FFF7ADFF00BF66
:101B8C0005B05DF804FB00B585B0019001AB1846BB
:101B9C00FFF78AFF0390019B012202FA03F3194617
:101BAC00039800F018F800BF05B05DF804FB00B511
:101BBC0085B0019001AB1846FFF776FF0390019BAF
:101BCC00012202FA03F31946039800F00EF800BF45
:101BDC0005B05DF804FB82B001900091019B009A66
:101BEC00C3F8082500BF02B0704782B00190009185
:101BFC00019B009AC3F80C2500BF02B0704784B05B
:101C0C000190019B5B09029300230393029B002B21
:101C1C0003D14FF0FF33039300BF019B03F01F036D
:101C2C000193039A019B22FA03F303F00103002BA7
:101C3C0014BF01230023DBB2184604B0704782B0F6
:101C4C0001900091009A019BC3F8242500BF02B0BB
:101C5C00704700B583B00190019B0433184603F024
:101C6C00CDFB00BF03B05DF804FB00B58FB0039053
:101C7C000291009313468DF8073000230D93029BBD
:101C8C0009939DF807300A93009B0B939DF8403005
:101C9C000C93039B043309A90022184603F0FCFCA7
:101CAC000D900D9B18460FB05DF804FB00B589B084
:101CBC00059003921A460B468DF8133013468DF897
:101CCC0012300F4B93F858301846FFF770FF9DF801
:101CDC0013209DF812300093039B05990948FFF7D8
:101CEC00C4FF0790079B0693069B002B04D0064A63
:101CFC00F0210698FFF748FE00BF09B05DF804FB21
:101D0C006806002048B50000F8B4000008B5044B84
:101D1C004FF080411846FFF792FF00BF08BD00BF8F
:101D2C000030004088B00190019B1B789B098DF816
:101D3C001F309DF81F30022B06D0022B49DC002BE4
:101D4C0002D0012B30D044E0019B08331B789B0957
:101D5C00DBB21A46019B07331B789B001A44019B8C
:101D6C0006331B789B0203F4406313440593019BD9
:101D7C0005331B7803F00F030493019B0A331B7884
:101D8C00DB09DBB21A46019B09331B785B0003F0BD
:101D9C00060313440393059B5A1C0499039B0B44A1
:101DAC00073B02FA03F316E0019B09331B781A4632
:101DBC00019B08331B781B021A44019B07331B78C9
:101DCC001B0403F47C1313440693069B01339B0200
:101DDC0001E000BF0023184608B0704700B585B07D
:101DEC00034600918DF8073013468DF80630594B99
:101DFC0093F82330002B01D01123A7E000238DF89A
:101E0C000F30544B012283F823209DF90730002B0F
:101E1C001EDA06238DF80F304E4B022283F8232056
:101E2C004C4B772283F828204A4B002283F8292038
:101E3C00484B002283F82A20464B002283F82B20A3
:101E4C00444B002283F82C20424BFF2283F82D2098
:101E5C009DF80F309DF8072002F07F02D1B23D4A69
:101E6C0013440A4683F82820009B1A0E9DF80F3065
:101E7C000133D1B2374A13440A4683F82820009B19
:101E8C001A0C9DF80F300233D1B2324A13440A4671
:101E9C0083F82820009B1A0A9DF80F300333D1B227
:101EAC002C4A13440A4683F828209DF80F3004333B
:101EBC00009AD1B2274A13440A4683F828209DF889
:101ECC000730402B02D0482B04D007E095238DF827
:101EDC000E3007E087238DF80E3003E0FF238DF8DA
:101EEC000E3000BF9DF80F3005331A4A13449DF88D
:101EFC000E2083F828209DF80630022B02D0032BED
:101F0C0005D009E0134B052283F8242009E0114B7E
:101F1C00052283F8242004E00E4B012283F82420B0
:101F2C0000BF9DF90730002B03DB0A4B93F82430DC
:101F3C0000E001238DF80D309DF80D300E33DBB22F
:101F4C00054A06210548FFF7B1FE0023184605B0E7
:101F5C005DF804FB68060020A00600209006002017
:101F6C0000B589B0039001930B468DF80B301346E6
:101F7C00ADF8083001238DF81F30AA4BDB8BB3F57D
:101F8C00F67F00F03281B3F5F67F00F34081B3F5B4
:101F9C00F07F00F00B81B3F5F07F00F3388140F255
:101FAC00D912934200F0E380B3F5ED7F80F22F81DC
:101FBC00002B05D040F2C712934200F09E8026E120
:101FCC00BDF80830002B04D197494FF4C87001F0CC
:101FDC00F6FA944B9B8A002B04D1934940F2911052
:101FEC0001F0EDFA8F4B9A8A8E4BDA82E7E08D4B3B
:101FFC0000221A848B4BFF2283F82820894B002265
:10200C001A83884B032283F823207CE0854B1B8C9E
:10201C0001339AB2834B1A84824B1B8C44F6206298
:10202C0093420FD9019B02221A707E4B0022DA8355
:10203C000223F3E0039B013303939DF80B30013B28
:10204C008DF80B309DF80B30002B03D0039B1B78C5
:10205C00FF2BEFD09DF80B30002B41D0039B1B784E
:10206C00FE2B35D1039B013303939DF80B30013BC1
:10207C008DF80B306B4B042283F823209DF80B302A
:10208C009BB2BDF80820934228BF1346ADF814301C
:10209C00002306930BE0039A069B1A44614BD96804
:1020AC00069B0B4412781A70069B01330693BDF8FD
:1020BC001430069A9A42EED35A4ABDF81430138360
:1020CC00584BDA68BDF814301344564AD3601AE002
:1020DC00019B05221A70534B0022DA8302239DE0E8
:1020EC001023524A01215248FFF7E0FD00238DF8DE
:1020FC001F304C4B40F2C712DA839DF81F30002B77
:10210C0001D101238AE0474B93F82330032B3FF492
:10211C007DAF32E0434B1B8BBDF80820D31AADF8D2
:10212C001630BDF81630F02B02D9F023ADF816306E
:10213C003C4BDA68BDF81630DBB201213C48FFF7A6
:10214C00B5FD384BDA68BDF816301344354AD36008
:10215C00344B1A8BBDF8163013449AB2314B1A8398
:10216C0000238DF81F302F4B40F2D912DA839DF8E3
:10217C001F30002B01D1012350E02A4B1B8BBDF8E3
:10218C0008209A42C6D8274BDB8A013B9AB2254BD2
:10219C00DA820223254A01212548FFF787FD002317
:1021AC008DF81F301F4B4FF4F072DA839DF81F30FF
:1021BC00002B01D1012331E000238DF80B30194B9A
:1021CC00DB8A002B7FF413AF164BFF2283F82820F9
:1021DC000223164A01211648FFF768FD00238DF8EB
:1021EC001F30104B4FF4F672DA839DF81F30002B22
:1021FC0001D1012312E00B4B002283F82320019B19
:10220C0000221A70074B0022DA83022306E0002317
:10221C008DF81F30034B0022DA830323184609B0D4
:10222C005DF804FB68060020F8B40000A00600204E
:10223C009006002000B593B003900B4601928DF8E8
:10224C000B30039B1B788DF84730039B01331B78B5
:10225C001A06039B02331B781B041A43039B03339C
:10226C001B781B021343039A043212781343109306
:10227C0001238DF84630BE4B9B8BB3F51C7F00F3CE
:10228C00EB82B3F5137F16DCB3F50E7F00F08C8177
:10229C00B3F50E7F00F3E082002B00F09380002B4F
:1022AC00C0F2DA8240F22622934200F3D582B3F5D3
:1022BC00047F51DAD0E2A3F24D23232B00F2CC821F
:1022CC0001A252F823F000BF75260000652800001B
:1022DC0065280000652800006528000065280000BE
:1022EC00DB2600006528000065280000652800003A
:1022FC00652800006528000065280000652800009E
:10230C00652800006528000065280000652800008D
:10231C00652800006528000057270000652800008C
:10232C00652800006528000065280000652800006D
:10233C00652800006528000065280000652800005D
:10234C00BB270000652800006528000065280000F8
:10235C006528000001280000A3F50473162B00F279
:10236C007B8201A252F823F00124000065280000B2
:10237C00652800003D240000652800006528000049
:10238C0065280000652800006528000097240000DF
:10239C0065280000652800006528000065280000FD
:1023AC0065280000652800006528000065280000ED
:1023BC0065280000652800006528000065280000DD
:1023CC0025250000012200214020FFF707FD0F907A
:1023DC000F9B0E930E9B002B05D0664A40F20F21EB
:1023EC000E98FFF7D1FA00238DF84630604B4FF46E
:1023FC0004729A839DF84630002B01D1012332E2FE
:10240C00012200214020FFF7E9FC0F900F9B0D9358
:10241C000D9B002B05D0574A40F212210D98FFF767
:10242C00B3FA00238DF84630514B40F213229A83B5
:10243C009DF84630002B01D1012314E29DF8473062
:10244C0023F00303002B07D0019B04221A70484B86
:10245C0000229A83022306E203224FF4D57148200E
:10246C00FFF7BCFC0F900F9B0C930C9B002B05D023
:10247C00404A4FF406710C98FFF786FA00238DF84A
:10248C0046303B4B40F219229A839DF84630002B84
:10249C0001D10123E7E19DF8473003F00403002B41
:1024AC0013D1334A937A032161F3020393729DF89B
:1024BC00473023F00303002B07D0019B04221A7032
:1024CC002B4B00229A830223CDE1294B00221A8444
:1024DC00274B9B7A03F00703DBB2032B02D14FF09F
:1024EC00804300E000230B9302220B99E920FFF7B5
:1024FC0075FC0F900F9B0A930A9B002B05D01D4A6D
:10250C0040F225210A98FFF73FFA00238DF8463058
:10251C00174B40F226229A839DF84630002B01D1AE
:10252C000123A0E19DF8473003F00403002B56D0A3
:10253C000F4A937A012161F3020393729DF847309D
:10254C0023F004038DF84730094B1B8C01339AB2EE
:10255C00074B1A84064B1B8CB3F5FA6F0CD9019BF5
:10256C0002221A70024B00229A8302237BE100BFE5
:10257C0068060020F8B40000022200214120FFF779
:10258C002DFC0F900F9B0793079B002B05D0A64AA1
:10259C0040F237210798FFF7F7F900238DF8463002
:1025AC00A24B4FF40E729A839DF84630002B01D14A
:1025BC00012358E19DF8473023F00303002B07D08B
:1025CC00019B04221A70994B00229A8302234AE140
:1025DC009DF8473003F00103002BB5D195E09DF831
:1025EC00473023F00303002B52D0019B04221A70B6
:1025FC008E4B00229A83022335E18C4B1B8C0133CA
:10260C009AB28A4B1A84894B1B8CB3F5FA6F07D993
:10261C00019B02221A70854B00229A83022322E12D
:10262C00824B9B7A03F00703DBB2032B02D14FF0F2
:10263C00804300E000230B9302220B99E920FFF763
:10264C00CDFB0F900F9B0893089B002B05D0764A6F
:10265C004FF413710898FFF797F900238DF8463063
:10266C00724B40F24D229A839DF84630002B01D1DB
:10267C000123F8E09DF8473023F00303002B08D02A
:10268C00019B04221A70694B00229A830223EAE010
:10269C0000BF9DF8473003F00103002BADD102229F
:1026AC0000217A20FFF79AFB0F900F9B0993099B4F
:1026BC00002B05D05C4A40F252210998FFF764F9CF
:1026CC0000238DF84630594B40F253229A839DF8E3
:1026DC004630002B01D10123C5E09DF8473023F093
:1026EC000303002B07D0019B04221A704F4B0022CE
:1026FC009A830223B7E0109B03F08043002B04D095
:10270C004A4A937A43F008039372484B9B7A03F03E
:10271C000703DBB2032B2CD001224FF400715020A5
:10272C00FFF75CFB0F900F9B0693069B002B05D0CD
:10273C003D4A4FF418710698FFF726F900238DF8DF
:10274C0046303A4B40F261229A839DF84630002B7A
:10275C0001D1012387E09DF8473023F00303002BC0
:10276C0007D0019B04221A70304B00229A8302235B
:10277C0079E02E4B2E4ADA602C4B01229A820122F0
:10278C0000214920FFF72AFB0F900F9B0593059B17
:10279C00002B05D0244A40F26A210598FFF7F4F883
:1027AC0000238DF84630214B40F26B229A839DF822
:1027BC004630002B01D1012355E09DF8473023F022
:1027CC000303002B07D0019B04221A70174B002225
:1027DC009A83022347E0039B013303939DF80B304C
:1027EC00013B8DF80B30114B0022DA830F4B4FF469
:1027FC001C729A830DF113039DF80B101022039891
:10280C00FFF7AEFB0346012B01D800232BE09DF80C
:10281C001330002B0ED09DF81320019B1A70034B24
:10282C0000229A8302231EE0F8B400006806002000
:10283C00B00600200E48FFF775FA03460D4A5360A8
:10284C000C4B4FF400721A81019B00221A70094B39
:10285C0000229A83022306E000238DF84630054BB4
:10286C0000229A830323184613B05DF804FB00BFC3
:10287C00B00600206806002000B589B003900B4616
:10288C0001928DF80B3001238DF81F30404B9B8B40
:10289C0040F2A222934261D040F2A22293426BDC1E
:1028AC00002B03D0B3F5267F21D065E0039B1B786A
:1028BC008DF81E309DF81E3023F00303002B07D03B
:1028CC00019B04221A70324B00229A8302235AE095
:1028DC00039B013303939DF80B30013B8DF80B30B8
:1028EC002B4B0022DA832A4B4FF426729A830DF17C
:1028FC0013039DF80B104FF400720398FFF730FB95
:10290C000346012B01D800233DE09DF81330002B2A
:10291C0008D09DF81320019B1A701D4B00229A833E
:10292C00022330E01A4B9B8A012B1DD90122002176
:10293C004C20FFF753FA0690069B0593059B002B42
:10294C0005D0144A40F2A1210598FFF71DF8002389
:10295C008DF81F300E4B40F2A2229A839DF81F3047
:10296C00002B01D101230EE0019B00221A70084BB1
:10297C0000229A83022306E000238DF81F30044BBB
:10298C0000229A830323184609B05DF804FB00BFAC
:10299C0068060020F8B4000000B58DB003900B461B
:1029AC0001928DF80B3001238DF82F30AC4B9B8BA3
:1029BC00B3F54C7F00F0C781B3F54C7F00F3EC818D
:1029CC00B3F5487F00F09081B3F5487F00F3E481C4
:1029DC0040F20A32934200F03A8140F20A329342BA
:1029EC0000F3DA81B3F53B7F00F0E380B3F53B7F76
:1029FC0000F3D281B3F5397F00F0B880B3F5397F9D
:102A0C0000F3CA8140F2D322934200F08180B3F5E7
:102A1C00357F80F2C181002B04D040F2C322934257
:102A2C0037D0B9E1039B1B788DF823309DF8233008
:102A3C0023F00303002B07D0019B04221A70884B50
:102A4C0000229A830223AEE1854B9B7A03F00703A5
:102A5C00DBB2012B35D0824B9B8A012B31D9804BB9
:102A6C001B69012219465920FFF7B8F90790079BFB
:102A7C000693069B002B05D07A4A40F2C221069899
:102A8C00FEF782FF00238DF82F30754B40F2C322E6
:102A9C009A839DF82F30002B01D1012383E1039BF6
:102AAC001B788DF823309DF8233023F00303002B83
:102ABC0007D0019B04221A70694B00229A830223CF
:102ACC0071E1674B9A8A664BDA82EFE0644B002225
:102ADC001A83634B042283F82320614BFF2283F873
:102AEC0028205F4B9B8A012B01D9FC2200E0FE229F
:102AFC005B4B83F8292002235B4A02215B48FFF7DA
:102B0C00D5F800238DF82F30554B40F2D3229A8301
:102B1C009DF82F30002B2FD1012344E1504B1B8B00
:102B2C00C3F50073ADF82C30BDF82C30F02B02D966
:102B3C00F023ADF82C304A4BDB68494A128B9818BD
:102B4C00BDF82C30D9B20123474AFFF7AFF8444BFC
:102B5C001A8BBDF82C3013449AB2414B1A830023C4
:102B6C008DF82F303E4B4FF439729A839DF82F30ED
:102B7C00002B02D1012316E100BF394B1B8BB3F59F
:102B8C00007FCBD3364BDB6803F50073344AD3603C
:102B9C00334B032283F823200323334A0121334888
:102BAC00FFF784F800238DF82F302D4B4FF43B7238
:102BBC009A839DF82F30002B01D10123F3E0284B91
:102BCC0093F83A3003F01F038DF817309DF8173047
:102BDC00052B17D09DF817300B2B03D09DF8173011
:102BEC000D2B07D1019B05221A701D4B00229A83D5
:102BFC000223D8E0019B04221A70194B00229A83FD
:102C0C000223D0E0164B00221A8444E0144B1B8C98
:102C1C0001339AB2124B1A84114B1B8C44F620626E
:102C2C00934207D9019B02221A700D4B00229A8302
:102C3C000223B8E010230C4A01210C48FFF736F8A8
:102C4C0000238DF82F30064B40F20A329A839DF800
:102C5C002F30002B01D10123A5E000230A9315E0AE
:102C6C0068060020F8B40000A006002090060020A2
:102C7C00039A0A9B13441B78002B04D04C4B002264
:102C8C0083F8232007E00A9B01330A939DF80B304D
:102C9C000A9A9A42ECD3464B93F82330032BB5D0C7
:102CAC00434BDB8A013B9AB2414BDA82404BDB8AC5
:102CBC00002B7FF40BAF3E4B9B8A012B64D93C4B12
:102CCC00FF2283F828203A4BFD2283F82920032386
:102CDC00384A02213848FEF7E9FF00238DF82F30DF
:102CEC00334B4FF448729A839DF82F30002B01D14F
:102CFC00012358E02E4B00221A842D4B032283F81B
:102D0C0023203CE02A4B1B8C01339AB2284B1A84AB
:102D1C00274B1B8C44F62062934207D9019B02225D
:102D2C001A70234B00229A8302233CE01023214A81
:102D3C0001212148FEF7BAFF00238DF82F301C4BE0
:102D4C004FF44C729A839DF82F30002B01D1012344
:102D5C0029E0002309930DE0039A099B13441B7887
:102D6C00002B04D0124B002283F8232007E0099B90
:102D7C00013309939DF80B30099A9A42ECD30C4B12
:102D8C0093F82330032BBDD0019B00221A70084B03
:102D9C0000229A83022306E000238DF82F30044B87
:102DAC0000229A83032318460DB05DF804FB00BF84
:102DBC0068060020A00600209006002000B58BB00D
:102DCC0001900091019BDB680993019B1B7C8DF8A2
:102DDC002330A24BDB8A002B05D1A04B93F8583043
:102DEC001846FEF7D0FE9D4B93F82330022B05D0EE
:102DFC009A4B93F82330012B40F0C0809DF8233080
:102E0C00062B04D8964940F2573000F0D8FB9DF8B9
:102E1C002330063B8DF82330099B06330993019B25
:102E2C005B681B784C2B14D19DF82330002B10D0F1
:102E3C009DF82330013B8DF82330099B0133099316
:102E4C0007E09DF82330013B8DF82330099B0133BB
:102E5C0009939DF82330002B03D0099B1B78FF2B83
:102E6C00EFD09DF82330002B0FD1019B5B681B78B2
:102E7C004C2B08D19DF8233001338DF82330099B5E
:102E8C00013B099301E000230993099B002B53D1CB
:102E9C00724B93F82230DBB2012B4DD001238DF80D
:102EAC0009306E4B93F82230DBB2052B21D0052B69
:102EBC0023DC022B02DC002B03DC1EE0042B14D0E1
:102ECC001BE000238DF80830644B032283F822208A
:102EDC0000F0C2FA0790079B002B1AD0604A40F210
:102EEC0083310798FEF750FD13E001238DF808306D
:102EFC0012E002238DF808300EE003230693069BA4
:102F0C00002B08D0564A4FF463710698FEF73CFD2F
:102F1C0001E000BF00E000BF504B93F8583018465A
:102F2C00FEF731FE4D4B032283F822204B4B1B68DE
:102F3C0002AA10469847D9E0484B93F82330022B4D
:102F4C0018D1464B012283F82320099B1B788DF85E
:102F5C0017309DF8173023F00103002B0AD141489C
:102F6C003E4B93F824300E33DBB23F4A0621FEF77A
:102F7C009DFEBBE0394B002283F8232006238DF8FD
:102F8C000F30364B93F82230DBB2013B042B00F2AE
:102F9C00998001A252F823F0B92F0000C72F00002E
:102FAC00D130000011300000793000002B4B022290
:102FBC0083F82220294B00229A830DF10F029DF8F1
:102FCC00233019460998FFF735F90346012B40F2D7
:102FDC00858000238DF80C309DF80F308DF80D3066
:102FEC001E4B032283F822201C4B93F858301846B2
:102FFC00FEF7C9FDFEF78AFE184B1B6803AA1046A4
:10300C0098476BE00DF10F029DF823301946099893
:10301C00FFF732FC0346012B62D901238DF80C30EB
:10302C009DF80F308DF80D300C4B032283F82220C5
:10303C000A4B00229A82094B0022DA82074B0022AB
:10304C0083F82320054B93F858301846FEF79BFD68
:10305C00024B1B6803AA1046984741E06806002003
:10306C00F8B4000096060020A00600200DF10F0217
:10307C009DF8233019460998FFF78EFC0346012B67
:10308C0030D902238DF80C309DF80F308DF80D30AF
:10309C00184B032283F82220164B002283F823209E
:1030AC00144B00229A82134B0022DA82114B93F8B4
:1030BC0058301846FEF767FD0E4B1B6803AA1046E6
:1030CC0098470FE003230493049B002B0CD00A4A6F
:1030DC0040F2D3310498FEF757FC05E000BF04E042
:1030EC0000BF02E000BF00E000BF00BF0BB05DF806
:1030FC0004FB00BF68060020F8B4000000B589B0DE
:10310C00039002911346ADF80630039B002B04D1BB
:10311C002E4940F2DD3000F052FA2D4B93F822305C
:10312C00DBB2002B01D108234CE0294B93F8223061
:10313C00DBB2032B01D0112344E0BDF80630002B89
:10314C0001D107233EE0224B042283F82220204B9E
:10315C009B7A03F00803DBB2002B04D1029B5B02C9
:10316C001B4A136102E01A4A029B1361184A039B23
:10317C00D360174ABDF806309382154ABDF8063065
:10318C00D382134B00229A83BDF80630012B01D950
:10319C00522300E051238DF81F300D4B19699DF817
:1031AC001F3001221846FEF719FE0690069B059368
:1031BC00059B002B05D0054A40F2FD310598FEF722
:1031CC00E3FB0023184609B05DF804FBF8B40000DB
:1031DC006806002000B589B0039002911346ADF843
:1031EC000630039B002B04D13E4940F2054000F011
:1031FC00E6F93D4B93F82230DBB2002B01D10823CA
:10320C006BE0394B93F82230DBB2032B01D0112346
:10321C0063E0BDF80630002B01D107235DE0324B93
:10322C00052283F82220304B9B7A03F00803DBB293
:10323C00002B04D1029B5B022B4A136102E02A4A49
:10324C00029B1361284A039BD360274ABDF80630C2
:10325C009382254ABDF80630D382234B00229A83F1
:10326C00BDF80630012B14D11F4B1B6901221946E6
:10327C005820FEF7B3FD0790079B0593059B002B89
:10328C0005D0184A4FF485610598FEF77DFB0023A5
:10329C0023E0154B9B7A03F00703DBB2012B08D11B
:1032AC00114B1B69012219465920FEF797FD079017
:1032BC0007E0BDF8063001221946D720FEF78EFD37
:1032CC000790079B0693069B002B05D0054A40F2FE
:1032DC0037410698FEF758FB0023184609B05DF8F5
:1032EC0004FB00BFF8B400006806002000B58DB0E8
:1032FC0003900291524B93F82230DBB2002B01D099
:10330C00082398E0029B002B0FD0039BDB78FF2B4C
:10331C000BD0039B5B78FF2B07D0039B1B78FF2BF9
:10332C0003D0039B9B78FF2B01D1072383E0039BE6
:10333C00DB78002B0BD0039B5B78002B07D0039B17
:10334C001B78002B03D0039B9B78002B04D13D49A9
:10335C0040F24C4000F033F9039BDA78384B83F899
:10336C005820374B93F858301846FEF7E6FB344B91
:10337C0093F858301846FEF706FC039B9B788DF8A3
:10338C001430039B1B788DF81530039B5B788DF8FC
:10339C001630FF238DF8173006238DF81830FF23D5
:1033AC008DF819304FF08063079300238DF820308F
:1033BC0000238DF8213005A90023234A234801F06E
:1033CC0029FB0B900B9B0A930A9B002B05D01D4AE3
:1033DC004FF48C610A98FEF7D7FA194A029B1360D6
:1033EC00174B012283F82220154A937A6FF30203BC
:1033FC009372134A937A6FF3C3039372104B0022A8
:10340C0083F823200E4BFF2283F828200A230093F5
:10341C000F4B01220F490D48FEF727FC0B900B9B1D
:10342C000993099B002B05D0064A40F26C41099880
:10343C00FEF7AAFA002318460DB05DF804FB00BF96
:10344C0068060020F8B40000C92D000048B5000043
:10345C00A00600209006002008B5124B93F82230ED
:10346C00DBB2002B01D108231AE00E4B93F822306B
:10347C00DBB2032B01D0112312E00B48FEF7E9FB62
:10348C00084B93F8583000211846FEF767FB054BA4
:10349C00002283F82320034B002283F822200023F0
:1034AC00184608BD6806002048B50000094B93F883
:1034BC002230DBB2032B07D0064B93F82230DBB261
:1034CC00002B01D0012300E0002303F00103DBB249
:1034DC001846704768060020054B93F82230DBB283
:1034EC00022B01D9034B00E000231846704700BFA4
:1034FC00680600206C06002072B600BF034B1B68E8
:10350C000133024A136000BF704700BFC40600209D
:10351C00064B1B68013B054A1360044B1B68002BD0
:10352C0001D162B600BF00BF704700BFC4060020C7
:10353C0000B583B0019000F025F80346012B03D0B1
:10354C000449432000F03BF8FFF7D6FF00BF03B05F
:10355C005DF804FB58B5000000B583B003468DF848
:10356C00073000F00FF80346012B03D0044951201B
:10357C0000F025F8FFF7CCFF00BF03B05DF804FBAB
:10358C0058B5000084B0EFF305830193019BC3F39E
:10359C0008030393039B002B0DD1EFF314830093CB
:1035AC00009B0293029B03F00103002B0CBF012331
:1035BC000023DBB200E00123184604B0704700B5CD
:1035CC0085B003460091ADF80630BDF80630029385
:1035DC00009B039302AB1A46002144F20200FEF753
:1035EC00E1F900BF05B05DF804FB10B487B00190A1
:1035FC000091019B009A53E8004F104643E80001EC
:10360C0091F0000FF7D1059404900391059B184697
:10361C0007B05DF8044B704710B487B0019000916F
:10362C00019B009A53E8004F44EA020043E8000172
:10363C0091F0000FF6D1059404900391049B184669
:10364C0007B05DF8044B704710B487B0019000913F
:10365C00019B009A53E8004F04EA020043E8000182
:10366C0091F0000FF6D1059404900391059B184638
:10367C0007B05DF8044B704710B487B0019000910F
:10368C00019B009A53E8004F04EB020043E8000151
:10369C0091F0000FF6D1059404900391049B184609
:1036AC0007B05DF8044B704710B487B001900091DF
:1036BC00019B009A53E8004FA4EB020043E8000181
:1036CC0091F0000FF6D1059404900391049B1846D9
:1036DC0007B05DF8044B704700B583B00190012131
:1036EC000198FFF799FF0346184603B05DF804FBF9
:1036FC0000B583B0019000210198FFF7A5FF0346A8
:10370C00184603B05DF804FB00B583B001900B467E
:10371C008DF80330019B002B03D10849E820FFF7FB
:10372C004EFF019BDA689DF803300199098A01FB71
:10373C0003F31344184603B05DF804FBACB500006A
:10374C0000B583B001900091019B002B03D1084977
:10375C00F520FFF734FF009B019AD2689B1A019A5F
:10376C00128AB3FBF2F3DBB2184603B05DF804FB2C
:10377C00ACB5000000B585B00190019B002B01D1C8
:10378C000E234CE0019B1B68002B03D12649FF2024
:10379C00FFF715FF019B5B68002B04D122494FF406
:1037AC008070FFF70CFF019B9B68002B04D11E4916
:1037BC0040F20110FFF703FF019BDB68002B04D1E3
:1037CC0019494FF48170FFF7FAFE019B1B8A002BFD
:1037DC0004D1154940F20310FFF7F1FE019B9A68E2
:1037EC00019B5B68D31A8DF80F30019B1B68019A03
:1037FC0052681A6007E0019B1A681368591C116023
:10380C009DF80F201A709DF80F305A1E8DF80F205E
:10381C00002BF0D1019B1B6800221A710023184663
:10382C0005B05DF804FB00BFACB5000000B585B079
:10383C000190019B002B04D11C494FF49270FFF7AF
:10384C00BEFE002303930020FFF772FE019B1B6852
:10385C001A68019B5B689A421FD9019B1B681A6806
:10386C00013A1A601B681B7819460198FFF74CFF48
:10387C000390019B9A68019B1B681B68D31A8DF8F7
:10388C000B30019B1B681B799DF80B209A4204D9C5
:10389C00019B1B689DF80B201A710020FFF75CFE42
:1038AC00039B184605B05DF804FB00BFACB50000E7
:1038BC0010B584B001900091019B002B04D11149EB
:1038CC0040F24710FFF77BFE009B002B04D10D4903
:1038DC004FF4A470FFF773FE009B03930020FFF7D7
:1038EC0027FE019B1B681C68621C1A6003990198D7
:1038FC00FFF726FF034623700020FFF72DFE00BFC5
:10390C0004B010BDACB5000000BF704708B501E0B5
:10391C00FFF7FAFFFFF7CAFD0346002BF8D100BFF3
:10392C0000BF08BD00B593B00190019B5A78514B74
:10393C001A70514B1B681193119B9B691093019B3F
:10394C001B78022B61D0022B7EDC002B02D0012BCA
:10395C003CD079E0019B5B78002B0FD0119B0F932F
:10396C000F9800F0F5F80E900E9B0D930D9B002B0D
:10397C0004D0424A58210D98FEF706F8FFF7ACFD2B
:10398C0003461A68109B1A60109B4FF400725A6021
:10399C00394B1B689B699B68002B60D000238DF80A
:1039AC002430019B5B78002B14BF01230023DBB276
:1039BC008DF8253000230A93109B9B690B93109B69
:1039CC009B68119A09A91046984748E02A4B1B6836
:1039DC009B699B68002B44D002238DF81830019B07
:1039EC005B78002B14BF01230023DBB28DF8193058
:1039FC00109B0C330793109B9B690893109B9B683F
:103A0C00119A06A9104698472BE01B4B1B689B6923
:103A1C009B68002B27D003238DF80C30019B5B781F
:103A2C00002B14BF01230023DBB28DF80D30109B4B
:103A3C000C330493109B9B690593109B9B68119A04
:103A4C0003A9104698470EE003230C930C9B002B04
:103A5C000BD00A4A88210C98FDF796FF05E000BFB1
:103A6C0004E000BF02E000BF00E000BF13B05DF84F
:103A7C0004FB00BFC8060020CC060020FCB50000EB
:103A8C0000B58BB0039002910192039B002B03D1E4
:103A9C002B499220FFF793FD039B0893089B9B698E
:103AAC000793089B1B69B3F5007F01D0062343E005
:103ABC00244B1B68002B01D011233DE0079B019A7E
:103ACC009A61079B029A9A601E4A089B1360002316
:103ADC000993089B14331C491846FFF707FC0990FF
:103AEC00099B002B0DD1029B002B0AD1FFF70EFF77
:103AFC00164B1B78DBB2002B01D1002300E00D2309
:103B0C000993099B002B16D00E4B00221A60029BC6
:103B1C00002B10D000238DF8103001238DF81130BC
:103B2C0000230593079B9B690693079B9B6804AA3C
:103B3C00114603989847099B18460BB05DF804FB97
:103B4C00FCB50000CC06002031390000C80600206E
:103B5C0000B589B00190019B002B03D11F49CA20ED
:103B6C00FFF72DFD019B0793079B9B6906931C4B4D
:103B7C001B68079A9A4201D011232AE0FFF796FCA2
:103B8C000346002B01D0112323E0FFF765FC0590C1
:103B9C00059B002B02D1124B00221A60069B9B68DE
:103BAC00002B15D001238DF80830059B002B14BF7A
:103BBC0001230023DBB28DF8093000230393069B0D
:103BCC009B690493069B9B6802AA1146019898472F
:103BDC00059B184609B05DF804FB00BFFCB500005E
:103BEC00CC06002000B589B001900091019B002B00
:103BFC0003D13049F620FFF7E2FC009B002B03D1E8
:103C0C002C49F720FFF7DBFC019B0693069B9B6975
:103C1C00059300230793284B1B68069A9A4201D000
:103C2C00112343E0FFF742FC0346002B01D0112384
:103C3C003CE0059B009A0C3307CA83E80700009B05
:103C4C009868009B1968009B5B689BB21A46FFF74B
:103C5C0055FA0790079B002B0ED1059B9B68002BF8
:103C6C000AD1FFF753FE154B1B78DBB2002B01D1A9
:103C7C00002300E00D230793059B9B68002B14D0B9
:103C8C00079B002B11D002238DF8083001238DF8EF
:103C9C000930059B0C330393059B9B690493059B8F
:103CAC009B6802AA114601989847079B184609B0D1
:103CBC005DF804FBFCB50000CC060020C806002013
:103CCC0000B589B001900091019B002B04D13149C2
:103CDC004FF49470FFF773FC009B002B04D12D491B
:103CEC0040F22910FFF76BFC019B0693069B9B6926
:103CFC00059300230793284B1B68069A9A4201D020
:103D0C00112343E0FFF7D2FB0346002B01D0112314
:103D1C003CE0059B009A0C3307CA83E80700009B24
:103D2C009868009B1968009B5B689BB21A46FFF76A
:103D3C0051FA0790079B002B0ED1059B9B68002B1B
:103D4C000AD1FFF7E3FD154B1B78DBB2002B01D139
:103D5C00002300E00D230793059B9B68002B14D0D8
:103D6C00079B002B11D002238DF8083001238DF80E
:103D7C000930059B0C330393059B9B690493059BAE
:103D8C009B6802AA114601989847079B184609B0F0
:103D9C005DF804FBFCB50000CC060020C806002032
:103DAC0088B003900B4601928DF80B30039B079360
:103DBC009DF80B30002B04D0012B0CD000BF062338
:103DCC0015E0019B0593059B002B02D0059B00225F
:103DDC001A7000230BE0019B002B01D1072306E096
:103DEC00019B0693079B1A1D069B1A60002318461D
:103DFC0008B0704700B585B00190019B002B04D131
:103E0C00074940F27D10FFF7DAFB019B0393039BFC
:103E1C009B690293029B184605B05DF804FB00BF3A
:103E2C00FCB5000000B583B00190019B002B03D1C1
:103E3C000C493120FFF7C3FB019B9B68002B0CD076
:103E4C00019B5B69019A1069019A1168019A926849
:103E5C009847019B00229A6000E000BF03B05DF818
:103E6C0004FB00BF70B600000EB400B584B0019026
:103E7C00019B002B03D118494220FFF7A0FB019BAB
:103E8C005B69002B03D114494320FFF798FB019B7E
:103E9C001B68002B03D110494420FFF790FB019BBA
:103EAC005B68002B03D10C494520FFF788FB059B71
:103EBC00002B0AD00023039306AB039303AB1A46E3
:103ECC000599019800F0B8F900E000BF04B05DF866
:103EDC0004EB03B0704700BF70B6000000B583B0B0
:103EEC0001900B468DF803309DF803300A2B03D15B
:103EFC000D210198FFF7F2FF019B1A68019B9B684B
:103F0C00581C0199886013449DF803201A70019B7A
:103F1C009A68019B5B689A4202D30198FFF782FF73
:103F2C0000BF03B05DF804FB00B587B003900291AD
:103F3C000192009300230593009B03F00103002BD7
:103F4C0024D00BE0029B01330293059B01330593B4
:103F5C009DF8133019460398FFF7C0FF029B1B789E
:103F6C008DF813309DF81330002BEBD106E0019B3C
:103F7C00013B019320210398FFF7B0FF019A059BA9
:103F8C009A422ED9019B002BF1D12AE0029B002BE7
:103F9C000BD0029806F03EFC059006E0019B013B1D
:103FAC00019320210398FFF799FF019A059B9A42F0
:103FBC000FD9019B002BF1D10BE0029B0133029333
:103FCC00059B013305939DF8133019460398FFF7B1
:103FDC0085FF029B1B788DF813309DF81330002B56
:103FEC00EBD100BF07B05DF804FB000000B589B051
:103FFC000390029101920093029B07930123069375
:10400C0007E0079A019BB2FBF3F30793069B01337E
:10401C000693079A019B9A42F3D2009A069B9A4206
:10402C0001D9009B06930B9B03F00103002B22D1BB
:10403C000A9B002B1FD00B9B03F00203002B06D016
:10404C00009B002B03D130238DF8173002E0202386
:10405C008DF8173008E00A9B013B0A939DF8173046
:10406C0019460398FFF73AFF0A9B002B03D0069AD8
:10407C000A9B9A42EFD301230793009B012B03D990
:10408C00009B013B009309E0029A079BB2FBF3F300
:10409C000493049A019B9A4200D205E0079B019A73
:1040AC0002FB03F30793E8E7029A079BB2FBF3F3D7
:1040BC000493049B079A02FB03F3029AD31A02930C
:1040CC00154A049B13441B7819460398FFF706FF07
:1040DC00079A019BB2FBF3F30793079B002BE3D1E9
:1040EC000B9B03F00103002B11D00A9B002B0ED06D
:1040FC0006E00A9B013B0A9320210398FFF7EEFE92
:10410C000A9B002B03D0069A0A9B9A42F1D300BF5C
:10411C0009B05DF804FB00BF00B7000000B589B022
:10412C000590049103920293049B002BB8BF5B4251
:10413C0006930123079307E0039B069A92FBF3F384
:10414C000693079B01330793039B069A9A42F3DA73
:10415C00029A079B9A4201D9029B07930A9B002B58
:10416C000AD0049B002B04DB0B9B03F00403002BF5
:10417C0002D00A9B013B0A930B9B03F00203002B1A
:10418C0002D0029B002B16D00B9B03F00103002BDB
:10419C0011D10A9B002B0ED006E00A9B013B0A931F
:1041AC0020210598FFF79AFE0A9B002B03D0079A53
:1041BC000A9B9A42F1D3049B002B07DA049B5B42C7
:1041CC0004932D210598FFF789FE08E00B9B03F063
:1041DC000403002B03D02B210598FFF77FFE0B9BCC
:1041EC0003F00203002B19D00B9B03F00103002BEF
:1041FC0014D1029B002B11D10A9B002B0ED006E090
:10420C000A9B013B0A9330210598FFF767FE0A9B36
:10421C00002B03D0079A0A9B9A42F1D304990B9B6B
:10422C0001930A9B0093029B039A0598FFF7DEFE0D
:10423C0000BF09B05DF804FB00B58FB00590049188
:10424C000392059B002B04D1AD4940F25220FFF79D
:10425C00B6F9059B5B69002B04D1A9494FF4157085
:10426C00FFF7ADF9059B1B68002B04D1A44940F264
:10427C005520FFF7A4F9059B5B68002B04D1A049DE
:10428C0040F25620FFF79BF9049B002B00F0938122
:10429C00049B1B788DF83730049B013304939DF8F5
:1042AC003730002B00F07E819DF83730252B40F005
:1042BC006D8100230A9301230C93049B1B788DF8CA
:1042CC0037309DF83730302B0DD0302B1BDC2B2B9F
:1042DC0011D02D2B17D10A9B43F001030A93049B99
:1042EC000133049312E00A9B43F002030A93049BEC
:1042FC00013304930AE00A9B43F004030A93049BE2
:10430C000133049302E000230C9300BF0C9B002BA1
:10431C00D3D1002309939DF837302A2B0CD1039B62
:10432C001B68191D039A11601B68099A13440993A1
:10433C00049B013304931AE0049B1B788DF83730EF
:10434C009DF837302F2B12D99DF83730392B0ED8DA
:10435C00049B01330493099A13469B0013445B009E
:10436C001A469DF837301344303B0993D3E70023AA
:10437C000B93049B1B788DF837309DF837302E2B20
:10438C001DD1049B01330493049B1B788DF83730AB
:10439C009DF837302F2B12D99DF83730392B0ED88A
:1043AC00049B013304930B9A13469B0013445B004C
:1043BC001A469DF837301344303B0B93E4E7049BCB
:1043CC001B788DF837309DF837306C2B03D09DF867
:1043DC003730682B07D1049B01330493049B1B7863
:1043EC008DF83730EFE79DF83730252B00F0C4807F
:1043FC00252BC0F2C680782B00F3C380582BC0F25B
:10440C00C080583B202B00F2BC8001A252F823F054
:10441C00114500008F4500008F4500008F450000BE
:10442C008F4500008F4500008F4500008F45000030
:10443C008F4500008F4500008F450000A14400000F
:10444C00C34400008F4500008F4500008F450000DD
:10445C008F450000C34400008F4500008F450000CD
:10446C008F4500008F4500008F4500008F450000F0
:10447C00514500008F4500008F4500003545000078
:10448C008F450000E74400008F4500008F45000079
:10449C0011450000039B1B68191D039A11601B68D2
:1044AC000C930C9B8DF81F309DF81F301946059806
:1044BC00FFF714FD66E0039B1B68191D039A11603E
:1044CC001B680C930A9B0193099B00930B9B0A227C
:1044DC000C990598FFF722FE54E0039B1B68191DED
:1044EC00039A11601B680C930C990A9B0193099B0E
:1044FC0000930B9B0A220598FFF778FD42E000BF62
:10450C00B4B60000039B1B68191D039A11601B684D
:10451C000C930C990A9B0193099B00930B9B102203
:10452C000598FFF763FD2DE0039B1B68191D039A8B
:10453C0011601B6808930A9B099A08990598FFF764
:10454C00F3FC1FE0039B1B68191D039A11601B6889
:10455C000C9330210598FFF7C1FC78210598FFF7E3
:10456C00BDFC0C990023019308230093082310220F
:10457C000598FFF73BFD05E025210598FFF7AEFCFC
:10458C0000E000BF049B0133049305E09DF8373035
:10459C0019460598FFF7A2FC049B1B78002B7FF4AF
:1045AC0077AE00E000BF059B1B7B002B04D0059869
:1045BC00FFF738FC00E000BF0FB05DF804FB00BF54
:1045CC0000B583B001900198FFF7D4F80346184664
:1045DC0003B05DF804FB00B58BB001900091019B1A
:1045EC001B8A043B0793009A079B1344DA1C079B16
:1045FC00B2FBF3F38DF81B300198FFF717F9059018
:10460C00059B002B01D1002338E0059B00221A7179
:10461C00059B01225A71079B9AB2059BDA80059B78
:10462C0009939DF81B30013B0493099B019A1A6076
:10463C00002308931DE00198FFF7F8F80390039B03
:10464C00002B0ED0059B5B790133DAB2059B5A71B6
:10465C00099B039A1A60039B019A1A60039B0993A6
:10466C0004E0059800F00EF8002307E0089B0133E6
:10467C000893089A049B9A42DDD3059B18460BB00D
:10468C005DF804FB00B58BB00190019B0793079B71
:10469C005B798DF81B30019B08939DF81B30013B17
:1046AC0005930023099305E0089B1B680893099B5D
:1046BC0001330993099A059B9A42F5D3089B1B6811
:1046CC000493019B0893002309930BE0089B1B6840
:1046DC00039308990498FFF7EBF8039B0893099B45
:1046EC00013309939DF81B30099A9A42EED300BF0F
:1046FC0000BF0BB05DF804FB00B585B00190019BC9
:10470C000393039B043301211846FEF7B5FF00BF4A
:10471C0005B05DF804FB00B587B00190019B0593D3
:10472C00059B043301211846FEF7BEFF0346039395
:10473C0003AB0493049B1B78002B02D10198FFF769
:10474C00A1FF00BF07B05DF804FB000000B591B0FD
:10475C000390029101920093039B002B03D14349D8
:10476C00B620FEF72CFF039B0993039B0F93099B29
:10477C00DB881A46099B5B7902FB03F3043B089325
:10478C00009A089B9A4203D33849C420FEF717FFBE
:10479C00099BDB880793009B1A1D079BB2FBF3F365
:1047AC000E93009B0433079AB3FBF2F2079901FBBB
:1047BC0002F29B1A0D93019B1A68009B1344089AF2
:1047CC009A4203D2089A009BD31A01E0019B1B6802
:1047DC000C93019B0C9A1A6005E00F9B1B680F93BE
:1047EC000E9B013B0E930E9B002BF6D100230B93DB
:1047FC00079A0D9BD31A0A930A9A0C9B934228BFD3
:10480C0013460A932AE0029A0B9B134406930F9AC1
:10481C000D9B1344043305939DF84830002B05D0B1
:10482C000A9A0599069806F025F804E00A9A069962
:10483C00059806F01FF800230D930F9B1B680F9330
:10484C000C9A0A9BD31A0C930B9A0A9B13440B9346
:10485C00079A0C9B934228BF13460A930C9B002B80
:10486C00D1D100BF00BF11B05DF804FB10B7000040
:10487C0000B589B00590049103920293039B0793B2
:10488C0007AA00230093029B04990598FFF75EFF8B
:10489C00079B039A9A4203D00349F620FEF78FFE3A
:1048AC0000BF09B05DF804FB10B7000000B589B07B
:1048BC000590049103920293039B079307AA01238B
:1048CC000093029B04990598FFF740FF079B039AFE
:1048DC009A4204D004494FF48070FEF770FE00BF7A
:1048EC0009B05DF804FB00BF10B7000082B0019066
:1048FC00019B9B6800229A60019B9B6800221A61B5
:10490C00019B9B6800225A61019B9B680022DA6024
:10491C00019B9B6800225A60019B9B6800221A60D5
:10492C0000BF02B07047000000B585B0019001983F
:10493C0000F00EF80390039B002B01D0039B00E0CA
:10494C00024B184605B05DF804FB00BF60B70000D1
:10495C0086B00190164B0593164B04931FE0049AF6
:10496C00059BD31ADB10DA0F13445B10DB00059A9E
:10497C0013440393039B1B680293029A019B9A4274
:10498C0002D9039B04930AE0029A019B9A4203D238
:10499C00039B0833059302E0039B5B6804E0059AD4
:1049AC00049B9A42DBD30023184606B0704700BF25
:1049BC0034BB00004CBC000000B589B001900091E4
:1049CC00009B0793019B1B788DF80830019B5B685B
:1049DC000393019B9B68DBB28DF81030019BDB6865
:1049EC000593019B1B69DBB28DF81830074A079BB6
:1049FC0052F823300649079A51F8221002AA1046A1
:104A0C00984700BF09B05DF804FB00BFD00600203A
:104A1C00DC06002010B58AB003900291019200933D
:104A2C00039B1B7809932249099B019A41F8232087
:104A3C002049099B009A41F82320002308931E4B20
:104A4C0004AC0FCB84E80F00029B1B788DF8103060
:104A5C00029B5B788DF81130029B9B788DF812309D
:104A6C00029BDB788DF81330029B1B798DF8153087
:104A7C00029B5B798DF81630029B9B680693029B18
:104A8C001B7B8DF81C30029B5B7B8DF81D30039BD0
:104A9C00181D019B002B01D0084A00E00022099B45
:104AAC0004A900F0C3FB0890089B18460AB010BD7F
:104ABC00D0060020DC0600204CBC0000C5490000DC
:104ACC0000B589B001900091009B0793019B1B7866
:104ADC008DF80C30019B5B680493019B9B68DBB2E7
:104AEC008DF81430019BDB680693074A079B52F83C
:104AFC0023300649079A51F8221003AA104698470A
:104B0C0000BF09B05DF804FBE8060020EC060020AD
:104B1C0000B589B001900091009B0793019B1B7815
:104B2C008DF80C30019B5B680493019B9B68DBB296
:104B3C008DF81430019BDB680693074A079B52F8EB
:104B4C0023300649079A51F8221003AA10469847B9
:104B5C0000BF09B05DF804FBE8060020EC0600205D
:104B6C0030B58FB0039002910192039B1B780C938C
:104B7C0026490C9B019A41F82320029B1A6924496F
:104B8C000C9B41F82320029B5B7F1946214A0C9B0E
:104B9C0013440A461A70029B04AC1D460FCD0FC479
:104BAC0095E80F0084E80F000C9B089300230D93ED
:104BBC00039B1B781A46174B9B5C002B0DD0039B59
:104BCC00181D019B002B01D0134A00E0002204ABFE
:104BDC00194601F0E1FF0D9014E0039B1B781A4677
:104BEC000C4B9B5C002B0DD1039B03F10C00019B28
:104BFC00002B01D0094A00E0002204AB194601F059
:104C0C0065F90D900D9B18460FB030BDE8060020DD
:104C1C00EC060020F0060020CD4A00001D4B0000E1
:104C2C0008B5064B1B68002B03D105495120FEF734
:104C3C00C6FC024B1B68984700BF08BDF406002059
:104C4C0060BC000082B00190019B044A934201D1E8
:104C5C00034B00E00023184602B0704700200040D0
:104C6C00F406002000B587B001900091019B002B49
:104C7C0003D118497720FEF7A2FC0198FFF7E2FF59
:104C8C000590059B002B1ED000238DF813300020BF
:104C9C00FEF74EFC059B1B79002B03D001238DF8EE
:104CAC00133005E0059B009A1A60059B01221A71CE
:104CBC000020FEF751FC9DF81330002B03D011237C
:104CCC000393039B02E000230393039B184607B056
:104CDC005DF804FB60BC000000B585B00190019B41
:104CEC00002B03D10A499B20FEF769FC0198FFF7C2
:104CFC00A9FF0390039B002B05D0039B00221A6095
:104D0C00039B00221A7100BF05B05DF804FB00BFC5
:104D1C0060BC000082B003468DF807309DF9073067
:104D2C00002B0CDB9DF8073003F01F0205499DF9A1
:104D3C0007305B09012000FA02F241F8232000BF82
:104D4C0002B0704700E100E082B003468DF80730F6
:104D5C009DF90730002B13DB9DF8073003F01F0281
:104D6C0009499DF907305B09012000FA02F2203352
:104D7C0041F82320BFF34F8F00BFBFF36F8F00BFED
:104D8C0000BF02B0704700BF00E100E082B00346F4
:104D9C0000918DF807309DF90730002B0ADB009B42
:104DAC00DAB20C499DF907305201D2B20B4483F8A8
:104DBC0000230BE0009BDAB207499DF8073003F0A3
:104DCC000F03043B5201D2B20B441A7600BF02B05F
:104DDC00704700BF00E100E000ED00E082B0019000
:104DEC00019B03F06043B3F1005F0CBF0123002370
:104DFC00DBB2184602B0704782B00190019B1B0BCE
:104E0C005BB2184602B0704700B583B003460A4641
:104E1C008DF8073013468DF806309DF80630072BB9
:104E2C0003D908496B20FEF7CAFB9DF806209DF9B3
:104E3C00073011461846FFF7A9FF00BF03B05DF815
:104E4C0004FB00BFB0BC000000B583B003468DF876
:104E5C0007309DF907301846FFF75CFF00BF03B021
:104E6C005DF804FB00B583B003468DF807309DF95F
:104E7C0007301846FFF768FF00BF03B05DF804FB6E
:104E8C0082B001900B468DF803309DF80330019AE7
:104E9C00134401221A6000BF02B0704784B0019025
:104EAC000B46ADF80230BDF80230019A13440022D3
:104EBC001A60BDF80230019A13441B680393039BDC
:104ECC0000BF04B0704782B001900B46ADF80230C1
:104EDC00BDF80230019A13441B68002B14BF012348
:104EEC000023DBB2184602B0704782B001900091EB
:104EFC00019B009AC3F8042300BF02B0704782B034
:104F0C0001900091019B009AC3F8082300BF02B0E6
:104F1C00704782B00190019B0722C3F8002500BFA7
:104F2C0002B0704782B00190019B0022C3F80025AB
:104F3C0000BF02B0704784B00390029101920093BD
:104F4C00039B029AC3F80825039B019AC3F80C250E
:104F5C00039B009AC3F8102500BF04B0704782B0C1
:104F6C0001900091009A019BC3F8242500BF02B068
:104F7C00704784B0039002910192029A039BC3F88C
:104F8C004425039B019AC3F8482500BF04B0704721
:104F9C0084B0039002910192029A039BC3F83425CA
:104FAC00039B019AC3F8382500BF04B0704784B046
:104FBC0001900B468DF8033013468DF802309DF8A6
:104FCC000230002B14BF01230023DBB203939DF8A6
:104FDC000330032B10D0032B13DC012B02D0022B3C
:104FEC0005D00EE0039B43F0020303930AE0039BFE
:104FFC0043F00403039305E0039B43F00603039380
:10500C0000E000BF019B039AC3F8542500BF04B015
:10501C00704782B001900B468DF803309DF8032049
:10502C00019BC3F8C02500BF02B0704782B001904D
:10503C00019B0122C3F8502500BF02B0704782B01B
:10504C000190019B0022C3F8502500BF02B07047AD
:10505C0082B00190019B0122C3F8402500BF02B031
:10506C00704782B00190019B0022C3F8402500BF1D
:10507C0002B0704700B583B00190019B1B681846C5
:10508C0000F0B4F80346002B04D105494FF4F67038
:10509C00FEF795FA4FF0A043184603B05DF804FBF9
:1050AC00E0BC000000B585B00190084611461A46D8
:1050BC0003468DF803300B468DF8023013468DF8FD
:1050CC00013001AB1846FFF7D5FF03909DF8032084
:1050DC009DF802305B001A439DF801309B001A4387
:1050EC009DF818301B0242EA03019DF81C301B048A
:1050FC00019A1943039B02F5E07243F8221000BF9A
:10510C0005B05DF804FB00B585B003900023019356
:10511C00002300930023012201210398FFF7C2FF13
:10512C0000BF05B05DF804FB00B585B003900B46DD
:10513C008DF80B309DF80B3000220192002200926A
:10514C00002200210398FFF7ADFF00BF05B05DF80A
:10515C0004FB00B585B0039000230193002300935A
:10516C000023012200210398FFF79CFF00BF05B02C
:10517C005DF804FB00B585B0019001AB1846FFF754
:10518C0079FF0390019B012202FA03F3194603985D
:10519C0000F018F800BF05B05DF804FB00B585B051
:1051AC00019001AB1846FFF765FF0390019B0122AC
:1051BC0002FA03F31946039800F00EF800BF05B08D
:1051CC005DF804FB82B001900091019B009AC3F83A
:1051DC00082500BF02B0704782B001900091019B7E
:1051EC00009AC3F80C2500BF02B0704784B0019040
:1051FC00019B5B09029300230393029B002B03D1B9
:10520C004FF0FF33039300BF019B03F01F03019387
:10521C00039A019B22FA03F303F00103002B14BF42
:10522C0001230023DBB2184604B0704700B58DB0E3
:10523C000590049103920293049B002B03D16C49BB
:10524C00AD20FEF7BCF9059B1B791A461346DB0013
:10525C0013449B00674A13440A930A9B1B7F002B41
:10526C0003D008230793079BBDE0059B1B6809939C
:10527C00059B1A68059B1B7919465F4B53F8213027
:10528C0019461046FFF7EEFC0346002B03D0112302
:10529C000793079BA7E00A9B039A1A600A9B029A42
:1052AC005A60049B1B7B012B05D8049B1B7818466A
:1052BC00FFF774FF04E0049B1B781846FFF75AFFB6
:1052CC00049B1B78184600230193002300930023B2
:1052DC0000220121FFF7E6FE049B5B78FF2B09D02F
:1052EC00049B5B780B930B98FFF758FF0B98FFF719
:1052FC000AFF02E04FF0FF330B93049B9B78FF2BCC
:10530C0007D0049B9B78089301210898FFF70CFFAA
:10531C0002E04FF0FF330893049B9A780A9B83F8C2
:10532C002020049BDA780A9BDA77049BDB78FF2B2E
:10533C0017D0049B1B79002B05D0049BDB781846F7
:10534C00FFF72CFF04E0049BDB781846FFF712FFF5
:10535C00049BDB781846FFF7D6FE049B1A790A9B50
:10536C009A77049B1B781946089B0B9A0998FFF7B0
:10537C00E2FD049B9B6819460998FFF7F0FD049B1E
:10538C00197B049B5B7B1A460998FFF710FE049B64
:10539C009B7919460998FFF73CFE0998FFF7B9FD70
:1053AC000A9B1B68002B15D0059B1B681846FFF742
:1053BC0023FD03461A46049B5B7919461046FFF7FA
:1053CC0023FD059B1B681846FFF716FD0346184680
:1053DC00FFF73AFD0A9B00225A770A9B01221A77A3
:1053EC0000230793079B18460DB05DF804FB00BF24
:1053FC0018BD0000FC06002064BD000000B585B09F
:10540C000190019B1B791A461346DB0013449B0049
:10541C002A4A13440393039B1B7F002B04D1284976
:10542C004FF4AE70FEF7CBF8039B1B68002B08D033
:10543C00019B1B681846FFF7DFFC03461846FFF775
:10544C0011FD019B1B680293039B1B68002B1BD057
:10545C001C490298FFF753FD039B5B7FDBB2002BCB
:10546C0012D014210298FFF70BFD00BF4FF482718C
:10547C000298FFF728FD034683F00103DBB2002BF3
:10548C00F4D1039B00225A77039B93F82030FF2B17
:10549C0005D0039B93F820301846FFF75AFE02986C
:1054AC00FFF740FD019B1B681846FFF715FC039B9B
:1054BC0000221A7700BF05B05DF804FBFC06002043
:1054CC0018BD00005201080000B583B00190019B8B
:1054DC00DB7FFF2B0ED0019B9B7F002B05D0019B0C
:1054EC00DB7F1846FFF75AFE04E0019BDB7F184672
:1054FC00FFF740FE019B00225A77019B00221A7293
:10550C00019B1B68019A02F10800019A526811462E
:10551C00984700BF03B05DF804FB00B583B0019061
:10552C000B468DF803309DF8033083F00103DBB29A
:10553C00002B04D040210198FFF7E1FC03E040214F
:10554C000198FFF7D2FC00BF03B05DF804FB00B577
:10555C0083B001900091009B03F00103002B03D05A
:10556C000198FFF763FD02E00198FFF768FD009BCF
:10557C0003F00203002B03D00198FFF769FD02E052
:10558C000198FFF76EFD00BF03B05DF804FB00B59A
:10559C0087B00390029101920093019B1B68002B32
:1055AC000AD0019B1B681846FFF718FC034683F0D2
:1055BC000103DBB2002B0ED1019B9B68002B11D099
:1055CC00019B9B681846FFF709FC034683F0010317
:1055DC00DBB2002B06D0029B00225A7710230593D6
:1055EC00059B54E0019B1968019B5B681A46039864
:1055FC00FFF7BFFC019B9968019BDB681A46039877
:10560C00FFF7C6FC4FF48C710398FFF747FC009929
:10561C000398FFF79CFF009B03F00803002B03D1BA
:10562C0010210398FFF72CFC029B1B68002B1FD149
:10563C0000BF4FF48C710398FFF745FC034683F0D1
:10564C000103DBB2002BF4D1029BDB7FFF2B1BD0C1
:10565C00029B9B7F002B05D0029BDB7F1846FFF73C
:10566C009DFD11E0029BDB7F1846FFF783FD0BE0ED
:10567C00009B03F00403002B0CBF01230023DBB2BF
:10568C0019460398FFF749FF00230593059B18461D
:10569C0007B05DF804FB000010B586B003900291D2
:1056AC000192039B1B791A461346DB0013449B00A3
:1056BC00394A13440593059B1B7F002B04D13749B2
:1056CC0040F22D20FDF77BFF029B1B68002B08D1BD
:1056DC00029B5B68002B04D0304940F22E20FDF772
:1056EC006EFF029B9B68002B08D1029BDB68002B92
:1056FC0004D02A4940F22F20FDF761FF039B1B7950
:10570C00002B07D1029BDB68FF2B03D8029B5B6845
:10571C00FF2B04D921494FF40C70FDF750FF0023E7
:10572C000493059B5B7FDBB2002B03D01123049306
:10573C00049B2EE0059B1B68002B07D0019B03F0FC
:10574C001403002B02D1059B01225A77059B029A68
:10575C0003F10C0413460FCB84E80F00059BDB7F91
:10576C00FF2B0ED0059B9B7F002B05D0059BDB7F71
:10577C001846FFF7FFFC04E0059BDB7F1846FFF79C
:10578C000DFD039B1868019B029A0599FFF7FFFE1C
:10579C000346184606B010BDFC06002018BD0000DC
:1057AC0000B583B0019000914FF48C710198FFF714
:1057BC008AFB0346002B10D04FF48C710198FFF735
:1057CC006DFB009B1B68002B04D1064940F297200F
:1057DC00FDF7F5FE0098FFF777FE00BF03B05DF80C
:1057EC0004FB00BF18BD000008B503490348FFF7D0
:1057FC00D7FF00BF08BD00BFFC06002000300040F2
:10580C0082B003468DF807309DF90730002B0CDB76
:10581C009DF8073003F01F0205499DF907305B091D
:10582C00012000FA02F241F8232000BF02B07047B9
:10583C0000E100E082B003468DF807309DF9073097
:10584C00002B13DB9DF8073003F01F0209499DF96B
:10585C0007305B09012000FA02F2203341F82320C3
:10586C00BFF34F8F00BFBFF36F8F00BF00BF02B0FD
:10587C00704700BF00E100E082B0034600918DF854
:10588C0007309DF90730002B0ADB009BDAB20C497C
:10589C009DF907305201D2B20B4483F800230BE080
:1058AC00009BDAB207499DF8073003F00F03043B65
:1058BC005201D2B20B441A7600BF02B0704700BF3F
:1058CC0000E100E000ED00E082B00190019B1B0BB9
:1058DC005BB2184602B0704700B583B003460A4667
:1058EC008DF8073013468DF806309DF80630072BDF
:1058FC0003D908496B20FDF762FE9DF806209DF93F
:10590C00073011461846FFF7B7FF00BF03B05DF82C
:10591C0004FB00BF68BD000000B583B003468DF8E2
:10592C0007309DF907301846FFF76AFF00BF03B038
:10593C005DF804FB00B583B003468DF807309DF984
:10594C0007301846FFF776FF00BF03B05DF804FB85
:10595C0084B001900B46ADF80230BDF80230019ACC
:10596C00134400221A60BDF80230019A13441B68DC
:10597C000393039B00BF04B0704782B001900B46A9
:10598C00ADF80230BDF80230019A13441B68002BAD
:10599C0014BF01230023DBB2184602B0704782B05B
:1059AC0001900091019B009AC3F8042300BF02B040
:1059BC00704782B001900091019BD3F80423009BA7
:1059CC001340002B14BF01230023DBB2184602B096
:1059DC00704782B001900091019B009AC3F8082394
:1059EC0000BF02B0704784B00190019BD3F88034A3
:1059FC000393019B039AC3F88024039B184604B0BD
:105A0C00704782B00190019B0422C3F8002500BFAF
:105A1C0002B0704782B00190019B0022C3F80025B0
:105A2C0000BF02B0704784B0039002910192039BB7
:105A3C00019AC3F81425039B029AC3F80C2500BFE6
:105A4C0004B0704700B583B001904FF0FF324FF0B7
:105A5C00FF310198FFF7E7FF00BF03B05DF804FBCF
:105A6C0082B00190019BD3F80C35184602B07047F8
:105A7C0082B00190019BD3F81435184602B07047E0
:105A8C0082B00190019BD3F80835184602B07047DC
:105A9C0082B00190019BD3F81035184602B07047C4
:105AAC0084B0039002910192039B029AC3F80825DB
:105ABC00039B019AC3F8102500BF04B0704700B5D2
:105ACC0083B001904FF0FF324FF0FF310198FFF798
