:100000000000012071030000590300005B030000A1
:100010005D0300005F0300006103000000000000BA
:10002000000000000000000000000000630300006A
:100030006503000000000000670300006903000082
:100040006B0300006B030000B92900007939000040
:10005000913900006B0300006B0300006B0300008C
:100060006B0300006B0300006B0300006B030000D8
:100070006B0300006B0300006B0300006B030000C8
:100080006B0300006B0300006B0300006B030000B8
:100090006B0300006B0300006B0300006B030000A8
:1000A0006B0300006B0300006B0300006B03000098
:1000B0006B0300006B030000000000000000000064
:1000C0006B0300006B0300006B0300006B03000078
:1000D0006B0300006B0300006B03000000000000D6
:1000E0000000000000000000000000000000000010
:1000F0000000000000000000000000000000000000
:1001000000000000000000000000000000000000EF
:1001100000000000000000000000000000000000DF
:1001200000000000000000000000000000000000CF
:1001300000000000000000000000000000000000BF
:1001400000000000000000000000000000000000AF
:10015000000000000000000000000000000000009F
:10016000000000000000000000000000000000008F
:10017000000000000000000000000000000000007F
:10018000000000000000000000000000000000006F
:10019000000000000000000000000000000000005F
:1001A000000000000000000000000000000000004F
:1001B000000000000000000000000000000000003F
:1001C000000000000000000000000000000000002F
:1001D000000000000000000000000000000000001F
:1001E000000000000000000000000000000000000F
:1001F00000000000000000000000000000000000FF
:10020000344935480A1A02D0072291438D463349B2
:1002100033480A1A06D00722914381F30988022243
:1002200082F314882F483049304A00F041F83048B2
:100230003049314A00F03CF830483149314A00F049
:1002400037F831483149324A00F032F83148324902
:10025000324A00F02DF832483249334A00F028F88B
:1002600032483349334A00F023F8334833490022F7
:1002700000F029F832483349002200F024F83248CF
:100280003249091A04F0EEFA314A90471F482049D2
:10029000884205D00268043003B4904703BCF7E7F6
:1002A00000208646EC46002000212A4A9047FEE7BF
:1002B000884207D0521A05D0037801300B70013103
:1002C000013AF9D17047884202D002700130FAE752
:1002D000704700000000012000E000200000012025
:1002E000000001208C560000000000205C0000206F
:1002F000CC030000CC030000784800008C560000BE
:100300000000002000000020C4480000C448000095
:10031000C4480000C4480000C4480000C4480000AD
:10032000C4480000C448000089560000E856000098
:100330005C0000205C0000205C0000205C090020C4
:100340005C0900205C0900205C0900205C29002079
:1003500099030000513A0000FEE7FEE7FEE7FEE7E2
:10036000FEE7FEE7FEE7FEE7FEE7FEE700F002B885
:10037000FFF7FCBF0F484FF00701884385460E4842
:1003800080470E48016841F470010160BFF34F8F50
:10039000BFF36F8FFFF734BF09480A490A4A884202
:1003A00007D0521A05D0037801300B700131013AA1
:1003B000F9D17047000001202544000088ED00E0DD
:0C03C000C44800000000002000000020E5
:1003CC0000B585B00190019B002B0AD0074B43F080
:1003DC0001030393019B9B010293039B0298984793
:1003EC0000E000BF05B05DF804FB00BFD048000082
:1003FC0000B583B00190019B002B0AD04FF47A70AA
:10040C00FFF7DEFF019B013B0193019B002BF5D114
:10041C0000E000BF03B05DF804FB08B503F0E4FC9A
:10042C0000BF08BD00B589B0039002910192019BF9
:10043C00002B33D00023079303230693029A079BC8
:10044C001344019A1946002003F07EFC0590079A8C
:10045C00059B13440793019A059BD31A0193059BA3
:10046C00002B13D10F4B1B7883F00103DBB2002B55
:10047C0013D10120FFF7BCFF069B013B0693069BA3
:10048C00002B03D1074B00221A7007E0054B012209
:10049C001A70019B002BD1D100E000BF00BF09B046
:1004AC005DF804FB5C00002000B585B00390029160
:1004BC00054B00934023054A0299039800F012F86B
:1004CC0000BF05B05DF804FB3104000060000020A3
:1004DC0082B0019000BF02B0704782B0019000BFA3
:1004EC0002B0704700B5A1B005900491039202933D
:1004FC00049801F079FF039B1593029B169300233C
:10050C00179300238DF8603000231993229B1A93C4
:10051C0000231F930FA91F9B0822049802F03EF89A
:10052C0008231F93119B1293BDF84030ADF84C304B
:10053C00BDF84230ADF84E3000238DF851309DF8A7
:10054C003C3003F00303DBB2012B26D10F9BC3F32A
:10055C0095231C939DF83C30C3F3C203DBB28DF89A
:10056C005030BDF83C30C3F38313DBB21B931B9BA1
:10057C009A0009A91F9B049802F010F81B9B9B0082
:10058C001F9A13441F9312AA09A915AB0093134683
:10059C001B9A1C9800F0C0FE2FE09DF83C3003F035
:1005AC000303DBB2022B28D1BDF83E30C3F3891311
:1005BC009BB21E939DF83C30C3F3C203DBB28DF8A3
:1005CC0050301E9B082B28BF08231D9307A91F9B87
:1005DC001D9A049801F0E2FF1F9A1D9B13441F9370
:1005EC001E9A1D9BD31A1E9315AB12AA07A81D9910
:1005FC0000F034FF1E9B002BE3D1049801F003FFA5
:10060C0000BF21B05DF804FB82B00190019BDB6858
:10061C0001225A7100BF02B07047000000B583B0D0
:10062C004FF0FF330193FFF7F8FE0421084800F068
:10063C008FFD0190019B002B03DA0649412001F04C
:10064C00C4F80348FFF7E0FF00BF03B05DF804FBFC
:10065C00A0480000E848000000B583B0019000916C
:10066C00019B1B681B6800990198984700BF03B059
:10067C005DF804FB00B583B00190019B1B685B68BF
:10068C000198984700BF03B05DF804FB00B583B038
:10069C000190019B1B689B680198984700BF03B0B1
:1006AC005DF804FB82B001900B468DF80330019B82
:1006BC00DB689DF803201A7100BF02B0704782B04E
:1006CC000190019BDB681B79184602B0704782B021
:1006DC000190019BDB6801225A7100BF02B0704788
:1006EC0082B00190019BDB685B79184602B07047C1
:1006FC0000B585B0019000910C4B00221A700C488B
:10070C0001F0D6FD0390039B002B01D0039B08E066
:10071C00084801F063FF084A084BD31ADB08029320
:10072C000023184605B05DF804FB00BF080200204A
:10073C00B04800003C490000A04800007848000088
:10074C00024A034BD31ADB0818467047A048000036
:10075C007848000000B587B001900B468DF8033047
:10076C009DF80330002B1FD0FFF7EAFF0490002305
:10077C00059313E0059B9B000E4A13440393039BC4
:10078C001B881A46019B1B689A4204D1019B059A4F
:10079C001A60002309E0059B01330593059A049B1D
:1007AC009A42E7D3052300E00023184607B05DF812
:1007BC0004FB00BF0000002000B585B001900B4683
:1007CC008DF803309DF8032001AB11461846FFF756
:1007DC00C1FF0346002B07D1019BDB00054A1344E4
:1007EC000393039B1B6800E00023184605B05DF8DB
:1007FC0004FB00BF7848000084B001900B468DF8D4
:10080C000330019BDB00174A134402939DF803301D
:10081C00013B032B1CD801A252F823F0390800002D
:10082C0041080000490800005308000002238DF81D
:10083C000F3011E004238DF80F300DE0029B1B7973
:10084C008DF80F3008E0029B5B798DF80F3003E0D8
:10085C0000238DF80F3000BF9DF80F30184604B000
:10086C00704700BF7848000084B0019000910023CD
:10087C008DF80F30019B1B7803F00403DBB2002BC7
:10088C0024D0019B1B78C3F30103DBB2012B02D0F4
:10089C00022B0CD017E0009B1B68019A1288C2F344
:1008AC008312D2B213449A1C009B1A600BE0009B7B
:1008BC001B68019A5288C2F3891292B213449A1C93
:1008CC00009B1A6000BF01238DF80F309DF80F308C
:1008DC00184604B07047000000B58BB00023ADF88B
:1008EC0026303E4800F0FEFF3D4800F0FBFF3D4B3C
:1008FC009B6804933C4B1B680693049A069B13401D
:10090C0002339B00374A13440433089304AB194653
:10091C000898FFF7A9FF0346002B09D0049A069B01
:10092C00134002339B002F4A134404330893EDE722
:10093C0000BF0023079311E0049B5A1C0492069AF3
:10094C001340079A920001A90A44264902339B00DE
:10095C000B445B681360079B01330793079B012BC8
:10096C00EAD99DF80430C3F30103DBB2012B10D09C
:10097C00022B1CD1BDF80A30ADF82630BDF806307C
:10098C00C3F389139BB203339A08049B1344049357
:10099C0013E0BDF80A30ADF82630BDF80430C3F3CF
:1009AC008313DBB21A46049B1344049305E00F49EE
:1009BC004FF4C27000F009FF00BF094800F09EFF21
:1009CC000590059B002B02D0049B064A9360BDF852
:1009DC00263018460BB05DF804FB00BF2006002043
:1009EC001C06002008020020080000204C490000D2
:1009FC0000B585B00021074800F0FDFE0390039B75
:100A0C000293029B83F310030193019B184605B0DC
:100A1C005DF804FB2406002000B589B00390029118
:100A2C0001920093039B1B0C0793FFF7E1FF0690C9
:100A3C00FFF786FE0246079B934204D3214940F2FE
:100A4C00A91000F0C2FE069B1904009B5A1C0A9BBD
:100A5C001340079A0A431C4902339B000B445A600B
:100A6C00009A0A9B134002339B00174A1344043329
:100A7C000593039B03F00703D9B2059A137861F32E
:100A8C00C5031370019B03F00F03D9B2059A1388A9
:100A9C0061F389131380029BC3F31501059A136844
:100AAC0061F39F231360059A1378012161F301030D
:100ABC001370059A13786FF38203137000BF09B09B
:100ACC005DF804FB4C4900000802002000BF704791
:100ADC0000B58BB00390029113468DF80730039B41
:100AEC000233089301238DF81F30002000F026FEFE
:100AFC003E4B5A68029B1A603D4B1A683B4B9968F7
:100B0C003A4B5B68CB1A13440133099314E001216F
:100B1C00384800F0B7FEFFF7DFFE05900599354821
:100B2C0000F0B0FE324B1A68304B99682F4B5B6863
:100B3C00CB1A134401330993089A099B9A42E6D8BD
:100B4C009DF81F30002B48D0002304939DF80730EC
:100B5C00002B17D09DF81030012262F301038DF8A1
:100B6C0010309DF8103043F004038DF81030039BC7
:100B7C0003F00F03DAB2BDF8103062F38913ADF84D
:100B8C00103016E09DF81030022262F301038DF84C
:100B9C0010309DF8103043F004038DF81030039B97
:100BAC00C3F309039AB2BDF8123062F38F13ADF898
:100BBC0012300E4B5A680E4B1B68134002339B00CD
:100BCC000A4A134404330693049A069B1A60074B93
:100BDC005A68089B1344054A5360002000F0C2FD7C
:100BEC009DF81F3018460BB05DF804FB080200207E
:100BFC00080000202406002000B58BB0059004915D
:100C0C0003920293204B1B68079306AB01221946F3
:100C1C000298FFF75DFF0346002B24D0069B02339E
:100C2C0009930023089311E0089B9B00039A1A4434
:100C3C00099B591C099107990B40126813490233FF
:100C4C009B000B445A60089B01330893089A029B43
:100C5C009A42E9D3069A079B00931346029A049989
:100C6C000598FFF7D9FE094B1B78002B05D000BF68
:100C7C0000F06AF80346002BFAD1FFF727FF00BFFC
:100C8C000BB05DF804FB00BF080000200802002038
:100C9C0000B583B0019000910023002200990198C7
:100CAC00FFF7AAFF00BF03B05DF804FB00B587B0E7
:100CBC00039002910192019B059305AA01230299CD
:100CCC000398FFF799FF00BF07B05DF804FB00B570
:100CDC0087B00390029101920093019B0493009BB7
:100CEC00059304AA022302990398FFF785FF00BF1E
:100CFC0007B05DF804FB00B58BB003900291019234
:100D0C000093019B0593009B06930C9B07930D9BF3
:100D1C0008930E9B099305AA052302990398FFF7E4
:100D2C006BFF00BF0BB05DF804FB0000054B9A682D
:100D3C00044B5B689A420CBF01230023DBB21846BC
:100D4C00704700BF0802002000B599B0FFF7EEFF16
:100D5C000346002B01D00023B9E19B4B0022C3F8C2
:100D6C001824BFF34F8F00BF974B9B680493974B8E
:100D7C001B681093049A109B134002339B00924AF9
:100D8C001344043311930023179300231693002369
:100D9C000F9304AB19461198FFF766FD0346002B21
:100DAC0019D0894BD3F81834002B14D1864B5A68C0
:100DBC00049B9A4205D8844B5B68834A936000235A
:100DCC0085E1049A109B134002339B007E4A134426
:100DDC0004331193DDE70023159311E0049B5A1C97
:100DEC000492109A1340159A920001A90A4476496C
:100DFC0002339B000B445B681360159B0133159306
:100E0C00159B012BEAD99DF8043003F00303DBB2E8
:100E1C00022B40F09C80BDF80630C3F389139BB2C3
:100E2C000D93BDF80630C3F389139BB2502B28BF2A
:100E3C0050239BB20C930C9BC3F309039AB2BDF8DD
:100E4C00063062F38F13ADF806300C9B08330B930E
:100E5C009DF80430C3F3C203DBB20F930B995C48CB
:100E6C0001F031FA1790179B002B00F0D3801798E4
:100E7C0001F0BAFA01A9169B0822179801F070FB31
:100E8C00169B08331693049BDA43109B13400133D3
:100E9C009B000A930C9A0A9B9A4242D90A9B002BFC
:100EAC0008D0049A109B134002339B00464A13440B
:100EBC00043300E0474B08930A9B002B02D00A9B9B
:100ECC00DBB201E00C9BDBB28DF81F300A9B002BD0
:100EDC0001D0404B00E0002306930A9B002B06D068
:100EEC000C9BDAB20A9BDBB2D31ADBB200E0002314
:100EFC008DF817309DF81F20169B0899179801F054
:100F0C002FFB9DF81F30169A13441693069B002B4B
:100F1C0016D09DF81720169B0699179801F020FB08
:100F2C000EE0049A109B134002339B00264A134494
:100F3C0004330993169B0C9A0999179801F010FB2E
:100F4C000D9B03339A08049B1344049362E09DF8B1
:100F5C00043003F00303DBB2012B5BD1BDF804308A
:100F6C00C3F38313DBB2062B28BF0623DAB2BDF81A
:100F7C00043062F38913ADF80430BDF80430C3F3C8
:100F8C008313DBB202330E939DF80430C3F3C20318
:100F9C00DBB20F930E9B9B0019460D4801F093F9A1
:100FAC001790179B002B35D0179801F01DFA01A94B
:100FBC00169B0822179801F0D3FA169B0833169348
:100FCC00002315931DE000BF08020020080000203C
:100FDC00B048000014020020049B5A1C0492109A82
:100FEC00134002339B003C4A1344191D169B0422E8
:100FFC00179801F0B5FA169B04331693159B013321
:10100C001593BDF80430C3F38313DBB21A46159B5A
:10101C009342E1D3179B002B39D02F4BD3F81034CC
:10102C0014932D4BD3F81834002B1BD0179801F0C8
:10103C00EAF946E000238DF84F301498FFF750FB87
:10104C000346002B02D001238DF84F309DF84F3012
:10105C00002B03D017991498FFF7FEFA149BDB684A
:10106C001B681493149B002BE4D1179801F0CBF957
:10107C00002000F063FB184BD3F81834002B02D17E
:10108C00049B154A9360002000F06CFB19E0124B96
:10109C00D3F81034129306E01298FFF7F7FA129B6C
:1010AC00DB681B681293129B002BF5D10B4A0C4B7F
:1010BC00D31ADB081B0443F002030A491846FFF756
:1010CC00E7FDFFF733FE034683F00103DBB218465E
:1010DC0019B05DF804FB00BF08020020984800001E
:1010EC00784800009849000000B585B000230393B0
:1010FC0023E0164BD3F81034029301238DF80730FC
:10110C000FE00298FFF7DBFA03461A46039B934263
:10111C0003D100238DF8073006E0029BDB681B68C7
:10112C000293029B002BECD19DF80730002B01D0D1
:10113C00039B07E0039B01330393039B092BD8DD2F
:10114C004FF0FF33184605B05DF804FB0802002091
:10115C0000B585B001900B468DF80330FFF7C4FF46
:10116C000390039BB3F1FF3F01D1039B22E0039B50
:10117C00DBB219460198FFF795FA104BD3F81034EF
:10118C00002B08D10D4A019BC2F81034019BDB687F
:10119C0000221A600DE0094BD3F81034DA68019B79
:1011AC00DB6812681A60054BD3F81034DB68019ABF
:1011BC001A60039B184605B05DF804FB080200207A
:1011CC0000B583B00C4BD3F8103401930A4B0122B9
:1011DC001A7009E00198FFF77AFA0198FFF74AFABA
:1011EC00019BDB681B680193019B002BF2D100BFB4
:1011FC0000BF03B05DF804FB0802002082B0019030
:10120C00009100BF02B0704710B584B003900291FA
:10121C00039BDB88002B0AD0039BDB881A461F4BF1
:10122C00009313461E4A1F49029800F095FC039B3D
:10123C001B7A052B2ED0039B5B7A002B12D0039BC1
:10124C009B881A46039B1B7A19461046FFF7D4FA63
:10125C0003461A46144B53F822301A461349029887
:10126C0000F07AFC039B1B6819460298FFF7C6FF37
:10127C00039B1B7A1A460E4B53F82240039B9B8808
:10128C0000211846FFF798FA0346224609490298AE
:10129C0000F062FC00BF04B010BD00BFCC490000E0
:1012AC00DC490000144A0000200000202C4A0000F9
:1012BC000C000020304A000000B585B0039002916C
:1012CC0013468DF80730039B1B7A052B0FD0039B1D
:1012DC005B7A002B06D00D4B1B681A460C49029802
:1012EC0000F03AFC0B49029800F036FC07E09DF840
:1012FC000730002B03D00749029800F02DFC029810
:10130C0000F008FC00BF05B05DF804FB20000020D5
:10131C002C4A00003C4A000030B58BB00790069177
:10132C00059204930E9B1B7B8DF827300E9B00229D
:10133C001A730E990498FFF767FF059B062B7FD84D
:10134C0001A252F823F000BF711300007B130000C0
:10135C008B1300009F130000BD130000E513000069
:10136C001514000007990E9800F0F6FB69E0069B37
:10137C001B681A4607990E9800F0EEFB61E0069B7D
:10138C001A68069B04331B6807990E9800F0E4FB5F
:10139C0057E0069B1A68069B04331968069B0833B2
:1013AC001B6800930B4607990E9800F0D5FB48E09C
:1013BC00069B1968069B04331868069B08331B6848
:1013CC00069A0C3212680192009303460A4607995A
:1013DC000E9800F0C1FB34E0069B1868069B0433A2
:1013EC001C68069B08331B68069A0C321268069917
:1013FC001031096802910192009323460246079925
:10140C000E9800F0A9FB1CE0069B1C68069B04339D
:10141C001D68069B08331B68069A0C3212680699E5
:10142C0010310968069814300068039002910192FB
:10143C0000932B46224607990E9800F08DFB00E096
:10144C0000BF00220E990498FFF736FF0E9B9DF803
:10145C0027201A7300BF0BB030BD00BF00B587B09A
:10146C000390029101920093029B082B60D8009B81
:10147C001B7B8DF81330009B00221A730099019886
:10148C00FFF7C2FE0023059314E0059A029B9A42D3
:10149C0009D2039A059B13441B781A4626490098D7
:1014AC0000F05AFB03E02549009800F055FB059B22
:1014BC0001330593059B072BE7D92149009800F0D0
:1014CC004BFB0023059326E0059A029B9A421BD204
:1014DC00039A059B13441B788DF812309DF812303B
:1014EC007E2B0AD89DF81230184603F018F90346E3
:1014FC00002B02D09DF8123000E02E231A46114921
:10150C00009800F029FB03E00F49009800F024FB41
:10151C00059B01330593059B072BD5D90122009917
:10152C000198FFF7C9FE009B9DF813201A7300E089
:10153C0000BF07B05DF804FB404A0000484A0000B9
:10154C004C4A0000504A0000544A000086B00390F8
:10155C000291019201238DF817309DF81730204A23
:10156C00039B13601E4A029B53601D4A019B9360B0
:10157C00039B44F20102934212D0039B44F20202F9
:10158C00934220D1019B164AD360154BDB681B6834
:10159C00134A9361124BDB685B68114AD36112E00A
:1015AC00019B0F4A13610E4B1B699B680C4A5361DC
:1015BC000B4B1B691B680A4A9361094B1B695B68DF
:1015CC00074AD36100BF72B600BF00BF9DF8173049
:1015DC00DBB2002BFAD162B600BF00BF06B0704779
:1015EC002806002000B583B002900091019244F2CD
:1015FC00010071466A4600F003F803B000BD00BF5D
:10160C0030B58BB007900691059272B600BFFFF70C
:10161C00D7FD00BFFFF798FB0346002BFAD1079BC1
:10162C0044F20102934216D0079B44F20202934209
:10163C003ED1059B09932C4A2C4BD31ADB081B0477
:10164C0043F00100099B5B681A46099B1B682849FB
:10165C00FFF73DFB39E0059B0893234A234BD31A34
:10166C00DB081B0443F00104089B9D68089B9B68E6
:10167C00184600F0D1FF03461846089B5B681946D4
:10168C00089B1B68069A02920193009103462A4616
:10169C0018492046FFF72FFB134A144BD31ADB08CB
:1016AC001B0443F0010314491846FFF7F1FA0CE050
:1016BC000D4A0E4BD31ADB081B0443F00103069AA8
:1016CC000E491846FFF7F2FA00BF0D4B1B6803F0EA
:1016DC000103002B00D000BE059A06990798FFF76E
:1016EC0035FF00BF0BB030BD9848000078480000B3
:1016FC00584A0000744A00009C4A0000B04A00009E
:10170C00F0ED00E072B600BF034B1B680133024AD8
:10171C00136000BF704700BF48060020064B1B68D3
:10172C00013B054A1360044B1B68002B01D162B6C8
:10173C0000BF00BF704700BF4806002000B583B053
:10174C00019000F025F80346012B03D004494320F7
:10175C0000F03BF8FFF7D6FF00BF03B05DF804FBC9
:10176C00C84A000000B583B003468DF8073000F07E
:10177C000FF80346012B03D00449512000F025F843
:10178C00FFF7CCFF00BF03B05DF804FBC84A0000B4
:10179C0084B0EFF305830193019BC3F30803039318
:1017AC00039B002B0DD1EFF314830093009B02934A
:1017BC00029B03F00103002B0CBF01230023DBB2BF
:1017CC0000E00123184604B0704700B585B003460D
:1017DC000091ADF80630BDF806300293009B0393E0
:1017EC0002AB1A46002144F20200FFF709FF00BFCA
:1017FC0005B05DF804FB10B487B001900091019B1B
:10180C00009A53E8004F104643E8000191F0000F96
:10181C00F7D1059404900391059B184607B05DF829
:10182C00044B704710B487B001900091019B009A53
:10183C0053E8004F44EA020043E8000191F0000F26
:10184C00F6D1059404900391049B184607B05DF8FB
:10185C00044B704710B487B001900091019B009A23
:10186C0053E8004F04EA020043E8000191F0000F36
:10187C00F6D1059404900391059B184607B05DF8CA
:10188C00044B704710B487B001900091019B009AF3
:10189C0053E8004F04EB020043E8000191F0000F05
:1018AC00F6D1059404900391049B184607B05DF89B
:1018BC00044B704710B487B001900091019B009AC3
:1018CC0053E8004FA4EB020043E8000191F0000F35
:1018DC00F6D1059404900391049B184607B05DF86B
:1018EC00044B704700B583B0019001210198FFF7BC
:1018FC0099FF0346184603B05DF804FB00B583B0AE
:10190C00019000210198FFF7A5FF0346184603B08C
:10191C005DF804FB00B583B001900B468DF80330E5
:10192C00019B002B03D10849E820FFF74EFF019BD8
:10193C00DA689DF803300199098A01FB03F313441B
:10194C00184603B05DF804FB144B000000B583B0DF
:10195C0001900091019B002B03D10849F520FFF762
:10196C0034FF009B019AD2689B1A019A128AB3FB2E
:10197C00F2F3DBB2184603B05DF804FB144B000025
:10198C0000B585B00190019B002B01D10E234CE0DA
:10199C00019B1B68002B03D12649FF20FFF715FF85
:1019AC00019B5B68002B04D122494FF48070FFF738
:1019BC000CFF019B9B68002B04D11E4940F20110C7
:1019CC00FFF703FF019BDB68002B04D119494FF48F
:1019DC008170FFF7FAFE019B1B8A002B04D115497D
:1019EC0040F20310FFF7F1FE019B9A68019B5B68C4
:1019FC00D31A8DF80F30019B1B68019A52681A603C
:101A0C0007E0019B1A681368591C11609DF80F20A0
:101A1C001A709DF80F305A1E8DF80F20002BF0D144
:101A2C00019B1B6800221A710023184605B05DF853
:101A3C0004FB00BF144B000000B585B00190019B66
:101A4C00002B04D11C494FF49270FFF7BEFE00230B
:101A5C0003930020FFF772FE019B1B681A68019B21
:101A6C005B689A421FD9019B1B681A68013A1A607D
:101A7C001B681B7819460198FFF74CFF0390019BDC
:101A8C009A68019B1B681B68D31A8DF80B30019B5D
:101A9C001B681B799DF80B209A4204D9019B1B688B
:101AAC009DF80B201A710020FFF75CFE039B184673
:101ABC0005B05DF804FB00BF144B000010B584B0FA
:101ACC0001900091019B002B04D1114940F2471069
:101ADC00FFF77BFE009B002B04D10D494FF4A47043
:101AEC00FFF773FE009B03930020FFF727FE019B7B
:101AFC001B681C68621C1A6003990198FFF726FF8B
:101B0C00034623700020FFF72DFE00BF04B010BD6C
:101B1C00144B000000B583B00190019B002B03D146
:101B2C000C493120FFF751FE019B9B68002B0CD018
:101B3C00019B5B69019A1069019A1168019A92687C
:101B4C009847019B00229A6000E000BF03B05DF84B
:101B5C0004FB00BF584B00000EB400B584B00190DC
:101B6C00019B002B03D118494220FFF72EFE019B4D
:101B7C005B69002B03D114494320FFF726FE019B20
:101B8C001B68002B03D110494420FFF71EFE019B5C
:101B9C005B68002B03D10C494520FFF716FE059B13
:101BAC00002B0AD00023039306AB039303AB1A4616
:101BBC000599019800F0B8F900E000BF04B05DF899
:101BCC0004EB03B0704700BF584B000000B583B066
:101BDC0001900B468DF803309DF803300A2B03D18E
:101BEC000D210198FFF7F2FF019B1A68019B9B687E
:101BFC00581C0199886013449DF803201A70019BAE
:101C0C009A68019B5B689A4202D30198FFF782FFA6
:101C1C0000BF03B05DF804FB00B587B003900291E0
:101C2C000192009300230593009B03F00103002B0A
:101C3C0024D00BE0029B01330293059B01330593E7
:101C4C009DF8133019460398FFF7C0FF029B1B78D1
:101C5C008DF813309DF81330002BEBD106E0019B6F
:101C6C00013B019320210398FFF7B0FF019A059BDC
:101C7C009A422ED9019B002BF1D12AE0029B002B1A
:101C8C000BD0029802F086FD059006E0019B013B0B
:101C9C00019320210398FFF799FF019A059B9A4223
:101CAC000FD9019B002BF1D10BE0029B0133029366
:101CBC00059B013305939DF8133019460398FFF7E4
:101CCC0085FF029B1B788DF813309DF81330002B89
:101CDC00EBD100BF07B05DF804FB000000B589B084
:101CEC000390029101920093029B079301230693A8
:101CFC0007E0079A019BB2FBF3F30793069B0133B2
:101D0C000693079A019B9A42F3D2009A069B9A4239
:101D1C0001D9009B06930B9B03F00103002B22D1EE
:101D2C000A9B002B1FD00B9B03F00203002B06D049
:101D3C00009B002B03D130238DF8173002E02023B9
:101D4C008DF8173008E00A9B013B0A939DF8173079
:101D5C0019460398FFF73AFF0A9B002B03D0069A0B
:101D6C000A9B9A42EFD301230793009B012B03D9C3
:101D7C00009B013B009309E0029A079BB2FBF3F333
:101D8C000493049A019B9A4200D205E0079B019AA6
:101D9C0002FB03F30793E8E7029A079BB2FBF3F30A
:101DAC000493049B079A02FB03F3029AD31A02933F
:101DBC00154A049B13441B7819460398FFF706FF3A
:101DCC00079A019BB2FBF3F30793079B002BE3D11C
:101DDC000B9B03F00103002B11D00A9B002B0ED0A0
:101DEC0006E00A9B013B0A9320210398FFF7EEFEC5
:101DFC000A9B002B03D0069A0A9B9A42F1D300BF90
:101E0C0009B05DF804FB00BFD84B000000B589B0E9
:101E1C000590049103920293049B002BB8BF5B4284
:101E2C0006930123079307E0039B069A92FBF3F3B7
:101E3C000693079B01330793039B069A9A42F3DAA6
:101E4C00029A079B9A4201D9029B07930A9B002B8B
:101E5C000AD0049B002B04DB0B9B03F00403002B28
:101E6C0002D00A9B013B0A930B9B03F00203002B4D
:101E7C0002D0029B002B16D00B9B03F00103002B0E
:101E8C0011D10A9B002B0ED006E00A9B013B0A9352
:101E9C0020210598FFF79AFE0A9B002B03D0079A86
:101EAC000A9B9A42F1D3049B002B07DA049B5B42FA
:101EBC0004932D210598FFF789FE08E00B9B03F096
:101ECC000403002B03D02B210598FFF77FFE0B9BFF
:101EDC0003F00203002B19D00B9B03F00103002B22
:101EEC0014D1029B002B11D10A9B002B0ED006E0C3
:101EFC000A9B013B0A9330210598FFF767FE0A9B6A
:101F0C00002B03D0079A0A9B9A42F1D304990B9B9E
:101F1C0001930A9B0093029B039A0598FFF7DEFE40
:101F2C0000BF09B05DF804FB00B58FB005900491BB
:101F3C000392059B002B04D1AD4940F25220FFF7D0
:101F4C0044FC059B5B69002B04D1A9494FF4157027
:101F5C00FFF73BFC059B1B68002B04D1A44940F206
:101F6C005520FFF732FC059B5B68002B04D1A04980
:101F7C0040F25620FFF729FC049B002B00F09381C4
:101F8C00049B1B788DF83730049B013304939DF828
:101F9C003730002B00F07E819DF83730252B40F038
:101FAC006D8100230A9301230C93049B1B788DF8FD
:101FBC0037309DF83730302B0DD0302B1BDC2B2BD2
:101FCC0011D02D2B17D10A9B43F001030A93049BCC
:101FDC000133049312E00A9B43F002030A93049B1F
:101FEC00013304930AE00A9B43F004030A93049B15
:101FFC000133049302E000230C9300BF0C9B002BD5
:10200C00D3D1002309939DF837302A2B0CD1039B95
:10201C001B68191D039A11601B68099A13440993D4
:10202C00049B013304931AE0049B1B788DF8373022
:10203C009DF837302F2B12D99DF83730392B0ED80D
:10204C00049B01330493099A13469B0013445B00D1
:10205C001A469DF837301344303B0993D3E70023DD
:10206C000B93049B1B788DF837309DF837302E2B53
:10207C001DD1049B01330493049B1B788DF83730DE
:10208C009DF837302F2B12D99DF83730392B0ED8BD
:10209C00049B013304930B9A13469B0013445B007F
:1020AC001A469DF837301344303B0B93E4E7049BFE
:1020BC001B788DF837309DF837306C2B03D09DF89A
:1020CC003730682B07D1049B01330493049B1B7896
:1020DC008DF83730EFE79DF83730252B00F0C480B2
:1020EC00252BC0F2C680782B00F3C380582BC0F28E
:1020FC00C080583B202B00F2BC8001A252F823F088
:10210C00012200007F2200007F2200007F220000BD
:10211C007F2200007F2200007F2200007F2200002F
:10212C007F2200007F2200007F220000912100000E
:10213C00B32100007F2200007F2200007F220000DC
:10214C007F220000B32100007F2200007F220000CC
:10215C007F2200007F2200007F2200007F220000EF
:10216C00412200007F2200007F2200002522000077
:10217C007F220000D72100007F2200007F22000078
:10218C0001220000039B1B68191D039A11601B6838
:10219C000C930C9B8DF81F309DF81F301946059839
:1021AC00FFF714FD66E0039B1B68191D039A116071
:1021BC001B680C930A9B0193099B00930B9B0A22AF
:1021CC000C990598FFF722FE54E0039B1B68191D20
:1021DC00039A11601B680C930C990A9B0193099B41
:1021EC0000930B9B0A220598FFF778FD42E000BF95
:1021FC00944B0000039B1B68191D039A11601B680C
:10220C000C930C990A9B0193099B00930B9B102236
:10221C000598FFF763FD2DE0039B1B68191D039ABE
:10222C0011601B6808930A9B099A08990598FFF797
:10223C00F3FC1FE0039B1B68191D039A11601B68BC
:10224C000C9330210598FFF7C1FC78210598FFF716
:10225C00BDFC0C9900230193082300930823102242
:10226C000598FFF73BFD05E025210598FFF7AEFC2F
:10227C0000E000BF049B0133049305E09DF8373068
:10228C0019460598FFF7A2FC049B1B78002B7FF4E2
:10229C0077AE00E000BF059B1B7B002B04D005989C
:1022AC00FFF738FC00E000BF0FB05DF804FB00BF87
:1022BC0000B583B001900198FFF762FB0346184606
:1022CC0003B05DF804FB00B58BB001900091019B4D
:1022DC001B8A043B0793009A079B1344DA1C079B49
:1022EC00B2FBF3F38DF81B300198FFF7A5FB0590BB
:1022FC00059B002B01D1002338E0059B00221A71AD
:10230C00059B01225A71079B9AB2059BDA80059BAB
:10231C0009939DF81B30013B0493099B019A1A60A9
:10232C00002308931DE00198FFF786FB0390039BA5
:10233C00002B0ED0059B5B790133DAB2059B5A71E9
:10234C00099B039A1A60039B019A1A60039B0993D9
:10235C0004E0059800F00EF8002307E0089B013319
:10236C000893089A049B9A42DDD3059B18460BB040
:10237C005DF804FB00B58BB00190019B0793079BA4
:10238C005B798DF81B30019B08939DF81B30013B4A
:10239C0005930023099305E0089B1B680893099B90
:1023AC0001330993099A059B9A42F5D3089B1B6844
:1023BC000493019B0893002309930BE0089B1B6873
:1023CC00039308990498FFF779FB039B0893099BE7
:1023DC00013309939DF81B30099A9A42EED300BF42
:1023EC0000BF0BB05DF804FB00B585B00190019BFC
:1023FC000393039B043301211846FFF743FA00BFF4
:10240C0005B05DF804FB00B587B00190019B059306
:10241C00059B043301211846FFF74CFA034603933E
:10242C0003AB0493049B1B78002B02D10198FFF79C
:10243C00A1FF00BF07B05DF804FB000000B591B030
:10244C000390029101920093039B002B03D143490B
:10245C00B620FFF7BAF9039B0993039B0F93099BD3
:10246C00DB881A46099B5B7902FB03F3043B089358
:10247C00009A089B9A4203D33849C420FFF7A5F968
:10248C00099BDB880793009B1A1D079BB2FBF3F398
:10249C000E93009B0433079AB3FBF2F2079901FBEE
:1024AC0002F29B1A0D93019B1A68009B1344089A25
:1024BC009A4203D2089A009BD31A01E0019B1B6835
:1024CC000C93019B0C9A1A6005E00F9B1B680F93F1
:1024DC000E9B013B0E930E9B002BF6D100230B930E
:1024EC00079A0D9BD31A0A930A9A0C9B934228BF06
:1024FC0013460A932AE0029A0B9B134406930F9AF5
:10250C000D9B1344043305939DF84830002B05D0E4
:10251C000A9A0599069802F06DF904E00A9A069950
:10252C00059802F067F900230D930F9B1B680F931E
:10253C000C9A0A9BD31A0C930B9A0A9B13440B9379
:10254C00079A0C9B934228BF13460A930C9B002BB3
:10255C00D1D100BF00BF11B05DF804FBE84B000007
:10256C0000B589B00590049103920293039B0793E5
:10257C0007AA00230093029B04990598FFF75EFFBE
:10258C00079B039A9A4203D00349F620FFF71DF9E3
:10259C0000BF09B05DF804FBE84B000000B589B042
:1025AC000590049103920293039B079307AA0123BE
:1025BC000093029B04990598FFF740FF079B039A31
:1025CC009A4204D004494FF48070FFF7FEF800BF24
:1025DC0009B05DF804FB00BFE84B000082B001902D
:1025EC00019B9B6800229A60019B9B6800221A61E8
:1025FC00019B9B6800225A61019B9B680022DA6058
:10260C00019B9B6800225A60019B9B6800221A6008
:10261C0000BF02B07047000000B585B00190019872
:10262C0000F00EF80390039B002B01D0039B00E0FD
:10263C00024B184605B05DF804FB00BF2C4C0000A3
:10264C0086B00190164B0593164B04931FE0049A29
:10265C00059BD31ADB10DA0F13445B10DB00059AD1
:10266C0013440393039B1B680293029A019B9A42A7
:10267C0002D9039B04930AE0029A019B9A4203D26B
:10268C00039B0833059302E0039B5B6804E0059A07
:10269C00049B9A42DBD30023184606B0704700BF58
:1026AC00005000001851000000B585B00190019B4E
:1026BC00002B0AD0074B43F001030393019B9B01B2
:1026CC000293039B0298984700E000BF05B05DF8A9
:1026DC0004FB00BF5051000000B583B00190019B7A
:1026EC001B68184600F069F80346002B04D1054915
:1026FC004FF4F670FFF769F84FF0A043184603B09B
:10270C005DF804FB1851000000B585B0019001ABD9
:10271C001846FFF7E1FF0390019B012202FA03F335
:10272C001946039800F035F800BF05B05DF804FBBE
:10273C0000B585B0019001AB1846FFF7CDFF0390B3
:10274C00019B012202FA03F31946039800F02BF8BF
:10275C0000BF05B05DF804FB00B585B0019001AB7E
:10276C001846FFF7B9FF0390039800F00AF80246E9
:10277C00019B22FA03F303F00103184605B05DF840
:10278C0004FB82B00190019BD3F81035184602B0BF
:10279C00704782B001900091019B009AC3F8082504
:1027AC0000BF02B0704782B001900091019B009A6B
:1027BC00C3F80C2500BF02B0704784B00190019B98
:1027CC005B09029300230393029B002B03D14FF070
:1027DC00FF33039300BF019B03F01F030193039A84
:1027EC00019B22FA03F303F00103002B14BF012316
:1027FC000023DBB2184604B0704700B585B00190D9
:10280C004FF0A042019B1B6803F5E07340F20C6192
:10281C0042F823104FF0A042019B5B6803F5E07374
:10282C0040F20C6142F82310019B1B681846FFF71D
:10283C006BFF019B5B681846FFF766FF4FF0A042E9
:10284C00019B1B6803F5E07340F20D6142F8231005
:10285C004FF0A042019B5B6803F5E07340F20D6101
:10286C0042F823100420FFF71FFF002303931EE000
:10287C00019B5B681846FFF76FFF0346002B03D0E4
:10288C00039B002B17D124E0019B1B681846FFF714
:10289C004FFF0420FFF708FF019B1B681846FFF74A
:1028AC0033FF0420FFF700FF039B01330393039BCB
:1028BC00082BDDDD00E000BF019B5B681846FFF7CD
:1028CC0037FF0420FFF7F0FE019B5B681846FFF70B
:1028DC001BFF05B05DF804FB00B589B001900091B9
:1028EC00009B0793019B1B788DF80C30019B1B7987
:1028FC008DF81030019B5B798DF81130019B9B6832
:10290C00DBB28DF81230019BDB68DBB28DF8133033
:10291C00019B1B690593019B5B690693074A079B07
:10292C0052F823300649079A51F8221003AA104690
:10293C00984700BF09B05DF804FB00BF4C060020AF
:10294C005406002000B587B00390029101920093C9
:10295C00039B1B7805931249059B019A41F8232090
:10296C001049059B009A41F82320029B5B7B002BAE
:10297C0002D00298FFF741FF00230493039B181D1C
:10298C00019B002B01D0084A00E00022059B029914
:10299C0000F014FB0490049B184607B05DF804FB90
:1029AC004C06002054060020E528000008B5064B14
:1029BC001B68002B03D105495120FEF706FF024B83
:1029CC001B68984700BF08BD5C0600205C510000E6
:1029DC0082B00190019B044A934201D1034B00E069
:1029EC000023184602B07047002000405C0600200F
:1029FC0000B587B001900091019B002B03D11849C1
:102A0C007720FEF7E2FE0198FFF7E2FF0590059BA9
:102A1C00002B1ED000238DF813300020FEF78EFE05
:102A2C00059B1B79002B03D001238DF8133005E097
:102A3C00059B009A1A60059B01221A710020FEF773
:102A4C0091FE9DF81330002B03D011230393039BAD
:102A5C0002E000230393039B184607B05DF804FBC8
:102A6C005C51000082B003468DF807309DF90730A9
:102A7C00002B0CDB9DF8073003F01F0205499DF974
:102A8C0007305B09012000FA02F241F8232000BF55
:102A9C0002B0704700E100E082B003468DF80730C9
:102AAC009DF90730002B0DDB9DF8073003F01F025A
:102ABC0006499DF907305B09012000FA02F26033E8
:102ACC0041F8232000BF02B0704700BF00E100E0D6
:102ADC0082B0034600918DF807309DF90730002B2A
:102AEC000ADB009BDAB20C499DF907305201D2B2D5
:102AFC000B4483F800230BE0009BDAB207499DF8E6
:102B0C00073003F00F03043B5201D2B20B441A7688
:102B1C0000BF02B0704700BF00E100E000ED00E034
:102B2C0082B00190019B03F06043B3F1005F0CBFD6
:102B3C0001230023DBB2184602B0704782B001902B
:102B4C00019B1B0B5BB2184602B0704700B583B0FB
:102B5C0003460A468DF8073013468DF806309DF86B
:102B6C000630072B03D908496B20FEF72EFE9DF883
:102B7C0006209DF9073011461846FFF7A9FF00BF44
:102B8C0003B05DF804FB00BFA051000000B583B09A
:102B9C0003468DF807309DF907301846FFF762FFA2
:102BAC0000BF03B05DF804FB00B583B003468DF89D
:102BBC0007309DF907301846FFF76EFF00BF03B0D2
:102BCC005DF804FB82B001900B468DF803309DF844
:102BDC000330019A134401221A6000BF02B07047FF
:102BEC0084B001900B46ADF80230BDF80230019A6A
:102BFC00134400221A60BDF80230019A13441B687A
:102C0C000393039B00BF04B0704782B001900B4646
:102C1C00ADF80230BDF80230019A13441B68002B4A
:102C2C0014BF01230023DBB2184602B0704782B0F8
:102C3C0001900091019B009AC3F8042300BF02B0DD
:102C4C00704782B001900091019B009AC3F8082351
:102C5C0000BF02B0704782B00190019B0622C3F8FE
:102C6C00002500BF02B0704782B00190019B00228A
:102C7C00C3F8002500BF02B0704784B003900291E6
:102C8C000192039B029AC3F80825039B019AC3F88F
:102C9C000C2500BF04B0704782B001900091019BDD
:102CAC00009AC3F8242500BF02B0704784B001908D
:102CBC00019BD3F8C4340393019B039AC3F8C42437
:102CCC00039B184604B0704782B001900B468DF8F8
:102CDC0003309DF80320019BC3F8882500BF02B088
:102CEC00704784B0039002910192029A039BC3F83F
:102CFC004425039B019AC3F8482500BF04B07047D4
:102D0C0084B0039002910192029A039BC3F834257C
:102D1C00039B019AC3F8382500BF04B0704782B0FA
:102D2C0001900091019B009AC3F8002200BF02B0F1
:102D3C00704782B00190019BD3F84C35184602B015
:102D4C00704782B00190019BD3F80032184602B054
:102D5C00704782B00190019BD3F83C35184602B005
:102D6C00704782B00190019B0122C3F8502500BF2F
:102D7C0002B0704782B00190019B0022C3F850252D
:102D8C0000BF02B0704782B00190019B0122C3F8D2
:102D9C00402500BF02B0704782B00190019B002219
:102DAC00C3F8402500BF02B07047000000B583B0E7
:102DBC000190019B1B68184600F041F80346002B5C
:102DCC0004D105494FF4F670FEF7FFFC4FF0A04319
:102DDC00184603B05DF804FBD051000000B585B077
:102DEC000190084611461A4603468DF803300B46EF
:102DFC008DF8023013468DF8013001AB1846FFF701
:102E0C00D5FF03909DF803209DF802305B001A4318
:102E1C009DF801309B001A439DF818301B0242EAC2
:102E2C0003019DF81C301B04019A1943039B02F506
:102E3C00E07243F8221000BF05B05DF804FB84B0CB
:102E4C000190019B5B09029300230393029B002BCF
:102E5C0003D14FF0FF33039300BF019B03F01F031B
:102E6C000193039A019B22FA03F303F00103002B55
:102E7C0014BF01230023DBB2184604B0704784B0A2
:102E8C00019003230393019B03F00103002B02D059
:102E9C004FF402430393019B03F00203002B02D077
:102EAC0048F201230393019B03F00403002B02D08F
:102EBC0048F202230393039B184604B070470000AA
:102ECC0000B585B00190009101238DF80F30009B67
:102EDC001B7B032B56D801A252F823F0612F000064
:102EEC00792F0000392F0000F92E0000009B9B6801
:102EFC0003F48023002B07D00198FFF71AFF02463A
:102F0C00009B1B699A420DD1009B9B6803F48023A4
:102F1C00002B39D10198FFF70CFF0246009B5B692F
:102F2C009A4231D000238DF80F302DE00198FFF735
:102F3C0000FF0246009B1B699A4207D10198FFF7DC
:102F4C0008FF0246009B5B699A421FD000238DF854
:102F5C000F301BE00198FFF7ECFE0246009B1B694B
:102F6C009A4215D000238DF80F3011E00198FFF72D
:102F7C00F0FE0246009B1B699A420BD000238DF891
:102F8C000F3007E000BF06E000BF04E000BF02E026
:102F9C0000BF00E000BF9DF80F3083F00103DBB2EF
:102FAC00002B05D00198FFF75FFE0198FFF753FE49
:102FBC009DF80F30184605B05DF804FB00B58BB0DA
:102FCC000590049103920293049B002B03D14A4970
:102FDC00E720FEF7FAFB049B1A68049B5B689A4295
:102FEC0003D14549E820FEF7F0FB059B1B791A46F7
:102FFC00342302FB03F3414A13440893089B93F8D0
:10300C002D30002B03D008230793079B70E0059B02
:10301C001A68059B1B791946394B53F82130194610
:10302C001046FFF7E5FC0346002B03D01123079352
:10303C00079B5DE0089B039A1A60089B029A5A60F2
:10304C00089B00229A60089B002283F83020089B82
:10305C00002283F82F20049B5A7B089B83F8322094
:10306C00049B18680023019306230093032300227A
:10307C000021FFF7B3FE049B58680023019306233D
:10308C000093032300220021FFF7A8FE059B1B6879
:10309C000993049B1968049B5B681A460998FFF70F
:1030AC00ECFD049B9B6819460998FFF7F5FD089BFE
:1030BC001B68002B15D0059B1B681846FFF73EFDBF
:1030CC0003461A46049B1B7B19461046FFF73EFD30
:1030DC00059B1B681846FFF731FD03461846FFF7A2
:1030EC0055FD089B012283F82D2000230793079B95
:1030FC0018460BB05DF804FB085200006406002073
:10310C004852000000B585B00190019B1B791A460E
:10311C00342302FB03F30D4A13440393039B93F8EC
:10312C002D30012B04D00A4940F24F10FEF74DFB15
:10313C00019B1B681846FFF78EFD039B022283F848
:10314C002D2000BF05B05DF804FB00BF6406002015
:10315C000852000000B583B001900091009B03F071
:10316C000103002B03D00198FFF7FBFD02E001984F
:10317C00FFF700FE009B03F00203002B03D0019825
:10318C00FFF701FE02E00198FFF706FE00BF03B057
:10319C005DF804FB30B589B0039002910192009365
:1031AC000023079308238DF81B30039B002283F820
:1031BC002E20019BDB681846FFF7B2FC034683F018
:1031CC000103DBB2002B03D010230793079BFDE117
:1031DC009D490298FFF735FD039B93F82F30DBB226
:1031EC00002B09D0039B9B6819460298FFF71FFD23
:1031FC0011230793079BE9E1009B03F00403002BC9
:10320C0006D1009B03F01003002B01D1012300E039
:10321C00002303F00103DAB2039B83F82F20039BF6
:10322C00019A03F10C0415460FCD0FC42B682360D3
:10323C00009B1B0903F00103002B14BF0123002387
:10324C00DAB2039B83F83020039B009A1A62019B2D
:10325C005B7819460298FFF737FD4FF4827102989C
:10326C00FFF7BEFC4FF492710298FFF7B9FC4FF4D4
:10327C00B0710298FFF7B4FC4FF4A4710298FFF7F9
:10328C00AFFC00990298FFF765FF019B1B78032B9D
:10329C0000F2DE8001A252F823F000BFDB33000005
:1032AC002334000083330000B9320000009B03F08C
:1032BC001003002B04D065494FF4D970FEF785FA42
:1032CC00009B03F00803002B04D0604940F2B310BC
:1032DC00FEF77BFA009B03F00403002B04D05B4940
:1032EC004FF4DA70FEF771FA019B1B691846FFF771
:1032FC0017FC034683F00103DBB2002B03D0102331
:10330C000793079B62E14FF480710298FFF707FD6A
:10331C00019BD968019B5B681A460298FFF7E1FC98
:10332C004FF4A8710298FFF75BFC20210298FFF77D
:10333C0049FC08210298FFF745FC00BF4FF4A87127
:10334C000298FFF762FC034683F00103DBB2002B0B
:10335C00F4D14FF4A8710298FFF742FC019B196954
:10336C00019B9B681A460298FFF7BBFC039B4FF42A
:10337C0080229A606FE0019BD968019B5B681A46BA
:10338C000298FFF7AEFC019B1B691846FFF7C8FBC0
:10339C00034683F00103DBB2002B03D01023079309
:1033AC00079B13E1019B1969019B9B681A460298C4
:1033BC00FFF7A6FC4FF484510298FFF7B0FC039B77
:1033CC0002229A6020210298FFF7FCFB43E0019B4C
:1033DC00D968019B5B681A460298FFF782FC009B38
:1033EC0003F02003002B09D04FF480710298FFF7F3
:1033FC0096FC039B4FF480229A6007E04FF4007117
:10340C000298FFF78CFC039B02229A602021029801
:10341C00FFF7D8FB1FE0019BD968019B5B681A463C
:10342C000298FFF76DFC4FF480510298FFF777FC80
:10343C00039B02229A6000238DF81B3020210298F6
:10344C00FFF7C0FB07E000BF02029C01085200001E
:10345C000723079300BF009B03F00803002B09D13F
:10346C00019B1B78032B05D09DF81B301946029845
:10347C00FFF7A8FB039B1B68002B1FD0009B03F0DE
:10348C000403002B02D0039B00229A60009B03F0E4
:10349C004003002B05D1039B9B6843F00202039B66
:1034AC009A60039B9B6843F40072039B9A60039B96
:1034BC009B6819460298FFF7BAFB86E000238DF84B
:1034CC001A304FF4A4710298FFF79FFB0346002BB0
:1034DC0002D001238DF81A304FF482710298FFF755
:1034EC0094FB0346002B07D04FF482710298FFF730
:1034FC0077FB01238DF81A304FF492710298FFF785
:10350C0084FB0346002B38D04FF492710298FFF7DE
:10351C0067FB4FF4B0710298FFF777FB03468DF809
:10352C0019300298FFF70DFC05909DF8193083F0C7
:10353C000103DBB2002B04D1059B03F40073002BB9
:10354C000AD120210298FFF73DFB14210298FFF7C6
:10355C0039FB00238DF81A309DF81930002B0CD054
:10356C00059B03F48073002B07D04FF4A4710298D1
:10357C00FFF736FB00238DF81A309DF81A3083F0D4
:10358C000103DBB2002B9CD10298FFF78FFB049058
:10359C00039B002283F82F20049B002B04D004985B
:1035AC00FFF76DFC079010E0009B03F04003002B2D
:1035BC000BD103990298FFF783FC034683F00103B8
:1035CC00DBB2002B01D003230793079B184609B0ED
:1035DC0030BD00BF00B587B0039002910192039BF0
:1035EC001B79002B07D1029B5B68FF2B03D8029B36
:1035FC009B68FF2B10D9039B1B79012B07D1029BD6
:10360C005B68FF2B03D8029B9B68FF2B04D91B49DB
:10361C0040F26A20FEF7D9F800230593039B1B792F
:10362C001A46342302FB03F3154A13440493049BF8
:10363C001B68002B08D1029B1B78022B04D10F496D
:10364C0040F27220FEF7C1F8049B1B68002B08D1D6
:10365C00029B1B78032B04D1084940F27320FEF720
:10366C00B4F8039B1968019B029A0498FFF792FD2A
:10367C000590059B184607B05DF804FB0852000046
:10368C006406002000B58BB00390019200930B46AA
:10369C008DF80B3001238DF814309DF80B308DF81C
:1036AC001530009B069300230793019B089300237E
:1036BC00099305AB002219460398FFF78BFF0346CD
:1036CC0018460BB05DF804FB30B58BB0019000913F
:1036DC00009B1B68002B04D1A24940F2C120FEF7CD
:1036EC0074F84FF492710198FFF78FFA0346002B90
:1036FC003ED04FF492710198FFF772FA4FF4827139
:10370C000198FFF782FA034683F00103DBB2002B2A
:10371C002ED0009B9B6819460198FFF792FA009BEC
:10372C0002229A60009B9B6819460198FFF77FFA6A
:10373C004FF4B0710198FFF768FA034683F0010368
:10374C00DBB2002B07D10198FFF7FBFA034603F419
:10375C000073002B07D120210198FFF733FA1421B5
:10376C000198FFF72FFA009B012283F82E20F6E038
:10377C004FF482710198FFF748FA0346002B5DD095
:10378C004FF482710198FFF72BFA009B1B6A03F030
:10379C004003002B1AD1009B93F82E3083F00103C9
:1037AC00DBB2002B12D000990198FFF789FB03467E
:1037BC00002B14BF01230023DBB283F00103DBB227
:1037CC0003F00103DAB2009B83F82E20009B1B6AE6
:1037DC0003F00403002B79D1009B04AC03F10C051E
:1037EC000FCD0FC42B6823604FF4B0710198FFF715
:1037FC00F7F94FF4AE710198FFF7F2F9009B93F8CB
:10380C00303083F00103DBB2002B04D1009B93F822
:10381C002E30002B5AD000210198FFF780FA009B24
:10382C0000229A6050490198FFF70BFA0198FFF7B4
:10383C0085F903461846FFF7B7F947E04FF4A47132
:10384C000198FFF7CDF9009B1B7B002B22D1009B2D
:10385C0004AC03F10C050FCD0FC42B682360009B47
:10386C0093F8303083F00103DBB2002B2ED0002113
:10387C000198FFF754FA009B00229A603A4901988C
:10388C00FFF7DFF90198FFF759F903461846FFF7E0
:10389C008BF91BE04FF400710198FFF740FA009B85
:1038AC0040F202229A6030490198FFF7CAF9009B56
:1038BC009B6819460198FFF7BAF908210198FFF7A0
:1038CC0081F920210198FFF77DF948E00198FFF775
:1038DC00EDF90990099B03F00203002B03D001239F
:1038EC008DF80C301DE0099B03F00403002B03D072
:1038FC0002238DF80C3014E0099B03F00103002B1C
:10390C0003D003238DF80C300BE0009B93F82E3082
:10391C00002B03D004238DF80C3002E000238DF82B
:10392C000C30009B93F8303083F00103DBB2002B9A
:10393C0003D0009B002283F82F20009B1B6A03F00E
:10394C000403002B04D0009B93F82E30002B06D0E0
:10395C00009B1B68009A516803AA104698470BB04D
:10396C0030BD00BF0852000002029C0108B503499B
:10397C000348FFF7A9FE00BF08BD00BF6406002086
:10398C000030004008B503494FF04020FFF79CFE83
:10399C0000BF08BD9806002000B583B00190019BC4
:1039AC0004331846FFF7AEFB00BF03B05DF804FB11
:1039BC0000B587B0039001921A460B468DF80B3078
:1039CC0013468DF80A3000230593039B181D9DF8B0
:1039DC000A309DF80B10019AFFF754FE0590059BD9
:1039EC00184607B05DF804FB00B587B06B460022A3
:1039FC001A605A609A60DA601B2300931A230193B1
:103A0C004FF0CC73029302238DF80C3069460023DF
:103A1C0000220A48FEF796FF0590059B0493049B31
:103A2C00002B04D0064A5C210498FDF7DBFD03480B
:103A3C00FFF7B2FF00BF07B05DF804FBA453000012
:103A4C00B453000000B585B000238DF80E30002172
:103A5C000020FCF74DFE0290029B002B04D0314A53
:103A6C006C210298FDF7BEFDFCF7D8FD2E4A2F4BBA
:103A7C00D31ADB081B0443F003032D491846FDF74A
:103A8C0007F900BFFDF760F90346002BFAD1FFF7E9
:103A9C00ABFF01238DF80F3026E00DF103029DF8EA
:103AAC000F1001232348FFF783FF0190019B002B8C
:103ABC000FD101238DF80E301B4A1C4BD31ADB0897
:103ACC001B0443F003039DF80F201B491846FDF718
:103ADC00EDF800BFFDF738F90346002BFAD19DF83D
:103AEC000F3001338DF80F309DF80F30C82BD4D91F
:103AFC009DF80E3083F00103DBB2002B10D00A4A84
:103B0C000A4BD31ADB081B0443F003030B4918467A
:103B1C00FDF7BEF800BFFDF717F90346002BFAD1ED
:103B2C00FEE700BFB453000098480000784800003E
:103B3C00F8530000A4530000105400003854000047
:103B4C0082B0204B0193019B02221A61019B02223D
:103B5C005A61019B1C4A9A61019B1C4ADA61019BC8
:103B6C004FF400721A62019B00229A62019B0022A0
:103B7C005A62019B0022DA62019B134A9A64019BF0
:103B8C00134ADA64019B10221A65019B00229A6584
:103B9C00019B00225A65019B0022DA65019B0733C9
:103BAC000C4A10681860019B0B4A106818609188C9
:103BBC00927999809A71019B20229A7100BF02B070
:103BCC00704700BFCC060020505400004407002072
:103BDC00440900205C5400006054000000B589B01A
:103BEC0003900291019200230693039BDB680593DB
:103BFC00039B1B690493049A059B9A4205D9049A6A
:103C0C00059BD31A013B079307E0039B9A68049921
:103C1C00059BCB1A1344013B0793039B9A68059BA6
:103C2C00D31A079A934228BF13460793079A019B0E
:103C3C00934228BF13460793039B5A68059B134472
:103C4C00079A0299184600F0D5FD069A079B134473
:103C5C000693029A079B13440293019A079BD31A6B
:103C6C000193059A079B13440593039B9B68059A44
:103C7C009A4201D100230593039B059ADA60019BBC
:103C8C00002BB5D1069B184609B05DF804FB00B5B6
:103C9C0089B0039002910192039BDB680793039B0D
:103CAC009A68079BD31A0693069A019B9A420ED9DF
:103CBC00039B5A68079B1344019A0299184600F01B
:103CCC0099FD079A019B1A44039BDA601AE0069B44
:103CDC000593039B5A68079B1344059A029918464F
:103CEC0000F088FD019A069BD31A0593039B586834
:103CFC00029A069B1344059A194600F07BFD039B20
:103D0C00059ADA6000BF09B05DF804FB86B001903B
:103D1C00019B1B690493019BDB680393049A039B2F
:103D2C009A4208D8019B9A68039BD21A049B1344AD
:103D3C00013B059304E0049A039BD31A013B0593C2
:103D4C00059B184606B0704700B589B003900291E8
:103D5C000192029B0693039B5A1C13465B0013446F
:103D6C00DB00204A13440593059B5B69022B29D089
:103D7C00022B2ED8002B02D0012B13D029E0059852
:103D8C00FFF7C4FF0490049A019B9A4202D20023CD
:103D9C00079321E0019B0793019A06990598FFF779
:103DAC0076FF19E00598FFF7B1FF0490019A049B88
:103DBC00934228BF13460793079A06990598FFF775
:103DCC0066FF09E0019A06990598FFF707FF07902F
:103DDC0002E00023079300BF079B184609B05DF86B
:103DEC0004FB00BFCC06002008B5FFF7A9FE00BFFE
:103DFC0008BD0000BFF34F8F00BF064BDB6803F418
:103E0C00E0620449044B1343CB60BFF34F8F00BFF8
:103E1C0000BFFDE700ED00E00400FA0582B01D4B89
:103E2C001B68B3F1FF3F0AD11B4B1B68DBB201933C
:103E3C001A4B1B681B0903F00F03009305E0154B8D
:103E4C001B680193164B1B680093019B062B1DD11D
:103E5C00009B033B042B17D801A252F823F000BFA0
:103E6C00813E0000853E0000893E00008D3E000032
:103E7C00913E000001230AE0012308E0012306E043
:103E8C00012304E0012302E0012300E00023184693
:103E9C0002B0704730010010E00F00F0E80F00F0A6
:103EAC003401001082B0174B1B68DBB20193164B28
:103EBC001B681B0903F00F030093019B062B1DD1FC
:103ECC00009B033B042B17D801A252F823F000BF30
:103EDC00F13E0000F53E0000F93E0000FD3E000002
:103EEC00013F000001230AE0002308E0002306E064
:103EFC00002304E0002302E0002300E00023184626
:103F0C0002B07047E00F00F0E80F00F082B01D4BDC
:103F1C001B68B3F1FF3F0AD11B4B1B68DBB201934B
:103F2C001A4B1B681B0903F00F03009305E0154B9C
:103F3C001B680193164B1B680093019B062B1DD12C
:103F4C00009B033B042B17D801A252F823F000BFAF
:103F5C00713F0000753F0000793F00007D3F00007D
:103F6C00813F000001230AE0012308E0012306E061
:103F7C00012304E0012302E0012300E000231846A2
:103F8C0002B0704730010010E00F00F0E80F00F0B5
:103F9C003401001082B0174B1B68DBB20193164B37
:103FAC001B681B0903F00F030093019B062B1DD10B
:103FBC00009B033B042B17D801A252F823F000BF3F
:103FCC00E13F0000E53F0000E93F0000ED3F00004D
:103FDC00F13F000001230AE0002308E0002306E083
:103FEC00002304E0002302E0002300E00023184635
:103FFC0002B07047E00F00F0E80F00F082B01D4BEC
:10400C001B68B3F1FF3F0AD11B4B1B68DBB201935A
:10401C001A4B1B681B0903F00F03009305E0154BAB
:10402C001B680193164B1B680093019B062B1DD13B
:10403C00009B033B042B17D801A252F823F000BFBE
:10404C006140000065400000694000006D400000C8
:10405C007140000001230AE0012308E0012306E07F
:10406C00012304E0012302E0012300E000231846B1
:10407C0002B0704730010010E00F00F0E80F00F0C4
:10408C003401001082B0174B1B68DBB20193164B46
:10409C001B681B0903F00F030093019B062B1DD11A
:1040AC00009B033B042B17D801A252F823F000BF4E
:1040BC00D1400000D5400000D9400000DD40000098
:1040CC00E140000001230AE0002308E0002306E0A1
:1040DC00002304E0002302E0002300E00023184644
:1040EC0002B07047E00F00F0E80F00F082B0174B01
:1040FC001B68DBB20193164B1B681B0903F00F0303
:10410C000093019B062B1DD1009B033B042B17D85E
:10411C0001A252F823F000BF394100003D410000DC
:10412C0041410000454100004941000001230AE0E3
:10413C00002308E0002306E0002304E0002302E053
:10414C00002300E00023184602B07047E00F00F097
:10415C00E80F00F082B01D4B1B68B3F1FF3F0AD192
:10416C001B4B1B68DBB201931A4B1B681B0903F03A
:10417C000F03009305E0154B1B680193164B1B684E
:10418C000093019B062B1DD1009B033B042B17D8DE
:10419C0001A252F823F000BFB9410000BD4100005C
:1041AC00C1410000C5410000C941000000230AE0E4
:1041BC00002308E0012306E0012304E0012302E0D0
:1041CC00012300E00023184602B0704730010010B4
:1041DC00E00F00F0E80F00F03401001082B01D4B2E
:1041EC001B68B3F1FF3F0AD11B4B1B68DBB2019379
:1041FC001A4B1B681B0903F00F03009305E0154BCA
:10420C001B680193164B1B680093019B062B1DD159
:10421C00009B033B042B17D801A252F823F000BFDC
:10422C004142000045420000494200004D4200005E
:10423C005142000001230AE0012308E0012306E0BB
:10424C00012304E0012302E0012300E000231846CF
:10425C0002B0704730010010E00F00F0E80F00F0E2
:10426C003401001082B01D4B1B68B3F1FF3F0AD123
:10427C001B4B1B68DBB201931A4B1B681B0903F029
:10428C000F03009305E0154B1B680193164B1B683D
:10429C000093019B062B1DD1009B033B042B17D8CD
:1042AC0001A252F823F000BFC9420000CD42000029
:1042BC00D1420000D5420000D942000001230AE09F
:1042CC00012308E0012306E0012304E0012302E0BE
:1042DC00012300E00023184602B0704730010010A3
:1042EC00E00F00F0E80F00F03401001082B0154B25
:1042FC001B680193144B1B680093019B062B1DD16B
:10430C00009B033B042B17D801A252F823F000BFEB
:10431C003143000035430000394300003D430000A9
:10432C004143000000230AE0002308E0002306E0DC
:10433C00012304E0012302E0012300E000231846DE
:10434C0002B07047300100103401001082B0154BE0
:10435C001B680193144B1B680093019B062B1DD10A
:10436C00009B033B042B17D801A252F823F000BF8B
:10437C009143000095430000994300009D430000C9
:10438C00A143000000230AE0002308E0002306E01C
:10439C00002304E0012302E0012300E0002318467F
:1043AC0002B07047300100103401001008B5FFF75F
:1043BC00CDFF0346002B07D04FF010234FF0804267
:1043CC00D3F80832C2F8583500BF08BD00BF044B03
:1043DC00D3F80034002BFAD000BF00BF704700BFE9
:1043EC0000E0014000B583B00190054A019BC2F882
:1043FC000435FFF7EBFF00BF03B05DF804FB00BF13
:10440C0000E00140024B034A1A6000BF704700BF36
:10441C00440000200090D00308B5FFF7FFFC0346D2
:10442C00002B06D0964B1B681B0A964A03F01F0301
:10443C001360FFF737FD0346002B02D0924B934AD3
:10444C001A60FFF763FD0346002B06D0904B1B68E8
:10445C005B0B904A03F007031360FFF79BFD0346C9
:10446C00002B05D08C4BDB688B4A23F08073D36018
:10447C00FFF7C4FD0346002B0ED04FF08043002203
:10448C00C3F80C214FF080430022C3F810214FF0E9
:10449C0080430022C3F83825FFF7F4FD0346002BB8
:1044AC0002D07E4B03221A60FFF720FE0346002B3E
:1044BC000BD07B4B05221A607A4B01221A607A4B87
:1044CC0000221A60794B3F221A60FFF743FE034625
:1044DC00002B76D04FF08053754AD3F80434C2F8D1
:1044EC0020354FF08053724AD3F80834C2F8243583
:1044FC004FF080536E4AD3F80C34C2F828354FF085
:10450C0080536B4AD3F81034C2F82C354FF08053DB
:10451C00674AD3F81434C2F830354FF08053644AEC
:10452C00D3F81834C2F834354FF08053604AD3F8BE
:10453C001C34C2F840354FF080535D4AD3F8203418
:10454C00C2F844354FF08053594AD3F82434C2F89A
:10455C0048354FF08053564AD3F82834C2F84C35BE
:10456C004FF08053524AD3F82C34C2F850354FF0E8
:10457C0080534F4AD3F83034C2F854354FF080533F
:10458C004B4AD3F83434C2F860354FF08053484A64
:10459C00D3F83834C2F864354FF08053444AD3F81A
:1045AC003C34C2F868354FF08053414AD3F840345C
:1045BC00C2F86C354FF080533D4AD3F84434C2F8FE
:1045CC007035FFF70BFE0346002B05D0394B1B68EB
:1045DC00394A03F04F031360FFF744FE0346002BE8
:1045EC000DD04FF08043D3F8003403F00103002BBF
:1045FC0005D04FF080436FF00102C3F80024FFF7A1
:10460C0075FE0346002B05D02C4B1B682B4A43F43C
:10461C00806313602A4BD3F88830294A43F4700323
:10462C00C2F88830BFF34F8F00BFBFF36F8F00BF4E
:10463C00FFF7BCFE4FF01023D3F80032002B05DB44
:10464C004FF01023D3F80432002B15DA0120FFF7BA
:10465C00C9FE4FF010231522C3F80022FFF7B6FE57
:10466C004FF010231522C3F80422FFF7AFFE0020F1
:10467C00FFF7B8FEFFF7BEFBFFF7C4FE00BF08BD97
:10468C00240300104035014074C007400DF0ADBA52
:10469C00440200103C050040F0ED00E0A005004095
:1046AC0010560040885600401856004014560040E2
:1046BC0000C0004058020010E40E00403C170040BF
:1046CC0000ED00E09AB18446097848B2002844BF56
:1046DC006FF001007047BCF1000F18BFCCF8001050
:1046EC000021C3E90011002818BF012070470020E9
:1046FC0070477F298EBF6FF0010001700120704759
:10470C0040F65412C2F20002136823B940F2480377
:10471C00C2F2000313605A689268126810470921AC
:10472C00FFF7EEBF7F2884BF0020704745F27C6204
:10473C00C0F20002515C45F2FC52C0F20002105C67
:10474C0008407047A0F161011A2938BF2038704722
:10475C00A0F141011A2938BF203070477F2884BF4F
:10476C000020704745F27C62C0F20002515C45F2B9
:10477C00FC52C0F20002105C08407047A0F16101CD
:10478C001A2938BF20387047A0F141011A2938BFC7
:10479C0020307047411C82070CD010F8012B3AB323
:1047AC00820707D010F8012B12B3820702D010F841
:1047BC00012BEAB14FF0013C50F8042BCCFA52F328
:1047CC007BB950F8042BCCFA52F353B950F8042BA4
:1047DC00CCFA52F32BB950F8042BCCFA52F3002B31
:1047EC00EAD004381BBAB3FA83F300EBD3000130E0
:1047FC00401A704772B3844690EA01039B0721D19B
:10480C00830709D011F8013B00F8013B013A20D095
:10481C008307F7D100E08446202A0AD32DE9F0075C
:10482C00B1E8F807A0E8F807203A202AF8D2BDE84A
:10483C00F007042A06D351F8043B40F8043B043A31
:10484C00042AF8D22AB111F8013B00F8013B013AD5
:10485C00F9D16046704700BF072904D90023024AEA
:0C486C00C0E900311060704758090020BE
:104878005851000000000000005200000000000035
:10488800B052000000000000585300000000000073
:08489800484900000000030381
:1048A000C448000000000000D848000000000020BC
:1048B00068010020A0000020A8000020A80000201F
:0448C00018000000DC
:1048C400B5040000E7040000DD0400000338FDD84F
:1048D400704700007274745F6C6F675F6261636B32
:1048E400656E6400463A5C6E5246355F53444B5FD6
:1048F40031372E312E305F646464653536305C6345
:104904006F6D706F6E656E74735C6C6962726172E8
:104914006965735C6C6F675C7372635C6E72665F0F
:104924006C6F675F64656661756C745F6261636B0D
:10493400656E64732E630000700100207F00000028
:10494400F001002061707000463A5C6E5246355F9B
:1049540053444B5F31372E312E305F6464646535C8
:1049640036305C636F6D706F6E656E74735C6C690A
:10497400627261726965735C6C6F675C7372635CAD
:104984006E72665F6C6F675F66726F6E74656E647D
:104994002E6300004261636B656E647320666C7500
:1049A40073686564000000006572726F7200000035
:1049B4007761726E696E6700696E666F0000000051
:1049C40064656275670000001B5B306D00000000C9
:1049D4001B5B313B33306D001B5B313B33316D006E
:1049E4001B5B313B33326D001B5B313B33336D005A
:1049F4001B5B313B33346D001B5B313B33356D0046
:104A04001B5B313B33366D001B5B313B33376D0031
:104A140025734C6F67732064726F7070656420280F
:104A240025642925730D0A00257300003C25733E77
:104A34002025733A200000000D0A000020253032A2
:104A440078000000202020007C0000002563000086
:104A540020000000415353455254494F4E204641D3
:104A6400494C45442061742025733A2575000000A3
:104A74004552524F52202575205B25735D20617489
:104A84002025733A25750D0A50432061743A20306D
:104A94007825303878000000456E64206F66206504
:104AA40072726F72207265706F727400554E4B4E45
:104AB4004F574E204641554C542061742030782580
:104AC40030385800463A5C6E5246355F53444B5F6B
:104AD40031372E312E305F646464653536305C6363
:104AE4006F6D706F6E656E74735C6C696272617207
:104AF4006965735C7574696C5C6170705F75746909
:104B04006C5F706C6174666F726D2E6300000000E0
:104B1400463A5C6E5246355F53444B5F31372E3113
:104B24002E305F646464653536305C636F6D706F1E
:104B34006E656E74735C6C69627261726965735CD4
:104B440062616C6C6F635C6E72665F62616C6C6FE9
:104B5400632E6300463A5C6E5246355F53444B5FA6
:104B640031372E312E305F646464653536305C65D0
:104B7400787465726E616C5C667072696E74665C82
:104B84006E72665F667072696E74662E63000000F2
:104B9400463A5C6E5246355F53444B5F31372E3193
:104BA4002E305F646464653536305C657874657294
:104BB4006E616C5C667072696E74665C6E72665F60
:104BC400667072696E74665F666F726D61742E636F
:104BD4000000000030313233343536373839414241
:104BE40043444546463A5C6E5246355F53444B5FF8
:104BF40031372E312E305F646464653536305C6342
:104C04006F6D706F6E656E74735C6C6962726172E5
:104C14006965735C6D656D6F626A5C6E72665F6D0B
:104C2400656D6F626A2E6300556E6B6E6F776E20D2
:104C34006572726F7220636F646500004E52465F46
:104C440053554343455353004E52465F4552524FCA
:104C5400525F5356435F48414E444C45525F4D4961
:104C64005353494E470000004E52465F4552524F3F
:104C7400525F534F46544445564943455F4E4F5443
:104C84005F454E41424C4544000000004E52465F91
:104C94004552524F525F494E5445524E414C0000CA
:104CA4004E52465F4552524F525F4E4F5F4D454DF7
:104CB400000000004E52465F4552524F525F4E4F25
:104CC400545F464F554E44004E52465F4552524F34
:104CD400525F4E4F545F535550504F525445440009
:104CE4004E52465F4552524F525F494E56414C49CF
:104CF400445F504152414D004E52465F4552524F1F
:104D0400525F494E56414C49445F53544154450007
:104D14004E52465F4552524F525F494E56414C499E
:104D2400445F4C454E475448000000004E52465FD5
:104D34004552524F525F494E56414C49445F464C8E
:104D4400414753004E52465F4552524F525F494EBF
:104D540056414C49445F4441544100004E52465F21
:104D64004552524F525F444154415F53495A4500A2
:104D74004E52465F4552524F525F54494D454F552E
:104D8400540000004E52465F4552524F525F4E55FA
:104D94004C4C00004E52465F4552524F525F464FB4
:104DA4005242494444454E004E52465F4552524F8A
:104DB400525F494E56414C49445F414444520000BD
:104DC4004E52465F4552524F525F4255535900006E
:104DD4004E52465F4552524F525F4D4F44554C45DB
:104DE4005F4E4F545F494E495449414C495A4544DA
:104DF400000000004E52465F4552524F525F4D55DF
:104E04005445585F494E49545F4641494C45440016
:104E14004E52465F4552524F525F4D555445585F6E
:104E24004C4F434B5F4641494C4544004E52465F0C
:104E34004552524F525F4D555445585F554E4C4F55
:104E4400434B5F4641494C45440000004E52465F87
:104E54004552524F525F4D555445585F434F4E444F
:104E64005F494E49545F4641494C454400000000A7
:104E74004E52465F4552524F525F4D4F44554C453A
:104E84005F414C52454144595F494E495449414C54
:104E9400495A4544000000004E52465F4552524F65
:104EA400525F53544F524147455F46554C4C0000A6
:104EB4004E52465F4552524F525F4150495F4E4FEA
:104EC400545F494D504C454D454E544544000000F7
:104ED4004E52465F4552524F525F464541545552D9
:104EE400455F4E4F545F454E41424C4544000000DF
:104EF4004E52465F4552524F525F494F5F50454EA6
:104F040044494E47000000004E52465F4552524FFE
:104F1400525F4452565F5457495F4552525F4F5651
:104F2400455252554E0000004E52465F4552524F74
:104F3400525F4452565F5457495F4552525F414E47
:104F440041434B004E52465F4552524F525F4452CA
:104F5400565F5457495F4552525F444E41434B009C
:104F64004E52465F4552524F525F424C455F495044
:104F740053505F52585F504B545F5452554E434107
:104F8400544544004E52465F4552524F525F424C84
:104F9400455F495053505F4348414E4E454C5F4135
:104FA4004C52454144595F455849535453000000FD
:104FB4004E52465F4552524F525F424C455F4950F4
:104FC40053505F4C494E4B5F444953434F4E4E45FB
:104FD40043544544000000004E52465F4552524F30
:104FE400525F424C455F495053505F504545525FB4
:104FF40052454A4543544544000000000000000067
:10500400404C0000010000004C4C00000200000075
:105014006C4C000003000000904C000004000000F1
:10502400A44C000005000000B84C0000060000007D
:10503400CC4C000007000000E44C00000800000015
:10504400FC4C000009000000144D00000A000000A0
:10505400304D00000B000000484D00000C00000023
:10506400604D00000D000000744D00000E000000B3
:10507400884D00000F000000984D00001000000053
:10508400AC4D000011000000C44D00008000000081
:10509400D44D000081000000F84D000082000000A3
:1050A400144E000083000000304E00008400000015
:1050B400504E000085000000744E00008600000081
:1050C4009C4E000090000000B44E000091000000CF
:1050D400D44E000092000000F44E00000082000054
:1050E4000C4F0000018200002C4F000002820000DF
:1050F400484F000000840000644F00000184000059
:10510400884F000002840000B44F000003840000B4
:10511400DC4F00002E2E2F2E2E2F2E2E2F2E2E2F34
:105124002E2E2F2E2E2F6D6F64756C65732F6E725D
:1051340066782F68616C2F6E72665F6770696F2E78
:105144006800000000000000000000000338FDD8E3
:105154007047000050525300463A5C6E5246355F29
:1051640053444B5F31372E312E305F6464646535B0
:1051740036305C6D6F64756C65735C6E7266785CFA
:10518400647269766572735C7372635C7072735C6B
:105194006E7266785F7072732E6300002E2E2F2E4F
:1051A4002E2F2E2E2F2E2E2F2E2E2F2E2E2F696E9B
:1051B400746567726174696F6E2F6E7266782F6E94
:1051C4007266785F676C75652E6800002E2E2F2E30
:1051D4002E2F2E2E2F2E2E2F2E2E2F2E2E2F6D6F66
:1051E40064756C65732F6E7266782F68616C2F6EB0
:1051F40072665F6770696F2E680000005457494DEE
:1052040000000000463A5C6E5246355F53444B5FE3
:1052140031372E312E305F646464653536305C6D11
:105224006F64756C65735C6E7266785C64726976C3
:105234006572735C7372635C6E7266785F747769AF
:105244006D2E630079390000913900002E2E2F2E27
:105254002E2F2E2E2F2E2E2F2E2E2F2E2E2F696EEA
:10526400746567726174696F6E2F6E7266782F6EE3
:105274007266785F676C75652E6800002E2E2F2E7F
:105284002E2F2E2E2F2E2E2F2E2E2F2E2E2F6D6FB5
:1052940064756C65732F6E7266782F68616C2F6EFF
:1052A40072665F6770696F2E680000005541525442
:1052B40000000000463A5C6E5246355F53444B5F33
:1052C40031372E312E305F646464653536305C6D61
:1052D4006F64756C65735C6E7266785C6472697613
:1052E4006572735C7372635C6E7266785F7561720B
:1052F400742E63002E2E2F2E2E2F2E2E2F2E2E2F79
:105304002E2E2F2E2E2F696E746567726174696F4D
:105314006E2F6E7266782F6E7266785F676C756535
:105324002E6800002E2E2F2E2E2F2E2E2F2E2E2FB7
:105334002E2E2F2E2E2F6D6F64756C65732F6E724B
:1053440066782F68616C2F6E72665F6770696F2E66
:10535400680000005541525445000000463A5C6E16
:105364005246355F53444B5F31372E312E305F64E4
:105374006464653536305C6D6F64756C65735C6E42
:105384007266785C647269766572735C7372635C6E
:105394006E7266785F75617274652E63000000003A
:1053A4000000000000300040000000000100000088
:1053B400463A5C6E5246355F53444B5F31372E316B
:1053C4002E305F646464653536305C6578616D7079
:1053D4006C65735C7065726970686572616C5C742D
:1053E40077695F7363616E6E65725C6D61696E2E61
:1053F40063000000545749207363616E6E65722028
:10540400737461727465642E00000000545749205F
:105414006465766963652064657465637465642096
:105424006174206164647265737320307825782E0A
:10543400000000004E6F2064657669636520776123
:105444007320666F756E642E000000005465726DE3
:10545400696E616C00000000525454005345474784
:105464004552000074540000A45500007854000014
:105474004300000031470000514700005D47000031
:10548400694700008947000095470000FF46000077
:10549400D146000053756E004D6F6E005475650063
:1054A400576564005468750046726900536174005E
:1054B400004A616E00466562004D6172004170727F
:1054C400004D6179004A756E004A756C004175673C
:1054D40000536570004F6374004E6F76004465633B
:1054E40000002E000053756E646179004D6F6E6488
:1054F40061790054756573646179005765646E65FC
:1055040073646179005468757273646179004672DA
:105514006964617900536174757264617900004A49
:10552400616E7561727900466562727561727900A7
:105534004D6172636800417072696C004D6179005D
:105544004A756E65004A756C7900417567757374A8
:105554000053657074656D626572004F63746F62A9
:105564006572004E6F76656D6265720044656365B1
:105574006D6265720000414D00504D0000256D2F95
:1055840025642F25790025483A254D3A25530025D1
:10559400612025622025652025542025590000001E
:1055A400E6540000E8540000E8540000E854000009
:1055B400E8540000E8540000E8540000E8540000F7
:1055C400E8540000E8540000FFFFFFFFFFFFFFFF67
:1055D400FFFFFFFFFFFF0000E954000098540000A4
:1055E40023550000B55400007A5500008155000091
:1055F4008A550000935500002020202020202020E0
:10560400206828282828202020202020202020202E
:1056140020202020202020204810101010101010CE
:1056240010101010101010108484848484848484D6
:1056340084841010101010101081818181818101E7
:105644000101010101010101010101010101010146
:1056540001010110101010101082828282828202D5
:105664000202020202020202020202020202020216
:105674000202021010101020000703200417020178
:055684000857104080F2
:10568C0000000000FF000000FF0000000000000010
:10569C00AC490000B4490000BC490000C4490000FA
:1056AC00CC490000D4490000DC490000E44900006A
:1056BC00EC490000F4490000FC490000044A0000D9
:1056CC000C4A00000090D00368540000685400009D
:0C56DC006854000068540000685400008E
:040000030000037185
:00000001FF
