:100000000000012071030000590300005B030000A1
:100010005D0300005F0300006103000000000000BA
:10002000000000000000000000000000630300006A
:100030006503000000000000670300006903000082
:100040006B0300006B0300006B0300006B030000F8
:100050006B0300006B0300004D1100006B030000F8
:100060005D1B00006B0300006B0300006B030000CE
:100070006B0300006B0300006B0300006B030000C8
:100080006B0300006B0300006B0300006B030000B8
:100090006B0300006B0300006B0300006B030000A8
:1000A0006B0300006B0300006B0300006B03000098
:1000B0006B0300006B030000000000000000000064
:1000C0006B0300006B0300006B0300006B03000078
:1000D0006B0300006B0300006B03000000000000D6
:1000E0000000000000000000000000000000000010
:1000F0000000000000000000000000000000000000
:1001000000000000000000000000000000000000EF
:1001100000000000000000000000000000000000DF
:1001200000000000000000000000000000000000CF
:1001300000000000000000000000000000000000BF
:1001400000000000000000000000000000000000AF
:10015000000000000000000000000000000000009F
:10016000000000000000000000000000000000008F
:10017000000000000000000000000000000000007F
:10018000000000000000000000000000000000006F
:10019000000000000000000000000000000000005F
:1001A000000000000000000000000000000000004F
:1001B000000000000000000000000000000000003F
:1001C000000000000000000000000000000000002F
:1001D000000000000000000000000000000000001F
:1001E000000000000000000000000000000000000F
:1001F00000000000000000000000000000000000FF
:10020000344935480A1A02D0072291438D463349B2
:1002100033480A1A06D00722914381F30988022243
:1002200082F314882F483049304A00F041F83048B2
:100230003049314A00F03CF830483149314A00F049
:1002400037F831483149324A00F032F83148324902
:10025000324A00F02DF832483249334A00F028F88B
:1002600032483349334A00F023F8334833490022F7
:1002700000F029F832483349002200F024F83248CF
:100280003249091A02F064FA314A90471F4820495E
:10029000884205D00268043003B4904703BCF7E7F6
:1002A00000208646EC46002000212A4A9047FEE7BF
:1002B000884207D0521A05D0037801300B70013103
:1002C000013AF9D17047884202D002700130FAE752
:1002D000704700000000012000E000200000012025
:1002E000000001204C290000000000200C0000202C
:1002F000CC030000CC030000642700004C29000060
:100300000000002000000020642700006427000097
:1003100064270000642700006427000064270000B1
:1003200064270000642700004C29000058290000C1
:100330000C0000200C0000200C0000209800002081
:1003400098000020980000209800002098200020AD
:1003500099030000051E0000FEE7FEE7FEE7FEE74A
:10036000FEE7FEE7FEE7FEE7FEE7FEE700F002B885
:10037000FFF7FCBF0F484FF00701884385460E4842
:1003800080470E48016841F470010160BFF34F8F50
:10039000BFF36F8FFFF734BF09480A490A4A884202
:1003A00007D0521A05D0037801300B700131013AA1
:1003B000F9D17047000001203D24000088ED00E0E5
:0C03C00064270000000000200000002066
:1003CC0086B003900291019201238DF817309DF8AD
:1003DC001730204A039B13601E4A029B53601D4A30
:1003EC00019B9360039B44F20102934212D0039B46
:1003FC0044F20202934220D1019B164AD360154B62
:10040C00DB681B68134A9361124BDB685B68114A0B
:10041C00D36112E0019B0F4A13610E4B1B699B6861
:10042C000C4A53610B4B1B691B680A4A9361094BBD
:10043C001B695B68074AD36100BF72B600BF00BF7F
:10044C009DF81730DBB2002BFAD162B600BF00BFAB
:10045C0006B070470C00002000B583B002900091EC
:10046C00019244F2010071466A4600F003F803B0B1
:10047C0000BD00BF00B587B003900291019272B627
:10048C0000BF039B44F20102934207D0039B44F24A
:10049C000202934205D1019B059303E0019B049357
:1004AC0000E000BF074B1B6803F00103002B00D0DA
:1004BC0000BE019A02990398FFF782FF00BF07B0B4
:1004CC005DF804FBF0ED00E072B600BF034B1B6857
:1004DC000133024A136000BF704700BF2C0000209C
:1004EC00064B1B68013B054A1360044B1B68002B31
:1004FC0001D162B600BF00BF704700BF2C000020C6
:10050C0000B583B0019000F025F80346012B03D011
:10051C000449432000F03BF8FFF7D6FF00BF03B0BF
:10052C005DF804FB6427000000B583B003468DF82A
:10053C00073000F00FF80346012B03D0044951207B
:10054C0000F025F8FFF7CCFF00BF03B05DF804FB0B
:10055C006427000084B0EFF305830193019BC3F380
:10056C0008030393039B002B0DD1EFF3148300932B
:10057C00009B0293029B03F00103002B0CBF012391
:10058C000023DBB200E00123184604B0704700B52D
:10059C0085B003460091ADF80630BDF806300293E5
:1005AC00009B039302AB1A46002144F20200FFF7B2
:1005BC0061FF00BF05B05DF804FB0000054B1B7824
:1005CC00002B04D1034B01221A70002300E0852379
:1005DC00184670473000002082B003468DF8073073
:1005EC009DF90730002B0CDB9DF8073003F01F0240
:1005FC0005499DF907305B09012000FA02F241F828
:10060C00232000BF02B0704700E100E082B0034637
:10061C0000918DF807309DF90730002B0ADB009B09
:10062C00DAB20C499DF907305201D2B20B4483F86F
:10063C0000230BE0009BDAB207499DF8073003F06A
:10064C000F03043B5201D2B20B441A7600BF02B026
:10065C00704700BF00E100E000ED00E082B00190C7
:10066C00019B1B0B5BB2184602B0704700B583B000
:10067C0003460A468DF8073013468DF806309DF870
:10068C000630072B03D908496B20FFF780FF9DF834
:10069C0006209DF9073011461846FFF7B7FF00BF3B
:1006AC0003B05DF804FB00BFB027000000B583B0B9
:1006BC0003468DF807309DF907301846FFF78CFF7D
:1006CC0000BF03B05DF804FB82B003468DF8073021
:1006DC009DF8073003F1804303F5C043184602B080
:1006EC00704700B583B00346ADF80630BDF8063050
:1006FC00184600F026F803461B68012B0CBF01239B
:10070C000023DBB2184603B05DF804FB00B585B0DE
:10071C000346ADF80630BDF80630184600F011F867
:10072C0003461A4600231360BDF80630184600F045
:10073C0008F803461B680393039B00BF05B05DF8E4
:10074C0004FB82B00346ADF80630BDF8063003F169
:10075C00804303F5C043184602B0704782B0019045
:10076C00034A019BC2F8043300BF02B0704700BFBC
:10077C000060004082B00190034BD3F80423019B2E
:10078C001340184602B070470060004082B00190E0
:10079C00054A019B03F5A27352F823301B0A03F0A0
:1007AC001F03184602B070470060004082B00190F1
:1007BC00064A019B03F5A27352F823301B0C03F07D
:1007CC000303DBB2184602B0704700BF0060004064
:1007DC0084B00190094A019B03F5A27352F82330AF
:1007EC0043F0030303930549019B03F5A273039A9A
:1007FC0041F8232000BF04B0704700BF00600040E8
:10080C0084B00390029111461A460B468DF80730BE
:10081C0013468DF80630184A039B03F5A27352F861
:10082C002330154923F4981323F4F853039A02F553
:10083C00A27241F82230104A039B03F5A27352F8BE
:10084C002320029B1B0203F4F8519DF807301B0474
:10085C0003F4403319439DF806301B0503F4801351
:10086C000B4305491A43039B03F5A27341F823205C
:10087C0000BF04B0704700BF0060004000B583B0FB
:10088C000190019B1B68184600F014F90346002BDD
:10089C0004D105494FF4F670FFF779FE4FF0A043F1
:1008AC00184603B05DF804FBE027000000B585B0E6
:1008BC000190084611461A4603468DF803300B4644
:1008CC008DF8023013468DF8013001AB1846FFF756
:1008DC00D5FF03909DF803209DF802305B001A436E
:1008EC009DF801309B001A439DF818301B0242EA18
:1008FC0003019DF81C301B04019A1943039B02F55C
:10090C00E07243F8221000BF05B05DF804FB00B59F
:10091C0085B0039000230193002300930023012250
:10092C0001210398FFF7C2FF00BF05B05DF804FB7F
:10093C0000B585B001900B468DF8033001AB18461D
:10094C00FFF79CFF0390019A039B02F5E07253F8AA
:10095C002230019A23F44031039B02F5E07243F8F4
:10096C002210019A039B02F5E07253F822309DF895
:10097C00032012041146019A1943039B02F5E072FD
:10098C0043F8221000BF05B05DF804FB00B585B03C
:10099C00019001AB1846FFF771FF0390019B0122F8
:1009AC0002FA03F31946039800F02EF800BF05B0C5
:1009BC005DF804FB00B585B0019001AB1846FFF75C
:1009CC005DFF0390019B012202FA03F31946039881
:1009DC0000F024F800BF05B05DF804FB00B585B04D
:1009EC00019001AB1846FFF749FF0390019A039B56
:1009FC0002F5E07253F822301B0C03F00303DBB258
:100A0C00184605B05DF804FB82B001900091019B83
:100A1C00009AC3F8082500BF02B0704782B001905D
:100A2C000091019B009AC3F80C2500BF02B07047DF
:100A3C0086B00390029101924FF0A0430493039B64
:100A4C00059319E0059B9B0018336B4453F8083C45
:100A5C00D3F82025019B1A60059B9B0018336B442F
:100A6C0053F8083C019A1268C3F82025019B043303
:100A7C000193059B01330593039A029B1344059A3A
:100A8C009A42DFD300BF00BF06B0704700B585B0F7
:100A9C00019001AB1846FFF7F1FE0390019B012278
:100AAC0002FA03F31A46039BC3F8202500BF05B0D6
:100ABC005DF804FB84B00190019B5B090293002359
:100ACC000393029B002B03D14FF0FF33039300BF22
:100ADC00019B03F01F030193039A019B22FA03F37A
:100AEC0003F00103002B14BF01230023DBB21846D3
:100AFC0004B0704784B001900091009B0393019B5C
:100B0C00DB080293019B03F0070301930122019B75
:100B1C0002FA03F30399029A0A4412781340184616
:100B2C0004B0704784B001900091009B0393019B2B
:100B3C00DB080293019B03F007030193039A029BCA
:100B4C0013441B785AB20121019B01FA03F35BB2E7
:100B5C00134359B2039A029B1344CAB21A7000BFD2
:100B6C0004B0704782B00190074A019B13442433B0
:100B7C0093F90030B3F1FF3F14BF01230023DBB224
:100B8C00184602B0704700BF3400002082B00190BC
:100B9C000C4A019B1344243393F90030002B09DBDE
:100BAC00084A019B1344243393F90030072B01DCD2
:100BBC00012300E0002303F00103DBB2184602B06E
:100BCC00704700BF3400002084B003900291019262
:100BDC008DF80330029B59B20E4A039B1344243305
:100BEC000A461A700B49029B019A41F823209DF882
:100BFC00033083F00103DBB2002B08D0029B083BCF
:100C0C00039A51B2034A13440A4683F8442000BFA6
:100C1C0004B070473400002082B00190044A019B5C
:100C2C0013442433FE221A7000BF02B0704700BF79
:100C3C003400002082B00190044A019B13442433F9
:100C4C00FF221A7000BF02B0704700BF34000020B2
:100C5C0000B583B0019004490198FFF763FF00BF12
:100C6C0003B05DF804FB00BF7900002082B0019056
:100C7C00044A019B1344243393F90030184602B004
:100C8C00704700BF3400002082B00190034A019BE2
:100C9C0052F82330184602B0704700BF34000020D1
:100CAC0084B00190074A019B1344443393F90030FC
:100CBC008DF80F309DF80F3023F0C003184604B0A8
:100CCC00704700BF3400002084B00190074A019B9C
:100CDC001344443393F900308DF80F309DF80F30E6
:100CEC009B09DBB2184604B0704700BF34000020EB
:100CFC0000B589B00390029113468DF80730FF239D
:100D0C008DF81F309DF80730002B01D0002300E038
:100D1C00082305939DF80730002B01D0082300E031
:100D2C0009230493059B069314E00F4A069B52F883
:100D3C002330B3F1FF3F0AD19DF80730029A069990
:100D4C000398FFF741FF069B8DF81F3006E0069BCA
:100D5C0001330693069A049B9A42E6D39DF91F3001
:100D6C00184609B05DF804FB3400002082B003463D
:100D7C008DF807309DF80730094A4FF0FF3142F8E3
:100D8C0023109DF80730072B07D99DF80730083B37
:100D9C00034A1344FF2283F8442000BF02B070477B
:100DAC003400002000B583B02D4B93F84930002B54
:100DBC0003D008230093009B4EE000238DF80730EE
:100DCC0011E09DF807301846FFF774FE0346002B20
:100DDC0004D09DF807301846FFF72CFF9DF807301C
:100DEC0001338DF807309DF807301F2BE9D900230C
:100DFC008DF8073009E09DF807301846FFF7B6FF6D
:100E0C009DF8073001338DF807309DF80730082B1B
:100E1C00F1D904220021134801F064FC1248FFF7B9
:100E2C001DFC034606211846FFF720FC0E48FFF771
:100E3C0015FC03461846FFF739FC4FF4BE70FFF75C
:100E4C0065FC4FF00040FFF789FC054B012283F84D
:100E5C00492000230093009B184603B05DF804FB67
:100E6C0034000020790000200060004000B585B0FF
:100E7C00019000910198FFF71DFE0346002B04D151
:100E8C002D4940F24910FFF782FB2C4B93F8493067
:100E9C00012B04D028494FF4A570FFF778FB009B79
:100EAC00002B04D1244940F24B10FFF770FB0023B8
:100EBC0003930198FFF756FE0346002B02D008233C
:100ECC00039334E0009B9B78002B19D00122002166
:100EDC000198FFF70DFF03468DF80B309DF90B3091
:100EEC00B3F1FF3F09D09DF90B00009B1A78009BD2
:100EFC005B780199FFF784FC05E00423039302E07F
:100F0C000198FFF789FE039B002B10D1009B5B78A7
:100F1C00012B03D10198FFF739FD02E00198FFF78F
:100F2C0049FD0198FFF7F3FC0198FFF791FE039B35
:100F3C00184605B05DF804FB1028000034000020B2
:100F4C0000B583B001900198FFF7B4FD0346002B68
:100F5C0004D1144940F2B310FFF719FB0198FFF7C5
:100F6C0001FE0346002B04D10E494FF4DA70FFF753
:100F7C000EFB0198FFF70AFE0346002B04D109492A
:100F8C0040F2B510FFF703FB074A019B13442433CF
:100F9C0093F900301846FFF71BFC00BF03B05DF857
:100FAC0004FB00BF102800003400002000B583B003
:100FBC0001900198FFF77EFD0346002B04D10D49EB
:100FCC0040F2C710FFF7E3FA0198FFF7DFFD034685
:100FDC00002B04D107494FF4E470FFF7D8FA0198BD
:100FEC00FFF744FE0346DBB29B00DBB2184603B0AE
:100FFC005DF804FB1028000000B585B00190019845
:10100C00FFF7D4FF03468DF80F309DF80F301846CC
:10101C00FFF75AFB0346184605B05DF804FB00B514
:10102C0085B00190019A01210020FFF701FD0023FA
:10103C0003930BE0039B9B00019A13441B68002B4A
:10104C0001D0012306E0039B01330393039B002B88
:10105C00F0D00023184605B05DF804FB00B587B04E
:10106C000190002305935BE0344A059B1344443301
:10107C0093F90030B3F1FF3F4ED00598FFF710FE07
:10108C00049001990498FFF735FD0346002B44D0DA
:10109C000598FFF719FE03468DF80F300498FFF7FB
:1010AC009DFC03468DF80E309DF80E30022B01D1BD
:1010BC00032300E002238DF80D309DF80D30194606
:1010CC000498FFF735FC0498FFF7E0FC0498FFF751
:1010DC00CDFD03461846FFF7D7FD0290029B002B6F
:1010EC001BD09DF80F30032B0FD09DF80E30022B28
:1010FC0003D19DF80F30012B07D09DF80E30032B38
:10110C000BD19DF80F30022B07D19DF80F20029BBD
:10111C0011460498984700E000BF059B01330593E6
:10112C00059B002BA0D00198FFF779FF0346002BFD
:10113C0097D100BF00BF07B05DF804FB340000205E
:10114C0000B589B000230793002300934FF48073FC
:10115C00ADF81630012304930023069321E0BDF86B
:10116C0016301846FFF7BDFA0346002B0ED0049834
:10117C00FFF700FB0346002B08D0BDF816301846CD
:10118C00FFF7C4FA079A049B13430793049B5B0075
:10119C000493BDF816300433ADF81630069B0133BA
:1011AC000693069B072BDAD94FF4BE70FFF799FA1A
:1011BC000346002B0DD04FF4BE70FFF7A7FA079B28
:1011CC0043F0004307936B461A4601210020FFF7BA
:1011DC002FFC079BDBB2002B29D0012304930023A7
:1011EC00069321E0049A079B1340002B16D0069817
:1011FC00FFF7CCFA03900698FFF7D8FA03468DF860
:10120C000B300698FFF740FD0190019B002B05D099
:10121C009DF80B20019B114603989847049B5B009B
:10122C000493069B01330693069B072BDAD9079B85
:10123C00002B03DA6B461846FFF710FF00BF09B00E
:10124C005DF804FB82B003468DF807309DF807303B
:10125C00044A012101FA03F3C2F8043500BF02B0BD
:10126C00704700BF00F0014084B003460291019228
:10127C008DF80F3008499DF80F30A233029A41F8CF
:10128C003320054A9DF80F30A233DB001344019A3A
:10129C005A6000BF04B0704700F0014082B00346B2
:1012AC008DF807309DF80730012202FA03F3184637
:1012BC0002B0704700B583B003468DF807309DF837
:1012CC0007301846FFF7EAFF0346C3F31303002B5E
:1012DC0014BF01230023DBB2184603B05DF804FBF6
:1012EC0082B001900123184602B0704700B583B05C
:1012FC0003468DF807309DF807301846FFF7CEFFF0
:10130C0003461846FFF7ECFF0346184603B05DF89A
:10131C0004FB000000B583B003468DF807309DF840
:10132C0007301846FFF7BAFF0246064B1B681340FE
:10133C00002B14BF01230023DBB2184603B05DF869
:10134C0004FB00BF8000002000B583B003468DF87D
:10135C0007309DF807301846FFF7A0FF0246044BF4
:10136C001B681343024A136000BF03B05DF804FB13
:10137C008000002000B587B0019000230593002366
:10138C00039304230593244B039300238DF813300C
:10139C0037E00020FFF7B4F89DF813301846FFF73C
:1013AC007DFF0246039B1340002B15D09DF8133094
:1013BC001846FFF7AFFF034683F00103DBB2002BA7
:1013CC000AD09DF813301846FFF7BEFF019B9DF81D
:1013DC0013201A70002305930020FFF7A5F8059B36
:1013EC00002B12D09DF813301846FFF757FF034619
:1013FC00DB43039A134003939DF8133001338DF8AC
:10140C001330039B002BC4D100E000BF059B184692
:10141C0007B05DF804FB00BFFFFF0F0000B587B0FD
:10142C000346029101928DF80F30029B002B02D0E3
:10143C00019B002B01D10E2325E0002305939DF881
:10144C000F301846FFF736FF034683F00103DBB27B
:10145C00002B02D00723059314E09DF80F3018469B
:10146C00FFF758FF034683F00103DBB2002B02D0D9
:10147C000823059306E09DF80F30019A029918464F
:10148C00FFF7F2FE059B184607B05DF804FB00B5AC
:10149C0085B003468DF80730002303939DF8073081
:1014AC001846FFF723FF034683F00103DBB2002B42
:1014BC0002D0072303931AE09DF807301846FFF774
:1014CC00F9FE0346002B0DD09DF807301846FFF7A8
:1014DC0021FF034683F00103DBB2002B02D008236B
:1014EC00039304E09DF807301846FFF7ABFE039B0F
:1014FC00184605B05DF804FB82B003468DF8073042
:10150C009DF90730002B0CDB9DF8073003F01F0210
:10151C0005499DF907305B09012000FA02F241F8F8
:10152C00232000BF02B0704700E100E082B0034608
:10153C0000918DF807309DF90730002B0ADB009BDA
:10154C00DAB20C499DF907305201D2B20B4483F840
:10155C0000230BE0009BDAB207499DF8073003F03B
:10156C000F03043B5201D2B20B441A7600BF02B0F7
:10157C00704700BF00E100E000ED00E082B0019098
:10158C00019B1B0B5BB2184602B0704700B583B0D1
:10159C0003460A468DF8073013468DF806309DF841
:1015AC000630072B03D908496B20FEF7F0FF9DF896
:1015BC0006209DF9073011461846FFF7B7FF00BF0C
:1015CC0003B05DF804FB00BF5428000000B583B0E5
:1015DC0003468DF807309DF907301846FFF78CFF4E
:1015EC0000BF03B05DF804FB82B001900B468DF890
:1015FC0003309DF80330019A134401221A6000BF96
:10160C0002B0704784B001900B46ADF80230BDF8C3
:10161C000230019A134400221A60BDF80230019A7C
:10162C0013441B680393039B00BF04B0704782B044
:10163C0001900B46ADF80230BDF80230019A13440C
:10164C001B68002B14BF01230023DBB2184602B029
:10165C00704782B001900091019BD3F80022009B4F
:10166C001A43019BC3F8002200BF02B0704782B03E
:10167C0001900091019BD3F80022009BDB431A40A0
:10168C00019BC3F8002200BF02B0704782B00190EA
:10169C000091019B009AC3F8042300BF02B070476D
:1016AC0082B001900091019B009AC3F8082300BFFF
:1016BC0002B0704782B001900091019BD3F80423D3
:1016CC00009B1340002B14BF01230023DBB21846F0
:1016DC0002B0704782B001900B468DF80330019B2D
:1016EC00D3F8043523F003029DF8033003F0030311
:1016FC001A43019BC3F8042500BF02B0704782B0A7
:10170C0001900B468DF80330019BD3F8083523F07C
:10171C0003029DF8033003F003031A43019BC3F843
:10172C00082500BF02B0704782B001900B468DF8BF
:10173C000330019BD3F8103523F00F029DF80330D2
:10174C0003F00F031A43019BC3F8102500BF02B02E
:10175C00704784B003900B4601928DF80B309DF8C6
:10176C000B20039B02F5A872019943F8221000BFCD
:10177C0004B0704782B00190019B9B0003F5A073ED
:10178C009BB2184602B0704782B001904FF4803281
:10179C00019B02FA03F3184602B0704710B588B0EB
:1017AC00039002910192039B1B791A4613465B002E
:1017BC0013449B00704A13440693029B002B03D1E5
:1017CC006E494A20FEF7E3FE019B002B03D16B49C7
:1017DC004B20FEF7DCFE069B1B7A002B03D0082364
:1017EC000593059BC4E0039B1B68654A93420FD18C
:1017FC00029B9B78012B64D0029B9B78002B60D0C2
:10180C00029B9B78022B5CD0029B9B78032B58D0BD
:10181C00039B1B685B4A93420FD1029B9B78012B65
:10182C004FD0029B9B78002B4BD0029B9B78022BBA
:10183C0047D0029B9B78032B43D0039B1B68524AD7
:10184C0093420FD1029B9B78012B3AD0029B9B7841
:10185C00002B36D0029B9B78022B32D0029B9B78BC
:10186C00032B2ED0039B1B68484A93420FD1029B3B
:10187C009B78012B25D0029B9B78002B21D0029BBF
:10188C009B78022B1DD0029B9B78032B19D0039BBA
:10189C001B683F4A93420FD1029B9B78012B10D0BF
:1018AC00029B9B78002B0CD0029B9B78022B08D0C0
:1018BC00029B9B78032B04D030495F20FEF767FE18
:1018CC0000E000BF069B019A1A60029B5A68069BB7
:1018DC005A6000238DF81F3010E0039B1C689DF8A4
:1018EC001F301846FFF746FF034619462046FFF700
:1018FC0089FE9DF81F3001338DF81F30039B5B79F7
:10190C009DF81F209A42E8D3039B1B681846FFF7EB
:10191C0035FE03461A46029BDB7819461046FFF744
:10192C0035FE039B1B681846FFF728FE0346184636
:10193C00FFF74CFE039B1A68029B5B781946104616
:10194C00FFF7C8FE039B1A68029B9B78194610464A
:10195C00FFF7D5FE039B1A68029B1B7819461046AD
:10196C00FFF7E2FE069B01221A7200230593059BEA
:10197C00184608B010BD00BF840000208428000069
:10198C00008000400090004000A0004000A00140FA
:10199C0000B0014000B583B00190019B1B79194642
:1019AC00114A0B465B000B449B00134408331B7815
:1019BC00012B03D00D498F20FEF7E9FD019B1B681D
:1019CC0000211846FFF710FE019B1B791946064AA9
:1019DC000B465B000B449B001344083302221A7025
:1019EC0000BF03B05DF804FB8400002084280000D5
:1019FC0010B586B0039001921A460B468DF80B3049
:101A0C0013468DF80A309DF80B301846FFF7BCFED4
:101A1C0005909DF80A30002B12D0039B1C689DF892
:101A2C000B301846FFF7A6FE034619462046FFF773
:101A3C00E9FD039B1B6805991846FFF727FE05E097
:101A4C00039B1B6805991846FFF72AFE039B1B682E
:101A5C009DF80B10019A1846FFF77BFE00BF06B0ED
:101A6C0010BD00B585B0039001921A460B468DF857
:101A7C000B301346ADF80830039B18689DF80B30FB
:101A8C004FF480729A409DF80B30012101FA03F358
:101A9C0013431946FFF7EBFD039B1B68BDF80820A9
:101AAC0011461846FFF7D5FD9DF818309DF80B1020
:101ABC00019A0398FFF79CFF00BF05B05DF804FB8B
:101ACC0000B587B00390029113468DF807300023C0
:101ADC008DF8173030E09DF817301846FFF74AFEA6
:101AEC000346ADF814309DF817301846FFF74CFE3E
:101AFC000490BDF8143019460398FFF798FD03467F
:101B0C00002B14D004990398FFF7D4FD0346002B47
:101B1C000DD0BDF8143019460398FFF773FD029BE6
:101B2C001B68029A5168BDF81420104698479DF81E
:101B3C00173001338DF817309DF817209DF80730BA
:101B4C009A42C8D300BF00BF07B05DF804FB000089
:101B5C0008B5042202490348FFF7B2FF00BF08BDD5
:101B6C00840000200080004082B001900B46ADF84C
:101B7C000230BDF80230019A1344184602B0704787
:101B8C0082B00190019BD3F81035DBB2184602B03D
:101B9C00704700002DE9F04F87B001908DF80310CD
:101BAC009DF803100591019900200E46074630461A
:101BBC0039464FF0000A4FF0000B4FEA411B4BEA3D
:101BCC00D06B4FEA401A50465946821B61EB070313
:101BDC004FF000004FF00001990041EA9271900023
:101BEC0002460B4612EB060843EB07094FF00002C6
:101BFC004FF000034FEAC91343EA58634FEAC81287
:101C0C009046994642464B460599C1F12006A1F1F2
:101C1C00200022FA01F403FA06F6344323FA00F00A
:101C2C00044323FA01F5CDE90245DDE90223012B3A
:101C3C0004D305494FF43170FEF7A9FC029B1846FA
:101C4C0007B0BDE8F08F00BFC828000000B583B016
:101C5C0001900B46ADF80230019B1B68BDF80220C9
:101C6C0011461846FFF780FF0346184603B05DF88F
:101C7C0004FB00B583B001900091019B1B681846D2
:101C8C00FFF77EFF034619460098FFF783FF0346D4
:101C9C00184603B05DF804FB82B003460091ADF822
:101CAC00063000BF02B0704700B591B000230F930F
:101CBC00FEF784FC0F900F9B0E930E9B002B04D011
:101CCC00474A1D210E98FEF7C7FB4648FFF752FB0B
:101CDC000F900F9B0D930D9B002B04D0404A20219D
:101CEC000D98FEF7B9FBFFF75DF80F900F9B0C9367
:101CFC000C9B002B04D03A4A24210C98FEF7ACFB29
:101D0C00394A04AB1268114619800233120C1A704E
:101D1C0004AB19461120FFF7A9F80F900F9B0B93FA
:101D2C000B9B002B04D02E4A27210B98FEF794FB1B
:101D3C002E4A02AB92E8030083E8030002AB2C4A64
:101D4C0019462C48FFF72AFD0F900F9B0A930A9B0C
:101D5C00002B04D0224A2D210A98FEF77DFB4FF46C
:101D6C0096712448FFF785FF099001230093012306
:101D7C00099A00211F48FFF774FE4FF4A0711D480B
:101D8C00FFF764FF08901120FFF736F90790154B09
:101D9C001B78079A08991846FFF740FB0F900F9B8A
:101DAC000693069B002B04D00D4A36210698FEF7AD
:101DBC0053FB0C4B1B781846FFF769FB0F900F9BDE
:101DCC000593059B002B04D0054A3A210598FEF794
:101DDC0043FB1120FFF7B4F800BF11B05DF804FB12
:101DEC00F828000090000020402900004429000041
:101DFC00A51C00000000002008B5FFF755FF0248A5
:101E0C00FFF7C8FDFEE700BF00000020BFF34F8FB7
:101E1C0000BF064BDB6803F4E0620449044B134338
:101E2C00CB60BFF34F8F00BF00BFFDE700ED00E0BC
:101E3C000400FA0582B01D4B1B68B3F1FF3F0AD1B9
:101E4C001B4B1B68DBB201931A4B1B681B0903F07D
:101E5C000F03009305E0154B1B680193164B1B6891
:101E6C000093019B062B1DD1009B033B042B17D821
:101E7C0001A252F823F000BF991E00009D1E000025
:101E8C00A11E0000A51E0000A91E000001230AE0EF
:101E9C00012308E0012306E0012304E0012302E012
:101EAC00012300E00023184602B0704730010010F7
:101EBC00E00F00F0E80F00F03401001082B0174B77
:101ECC001B68DBB20193164B1B681B0903F00F0355
:101EDC000093019B062B1DD1009B033B042B17D8B1
:101EEC0001A252F823F000BF091F00000D1F0000D3
:101EFC00111F0000151F0000191F000001230AE02C
:101F0C00002308E0002306E0002304E0002302E0A5
:101F1C00002300E00023184602B07047E00F00F0E9
:101F2C00E80F00F082B01D4B1B68B3F1FF3F0AD1E4
:101F3C001B4B1B68DBB201931A4B1B681B0903F08C
:101F4C000F03009305E0154B1B680193164B1B68A0
:101F5C000093019B062B1DD1009B033B042B17D830
:101F6C0001A252F823F000BF891F00008D1F000052
:101F7C00911F0000951F0000991F000001230AE02B
:101F8C00012308E0012306E0012304E0012302E021
:101F9C00012300E00023184602B070473001001006
:101FAC00E00F00F0E80F00F03401001082B0174B86
:101FBC001B68DBB20193164B1B681B0903F00F0364
:101FCC000093019B062B1DD1009B033B042B17D8C0
:101FDC0001A252F823F000BFF91F0000FD1F000002
:101FEC0001200000052000000920000001230AE068
:101FFC00002308E0002306E0002304E0002302E0B5
:10200C00002300E00023184602B07047E00F00F0F8
:10201C00E80F00F082B01D4B1B68B3F1FF3F0AD1F3
:10202C001B4B1B68DBB201931A4B1B681B0903F09B
:10203C000F03009305E0154B1B680193164B1B68AF
:10204C000093019B062B1DD1009B033B042B17D83F
:10205C0001A252F823F000BF792000007D2000007F
:10206C0081200000852000008920000001230AE067
:10207C00012308E0012306E0012304E0012302E030
:10208C00012300E00023184602B070473001001015
:10209C00E00F00F0E80F00F03401001082B0174B95
:1020AC001B68DBB20193164B1B681B0903F00F0373
:1020BC000093019B062B1DD1009B033B042B17D8CF
:1020CC0001A252F823F000BFE9200000ED2000002F
:1020DC00F1200000F5200000F920000001230AE0A7
:1020EC00002308E0002306E0002304E0002302E0C4
:1020FC00002300E00023184602B07047E00F00F008
:10210C00E80F00F082B0174B1B68DBB20193164B43
:10211C001B681B0903F00F030093019B062B1DD1B9
:10212C00009B033B042B17D801A252F823F000BFED
:10213C005121000055210000592100005D210000B3
:10214C006121000001230AE0002308E0002306E0DF
:10215C00002304E0002302E0002300E000231846E3
:10216C0002B07047E00F00F0E80F00F082B01D4B9A
:10217C001B68B3F1FF3F0AD11B4B1B68DBB2019309
:10218C001A4B1B681B0903F00F03009305E0154B5A
:10219C001B680193164B1B680093019B062B1DD1EA
:1021AC00009B033B042B17D801A252F823F000BF6D
:1021BC00D1210000D5210000D9210000DD21000033
:1021CC00E121000000230AE0002308E0012306E0DF
:1021DC00012304E0012302E0012300E00023184660
:1021EC0002B0704730010010E00F00F0E80F00F073
:1021FC003401001082B01D4B1B68B3F1FF3F0AD1B4
:10220C001B4B1B68DBB201931A4B1B681B0903F0B9
:10221C000F03009305E0154B1B680193164B1B68CD
:10222C000093019B062B1DD1009B033B042B17D85D
:10223C0001A252F823F000BF592200005D220000D9
:10224C0061220000652200006922000001230AE0DF
:10225C00012308E0012306E0012304E0012302E04E
:10226C00012300E00023184602B070473001001033
:10227C00E00F00F0E80F00F03401001082B01D4BAD
:10228C001B68B3F1FF3F0AD11B4B1B68DBB20193F8
:10229C001A4B1B681B0903F00F03009305E0154B49
:1022AC001B680193164B1B680093019B062B1DD1D9
:1022BC00009B033B042B17D801A252F823F000BF5C
:1022CC00E1220000E5220000E9220000ED220000DE
:1022DC00F122000001230AE0012308E0012306E0BB
:1022EC00012304E0012302E0012300E0002318464F
:1022FC0002B0704730010010E00F00F0E80F00F062
:10230C003401001082B0154B1B680193144B1B68F1
:10231C000093019B062B1DD1009B033B042B17D86C
:10232C0001A252F823F000BF492300004D23000006
:10233C0051230000552300005923000000230AE01C
:10234C00002308E0002306E0012304E0012302E05F
:10235C00012300E00023184602B070473001001042
:10236C003401001082B0154B1B680193144B1B6891
:10237C000093019B062B1DD1009B033B042B17D80C
:10238C0001A252F823F000BFA9230000AD230000E6
:10239C00B1230000B5230000B923000000230AE09C
:1023AC00002308E0002306E0002304E0012302E000
:1023BC00012300E00023184602B0704730010010E2
:1023CC003401001008B5FFF7CDFF0346002B07D0F2
:1023DC004FF010234FF08042D3F80832C2F8583532
:1023EC0000BF08BD00BF044BD3F80034002BFAD05B
:1023FC0000BF00BF704700BF00E0014000B583B0D4
:10240C000190054A019BC2F80435FFF7EBFF00BFB2
:10241C0003B05DF804FB00BF00E00140024B034A2F
:10242C001A6000BF704700BF080000200090D00366
:10243C0008B5FFF7FFFC0346002B06D0964B1B6834
:10244C001B0A964A03F01F031360FFF737FD034680
:10245C00002B02D0924B934A1A60FFF763FD0346A0
:10246C00002B06D0904B1B685B0B904A03F00703C4
:10247C001360FFF79BFD0346002B05D08C4BDB68EC
:10248C008B4A23F08073D360FFF7C4FD0346002B07
:10249C000ED04FF080430022C3F80C214FF0804344
:1024AC000022C3F810214FF080430022C3F83825D6
:1024BC00FFF7F4FD0346002B02D07E4B03221A607B
:1024CC00FFF720FE0346002B0BD07B4B05221A6036
:1024DC007A4B01221A607A4B00221A60794B3F2208
:1024EC001A60FFF743FE0346002B76D04FF0805363
:1024FC00754AD3F80434C2F820354FF08053724A31
:10250C00D3F80834C2F824354FF080536E4AD3F810
:10251C000C34C2F828354FF080536B4AD3F8103482
:10252C00C2F82C354FF08053674AD3F81434C2F8F4
:10253C0030354FF08053644AD3F81834C2F8343530
:10254C004FF08053604AD3F81C34C2F840354FF03A
:10255C0080535D4AD3F82034C2F844354FF0805391
:10256C00594AD3F82434C2F848354FF08053564AB0
:10257C00D3F82834C2F84C354FF08053524AD3F874
:10258C002C34C2F850354FF080534F4AD3F83034C6
:10259C00C2F854354FF080534B4AD3F83434C2F858
:1025AC0060354FF08053484AD3F83834C2F864355C
:1025BC004FF08053444AD3F83C34C2F868354FF09E
:1025CC008053414AD3F84034C2F86C354FF08053F5
:1025DC003D4AD3F84434C2F87035FFF70BFE03467E
:1025EC00002B05D0394B1B68394A03F04F0313609D
:1025FC00FFF744FE0346002B0DD04FF08043D3F879
:10260C00003403F00103002B05D04FF080436FF032
:10261C000102C3F80024FFF775FE0346002B05D01A
:10262C002C4B1B682B4A43F4806313602A4BD3F862
:10263C008830294A43F47003C2F88830BFF34F8FB7
:10264C0000BFBFF36F8F00BFFFF7BCFE4FF010232E
:10265C00D3F80032002B05DB4FF01023D3F80432F3
:10266C00002B15DA0120FFF7C9FE4FF010231522BD
:10267C00C3F80022FFF7B6FE4FF010231522C3F863
:10268C000422FFF7AFFE0020FFF7B8FEFFF7BEFBFA
:10269C00FFF7C4FE00BF08BD240300104035014005
:1026AC0074C007400DF0ADBA440200103C05004068
:1026BC00F0ED00E0A00500401056004088560040A8
:1026CC00185600401456004000C00040580200103C
:1026DC00E40E00403C17004000ED00E000220B002F
:1026EC0011001A0084465AB3830704D000F8011B6A
:1026FC00013AF9D124E0C9B241EA012141EA014190
:10270C00202A11D3203A2DE9F0030B460C460D4636
:10271C000E460F4688468946A0E8FA03203AFBD2BB
:10272C00BDE8F00320320BD0042A05D340F8041B7B
:10273C00043A05D0042AF9D200F8011B013AFBD166
:10274C0060467047072904D90023024AC0E90031CA
:08275C0010607047940000209A
:10276400463A5C6E5246355F53444B5F31372E31E7
:102774002E305F646464653536305C636F6D706FF2
:102784006E656E74735C6C69627261726965735CA8
:102794007574696C5C6170705F7574696C5F706C82
:1027A4006174666F726D2E63000000002E2E2F2E52
:1027B4002E2F2E2E2F2E2E2F2E2E2F2E2E2F696EB5
:1027C400746567726174696F6E2F6E7266782F6EAE
:1027D4007266785F676C75652E6800002E2E2F2E4A
:1027E4002E2F2E2E2F2E2E2F2E2E2F2E2E2F6D6F80
:1027F40064756C65732F6E7266782F68616C2F6ECA
:1028040072665F6770696F2E68000000463A5C6EFE
:102814005246355F53444B5F31372E312E305F645F
:102824006464653536305C6D6F64756C65735C6EBD
:102834007266785C647269766572735C7372635CE9
:102844006E7266785F6770696F74652E630000004E
:102854002E2E2F2E2E2F2E2E2F2E2E2F2E2E2F2E8F
:102864002E2F696E746567726174696F6E2F6E7254
:1028740066782F6E7266785F676C75652E680000E7
:10288400463A5C6E5246355F53444B5F31372E31C6
:102894002E305F646464653536305C6D6F64756CCE
:1028A40065735C6E7266785C647269766572735C7B
:1028B4007372635C6E7266785F74696D65722E63A1
:1028C400000000002E2E2F2E2E2F2E2E2F2E2E2FD8
:1028D4002E2E2F2E2E2F6D6F64756C65732F6E72D6
:1028E40066782F68616C2F6E72665F74696D6572AD
:1028F4002E680000463A5C6E5246355F53444B5F87
:1029040031372E312E305F646464653536305C6552
:1029140078616D706C65735C4D7970726F6A656314
:10292400745C74696D65725F7070695F6770696FFC
:1029340074655C6D61696E2E630000000300010024
:0829440004000306000000007E
:0C294C0000800040000400000090D00358
:040000030000037185
:00000001FF
