:020000022000DC
:10600000000001205D630200456302004DA702000D
:10601000496302004B6302004D6302000000000070
:106020000000000000000000000000004F630200BC
:106030005163020000000000536302005563020038
:106040000151030057630200DD6C0300DD7F030094
:1060500057630200716A0300615D03005763020029
:106060005763020057630200576302005763020040
:106070005763020015710300576302005763020063
:106080005763020031880200576302005763020021
:106090005763020057630200051C040057630200A7
:1060A00057630200576302005763020065780300DC
:1060B0005763020057630200000000000000000068
:1060C00057630200576302005763020057630200E0
:1060D000576302005763020057630200000000008C
:1060E00000000000000000000000000000000000B0
:1060F00000000000000000000000000000000000A0
:10610000000000000000000000000000000000008F
:10611000000000000000000000000000000000007F
:10612000000000000000000000000000000000006F
:10613000000000000000000000000000000000005F
:10614000000000000000000000000000000000004F
:10615000000000000000000000000000000000003F
:10616000000000000000000000000000000000002F
:10617000000000000000000000000000000000001F
:10618000000000000000000000000000000000000F
:1061900000000000000000000000000000000000FF
:1061A00000000000000000000000000000000000EF
:1061B00000000000000000000000000000000000DF
:1061C00000000000000000000000000000000000CF
:1061D00000000000000000000000000000000000BF
:1061E00000000000000000000000000000000000AF
:1061F000000000000000000000000000000000009F
:10620000314932480A1A02D0072291438D4630495B
:1062100030480A1A06D00722914381F309880222E6
:1062200082F314882C482D492D4A00F03CF82D4863
:106230002D492E4A00F037F82D482E492E4A00F0FD
:1062400032F82E482E492F4A00F02DF82E482F49BB
:106250002F4A00F028F82F482F49304A00F023F841
:106260002F483049304A00F01EF8304830490022AB
:1062700000F024F82F483049002200F01FF82F4A80
:1062800090471F481F49884205D00268043003B474
:10629000904703BCF7E700208646EC46002000212B
:1062A000274A9047FEE7884207D0521A05D0037864
:1062B00001300B700131013AF9D17047884202D0A8
:1062C00002700130FAE770470000012000E0002072
:1062D000000001200000012050E40500147C002093
:1062E000087F0020B8630200B86302008C3205000A
:1062F00050E40500147C0020147C00209C3805002C
:106300009C3805009C3805009C3805009C38050029
:106310009C3805009C3805009C38050050E40500B9
:1063200044E70500087F0020087F0020087F002048
:10633000C0A50020C0A50020C4A5002085630200E0
:10634000B10E0400FEE7FEE7FEE7FEE7FEE7FEE72C
:10635000FEE7FEE7FEE7FEE700F002B8FFF7FCBF4E
:106360000F484FF00701884385460E4880470E4886
:10637000016841F470010160BFF34F8FBFF36F8F6D
:10638000FFF73EBF09480A490A4A884207D0521A15
:1063900005D0037801300B700131013AF9D1704713
:1063A0000000012079C8040088ED00E0583605009F
:0863B000D0790020147C0020CC
:1063B80000487047B8A5002000B587B003460A46D4
:1063C8008DF8073013468DF8063000238DF8173006
:1063D800002304939DF8073018460DF0D3FF04906E
:1063E800049B032B62D89DF80630022B52D0022B57
:1063F8005CDC002B31D0012B58D13549049A134667
:106408005B0013440B441B788DF817303049049A0D
:1064180013465B0013440B4401331B78002B0ED04A
:106428002C4B2D4A4FF48041184601F09FFC0390F5
:10643800039B002B03D1284A9DF807301370244989
:10644800049A13465B0013440B4402331978234A19
:10645800049B13440A461A7028E01E4B184601F0A4
:10646800DDFC1E4A049B134419781948049A134604
:106478005B001344034402331B78994215D1144935
:10648800049A13465B0013440B4402331B788DF8BF
:1064980017300AE00E49049A13465B0013440B4474
:1064A80001331B788DF8173000E000BF9DF81730D6
:1064B800002B09D00A4B1B68002B05D0084B1B6822
:1064C8009DF817201046984700BF07B05DF804FBF9
:1064D800187F0020587C0020247F0020287F00207F
:1064E800147F002000B583B00190019B1B78022126
:1064F8001846FFF761FF00BF03B05DF804FB00001A
:1065080000B583B00C4B1B78002B0FD000230193F0
:1065180008E0019B022B02D001980DF0A5FE019B1B
:1065280001330193019B032BF3D901E00DF0B6FE73
:1065380000BF03B05DF804FB107F00202DE9D04FA9
:1065480092B003468DF83F30002311930023109337
:10655800CC4B1B78002B04D0CA4A00231370FFF7DA
:10656800CFFF9DF83F30172B00F23F8201A252F86F
:1065780023F000BFDD650200F5650200F565020045
:10658800916602002D670200A96702003D680200BB
:106598005D6802006D68020099680200B768020031
:1065A800D5680200F368020001690200016902006F
:1065B800016902000169020001690200956902008F
:1065C800A3690200B7690200CB690200E56902000D
:1065D800E5690200FFF794FFAB4B184601F01EFC7B
:1065E8001190AA4A9DF83F301370FFE100200DF08A
:1065F800F3FD0346002B0DD000200DF035FE9DF86D
:106608003F30022B02D14FF4E16301E04FF47A638B
:1066180010930BE000200DF00DFE9DF83F30022B8B
:1066280001D1C82301E04FF4C8731093974A9DF82D
:106638003F301370944C109B0022009301924FF04E
:1066480000024FF00003DDE900673946CB0331460D
:1066580043EA51433146CA0312F57A71029143F174
:10666800000303934FF4FA624FF00003DDE90201DF
:1066780028F0F0F902460B46134600221946204638
:1066880001F074FB1190B1E100200DF0A5FD034667
:10669800002B0DD000200DF0E7FD9DF83F30032BB7
:1066A80002D14FF4487301E04FF47A6310930BE082
:1066B80000200DF0BFFD9DF83F30032B01D1C8230A
:1066C80001E04FF4C8731093704A9DF83F3013707F
:1066D8006D4C109B0022049305924FF000024FF07E
:1066E8000003DDE904673946CB03314643EA5143E9
:1066F8003146CA0312F57A71069143F100030793F4
:106708004FF4FA624FF00003DDE9060128F0A2F920
:1067180002460B46134600221946204601F026FB86
:10672800119063E100200DF057FD0346002B06D0C1
:1067380000200DF099FD4FF47A63109305E00020D6
:106748000DF078FD4FF4C8731093504A9DF83F3010
:1067580013704D4C109B00229A4693464FF000024E
:106768004FF000034FEACB3343EA5A434FEACA32A9
:1067780012F57A71089143F1000309934FF4FA6214
:106788004FF00003DDE9080128F064F902460B46E2
:10679800134600221946204601F0E8FA119025E137
:1067A80000200DF019FD0346002B0CD000200DF041
:1067B8005BFD9DF83F30052B01D1C82301E04FF464
:1067C8007A6310930BE000200DF034FD9DF83F3004
:1067D800052B01D1C82301E04FF4C87310932B4A4D
:1067E8009DF83F301370284C109B00229846914624
:1067F8004FF000024FF000034FEAC93343EA584311
:106808004FEAC83212F57A710A9143F100030B93EB
:106818004FF4FA624FF00003DDE90A0128F01AF993
:1068280002460B46134600221946204601F09EFAFE
:106838001190DBE000200DF057FD144A9DF83F3021
:106848001370114B002240F26661184601F08EFA6F
:106858001190CBE000200DF0EDFC0C4A9DF83F3084
:106868001370C3E0074B01221A7001200DF03CFDA4
:10687800054B002240F26661184601F077FA119044
:10688800B4E000BF097F0020187C0020087F0020AA
:10689800594B01221A7001200DF026FD574B00229A
:1068A8004FF40051184601F061FA11909EE0524BE6
:1068B80001221A7001200DF017FD504B002240F202
:1068C8006661184601F052FA11908FE04A4B012296
:1068D8001A7001200DF008FD484B00224FF40051BA
:1068E800184601F043FA119080E00DF0EAFC444AA2
:1068F8009DF83F30137079E0424B184601F08EFA4C
:1069080011909DF83F30C3F111031093109B002B99
:1069180035D0119B002B32D1109B012B28D9394C33
:10692800109B9BB21A46C82302FB03F3DA171E46D4
:1069380017464FF000024FF00003FB0343EA5643AB
:10694800F20312F57A710C9143F100030D934FF4A1
:10695800FA624FF00003DDE90C0128F07BF80246EB
:106968000B46134600221946204601F0FFF9119004
:1069780002200DF05FFC244B01221A7036E0022041
:106988000DF072FC204B00221A702FE0FFF7B8FDC3
:106998001B4A9DF83F30137028E0FFF7B1FD002037
:1069A8000DF048FC164A9DF83F3013701EE0FFF7C3
:1069B800A7FD01200DF03EFC114A9DF83F301370F1
:1069C80014E0FFF79DFD00200DF034FC01200DF0D0
:1069D80031FC0B4A9DF83F30137007E00DF071FC55
:1069E800074A9DF83F30137000E000BF119B18461E
:1069F80012B0BDE8D08F00BF097F0020187C0020AE
:106A0800087F0020387C0020107F002000B583B06C
:106A18000190074B1B6803F00103002B04D0054BC2
:106A28001B781846FFF78AFD00BF03B05DF804FB2A
:106A38000C7F0020087F002000B583B00190022061
:106A48000DF052FC00BF03B05DF804FB00B585B043
:106A580001900091002303932A4A019B13602A4A5C
:106A6800009B1360019B03F00203002B2AD0002334
:106A7800029308E001220121029800F055F80390E2
:106A8800029B01330293029B032B02D8039B002B2A
:106A9800F0D0039B002B06D140F2333204211B486F
:106AA80000F018FC0390039B002B02D100F09AFC25
:106AB8000390039B002B05D1154A0021154801F0CE
:106AC8001BF90390019B03F00103002B14D0012054
:106AD8000DF078FC039B002B05D10F4A00210F48CD
:106AE80001F00AF90390039B002B05D10C4A012100
:106AF8000C4801F001F90390039B184605B05DF8B6
:106B080004FB00BF0C7F0020147F002030390500F3
:106B1800ED6402002C390500156A020024390500CD
:106B2800416A02002839050084B001900B468DF8AF
:106B3800033013468DF8023000230393019B032B87
:106B48003CD89DF80230012B0BD19DF80330012B66
:106B580004D1019BDBB20E33DBB200E000238DF8D9
:106B680002309DF80330022B0FD0022B23DC002BC0
:106B780016D0012B1FD11449019A13465B00134408
:106B88000B449DF802201A701AE00F49019A134627
:106B98005B0013440B4401339DF802201A700FE088
:106BA8000949019A13465B0013440B4402339DF8CC
:106BB80002201A7004E00723039301E007230393DC
:106BC800039B184604B07047187F002000B583B0B7
:106BD800012200210020FFF7A7FF0190019B002B55
:106BE80004D0019B072B01D0019B1CE00722022146
:106BF8000120FFF799FF0190019B002B04D0019B16
:106C0800072B01D0019B0EE0042202210020FFF790
:106C18008BFF0190019B002B04D0019B072B01D017
:106C2800019B00E00023184603B05DF804FB00B5A3
:106C380083B0012202210020FFF776FF0190019B1B
:106C4800002B04D0019B072B01D0019B1CE00722DD
:106C580002210120FFF768FF0190019B002B04D05F
:106C6800019B072B01D0019B0EE00A220021002086
:106C7800FFF75AFF0190019B002B04D0019B072BC3
:106C880001D0019B00E00023184603B05DF804FB27
:106C980000B585B001900091019B1B88102B02D094
:106CA800112B18D02FE01A4B1B68002B0DD1FFF7C2
:106CB8008DFF0390039B002B07D0164B1B68002BFE
:106CC80003D0144B1B6803989847114B1B6801337A
:106CD8000F4A136017E00E4B1B68013B0C4A136008
:106CE8000B4B1B68002B0DD1FFF7A1FF0390039BF3
:106CF800002B07D0074B1B68002B03D0054B1B68E4
:106D08000398984700BF00BF05B05DF804FB00BFBB
:106D1800307F00202C7F002000B583B000210020A8
:106D280014F0EAFF0190019B184603B05DF804FBDC
:106D380000B583B015F060F80190019B184603B0C8
:106D48005DF804FB84B00190019B002B0BD0019BE4
:106D5800002B13DC019B13F1380F07D0019B13F1B3
:106D6800360F07D00AE0002303930BE048F21153D3
:106D7800039307E048F21453039303E048F21653D1
:106D8800039300BF039B184604B0704700B585B055
:106D9800039002910192019902980DF0A7FE002339
:106DA800184605B05DF804FB00B589B00390029160
:106DB800039B0433079300200DF098FD0690069B73
:106DC800002B01D0069B10E0079814F007F8002369
:106DD8000093002300220749079814F082FA0590CF
:106DE8000598FFF7AFFF0690069B184609B05DF8B7
:106DF80004FB00BF956D020000B585B00190019BB2
:106E080004330393039813F0FAFF0DF0B5FD002344
:106E1800184605B05DF804FB00B587B003900291F1
:106E280001928DF80330039B04330593019A02996C
:106E3800059814F03FFB04900498FFF783FF03467E
:106E4800184607B05DF804FB00B587B003900291BF
:106E580001920093039B04330593009A01990598C6
:106E680014F0A4F904900498FFF76CFF0346184641
:106E780007B05DF804FB000084B003468DF80730C6
:106E88009DF807305B08DBB21A460D4B9B5C8DF80A
:106E98000F309DF8073003F00103002B04D09DF854
:106EA8000F301B09DBB204E09DF80F3003F00F032D
:106EB800DBB28DF80E309DF80E30184604B07047DE
:106EC800487F002084B003460A468DF807301346F1
:106ED8008DF806309DF8073003F00103002B01D030
:106EE8000F2300E0F0238DF80F309DF8073003F0F2
:106EF8000103002B04D09DF806301B01DBB201E032
:106F08009DF806308DF80E309DF807305B08DBB22F
:106F18001A46114B9A5C9DF807305B08DBB219469C
:106F28009DF80F301340DAB20B4B5A549DF80730D6
:106F38005B08DBB21A46084B9A5C9DF807305B0881
:106F4800DBB219469DF80E301343DAB2024B5A549D
:106F580000BF04B0704700BF487F002000B585B06F
:106F680003468DF807300023039310E00F4B1A688F
:106F7800039BDB0013440293029B1B789DF80720B8
:106F88009A4201D1029B0DE0039B01330393084B06
:106F98001B781A46039B9342E8DB0649882015F0C4
:106FA8000BF80023184605B05DF804FB347F002079
:106FB800387F00208439050000B585B003460A46AD
:106FC8008DF8073013468DF806309DF807301846BF
:106FD800FFF7C4FF0390039B002B0BD0039B5B6858
:106FE800002B07D0039B5B689DF806109DF80720CF
:106FF8001046984700BF05B05DF804FB2DE9F04F37
:1070080087B003460A468DF80F3013468DF80E30C8
:107018009DF80F301846FFF72FFF0346042B00F2A8
:10702800C28001A252F823F045700200B970020034
:10703800D5700200057102001B7102009DF80E3028
:10704800002B00F0AD809DF80F3001211846FFF7A6
:1070580039FF00238DF817300DF11703184600F09B
:10706800ADFF9DF80F104FF001024FF00003A1F1A2
:107078002004C1F1200003FA01F702FA04F42743BF
:1070880022FA00F0074302FA01F6494BD3E900233C
:1070980046EA020100913B430193454BDDE90012AA
:1070A800C3E900129DF81730184600F09DFF77E0FD
:1070B8009DF80E30002B01D0022200E000229DF83E
:1070C8000F3011461846FFF7FDFE6CE09DF80E30B4
:1070D800002B0CD09DF80F3003211846FFF7F2FE65
:1070E8009DF80F3001211846FFF766FF5BE09DF819
:1070F8000F3001211846FFF7E5FE54E09DF80E30E9
:10710800002B4FD19DF80F3004211846FFF7DAFE07
:1071180048E09DF80E30002B06D09DF80F30032173
:107128001846FFF7CFFE3EE09DF80F3000211846C5
:10713800FFF7C8FE9DF80F3000211846FFF73CFF07
:1071480000238DF816300DF11603184600F036FFAF
:107158009DF80F104FF001024FF00003A1F1200637
:10716800C1F1200003FA01F502FA06F6354322FAC6
:1071780000F0054302FA01F46FEA04086FEA050912
:107188000B4BD3E9002308EA020A09EA030B084B70
:10719800C3E900AB9DF81630184600F025FF02E061
:1071A80000BF00E000BF00BF07B0BDE8F08F00BF20
:1071B800407F002000B583B00648074B1B685B087A
:1071C8000022194600F0D2FD019000BF03B05DF81F
:1071D80004FB00BF787C00203C7F002000B587B00E
:1071E80001900023049328E01C4B1A68049BDB00E1
:1071F80013440593059B1B7818460EF0FDFC0346C7
:107208008DF80F30059B5B78012B0CBF0123002301
:10721800DBB21A469DF80F309A420CBF01230023B7
:107228008DF80E30059B1B789DF80E2011461846E8
:10723800FFF7E4FE049B01330493094B1B781A46BD
:10724800049B9342D0DB074BD3E90023134301D0BF
:10725800FFF7B0FF00BF07B05DF804FB347F0020E4
:10726800387F0020407F002000B587B001900B4692
:107278008DF80330019BDBB21846FFF76FFE0490D0
:10728800049B1B7818460EF0B7FC03468DF81730A0
:10729800049B5B78012B0CBF01230023DBB21A4649
:1072A8009DF817309A420CBF012300238DF80F3048
:1072B8009DF80F30002B06D0054BD3E9002313436C
:1072C80001D1FFF777FF00BF07B05DF804FB00BFEF
:1072D800407F002000B58BB003900B4601928DF8DB
:1072E8000B30019B092B01D8072367E00EF078FBD0
:1072F800034683F00103DBB2002B09D00EF00CFB30
:107308000990099B0893089B002B01D0089B55E026
:107318002C4A039B13602C4A9DF80B3013702B4AA0
:10732800019B136010220021294827F073FE294988
:107338004FF000024FF00003C1E9002331E09DF84F
:107348000B30DB00039A1344079303238DF81430A2
:1073580000238DF815309DF816306FF300038DF873
:1073680016309DF816306FF341038DF816309DF8EE
:1073780016306FF382038DF81630079B9B788DF8D3
:107388001530079B1B78184605AB134A19460EF0B3
:1073980033FB0990099B0693069B002B01D0069BA3
:1073A8000CE09DF80B305A1E8DF80B20002BC6D12F
:1073B8000A4A00210A4800F09FFC034618460BB011
:1073C8005DF804FB347F0020387F00203C7F0020DC
:1073D800487F0020407F002071720200E5710200A2
:1073E800D439050000B583B0114B1B68002B04D1BC
:1073F800104940F2351014F0DFFD002301930CE032
:107408000B4B1A68019BDB0013441B7801211846BB
:107418000EF06EFB019B01330193074B1B781A4654
:10742800019B9342ECD30023184603B05DF804FB9C
:10743800347F002084390500387F002086B003900F
:107448000291019201238DF817309DF81730204AD8
:10745800039B13601E4A029B53601D4A019B936065
:10746800039B44F20102934212D0039B44F20202AE
:10747800934220D1019B164AD360154BDB681B68E9
:10748800134A9361124BDB685B68114AD36112E0BF
:10749800019B0F4A13610E4B1B699B680C4A536191
:1074A8000B4B1B691B680A4A9361094B1B695B6894
:1074B800074AD36100BF72B600BF00BF9DF81730FE
:1074C800DBB2002BFAD162B600BF00BF06B070472E
:1074D800587F002000B583B002900091019244F2D9
:1074E800010071466A4600F003F803B000BD00BF12
:1074F80030B58BB007900691059272B600BF0BF0BD
:10750800EBFC00BF0BF04EFA0346002BFAD1079BA9
:1075180044F20202934237D0079B44F2020293429C
:107528007DD8079B44F20102934243D0079B44F263
:107538000102934273D8079B012B05D0079B41F2A8
:107548000102934210D06AE0494B5B88002B77D048
:10755800484A494BD31ADB081B0443F00103474947
:1075680018460BF095F96BE0414B5B88002B69D00E
:10757800404A414BD31ADB081B0443F0010340493E
:1075880018460BF085F95DE0059B0993384B5B883D
:10759800002B59D0374A384BD31ADB081B0443F069
:1075A8000100099B5B681A46099B1B6835490BF06B
:1075B8008EF949E0059B08932D4B5B88002B1ED064
:1075C8002C4A2D4BD31ADB081B0443F00104089BFB
:1075D8009D68089B9B6818460AF0D0FA034618462F
:1075E800089B5B681946089B1B68069A02920193E0
:1075F800009103462A46244920460BF0AAF91C4B61
:107608005B88002B22D01B4A1B4BD31ADB081B04B8
:1076180043F001031D4918460BF03AF916E0144BE4
:107628005B88002B14D0134A134BD31ADB081B04B6
:1076380043F00103069A164918460BF037F907E09C
:1076480000BF06E000BF04E000BF02E000BF00E0AA
:1076580000BF104B1B6803F00103002B00D000BED5
:10766800059A06990798FFF7E9FE00BF0BB030BDF1
:10767800547A00202C340500D4330500D83905008D
:10768800F83905001C3A0500383A0500603A05004B
:10769800743A0500F0ED00E02DE9F04383B014489A
:1076A80001F0A7F8034600221C461546114BD3E902
:1076B800002314EB020845EB0309CDE900890E4BC2
:1076C800D3E90023DDE90001904271EB030307D2FF
:1076D800DDE9002312F1807643F10007CDE9006768
:1076E800DDE900231046194603B0BDE8F08300BF6A
:1076F800987C0020807F0020887F002088B001903F
:107708000091019B0793009B0693079BD3E90223F3
:10771800CDE90423069BD3E90223CDE90223DDE961
:107728000423DDE90201904271EB03032CBF01231E
:107738000023DBB2184608B070470000F0B585B0EA
:107748000190019B5B69002B03D14349A52014F0EC
:1077580033FC00238DF80F30404B1B78002B75D07D
:10776800019B002B72D0FFF797FF019BD3E90223FF
:10777800904271EB030358D300238DF80D300DF1BF
:107788000D03184600F01AFC019B1B69002B06D15B
:1077980001994FF0FF324FF0FF33C1E902239DF802
:1077A8000D30184600F020FC019B5B69019A926934
:1077B8001046984700238DF80C3003AB184600F0AC
:1077C800FDFB019B1B69002B1AD0019BD3E9022307
:1077D800B3F1FF3F08BFB2F1FF3F11D0019BD3E9DE
:1077E80002230199096900200C460546161943EB46
:1077F8000507019BC3E9026701238DF80E3002E0FB
:1078080000238DF80E309DF80C30184600F0ECFB84
:107818009DF80E30002B19D0019B194610480AF02C
:1078280007F901238DF80F3010E0019BD3E90223FB
:10783800B3F1FF3F08BFB2F1FF3F07D0019B1946E4
:1078480007480AF0F5F801238DF80F309DF80F303E
:10785800184605B0F0BD00BFAC3A05007C7F00209B
:10786800003B050030B58BB0019000910D230793C4
:10787800009B00221A70019BD3E90223CDE904235F
:10788800FFF70AFFDDE90423141A63EB0105CDE9CC
:107898000845DDE90823012A73F1000318DB089B7A
:1078A800B3F5350F05D300F00BFB0246144B134418
:1078B80000E0049B03934FF49603039A00211148B8
:1078C80000F08AFE0790079B002B05D1012314E0E6
:1078D80000210C4800F058FF079B0D2B07D1019899
:1078E800FFF72CFF03461A46009B1A7004E006496E
:1078F8004FF4867014F060FB002318460BB030BDBF
:10790800FFFFB400987C0020AC3A050000B583B0B6
:1079180004480AF0C7F80190019B184603B05DF8C7
:1079280004FB00BF003B050000B583B004480AF023
:10793800DBF80190019B184603B05DF804FB00BF1B
:10794800003B050000B583B0FFF7E0FF0190019B05
:10795800002B06D001994FF0FF324FF0FF33C1E9F9
:107968000223019B002BEFD100BF00BF03B05DF8DD
:1079780004FB0000054BD3E9002312F1807043F1AA
:107988000001024BC3E9000100BF7047807F00205F
:1079980010B582B00190124B1B68002B1DD00198C6
:1079A80000F027FF04460021019800F013FF03466A
:1079B8001946204600F078FA0346B3F5960F04D32B
:1079C800084940F2411014F0F7FA054B1B681846B5
:1079D800FFF7B4FE024B00221A6000BF02B010BDD0
:1079E800787F0020AC3A050000B583B00190FFF71E
:1079F80053FE02460B460349C1E9002300BF03B00A
:107A08005DF804FB887F002000B585B00190FFF782
:107A18008BFF039000238DF80B30039B002B58D06D
:107A2800039BD3E90223B3F1FF3F08BFB2F1FF3F45
:107A380002D1FFF76BFF54E02E4B1B68002B03D1DC
:107A480001238DF80B301DE0039BD3E90201294B7C
:107A58001B68D3E90223904271EB030312D201237E
:107A68008DF80B30234B1B68D3E90223B3F1FF3F9A
:107A780008BFB2F1FF3F05D01E4B1B6819461E48D0
:107A880009F0D6FF9DF80B30002B2BD0FFF73EFFF7
:107A980003900DF10A0319460398FFF7E3FE034626
:107AA800002B12D0134B1B68002B02D1019800F059
:107AB8009FFC104A039B13609DF80A3083F0010372
:107AC800DBB2002BA3D000BF0FE00A4B00221A60E4
:107AD8009DE7084B1B68002B06D1019800F09EFC1F
:107AE80002E094E700BF00E000BF00BF05B05DF80A
:107AF80004FB00BF787F0020003B050000B587B07D
:107B080001902B4A03AB1946104603F058F805902C
:107B180045E0059B1B78022B2BD0022B2FDC002B7A
:107B280002D0012B11D02AE0059B5B68D3E9022320
:107B3800B3F1FF3F08BFB2F1FF3F22D0059B5B685E
:107B480019461C4809F074FF1BE0059B5A681A4B3C
:107B58001B689A4203D1184B00221A6012E0059B59
:107B68005B681946134809F0D3FF03468DF81330B4
:107B780008E0FFF7E7FE114B01221A7002E000BF90
:107B880000E000BF0A4A03AB1946104603F030F87C
:107B9800074A03AB1946104603F011F80590059BF8
:107BA800002BB6D100BF00BF07B05DF804FB00BFD3
:107BB800A07C0020003B0500787F00207C7F00200F
:107BC80000B583B00190019800F0D1FD0346002B69
:107BD80001D0FFF7CFFE0021019800F0E6FD034633
:107BE800002B02D00198FFF7D3FE0121019800F085
:107BF800DCFD0346002B02D00198FFF7F5FE019843
:107C0800FFF77CFF0198FFF7FFFE00BF03B05DF8A8
:107C180004FB000008B5024800F0F8FD00BF08BDED
:107C2800987C002000B585B0034600918DF8073098
:107C3800114A02AB1946104602F094FF0390039BC9
:107C4800002B13D0039B9DF807201A70039B009A02
:107C58005A60094A02AB1946104602F09CFF0346D7
:107C6800002B01D0FFF7D6FF002300E004231846BD
:107C780005B05DF804FB00BFA07C002000B583B010
:107C8800164B1B680093164808235822154902F022
:107C980022FF0190019B002B01D0019B19E06B464C
:107CA800114A1946114800F01BFB0190019B002B5B
:107CB80001D0019B0DE001210C4800F047FD012394
:107CC8000B4A0121094800F0BFFB0A4B01221A7038
:107CD800019B184603B05DF804FB00BFFC3A0500A1
:107CE800A07C0020907F0020C97B0200987C0020A7
:107CF800FFFF7F007C7F002000B587B003900B4614
:107D080001928DF80B30039B002B04D1164940F2E9
:107D18005A2014F051F9019B002B04D1124940F26A
:107D28005B2014F049F9019B002B01D1072317E0D0
:107D3800039B1B68059305994FF0FF324FF0FF3303
:107D4800C1E90223059B019A5A619DF80B30012B6A
:107D58000CBF01230023DBB21A46059B1A610023DE
:107D6800184607B05DF804FBAC3A0500F0B589B0D9
:107D7800039002910192039B002B04D1264940F203
:107D88006B2014F019F9039B069300238DF8173024
:107D98000DF11703184600F011F9069BD3E90223E9
:107DA800B3F1FF3F08BFB2F1FF3F11D1FFF774FCF9
:107DB80002460B46029900200C460546161943EB6D
:107DC8000507069BC3E9026701238DF81F3002E00F
:107DD80000238DF81F309DF81730184600F004F97D
:107DE8009DF81F3083F00103DBB2002B01D0002384
:107DF8000EE0069B019A9A61069B1B69002B02D034
:107E0800069B029A1A6106990020FFF70BFF0346AA
:107E1800184609B0F0BD00BFAC3A050000B587B000
:107E28000190019B002B04D11E4940F2932014F0CD
:107E3800C3F8019B049300238DF80F300DF10F0355
:107E4800184600F0BBF8049BD3E90223B3F1FF3FC7
:107E580008BFB2F1FF3F03D100238DF8173009E0C6
:107E680004994FF0FF324FF0FF33C1E90223012399
:107E78008DF817309DF80F30184600F0B5F89DF8CA
:107E8800173083F00103DBB2002B01D0002304E09C
:107E980004990120FFF7C6FE0346184607B05DF8AF
:107EA80004FB00BFAC3A050082B001900091019A32
:107EB800009BD31A23F07F43184602B07047000096
:107EC80008B5034800F095FC0346184608BD00BFF6
:107ED800987C002082B0EFF310830093009B0193FD
:107EE80072B600BF019B184602B0704762B600BF69
:107EF80000BF704700B585B00190FFF7EBFF039016
:107F0800164B9B68002B1BD1144B01229A60144B13
:107F1800D3F88020134B1340104A1360104B114ABA
:107F2800C3F880200E4BD3F884300C4A53600C4BB6
:107F38004FF0FF32C3F88420019B00221A7002E040
:107F4800019B01221A70039B002B01D1FFF7CEFF82
:107F58000023184605B05DF804FB00BFEC7F002045
:107F680000E100E0FC06FFBD00B585B003468DF8D2
:107F78000730104B9B68002B16D09DF80730002B5C
:107F880012D1FFF7A7FF03900B4A0A4B1B68136037
:107F9800094A084B5B685360064B00229A60039BB2
:107FA800002B01D1FFF7A2FF0023184605B05DF8AA
:107FB80004FB00BFEC7F002000E100E000B583B0C7
:107FC800019000F02BF80346012B03D0054943200C
:107FD80013F0F2FF0198FFF78DFF00BF03B05DF8C3
:107FE80004FB00BF0C3B050000B583B003468DF8C9
:107FF800073000F013F80346012B03D0064951203F
:1080080013F0DAFF9DF807301846FFF7ADFF00BF01
:1080180003B05DF804FB00BF0C3B050084B0EFF330
:1080280005830193019BC3F308030393039B002B70
:108038000DD1EFF314830093009B0293029B03F08E
:108048000103002B0CBF01230023DBB200E0012356
:10805800184604B07047000082B003468DF8073018
:108068009DF90730002B0CDB9DF8073003F01F0249
:1080780005499DF907305B09012000FA02F241F831
:10808800232000BF02B0704700E100E082B0034641
:108098008DF807309DF90730002B0DDB9DF8073070
:1080A80003F01F0206499DF907305B09012000FA19
:1080B80002F2403341F8232000BF02B0704700BFEE
:1080C80000E100E082B0034600918DF807309DF989
:1080D8000730002B0ADB009BDAB20C499DF9073008
:1080E8005201D2B20B4483F800230BE0009BDAB2B2
:1080F80007499DF8073003F00F03043B5201D2B241
:108108000B441A7600BF02B0704700BF00E100E0E0
:1081180000ED00E000B583B003460A468DF807304D
:1081280013468DF806309DF80630012B03D99DF8CB
:108138000630032B0BD99DF80630042B03D99DF884
:108148000630072B03D908496B2013F035FF9DF83B
:1081580006209DF9073011461846FFF7B3FF00BF08
:1081680003B05DF804FB00BF603B050000B583B0B9
:1081780003468DF807309DF907301846FFF76CFF66
:1081880000BF03B05DF804FB00B585B00190019B0A
:10819800002B0AD0074B43F001030393019B9B017B
:1081A8000293039B0298984700E000BF05B05DF872
:1081B80004FB00BF603C050084B00390029101926B
:1081C800039B029A02F5A872019943F8221000BF96
:1081D80004B0704782B001900091019B009A02F5AB
:1081E800A87253F82230184602B0704782B0019046
:1081F8000091019B009AC3F8042300BF02B07047A6
:1082080082B001900091019B009AC3F8082300BF37
:1082180002B0704782B001900B46ADF80230BDF84D
:108228000230019A13441B68184602B0704784B0A4
:1082380001900B46ADF80230BDF80230019A1344A4
:1082480000221A60BDF80230019A13441B68039398
:10825800039B00BF04B0704782B00190019BD3F824
:108268000435184602B0704700B583B001900091FC
:10827800009BB3F5805F04D306494FF4BE7013F03A
:108288009BFE019B009AC3F8082500BF03B05DF868
:1082980004FB00BF943B050082B001900B468DF8AB
:1082A80003309DF80320019B13441A4601231360F1
:1082B80000BF02B0704782B001900091019B009A04
:1082C800C3F8442300BF02B0704782B00190009108
:1082D800019B009AC3F8482300BF02B07047000012
:1082E80000B587B0039002910192039B002B03D144
:1082F8003749552013F060FE029B002B03D1344907
:10830800562013F059FE019B002B03D1304957200A
:1083180013F052FE039B5B7919462E4A019B42F8E3
:108328002130039B5B792C4ADB0013441B79002B1B
:1083380012D008230593294B5B88012B0AD9284AB8
:10834800284BD31ADB081B0443F0020326491846BE
:108358000AF09EFA059B36E0039B1A68029B1B886D
:1083680019461046FFF780FF039B93F90420029BF0
:108378009B7819461046FFF7CDFE039B93F904300E
:108388001846FFF7F3FE039B5B79134ADB0013449F
:1083980001221A71039B5B7919460F4A039B42F825
:1083A8003130002305930D4B5B88022B0AD90C4A08
:1083B8000C4BD31ADB081B0443F003030B49184684
:1083C8000AF066FA059B184607B05DF804FB00BF83
:1083D800C43B0500F87F0020FC7F00205C7A002069
:1083E8003C340500D4330500103C0500343C05003E
:1083F80000B583B00190019B002B03D1064987206B
:1084080013F0DAFD019B1B6800211846FFF744FFB3
:1084180000BF03B05DF804FBC43B050000B583B0A2
:108428000190019B002B03D106498D2013F0C4FD58
:10843800019B1B6804211846FFF72EFF00BF03B0FD
:108448005DF804FBC43B050000B587B003900291BA
:1084580001928DF80330039B002B03D1214996200C
:1084680013F0AAFD4FF48032029B02FA03F305933E
:10847800029B50339BB29B00ADF81230019B23F056
:108488007F430193039B1B6805991846FFF7B8FEC5
:10849800039B1B6805991846FFF717FF039B1B688A
:1084A800BDF8122011461846FFF7C1FE039B1B6852
:1084B800019A02991846FFF77FFE039B1B680599EE
:1084C8001846FFF7F8FE9DF80330002B05D0039BF4
:1084D8001B6805991846FFF789FE00BF07B05DF8CD
:1084E80004FB00BFC43B050000B585B003900291B2
:1084F80013468DF80730039B002B03D10B49A920A5
:1085080013F05AFD039B1B6802991846FFF7D3FE28
:108518009DF80730002B05D0039B1B68029918466D
:10852800FFF764FE00BF05B05DF804FBC43B05001F
:1085380000B583B001900091019B002B03D10A493B
:10854800B32013F039FD019B1B6800991846FFF70B
:10855800BCFE019B1B6800991846FFF751FE00BF3F
:1085680003B05DF804FB00BFC43B050000B583B051
:1085780001900B46ADF80230019B002B03D10F4947
:10858800BA2013F019FD019B1B68BDF802201146A3
:108598001846FFF73FFE0346002B09D0019B1B68D6
:1085A800BDF8022011461846FFF741FE012300E0FE
:1085B8000023184603B05DF804FB00BFC43B050068
:1085C80082B001900091019A009BD31A23F07F4357
:1085D800184602B07047000000B58BB003900291B6
:1085E80001920093039B002B03D15749CD2013F030
:1085F800E3FC4FF48032029B02FA03F30993029BD7
:1086080050339BB29B00ADF82230019B23F07F438F
:10861800019309990398FFF78BFF039B1B68184682
:10862800FFF71AFE0790039B1B6802991846FFF78D
:10863800D1FD0690039B1B68079A02991846FFF71D
:10864800BBFD039B1B68BDF8222011461846FFF7A7
:10865800EEFD07990698FFF7B3FF0346012B0AD1F1
:108668001020FFF791FD039B1B68BDF822201146DF
:108678001846FFF7DCFD039B1B681846FFF7ECFD67
:10868800079007990198FFF79BFF0590039B1B68CC
:1086980009991846FFF70FFE059B012B15D1039B7F
:1086A8001868019B01331A460299FFF785FD1020CF
:1086B800FFF76AFD039B1B681846FFF7CDFD0246CE
:1086C800079B934235D00D2339E0039B1B68019A21
:1086D80002991846FFF770FD039B1B681846FFF7C1
:1086E800BBFD0790019B013B07991846FFF768FF00
:1086F8000590009BC3F1FF1303F57F43059A9A4247
:1087080001D90D231BE0059B002B12D1039B186890
:10871800019B01331A460299FFF74EFD039B1B6824
:108728001846FFF799FD0246079B934201D00D2397
:1087380005E0012209990398FFF7D6FE00231846A1
:108748000BB05DF804FB00BFC43B050000B583B067
:1087580001900B468DF803309DF803301A4602212C
:108768000198FFF7C1FE00BF03B05DF804FB00B538
:1087780083B001904FF482710198FFF7F7FE03462A
:10878800184603B05DF804FB00B583B00190009172
:108798004FF48032009B02FA03F319460198FFF761
:1087A800C7FE00BF03B05DF804FB00B585B00190BB
:1087B8000091009B50339BB29B00ADF80E30BDF882
:1087C8000E3019460198FFF7D1FE0346184605B04A
:1087D8005DF804FB00B583B001900091019B1B6814
:1087E80000991846FFF7F6FC0346184603B05DF8F3
:1087F80004FB00B583B00190019B1B681846FFF786
:108808002BFD0346184603B05DF804FB00B583B0A2
:108818000190019B93F904301846FFF737FC00BF1D
:1088280003B05DF804FB000008B5044B1B68044A5C
:1088380012681046984700BF08BD00BFF87F0020A7
:10884800FC7F002082B00190019B03F00303002B02
:108858000CBF01230023DBB2184602B070470000AA
:1088680000B585B00190002303930EE00B4A039BEB
:1088780052F82330002B05D0084A039B52F82330C6
:1088880001989847039B01330393039B032BEDD96E
:1088980000BF00BF05B05DF804FB00BF14800020D6
:1088A80082B001900091019B1B78013B052B61D898
:1088B80001A252F823F000BFD9880200E188020023
:1088C8000789020039890200598902007589020066
:1088D800009B00221A704EE0009B01221A70019B37
:1088E8001A89009B9A81019B9A88009BDA81019BD7
:1088F800DA68009B9A60009B00221A743BE0009B98
:1089080002221A70019B1A89009B9A81019B9A88FE
:10891800009BDA81019BDA68009B9A60019B9B7D32
:10892800062B0CBF01230023DAB2009B1A7422E045
:10893800009B03221A70019BDA88009B9A81019B95
:108948001A89009BDA81019BDA68009B9A6012E021
:10895800009B04221A70019BDA88009B9A81009B75
:108968000022DA81009B00229A6004E0009B052225
:108978001A7000E000BF00BF02B0704784B00190D9
:108988000091019B0393039A009B9A4206D2039B92
:108998001B68B3F1FF3F01D0012300E0002303F07F
:1089A8000103DBB2184604B0704782B00190019B06
:1089B8005B8803339B00019A1344184602B0704742
:1089C80000B583B0019000910198FFF7EEFF0246D1
:1089D800009B934201D2022311E0019B9B884FF632
:1089E800FF72934208D0019B1B88002B04D0019B87
:1089F8009B68B3F1FF3F01D1012300E00023184633
:108A080003B05DF804FB000000B583B00190019B42
:108A1800002B13D00D4BDB681A46019B93420DD3F4
:108A28000A4B1B691A46019B934207D80198FFF726
:108A380009FF0346002B01D0012300E0002303F0C7
:108A48000103DBB2184603B05DF804FB007C00208C
:108A580082B00190019B002B04D0019B1B680B4A3C
:108A6800934201D003230DE0019B04331B68084A9D
:108A7800934204D0074A934203D1012302E0002322
:108A880000E00323184602B0704700BFDEC0ADDE29
:108A9800FE011EF1FF011EF184B00190019B1B68CD
:108AA800B3F1FF3F06D0019B1B680E4A934201D0E9
:108AB800002314E0012303930CE0039B9B00019A1D
:108AC80013441B68B3F1FF3F01D0002307E0039B69
:108AD80001330393039BB3F5806FEED3012318464C
:108AE80004B07047DEC0ADDE82B003460A46ADF87A
:108AF80006301346ADF80430BDF806201349134676
:108B08009B0013449B000B4408331A88BDF80430BB
:108B18001344ADF80430BDF806200C4913469B00F9
:108B280013449B000B440A331A88BDF804301344DD
:108B3800ADF80430BDF80430B3F5806F94BF01235D
:108B48000023DBB2184602B0704700BFB480002093
:108B580084B00190009148F2096303930023ADF8B3
:108B68000A3027E0BDF80A20164913469B00134433
:108B78009B000B4404331B68009A9A4215D9BDF830
:108B88000A20104913469B0013449B000B440433EE
:108B98001B6803F58053009A9A4206D20023039378
:108BA800019BBDF80A201A8008E0BDF80A3001339D
:108BB800ADF80A30BDF80A30012BD3D9039B18460B
:108BC80004B07047B480002000B589B003900291CA
:108BD8000192039B03F580530693039B0833039389
:108BE800029B02221A80039B079332E0069907989A
:108BF800FFF7E6FE03468DF817309DF81730002B77
:108C08000AD1079B9A68184B1B689A4213D9079B8D
:108C18009B68154A13600EE0019B002B02D0019B54
:108C280001221A709DF81730022B04D1029B4FF4D1
:108C380080621A8014E0029B1A88079B5B881344A1
:108C48009BB203339AB2029B1A800798FFF7ADFED6
:108C5800079006990798FFF791FE0346002BC5D1A8
:108C680009B05DF804FB00BF2480002082B00190A9
:108C78000091009B9B7D022B09D9019B1A89009BBF
:108C8800DB8813449BB203339AB2019B1A81019B80
:108C98005A89009BDB88D31A9BB2033B9AB2019B8B
:108CA8005A8100BF02B0704700B583B0074B1B68FC
:108CB8001946002300930823054A064807F026F9B9
:108CC8000346184603B05DF804FB00BFDC800020B3
:108CD800BC3C0500007C002000B585B003900399DA
:108CE800002300930823044A044807F00FF90346B9
:108CF800184605B05DF804FBC43C0500007C002064
:108D080000B585B003460091ADF8063000238DF814
:108D18000F30BDF806300333ADF80A30BDF80A301D
:108D280040F2FE32934202D948F208634BE0002336
:108D3800ADF80C303BE0BDF80C20254913469B00EC
:108D480013449B000B441B78002B2BD1BDF80A2041
:108D5800BDF80C3011461846FFF7C6FE0346002B37
:108D680020D001238DF80F30009BBDF80C201A800D
:108D7800BDF80C20164913469B0013449B000B4476
:108D88000A331988BDF80C20BDF80A300B4498B294
:108D98000F4913469B0013449B000B440A330246B9
:108DA8001A8008E0BDF80C300133ADF80C30BDF87E
:108DB8000C30012BBFD99DF80F30002B01D00023B8
:108DC80001E048F20663184605B05DF804FB00BFF1
:108DD800B480002082B003460A46ADF80630134638
:108DE800ADF80430BDF804200D4913469B00134428
:108DF8009B000B440A331A88BDF80630D31A9BB27D
:108E0800BDF80420033B98B2054913469B00134460
:108E18009B000B440A3302461A8000BF02B0704719
:108E2800B480002008B50121024802F050F803463A
:108E3800184608BD2480002000B585B0034600917F
:108E4800ADF80630BDF80620244913469B001344AC
:108E58009B000B4404331B6803F580530293009B6B
:108E68001B680393039B002B04D00398FFF79DFD19
:108E7800039026E0BDF80620184913469B001344CA
:108E88009B000B4404331B680833039319E00299D1
:108E98000398FFF795FD0346022B10D0022B10DC38
:108EA800002B02D0012B05D00BE0009B039A1A601F
:108EB80001230EE00398FFF778FD039001E00023FB
:108EC80007E002990398FFF759FD0346002BDED10E
:108ED8000023184605B05DF804FB00BFB4800020ED
:108EE80000B585B001900091019B5B681846FFF7BB
:108EF8008BFD0346002B19D0019B1A89244B1B8933
:108F08009A4213D1019B1A68019B5B689B689A423D
:108F18000CD1019B5B6819460098FFF719FE0346C0
:108F2800002B0CBF01230023DBB22CE0009B0022A6
:108F38001A8023E00023029310E0029B0393039B13
:108F48009A68019B1B689A4208D1029A019B5A6051
:108F58000F4B1A89019B1A81012314E0009B1B887F
:108F680002AA11461846FFF767FF0346002BE4D113
:108F7800009B1B8801339AB2009B1A80009B1B88B8
:108F8800012BD7D90023184605B05DF804FB00BFB4
:108F9800E480002000B587B003900291019200930D
:108FA800324B1B78DBB283F00103DBB2002B02D01B
:108FB80048F2016355E0019B002B02D0009B002B77
:108FC80049D148F204634CE0009B9B881946284A23
:108FD8000B469B000B449B0013441B78002B33D19A
:108FE80024E0009B1B680593039B002B06D0059B80
:108FF8009A88039B1B889A4200D017E0029B002B9B
:1090080006D0059B1A88029B1B889A4200D00DE067
:10901800059B9A68019B1A60009B1A68019B5A601D
:10902800144B1A89019B1A8100231AE0009B9B8824
:10903800009A11461846FFF7FFFE0346002BD0D1D1
:10904800009B00221A6000E000BF009B9B88013350
:109058009AB2009B9A80009B9B88012BB4D948F256
:109068000963184607B05DF804FB00BF04800020C0
:10907800B4800020E480002000B587B002910192FE
:1090880000930346ADF80E30BDF80E203249134662
:109098009B0013449B000B4404331B68083305935F
:1090A800BDF80E202C4913469B0013449B000B442B
:1090B80004331B6803F58053049342E00499059830
:1090C800FFF77EFC0346022B25D0022B38DC002B51
:1090D80016D0012B34D1019B1B8801339AB2019B16
:1090E8001A80009B1A88059B5B8813449BB2033344
:1090F8009AB2009B1A800598FFF757FC059020E06C
:10910800029B1B8801339AB2029B1A800598FFF7CD
:109118004CFC059015E0019B1B8801339AB2019B1A
:109128001A80009B1A880499059BCB1A9B109BB246
:1091380013449AB2009B1A80089B01221A7007E018
:1091480000BF04990598FFF719FC0346002BB5D119
:1091580007B05DF804FB00BFB480002000B585B0FF
:109168000190084B0199184601F0FCFC03901C2261
:109178000021039825F04EFF039B184605B05DF8C3
:1091880004FB00BFB47C002000B583B00190044B01
:109198000199184601F0FFFC00BF03B05DF804FB1D
:1091A800B47C002000B583B00190054B01991846A6
:1091B80001F005FD0346184603B05DF804FB00BF47
:1091C800B47C002000B583B00190044B0199184687
:1091D80001F00EFD00BF03B05DF804FBB47C002075
:1091E80008B50A4B1B68002B04D109494FF42470B9
:1091F80012F0E2FE0121054801F081FE0346002B32
:1092080014BF01230023DBB2184608BD0C800020E0
:10921800783C050000B587B0002305930023ADF81E
:1092280012300323ADF8103000238DF80F300023DF
:10923800ADF80C30F7E0BDF80C301A03824BDB6850
:10924800134402930298FFF703FC03468DF8073096
:109258009DF80730032B08D0032B00F3DE80002B8A
:1092680065D0012B00F09880D7E00298FFF714FC36
:109278000346002B3BD0754B1B68002B29D0BDF84B
:109288001220734913469B0013449B000B4402228F
:109298001A70BDF812206E4913469B0013449B00B8
:1092A8000B440433029A1A60BDF812206849134629
:1092B8009B0013449B000B44083302221A80654A22
:1092C800BDF812305380BDF812300133ADF81230BA
:1092D80008E05E4A029B13605C4B02229A800123DD
:1092E8008DF80F30059B43F00103059396E0BDF818
:1092F8001030013BADF81030BDF812205449134628
:109308009B0013449B000B440433029A1A60BDF877
:1093180012204F4913469B0013449B000B44032221
:109328001A70BDF812300133ADF8123076E0BDF88E
:109338001220474913469B0013449B000B4400220C
:109348001A70BDF81220424913469B0013449B0033
:109358000B440433029A1A60BDF8122013469B008E
:1093680013449B0008333A4A9918BDF81220134653
:109378009B0013449B001033354A13441A46029845
:10938800FFF722FC059B43F002030593BDF812305A
:109398000133ADF8123041E09DF80F30002B29D091
:1093A800BDF812202A4913469B0013449B000B4426
:1093B80002221A70BDF81220244B1968244813465B
:1093C8009B0013449B00034404331960BDF812202A
:1093D8001F4913469B0013449B000B440833022289
:1093E8001A801C4ABDF812305380BDF81230013380
:1093F800ADF81230154A029B1360002216490298F4
:10940800FFF7E2FB114B9B88022B01D1042300E0FC
:109418000823059A1343059300E000BFBDF80C30FC
:109428000133ADF80C30BDF80C30022B7FF603AFDA
:10943800BDF81030012B01D800230593059BDBB242
:10944800184607B05DF804FB007C0020DC80002093
:10945800B4800020E4800020E080002000B587B0C0
:1094680003900291039B02229A750299039B1A1D8D
:10947800002300930423074806F048FD0590059B48
:10948800002B01D1002301E048F20D63184607B014
:109498005DF804FB007C002000B587B003900291C2
:1094A800039B1B69002B01D0032200E00122039BD0
:1094B8009A75029B08331946039B03F10C0200239B
:1094C80000930423074806F021FD0590059B002B17
:1094D80001D1002301E048F20D63184607B05DF89A
:1094E80004FB00BF007C002000B587B00390029108
:1094F800039B1B78032B01D1052200E00622039B66
:109508009A75029B04331946039B03F10802002352
:1095180000930423074806F0F9FC0590059B002BEF
:1095280001D1002301E048F20D63184607B05DF849
:1095380004FB00BF007C002000B587B003900B46F9
:10954800ADF80A3003990023009304230D4A0E480E
:1095580006F0DCFC0590059B002B02D048F20D6359
:109568000BE0BDF80A20094913469B0013449B00F1
:109578000B44103301221A700023184607B05DF817
:1095880004FB00BFCC3C0500007C0020B480002018
:1095980000B589B0019002AB00221A605A609A6047
:1095A800019BDB6802930DF1160202AB11461846C7
:1095B800FFF796FC0346002B12D0039B0693069BED
:1095C8009A88019BDA80069B1A88019B1A81039B63
:1095D800BDF8162011461846FFF7AEFF079002E0C7
:1095E80048F209630793079B184609B05DF804FB26
:1095F80000B587B00190019B981D02AA0D4B002170
:10960800FFF7C8FC0590059B002B08D1039B094A6E
:10961800928811461846FFF78FFF059004E008224C
:109628000021044825F0F6FC059B184607B05DF8B4
:1096380004FB00BFF480002000B587B003900291BE
:10964800039B01229A75029B0C331846039B1A69E7
:10965800039BDB889B00002100910146074806F028
:1096680055FC0590059B002B01D1002301E048F231
:109678000D63184607B05DF804FB00BF007C0020AE
:1096880082B0184B1B8901339AB2164B1A81154BBD
:1096980000225A80134B00221A730023ADF80630BB
:1096A80018E0BDF80620104913469B0013449B00A0
:1096B8000B441A78BDF80630002A0CBF012200229C
:1096C800D1B2084A13440A469A72BDF806300133EB
:1096D800ADF80630BDF80630012BE2D900BF00BF57
:1096E80002B07047E4800020B480002084B001906C
:1096F80000238DF80F300023ADF80C3031E0BDF8B1
:109708000C301C4A13449B7A002B25D0BDF80C3032
:10971800184A134400229A72BDF80C2016491346C1
:109728009B0013449B000B440C331B68002B13D184
:10973800BDF80C20104913469B0013449B000B44B2
:1097480010331B78002B07D0019BBDF80C201A8022
:1097580001238DF80F3008E0BDF80C300133ADF867
:109768000C30BDF80C30012BC9D99DF80F301846C4
:1097780004B07047E4800020B480002008B5084B8E
:1097880005221A70074B02229A80064B1B6819465D
:1097980000230122044806F0BDFC0346184608BD14
:1097A800E4800020DC800020007C002000B583B02D
:1097B800164B5B88ADF80230BDF8022014491346F9
:1097C8009B0013449B000B440C331B68002B14D1E3
:1097D8000E4B04221A70BDF802200D4913469B0057
:1097E80013449B000B4404331B68194600230122D1
:1097F800084806F08FFC019002E0FFF7BFFF0190D8
:10980800019B184603B05DF804FB00BFE48000200C
:10981800B4800020007C002000B587B0104B5B6846
:109828000593104B1A680F4B9B889B0013440493B5
:10983800059B5B880333ADF80E30094B03221A7081
:109848000499074B5A68BDF80E309B000020009021
:10985800054806F05BFB0346184607B05DF804FBB5
:10986800E4800020DC800020007C002000B583B06C
:109878000A4B5B880A491846FFF7DEFA0346002BB5
:1098880003D0FFF7C9FF019002E0FFF78FFF0190B7
:10989800019B184603B05DF804FB00BFE48000207C
:1098A800E880002008B50A4B06221A70084B5B882E
:1098B8001946084A0B469B000B449B00134404338B
:1098C8001B681846FFF708FA0346184608BD00BF8C
:1098D800E4800020B480002008B5054B07221A70E8
:1098E800034B00225A60FFF7DFF90346184608BD0C
:1098F800E480002008B50D48FFF7F8FE034683F022
:109908000103DBB2002B0BD0094B00221A70084B65
:1099180000225A80064B00225A6041F61D5302E08D
:10992800FFF7A4FF0346184608BD00BFE6800020E5
:10993800E480002082B0094B5B680193019B5B883F
:109948000333ADF80230064B9A88BDF80230134451
:109958009AB2034B9A8000BF02B07047E48000209F
:10996800DC80002082B01E4B1B6801931D4B5B8876
:1099780019461D4A0B469B000B449B0013440433B5
:109988001B68174A1360174B5B881946164A0B4623
:109998009B000B449B0013440433019A1A60114B3B
:1099A8005B8819460E4B98880F4A0B469B000B4460
:1099B8009B001344083302461A80094B02229A80FE
:1099C800084B5B881946084A0B469B000B449B00D2
:1099D8001344103300221A7000BF02B0704700BF52
:1099E800DC800020E4800020B480002008B51A4BF9
:1099F8001B78072B2CD801A252F823F0259A0200D5
:109A0800599A0200599A0200319A02003D9A0200BE
:109A1800499A0200499A0200519A0200FFF730FE63
:109A28000D4B01221A7014E0FFF784FF0A4B022243
:109A38001A700EE0FFF796FF074B06221A7008E02F
:109A4800054B07221A7004E0034B01221A7000E04C
:109A580000BF00BF08BD00BFE480002000B587B08C
:109A68000190009148F20E630593019B002B05D0ED
:109A7800624B00225A604FF40643BAE0009B1B7900
:109A8800032B00F2A98001A252F823F0A59A020044
:109A9800B39A0200419B0200619B0200009B0122D5
:109AA8001A71FFF701F9059099E000238DF813303A
:109AB8000023ADF810302BE0BDF8102050491346B4
:109AC8009B0013449B000B441B78022B1BD1BDF851
:109AD80010204B4913469B0013449B000B44002263
:109AE8001A7001238DF81330BDF81020444913462D
:109AF8009B0013449B000B4404331B681846FFF774
:109B0800EBF8059008E0BDF810300133ADF81030DF
:109B1800BDF81030012BCFD99DF8133083F0010325
:109B2800DBB2002B5AD0354B01221A70334B00227E
:109B38005A6041F61D535CE0009B00221A71314BBC
:109B480002229A802F4B1B681946002301222E48B7
:109B580006F0E0FA059042E0009B00221A712B4BB8
:109B68005B88ADF80E30274B1B680293BDF80E20BA
:109B7800234913469B0013449B000B4404331B6882
:109B8800204A1360BDF80E201D4913469B0013445C
:109B98009B000B440433029A1A60BDF80E20194B3F
:109BA8009888174913469B0013449B000B440833BD
:109BB80002461A80134B02229A80BDF80E201049E3
:109BC80013469B0013449B000B4400221A70029812
:109BD800FFF782F8059002E000BF00E000BF059B98
:109BE800002B05D0054B00225A6048F20D6300E0B7
:109BF8000023184607B05DF804FB00BF048000206E
:109C0800B4800020DC800020007C0020E48000205C
:109C180000B587B001900091009B9B8A1A461346B5
:109C28009B0013449B003B4A13440493019B002B65
:109C380006D000990498FFF719F84FF4064364E03A
:109C4800049B5A68049B1B899B0013440393009B45
:109C58009B7D062B4DD801A252F823F0A99C020047
:109C6800CD9C0200B59C0200C19C0200819C0200B0
:109C7800D99C0200F39C0200274B00225A60009BEB
:109C88009B69254A136025492348FFF729F90346AC
:109C980083F00103DBB2002B02D048F2096334E001
:109CA80003990098FFF7DAFB059026E003990098DE
:109CB800FFF7F2FB059020E003990098FFF7BCFC42
:109CC80005901AE003990098FFF70EFC059014E040
:109CD800009B06229A75104B5B68104A1288114641
:109CE8001846FFF729FC059007E041F61D53059338
:109CF80003E048F20E63059300BF059B002B03D0D9
:109D080000990498FEF7B2FF059B184607B05DF866
:109D180004FB00BFB4800020FC80002008810020E4
:109D280000B585B001900091019B002B02D04FF443
:109D3800064329E0009B1B79022B1BD0022B1DDC5C
:109D4800002B02D0012B08D018E0009B02221A71C8
:109D58000098FFF71DFC039015E00098FFF748FCFA
:109D68000390039B48F2096293420BD141F61D53BD
:109D7800039307E041F61D53039304E048F20E6392
:109D8800039300E000BF039B184605B05DF804FB91
:109D980000B585B00190019B002B02D04FF406431B
:109DA8003DE0214B1B7B002B03D01F4B00221A7375
:109DB80001E0FFF71BFE1C4B1B78013B062B29D843
:109DC80001A252F823F000BFED9D0200F59D0200AC
:109DD800FD9D0200059E02001D9E02000D9E0200D0
:109DE800159E0200FFF786FD039017E0FFF73EFD82
:109DF800039013E0FFF710FD03900FE0FFF7D6FC88
:109E080003900BE0FFF74EFD039007E0FFF764FDBA
:109E1800039003E048F20E63039300BF039B1846C8
:109E280005B05DF804FB00BFE480002000B589B0F0
:109E38000190404B1B68002B05D13F48FFF7B2F952
:109E480003463C4A13603B4B1B68002B04D13B493B
:109E58004FF4B46012F0B0F8364B1B681B78013B26
:109E6800052B2CD801A252F823F000BF8D9E0200CA
:109E78009D9E02009D9E0200AD9E0200AD9E0200C6
:109E8800BD9E02002B4B1B6819460198FFF7E6FDA3
:109E9800019018E0274B1B6819460198FFF7B8FE98
:109EA800019010E0234B1B6819460198FFF738FF13
:109EB800019008E00198FFF76BFF019003E048F27A
:109EC8000E63019300BF019B002B2BD003AB002234
:109ED8001A605A609A60DA601A61019B41F61D5255
:109EE800934201D0019B00E000230493114B1B68AF
:109EF80003AA11461846FEF7D3FC03AB1846FEF733
:109F0800AFFC0C4B00221A60002301930A48FFF7AC
:109F180059F9FFF765F9034683F00103DBB2002B1B
:109F280002D186E700BF00E000BF00BF09B05DF8BE
:109F380004FB00BF0C81002010810020783C050044
:109F480008B50121054800F0AAFF0346002B02D1FD
:109F58000020FFF76BFF00BF08BD00BF0C8000208A
:109F680000B583B00190019B5B681846FFF75EFF60
:109F780000BF03B05DF804FB00B58BB003900291FD
:109F880001928DF803300023ADF824300023ADF89A
:109F98002630534B1B78DBB283F00103DBB2002B76
:109FA80002D048F2016397E0029B002B02D148F2ED
:109FB800046391E0029B1B884FF6FF72934203D023
:109FC800029B5B88002B02D148F2036384E0029B6A
:109FD8005B681846FEF736FC034683F00103DBB2E4
:109FE800002B02D048F2026376E0019B002B11D1CE
:109FF800029B9B68ADF826300DF11A02BDF8263099
:10A0080011461846FEF77CFE0890089B002B09D0E5
:10A01800089B61E0019B1B88ADF81A30019B5B88A7
:10A02800ADF8263005AB1846FFF798F80790079B60
:10A03800002B0AD1BDF81A20BDF826301146184663
:10A04800FEF7C8FE48F2076346E0079B9DF8032029
:10A058001A70079B00229A75BDF81A20079B9A82EE
:10A06800029B5A68079B1A61FEF7DCFE0246079BB3
:10A07800DA60029B1A88079B1A81029B5A88079B01
:10A088009A80079BBDF82620DA809DF80330032BC1
:10A0980006D1079B04229A75039B1A68079B9A614D
:10A0A800079BBDF824205A8105AB1846FFF76CF8CA
:10A0B800039B002B0DD0039B00225A60079BDA6894
:10A0C800039B1A60039B00229A72064B1A89039B12
:10A0D8001A81FFF735FF002318460BB05DF804FB23
:10A0E80004800020E480002000B585B001900C4B6E
:10A0F8001B68042B03D148F20B6303930BE0084B56
:10A108001B680849019A41F823200121044800F0FE
:10A11800DEFE00230393039B184605B05DF804FB9D
:10A12800108000201480002084B040F6F8731B686B
:10A13800B3F1FF3F02D10F4B1B6802E040F6F87302
:10A148001B6803934FF080531B6902934FF08053B1
:10A158005B690193039BB3F1FF3F04D1019B029A12
:10A1680002FB03F300E0039B0093009B184604B036
:10A17800704700BF1410001000B583B04FF440536F
:10A188000193FFF7D1FF0346054A1361044B1A698F
:10A19800019BD31A024AD36000BF03B05DF804FBE9
:10A1A800007C002008B5FFF7E7FF002203490448B8
:10A1B80005F05AFE0346184608BD00BFBC4E050010
:10A1C800007C002008B504481C238C22034900F0B9
:10A1D80082FC00BF08BD00BFB47C0020288000209E
:10A1E80000B58BB002AB00221A605A609A60DA6040
:10A1F8001A61454B1B78DBB2002B05D002AB184621
:10A20800FEF72EFB00237BE0404800F090FE03465B
:10A21800002B01D0002373E0FFF7C4FF0990099BCE
:10A22800002B01D0099B6BE0FFF7CCFFFEF7F2FF94
:10A2380003468DF823309DF82330062B0ED0062BCD
:10A2480018DC002B01D0022B14D12F4B00221A70DE
:10A258002D4B00225A6048F20A6351E02A4B012232
:10A268001A70294B00225A6002AB1846FEF7F8FA1A
:10A27800002345E000BF01AB1846FEF76FFF0790CB
:10A28800079B002B02D148F2076339E0079B0122A4
:10A298001A709DF82330013B0A2B29D801A252F8E5
:10A2A80023F000BFD9A20200F9A20200D9A202003D
:10A2B800F9A20200F1A20200F9A20200F1A2020032
:10A2C800F9A20200E1A20200E9A20200E1A2020052
:10A2D800079B00221A710CE0079B03221A7108E001
:10A2E800079B02221A7104E0079B01221A7100E001
:10A2F80000BF01AB1846FEF747FFFFF721FE00231A
:10A3080018460BB05DF804FB04800020088000208C
:10A3180000B585B001900091019B002B02D0009BF5
:10A32800002B02D148F204632AE00DF10A03194612
:10A338000198FEF7D5FD0346002B1FD0019B5B68F3
:10A348000393BDF80A301A4613469B0013449B003A
:10A3580008330D4A134404330121184600F0B7FDB1
:10A36800009B039A1A60019B5B6803F10C02009B37
:10A378005A60019B01229A72002301E048F20963A6
:10A38800184605B05DF804FBB480002000B585B020
:10A398000190019B002B02D148F204633BE00DF1D0
:10A3A8000A0319460198FEF79BFD0346002B2ED0A1
:10A3B800BDF80A3019461A4A0B469B000B449B000D
:10A3C80013440C331B68002B1DD0019B9B7A002B78
:10A3D80019D0BDF80A301A46114913469B00134498
:10A3E8009B000B440C331B68591E0D4813469B00F9
:10A3F80013449B0003440C331960019B00229A729A
:10A408000023039306E048F20563039302E048F251
:10A4180009630393039B184605B05DF804FB00BF6E
:10A42800B480002000B583B001900091022300227F
:10A4380000990198FFF7A0FD0346184603B05DF8A0
:10A4480004FB00B583B001900091019B002B02D161
:10A4580048F2046306E00323002200990198FFF7FD
:10A468008BFD0346184603B05DF804FB00B585B0C4
:10A478000346ADF806301A4B1B78DBB283F00103B4
:10A48800DBB2002B02D048F2016324E0BDF80630AD
:10A498004FF6FF72934202D148F203631BE002AB0E
:10A4A8001846FEF75BFE0390039B002B02D148F28F
:10A4B800076310E0039B05221A70039B01221A719F
:10A4C800039BBDF80620DA8002AB1846FEF75CFE57
:10A4D800FFF736FD0023184605B05DF804FB00BF02
:10A4E8000480002000B583B0154B1B78DBB283F0E5
:10A4F8000103DBB2002B02D048F201631BE06B467C
:10A508001846FEF72BFE0190019B002B02D148F262
:10A51800076310E0019B06221A706B461846FEF787
:10A5280033FE084B1B78002B02D0064B01221A730E
:10A53800FFF706FD0023184603B05DF804FB00BFD3
:10A5480004800020E480002000B585B002920193C9
:10A558000346ADF80E300B46ADF80C3003A90DF1EB
:10A568000E00019B029AFEF715FD0346184605B03A
:10A578005DF804FB00B585B0034602910192ADF881
:10A588000E300DF10E01019B029A0020FEF702FD2C
:10A598000346184605B05DF804FB00B585B00346D0
:10A5A80002910192ADF80E300DF10E00019B029A56
:10A5B8000021FEF7EFFC0346184605B05DF804FBE2
:10A5C80082B001900091019B002B02D0009B002BD0
:10A5D80002D148F2046304E0019B1A68009B1A60E8
:10A5E8000023184602B0704710B586B003904FF4A8
:10A5F8008063ADF814300023ADF812304F4B1B7850
:10A60800DBB283F00103DBB2002B02D048F2016316
:10A6180091E0039B002B02D148F204638BE01222E5
:10A628000021039824F0F6FC039B03221A800023E0
:10A63800ADF816307AE0BDF81620414913469B0064
:10A6480013449B000B4408331988BDF816203C4876
:10A6580013469B0013449B0003440A331B880B4496
:10A66800ADF81030BDF81620354913469B00134449
:10A678009B000B4404331B681846FEF7E9F90346B0
:10A68800032B05D1039B1B88013B9AB2039B1A80BD
:10A69800BDF816202A4913469B0013449B000B441F
:10A6A8000C331968039B5A888BB213449AB2039BE4
:10A6B8005A80039B1989BDF81620214813469B0030
:10A6C80013449B0003440A331B880B449AB2039B30
:10A6D8001A81039B5A89BDF8103013449AB2039B20
:10A6E8005A81BDF81420BDF81030D31AADF81230D5
:10A6F800039B9B89BDF812209A4203D9039BBDF89E
:10A7080012209A81039B191D039B9A1D039B03F139
:10A718000E04039B1033BDF8160000932346FEF782
:10A72800ABFCBDF816300133ADF81630BDF8163065
:10A73800012B80D90023184606B010BD04800020E4
:10A74800B48000201EF0040F1CBFEFF309800AE05C
:10A75800EFF308800549064A884201D8904202D89A
:10A768008D464FF00000034B184700000000012001
:10A7780000E00020B9A7020000BF00BFBFF34F8F61
:10A7880000BF064BDB6803F4E0620449044B134343
:10A79800CB60BFF34F8F00BF00BFFDE700ED00E0C7
:10A7A8000400FA0500B583B00190FFF7E7FF000049
:10A7B80010B588B0039008F08FFB00BF08F0F2F8DE
:10A7C8000346002BFAD1039B0693684B9B6A0593BB
:10A7D800069B002B41D0664B5B88002B0CD0654A4A
:10A7E800654BD31ADB081B0443F00100069B9B69E9
:10A7F8001A46624908F05AF85D4B5B88002B15D061
:10A808005C4A5D4BD31ADB081B0443F00100069B2E
:10A818001968069B5C68069B9B68069AD268019239
:10A82800009323460A46564908F07BF8504B5B884C
:10A83800002B21D04F4A504BD31ADB081B0443F09E
:10A848000100069B1A69069B5969069BDB69009300
:10A858000B464C4908F04FF80EE0454B5B88002B3F
:10A868000AD0444A444BD31ADB081B0443F00103C3
:10A878004549184608F00CF83C4BDB6A03F0020324
:10A88800002B0ED03A4B5B88002B0AD0394A3A4B42
:10A89800D31ADB081B0443F001033C49184607F0B0
:10A8A800F7FF0023079324E00122079B02FA03F332
:10A8B8001A46059B1340002B18D0354A079B52F8BF
:10A8C8002330002B12D02A4B5B88002B0ED0294A4C
:10A8D800294BD31ADB081B0443F001002C4A079BC1
:10A8E80052F823301A462B4907F0E0FF079B013343
:10A8F8000793079B192BD7D9059B03F08003002BDF
:10A9080010D01B4B5B88002B0CD01A4A1A4BD31A59
:10A91800DB081B0443F00103144A526B1E49184616
:10A9280007F0C4FF059B03F40043002B10D0104B25
:10A938005B88002B0CD00F4A0F4BD31ADB081B0483
:10A9480043F00103094A926B1449184607F0AEFF19
:10A95800134B1B6803F00103002B00D000BE0398C3
:10A96800FFF720FF00BF08B010BD00BF00ED00E0FA
:10A97800A47A0020CC340500D4330500DC3C050063
:10A98800F43C05002C3D0500543D0500883D0500BC
:10A99800C87C0020CC3D0500D83D0500F83D0500E9
:10A9A800F0ED00E086B001900091019B53E8011F93
:10A9B8008AB2D88902449889824228BF121A188913
:10A9C800824202BFBFF32F8F002307E0C2EA0102D1
:10A9D80043E801200028E9D14FF001038DF80F303A
:10A9E800059002910492029A009B1A609DF80F301C
:10A9F800DBB2184606B0704784B00190019951E85F
:10AA0800013FC3EA034341E80132002AF7D1039228
:10AA1800029300BF04B0704786B001900091019B7B
:10AA280053E8021F1FFAA1F2D888824202BFBFF37F
:10AA38002F8F00230DE0D88902449889824228BFCD
:10AA4800121AC1EA024243E802200028E8D14FF076
:10AA580001038DF80F30059002910492029A009B31
:10AA68001A609DF80F30DBB2184606B0704784B004
:10AA78000190019951E8023FC3EA234341E80232B9
:10AA8800002AF7D10392029300BF04B0704786B042
:10AA98000190019B53E8021FDA88B1EB314F4FF068
:10AAA800000017BF89B242EA024241EA024204E0CA
:10AAB8005968B1EB314F08BF012043E80221002952
:10AAC800E8D18DF80F00059104929DF80F30DBB2A4
:10AAD800184606B0704784B00390029111461A4692
:10AAE8000B46ADF806301346ADF80430029B002B38
:10AAF80001D10E231FE0BDF80630BDF80420B3FBDA
:10AB0800F2F101FB02F29B1A9BB2002B01D0092340
:10AB180011E0039B029A1A60039B00225A60039B70
:10AB280000229A60039BBDF806209A81039BBDF81A
:10AB38000420DA810023184604B0704700B585B0B8
:10AB480001900198FFF7A3FF03468DF80F309DF899
:10AB58000F30002B01D0002300E01123184605B068
:10AB68005DF804FB00B585B001900091009B194683
:10AB78000198FFF717FF0346002B07D0019B1B68BE
:10AB8800009A128813440393039B00E0002318469D
:10AB980005B05DF804FB00B583B001900091009BFF
:10ABA8001A88009B5B889A4204D10198FFF724FF1A
:10ABB800012300E00023184603B05DF804FB00B54C
:10ABC80085B001900091009B19460198FFF724FF7A
:10ABD8000346002B07D0019B1B68009A5288134438
:10ABE8000393039B00E00023184605B05DF804FBBF
:10ABF80000B583B001900091009B1A88009B5B8888
:10AC08009A4204D10198FFF732FF012300E00023A4
:10AC1800184603B05DF804FB00B585B001900091BB
:10AC2800009B5B099B00019A1A44009B03F01F03D9
:10AC3800012101FA03F31946104600F0E8F80390E1
:10AC480000BF05B05DF804FB00B583B0019000912A
:10AC5800009B5B099B00019A1A44009B03F01F03A9
:10AC6800012101FA03F31946104600F0B8F802462C
:10AC7800009B03F01F0322FA03F303F00103002BE8
:10AC880014BF01230023DBB2184603B05DF804FBB0
:10AC980000B585B001900091009B5B099B00019A6B
:10ACA8001A44009B03F01F03012101FA03F3DB435D
:10ACB8001946104600F0DBF8039000BF05B05DF8B8
:10ACC80004FB82B001900091009B5B099B00019AF4
:10ACD80013441A68009B03F01F0322FA03F303F0DE
:10ACE8000103002B14BF01230023DBB2184602B076
:10ACF800704700B58DB00190009100230B934BE095
:10AD08000B9B9B00019A13441B68DB430793079B2B
:10AD180093FAA3F30693069B0893089B002B01D193
:10AD2800202303E0089BB3FA83F3DBB20A932BE0FA
:10AD38000B9B5B010A9A13440993099A009B9A4258
:10AD480026D209990198FFF77FFF034683F0010394
:10AD5800DBB2002B01D0099B26E00B9B9B00019ADC
:10AD680013441B68DB430493049B93FAA3F30393F4
:10AD7800039B0593059B002B01D1202303E0059B32
:10AD8800B3FA83F3DBB20A930A9B1F2BD0D900E0F6
:10AD980000BF0B9B01330B93009B013B5B09013305
:10ADA8000B9A9A42ACD3009B18460DB05DF804FB91
:10ADB80010B487B001900091019B009A53E8004FAE
:10ADC800104643E8000191F0000FF7D10594049074
:10ADD8000391059B184607B05DF8044B704710B403
:10ADE80087B001900091019B009A53E8004F44EA14
:10ADF800020043E8000191F0000FF6D10594049099
:10AE08000391059B184607B05DF8044B704710B4D2
:10AE180087B001900091019B009A53E8004F44EAE3
:10AE2800020043E8000191F0000FF6D10594049068
:10AE38000391049B184607B05DF8044B704710B4A3
:10AE480087B001900091019B009A53E8004F04EAF3
:10AE5800020043E8000191F0000FF6D10594049038
:10AE68000391059B184607B05DF8044B704710B472
:10AE780087B001900091019B009A53E8004F04EAC3
:10AE8800020043E8000191F0000FF6D10594049008
:10AE98000391049B184607B05DF8044B704710B443
:10AEA80087B001900091019B009A53E8004F04EB92
:10AEB800020043E8000191F0000FF6D105940490D8
:10AEC8000391059B184607B05DF8044B704710B412
:10AED80087B001900091019B009A53E8004F04EB62
:10AEE800020043E8000191F0000FF6D105940490A8
:10AEF8000391049B184607B05DF8044B704710B4E3
:10AF080087B001900091019B009A53E8004FA4EB91
:10AF1800020043E8000191F0000FF6D10594049077
:10AF28000391049B184607B05DF8044B704700B5C1
:10AF380083B0019001210198FFF751FF034618469D
:10AF480003B05DF804FB00B583B0019001210198BE
:10AF5800FFF75DFF0346184603B05DF804FB00B534
:10AF680083B0019000210198FFF769FF0346184656
:10AF780003B05DF804FB00B583B00190002101988F
:10AF8800FFF775FF0346184603B05DF804FB0000A1
:10AF980000B583B00190019B002B04D1054940F214
:10AFA800451011F009F8019B1B681B79184603B07E
:10AFB8005DF804FBF442050000B583B00190019BE5
:10AFC800002B04D1074940F2551010F0F5FF019B02
:10AFD8009A68019B1B681B68D31ADBB2184603B03A
:10AFE8005DF804FBF442050082B00190019B9B6868
:10AFF800D3F84831C3F34003DBB2002B14BF01235D
:10B008000023DBB2184602B07047000000B597B0C5
:10B018000B900A9109920B98FFF7E6FF0346002B65
:10B0280005D0002200210B9803F01AF961E00A9B71
:10B03800012B05D9304A02210B9802F0E5FF58E0B0
:10B048002E4A2F4BD31A9B082E4AA2FB0323149394
:10B058000023159349E0159A1346DB009B1A9B00C1
:10B068001A46274B13441393139B1B8B1293139B62
:10B078001B8B1A46129BD31A1193139B9A68139B26
:10B088005B68D31A10931398FFF782FF03460F9358
:10B098001398FFF791FF03460E93139B5B690D937B
:10B0A8000E9B642203FB02F2109BB2FBF3F30F9A90
:10B0B800642102FB01F1109AB1FBF2F21099079199
:10B0C8000F9906910592109A04920E9A0392029390
:10B0D800119B0193129B00930D9B0B4A08210B981F
:10B0E80002F092FF159B01331593159A149B9A420F
:10B0F800B1D317B05DF804FB4443050000360500E2
:10B10800AC350500254992245843050000B583B0A5
:10B1180001900B468DF80330019B002B03D10849A1
:10B12800E82010F049FF019BDA689DF80330019987
:10B13800098B01FB03F31344184603B05DF804FBC5
:10B148003C44050000B583B001900091019B002BA1
:10B1580003D10849F52010F02FFF009B019AD2680F
:10B168009B1A019A128BB3FBF2F3DBB2184603B0B9
:10B178005DF804FB3C44050000B585B00190019BD7
:10B18800002B01D10E234CE0019B1B68002B03D13F
:10B198002649FF2010F010FF019B5B68002B04D1AB
:10B1A80022494FF4807010F007FF019B9B68002B29
:10B1B80004D11E4940F2011010F0FEFE019BDB682D
:10B1C800002B04D119494FF4817010F0F5FE019B52
:10B1D8001B8B002B04D1154940F2031010F0ECFE34
:10B1E800019B9A68019B5B68D31A8DF80F30019B0D
:10B1F8001B68019A52681A6007E0019B1A68136875
:10B20800591C11609DF80F201A709DF80F305A1EB6
:10B218008DF80F20002BF0D1019B1B6800221A71BA
:10B228000023184605B05DF804FB00BF3C44050048
:10B2380000B585B00190019B002B04D11F494FF444
:10B24800927010F0B9FE0023039300238DF80A30A2
:10B258000DF10A031846FCF7B1FE019B1B681A683A
:10B26800019B5B689A421FD9019B1B681A68013AC7
:10B278001A601B681B7819460198FFF747FF03906F
:10B28800019B9A68019B1B681B68D31A8DF80B30C9
:10B29800019B1B681B799DF80B209A4204D9019BDE
:10B2A8001B689DF80B201A719DF80A301846FCF7A8
:10B2B8009BFE039B184605B05DF804FB3C44050063
:10B2C80010B584B001900091019B002B04D1154961
:10B2D80040F2471010F070FE009B002B04D111497A
:10B2E8004FF4A47010F068FE009B039300238DF8C0
:10B2F8000B300DF10B031846FCF760FE019B1B6831
:10B308001C68621C1A6003990198FFF71BFF03462B
:10B3180023709DF80B301846FCF766FE00BF04B09A
:10B3280010BD00BF3C44050082B00190019BDB6862
:10B3380001225A7100BF02B0704782B00190019B90
:10B348009B68D3F84831C3F34003DBB2002B14BF2A
:10B3580001230023DBB2184602B0704700B585B060
:10B368000190019B002B0AD0074B43F00103039384
:10B37800019B9B010293039B0298984700E000BF42
:10B3880005B05DF804FB00BF504B050000B583B065
:10B398000190019B1B69184604F098F900BF03B09F
:10B3A8005DF804FB82B00190019B9A68B2F84831BD
:10B3B80043F00203A2F8483100BF02B0704782B0E0
:10B3C8000190019B9A68B2F848316FF34103A2F8E3
:10B3D800483100BF02B0704782B00190019B9A6863
:10B3E800B2F8483143F00803A2F8483100BF02B070
:10B3F800704782B00190019B9A68B2F848316FF3A8
:10B40800C303A2F8483100BF02B0704782B0019070
:10B41800019B9B68D3F84831C3F3C003DBB21846DD
:10B4280002B0704782B00190019B9B68D3F8483105
:10B43800C3F38713DBB2184602B0704782B001909D
:10B448000B468DF80330019B9A689DF80310B2F8FB
:10B45800483161F38D13A2F8483100BF02B070473C
:10B4680082B001900B468DF80330019B9B689DF8D4
:10B4780003205A7000BF02B0704700B583B0019036
:10B48800019B002B04D0019823F05EFD034600E0E9
:10B498000023184603B05DF804FB82B00190019BBD
:10B4A8009B68002283F82020019B9B680022DA77A2
:10B4B800019B9B6800229A7700BF02B0704710B5C5
:10B4C80082B00190019B9B68DB7F1C46019B1B6837
:10B4D8001846FFF7D2FF03462344019A9268527E2A
:10B4E800B3FBF2F101FB02F29B1A002B0CBF012304
:10B4F8000023DBB2184602B010BD10B582B001902F
:10B50800019B9B689B7F1C46019B1B681846FFF7A5
:10B51800B4FF03462344019A9268527EB3FBF2F1CA
:10B5280001FB02F29B1A002B0CBF01230023DBB2A4
:10B53800184602B010BD000010B588B00390029103
:10B5480001920093039B002B02D0029B002B03D196
:10B558002D49F42010F030FD039B5B681B68002B1D
:10B5680003D12949F52010F027FD002307933EE079
:10B57800039B5B681B68DC68039B5868029A079BFF
:10B58800D11805AB019AA0470690069B002B03D063
:10B598001D49FF2010F010FD059B019A9A4204D224
:10B5A80019494FF4807010F007FD059B079A134462
:10B5B8000793059B019AD31A0193059B002B16D17B
:10B5C800039B9B681B78032B11D000BF039B9B68D0
:10B5D800D3F84831C3F34013DBB2002BF6D0039BFA
:10B5E8009A68B2F848316FF34513A2F84831019BC5
:10B5F800002BBDD1009B002B02D0059A009B1A603E
:10B6080000BF08B010BD00BFC444050000B583B03A
:10B6180001900B468DF80330019B1B699DF80320B0
:10B628000349184604F074F800BF03B05DF804FB42
:10B638000C45050010B586B0039002910192009365
:10B64800039B002B02D0029B002B04D10D4940F232
:10B65800231010F0B1FC039B5B68002B04D109494F
:10B668004FF4927010F0A8FC039B5B681B681C6980
:10B67800039B5868009B019A0299A047059000BF58
:10B6880006B010BDC444050000B589B0039002910E
:10B6980001920093009B002B04D13B494FF49C700E
:10B6A80010F08AFC0A9B002B04D1374940F239106C
:10B6B80010F082FC029B002B34D1344A344BD31A4D
:10B6C800DB08019A9A4229D200230693314B05934D
:10B6D800002307931BE0079BDB002D4A13440693C6
:10B6E800019B9B00059A13441A68069B5B681B68BC
:10B6F8001946104623F0DCFB0346002B04D1069BB9
:10B708005A68009B1A603CE0079B013307931F4A65
:10B718001F4BD31ADB08079A9A42DCD3009B0022FE
:10B728001A602EE0039B002B03D1009B00221A60B5
:10B7380027E0039B1B78002B10D0039B5B680A99BA
:10B74800019898470A9B1B68002B03D1009B002295
:10B758001A6016E0009B0A9A1A6012E0039B5A6866
:10B76800019B1B0113441B68002B07D0039B5A68DD
:10B77800019B1B011A44009B1A6002E0009B0022F7
:10B788001A6009B05DF804FBC44405004C33050099
:10B798009C320500D079002000B585B00190019B4E
:10B7A8009B680393019B9B6814330293019B1B685E
:10B7B8001846FFF762FE0346DAB2029B9A71039BB2
:10B7C800DB7F1A46029B9B791344029A527993FBBA
:10B7D800F2F101FB02F29B1ADBB20133DAB2029BEF
:10B7E8001A70039BDB7F1A46029B9B791344029ACB
:10B7F800527993FBF2F3DBB20133DAB2029B9A700F
:10B80800039B9B7F1A46029B9B791344029A5279A9
:10B8180093FBF2F3DBB20133DAB2029BDA70039BDB
:10B828009B7F1A46029B9B791344029A527993FB99
:10B83800F2F101FB02F29B1ADBB20133DAB2029B8E
:10B848005A70029B184605B05DF804FB00B583B03A
:10B858000190019B002B04D10C494FF4EA7010F0C1
:10B86800ABFB019B1B69002B04D108494FF4EA701C
:10B8780010F0A2FB019B1B69054A0649184603F014
:10B8880047FF00BF03B05DF804FB00BFC4440500D8
:10B89800684B05001045050000B583B00190019B79
:10B8A800002B04D10C494FF4ED7010F085FB019B7F
:10B8B8001B69002B04D108494FF4ED7010F07CFB94
:10B8C800019B1B69054A0649184603F021FF00BF82
:10B8D80003B05DF804FB00BFC44405005C4B0500E1
:10B8E8001045050000B583B00190019B002B04D1E1
:10B8F8000C494FF4F07010F05FFB019B1B69002BA3
:10B9080004D108494FF4F07010F056FB019B1B69F5
:10B91800054A0649184603F0FBFE00BF03B05DF870
:10B9280004FB00BFC4440500604B0500104505003A
:10B9380000B583B00190019B1B690449184603F0C8
:10B94800E7FE00BF03B05DF804FB00BF1445050027
:10B9580000B583B001900B468DF803309DF8033095
:10B96800002B07D0019B1B699DF80320034918464B
:10B9780003F0CEFE00BF03B05DF804FB18450500D8
:10B9880000B583B001900B468DF803309DF8033065
:10B99800002B07D0019B1B699DF80320034918461B
:10B9A80003F0B6FE00BF03B05DF804FB20450500B8
:10B9B80000B583B001900B468DF803309DF8033035
:10B9C800002B07D0019B1B699DF8032003491846EB
:10B9D80003F09EFE00BF03B05DF804FB2845050098
:10B9E80000B583B001900B468DF803309DF8033005
:10B9F800002B07D0019B1B699DF8032003491846BB
:10BA080003F086FE00BF03B05DF804FB3045050077
:10BA180000B585B00190019B9B68DA7F019B9B680C
:10BA28009B7F9A4220D20198FFF7B6FE0390039BB2
:10BA38009B788DF80B30019B9B68DA7F0132D2B27C
:10BA4800DA770198FFF7A8FE0390039B9B789DF88F
:10BA58000B209A4204D101210198FFF791FF04E0DD
:10BA68000198FFF765FF00E000BF05B05DF804FB33
:10BA780000B585B001900198FFF78EFE0390039BF7
:10BA88009A78039BDB789A420CBF012300238DF838
:10BA98000B300198FFF713FD0346002B05D10198E1
:10BAA800FFF72BFD0346002B02D00198FFF740FF5C
:10BAB8009DF80B30002B0AD0039B5A78039B1B7808
:10BAC800D31ADBB219460198FFF742FF24E0039B23
