:020000040002F8
:1060000070790020196202002162020023620200FE
:1060100025620200276202002962020000000000DF
:106020000000000000000000000000002B620200E1
:106030002D620200000000002F62020031620200A7
:1060400033620200336202003362020033620200F4
:1060500033620200336202003362020033620200E4
:1060600033620200336202003362020033620200D4
:1060700033620200336202003362020033620200C4
:1060800033620200336202003362020033620200B4
:106090003362020033620200616202003362020076
:1060A0003362020033620200336202003362020094
:1060B00033620200336202000000000000000000B2
:1060C0003362020033620200336202003362020074
:1060D00033620200336202003362020000000000FB
:1060E00000000000000000000000000000000000B0
:1060F00000000000000000000000000000000000A0
:10610000000000000000000000000000000000008F
:10611000000000000000000000000000000000007F
:10612000000000000000000000000000000000006F
:10613000000000000000000000000000000000005F
:10614000000000000000000000000000000000004F
:10615000000000000000000000000000000000003F
:10616000000000000000000000000000000000002F
:10617000000000000000000000000000000000001F
:10618000000000000000000000000000000000000F
:1061900000000000000000000000000000000000FF
:1061A00000000000000000000000000000000000EF
:1061B00000000000000000000000000000000000DF
:1061C00000000000000000000000000000000000CF
:1061D00000000000000000000000000000000000BF
:1061E00000000000000000000000000000000000AF
:1061F000000000000000000000000000000000009F
:10620000DFF810D000F01AF8004800472D660200B1
:10621000AFF30080707900200648804706480047A9
:10622000FEE7FEE7FEE7FEE7FEE7FEE7FEE7FEE746
:10623000FEE7FEE76562020001620200064C074DC0
:1062400006E0E06840F0010394E807009847103446
:10625000AC42F6D3FFF7D8FFE467020004680200FF
:1062600000F018BAF0B5A449A4484FF080540B6868
:10627000D4F830210078D4F83411551CC0F3031041
:1062800006D0944601270026BCF1060F03D00AE091
:1062900003F0FF0CF6E7B4F82453DFF864C2C5F34B
:1062A0000425CCF80050DDB2062D06D1032804D118
:1062B000DFF854C2934DCCF87450551C04D094466A
:1062C000BCF1060F03D00AE003F0FF0CF8E7D4F8A6
:1062D0004452DFF838C2C5F34235CCF80050DDB285
:1062E000062D08D1032806D1894DD5F800C02CF021
:1062F000807CC5F800C0551C04D09446BCF1060F44
:1063000003D00BE003F0FF0CF8E74FF08045C5F831
:106310000C61C5F810617D4D2D1F2E60DDB2062D7C
:1063200008D1032806D1DFF8E4C103250CF1640C81
:10633000CCF80050DDB2062D10D103280ED1DFF8C5
:10634000D4C10525CCF80050724D78352F60714DC1
:1063500008352E600CF104063F253560551C04D02D
:1063600016460D46062E03D05BE0DEB20546F9E781
:10637000ED1E012D55D9684D2D68684E3560664D6E
:106380002D1D2D68361D3560634D08352D68361D71
:106390003560614D0C352D68361D35605E4D10350C
:1063A0002D68361D35605C4D14352D68361D356001
:1063B000594D18352D68594E20363560564D1C35CF
:1063C0002D68361D3560544D20352D68361D3560DD
:1063D000514D24352D68361D35604F4D28352D68BB
:1063E000361D35604C4D2C352D68361D35604A4DB7
:1063F00030352D68494E40363560474D34352D686F
:10640000361D3560444D38352D68361D3560424D9A
:106410003C352D68361D35603F4D40352D68361DA5
:106420003560551C03D01646062E02D007E0DEB2BA
:10643000FAE7D4F858523A4E05F04F053560551C2E
:1064400003D01346062B02D008E0DBB2FAE735484A
:106450000368DB0702D06FF001030360062A07D14F
:10646000C91E022904D93048016841F480610160E5
:1064700027487438016841F470010160BFF34F8F01
:10648000BFF36F8FD4E94C104FF01022062907D1CB
:10649000C01E032804D9D2F808021C491C31086028
:1064A000D2F80002002803DBD2F8040200281FDA29
:1064B000012000F047F91521C2F800121B480368BB
:1064C000002BFCD0C2F8041201680029FCD0002087
:1064D00000F038F9BFF34F8F0D48F0380168144AC7
:1064E00001F4E06111430160BFF34F8F00BFFDE78E
:1064F000114910480860F0BDE00F00F0E80F00F00F
:10650000403501400DF0ADBA00C007403C050040E9
:10651000FCED00E0105600400404001020C50040CF
:10652000E40E0040000400403C17004000E401403D
:106530000400FA050090D0036859002002E008C862
:10654000121F08C1002AFAD170477047002001E0ED
:1065500001C1121F002AFBD17047000072B6094822
:106560000068C00700D000BEBFF34F8F0548E43875
:106570000168054A01F4E06111430160BFF34F8FE8
:1065800000BFFDE7F0ED00E00400FA050EB50021C4
:106590000091CDE901106A4644F20100FFF7DEFFE9
:1065A0000EBD00002DE9FC410646C0074FF0000576
:1065B0000ED0104F00240122385D009500231146B3
:1065C000019500F049F8641C042CF4D300F024F881
:1065D000B0070DD5074E0024361D0022305D032381
:1065E00000951146019500F037F8641C042CF4D393
:1065F000BDE8FC81666702000249085C012100F0E9
:106600003DB80000666702000249085C002100F006
:1066100035B800006667020010B500242046FFF779
:10662000EBFF641C042CF9D310BD00000120FFF720
:10663000B9FF4FF47A76074DB7011120FFF7E4FF59
:106640003446691C38468847641EFAD11120FFF78A
:10665000D3FFF2E76067020070B541EA4201DDE96D
:1066600004564FF0A04441EA830141EA052104EBBE
:10667000800041EA0641C0F8001770BD01224FF0CA
:10668000A043824011B1C3F808257047C3F80C2518
:10669000704700000EB50749684600F02BF805E08A
:1066A000D0E900108847684600F03BF802980028BF
:1066B000F6D10EBD9C6702001FB568464BDF30B1B6
:1066C000052814D004B0BDE81040FFF75FBF0849AB
:1066D00001A800F00FF806E0D0E9002100989047EB
:1066E00001A800F01EF803980028E6D0F4E71FBDCB
:1066F000D8670200016009684160AFF3008010B5FF
:10670000D0E900215368994201D1002104E0D1E988
:106710000034A34202D01946816010BD08314160A7
:10672000F0E7816800290BD0026892680A44826011
:1067300041684B689A4203D108314160FFF7DFBFDF
:106740007047000003490860034801680029FCD035
:106750007047000004E5014000E401400000000033
:106760000338FDD87047111213140D0E0F100000DE
:106770000000000000000000000000000000000019
:106780000100000770670200806702000800000037
:10679000A8670200B867020008000000B86702009E
:1067A000C8670200080000000000000000000000B0
:1067B0000000000000000000046802000C680200F5
:1067C00000000000000000000000000000000000C9
:1067D0000000000000000000C8670200D867020047
:1067E000080000000C680200685900200400000046
:1067F0003C650200106802006C5900200420000073
:106800004C650200B9660200000000000090D00351
:040000050002620192
:00000001FF
